{
	"data": {
		"bytecode": {
			"linkReferences": {},
			"object": "610140604052600180546001600160a01b03191690553480156200002257600080fd5b506040516200415338038062004153833981016040819052620000459162000280565b82828130816001600160a01b03166080816001600160a01b031681525050816001600160a01b031663573ea5756040518163ffffffff1660e01b8152600401602060405180830381865afa158015620000a2573d6000803e3d6000fd5b505050506040513d601f19601f82011682018060405250810190620000c89190620002d4565b6001600160a01b0390811660c0526040516337b6269f60e21b8152908216600482015273c815db16d4be6ddf2685c201937905abf338f5d79063ded89a7c906024016040805180830381865afa15801562000127573d6000803e3d6000fd5b505050506040513d601f19601f820116820180604052508101906200014d9190620002fb565b506001600160a01b0390811660a05283811660e0526080516040805163e60a321360e01b8152905191909216935063e60a3213925060048083019260209291908290030181865afa158015620001a7573d6000803e3d6000fd5b505050506040513d601f19601f82011682018060405250810190620001cd9190620002d4565b6001600160a01b03166101005250620001e890503362000217565b6001600160a01b0390811661012052600280546001600160a01b0319169390911692909217909155506200033e565b600080546001600160a01b038381166001600160a01b0319831681178455604051919092169283917f8be0079c531659141344cd1fd0a4f28419497f9722a3daafe3b4186f6b6457e09190a35050565b6001600160a01b03811681146200027d57600080fd5b50565b6000806000606084860312156200029657600080fd5b8351620002a38162000267565b6020850151909350620002b68162000267565b6040850151909250620002c98162000267565b809150509250925092565b600060208284031215620002e757600080fd5b8151620002f48162000267565b9392505050565b600080604083850312156200030f57600080fd5b82516200031c8162000267565b602084015190925080151581146200033357600080fd5b809150509250929050565b60805160a05160c05160e0516101005161012051613da5620003ae600039600081816103b30152610e8c015260008181610516015281816113da01526114f80152600081816102b101528181611466015261152601526000505060006102560152600061015c0152613da56000f3fe608060405260043610620001435760003560e01c8063715018a611620000b9578063c31c9c071162000078578063c31c9c07146200039f578063c806441c14620003d5578063e3a8734714620003ec578063e60a32131462000502578063f2fde38b1462000538578063f6fe9c0c146200055d57600080fd5b8063715018a614620002f85780638da5cb5b14620003105780639597bb311462000330578063a839bd0d1462000355578063bfdc2d93146200037a57600080fd5b8063225ac7ee1162000106578063225ac7ee146200021b57806328f150eb14620002425780632b044b73146200027857806346ee3c59146200029d57806359fe5c0f14620002d357600080fd5b8063049aacfe146200014857806306c9c37d146200019b578063089fe6aa14620001a75780630c311c3014620001d457806318bae55714620001f6575b600080fd5b3480156200015557600080fd5b506200017e7f000000000000000000000000000000000000000000000000000000000000000081565b6040516001600160a01b0390911681526020015b60405180910390f35b620001a562000582565b005b348015620001b457600080fd5b50620001bf610bb881565b60405162ffffff909116815260200162000192565b348015620001e157600080fd5b506002546200017e906001600160a01b031681565b3480156200020357600080fd5b50620001a56200021536600462001b28565b620005a4565b3480156200022857600080fd5b506200023360035481565b60405190815260200162000192565b3480156200024f57600080fd5b506200017e7f000000000000000000000000000000000000000000000000000000000000000081565b3480156200028557600080fd5b50620001a56200029736600462001b58565b620008b3565b348015620002aa57600080fd5b506200017e7f000000000000000000000000000000000000000000000000000000000000000081565b348015620002e057600080fd5b50620001a5620002f236600462001b28565b620008c3565b3480156200030557600080fd5b50620001a5620009dc565b3480156200031d57600080fd5b506000546001600160a01b03166200017e565b3480156200033d57600080fd5b50620001a56200034f36600462001b8b565b620009f2565b3480156200036257600080fd5b50620001a56200037436600462001b28565b62000baf565b3480156200038757600080fd5b50620001a56200039936600462001b28565b62000d39565b348015620003ac57600080fd5b506200017e7f000000000000000000000000000000000000000000000000000000000000000081565b62000233620003e636600462001bba565b62000d7a565b348015620003f957600080fd5b50620004856200040b36600462001b28565b600460208190526000918252604090912080546001820154600283015460038401549484015460058501546006860154600787015460088801546009890154600a8a0154600b9a8b01546001600160a01b039a8b169c998b169b988b169a998a1699881698600160a01b90980490970b9660ff909216918d565b604080516001600160a01b039e8f1681529c8e1660208e01529a8d169a8c019a909a52978b1660608b0152999095166080890152600b9390930b60a088015260c087019190915260e08601526101008501526101208401529215156101408301526101608201929092526101808101919091526101a00162000192565b3480156200050f57600080fd5b506200017e7f000000000000000000000000000000000000000000000000000000000000000081565b3480156200054557600080fd5b50620001a56200055736600462001c22565b620011a6565b3480156200056a57600080fd5b50620001a56200057c36600462001c49565b62001225565b620005a23473eeeeeeeeeeeeeeeeeeeeeeeeeeeeeeeeeeeeeeee620013a5565b565b60008181526004602052604090205481906001600160a01b0316338114620005e95760405162461bcd60e51b8152600401620005e09062001c8f565b60405180910390fd5b60008381526004602081815260409283902083516101a08101855281546001600160a01b03908116825260018301548116938201939093526002820154831694810194909452600381015482166060850152918201549081166080840152600160a01b9004600b90810b60a0840152600582015460c0840152600682015460e084015260078201546101008401526008820154610120840152600982015460ff1615156101408401819052600a830154610160850152910154610180830152620006ea5760405162461bcd60e51b8152602060048201526011602482015270105b1c9958591e4810d85b98d95b1b1959607a1b6044820152606401620005e0565b8060c0015181610120015162000701919062001cb7565b42116200074b5760405162461bcd60e51b8152602060048201526017602482015276151a5b594814195c9a5bd9081b9bdd0818dc9bdcdcd959604a1b6044820152606401620005e0565b6000610140820152602081015161016082015160405163ee8ca3b560e01b81526001600160a01b039092169163ee8ca3b5916200078e9160040190815260200190565b600060405180830381600087803b158015620007a957600080fd5b505af1158015620007be573d6000803e3d6000fd5b5050505080602001516001600160a01b031663ee8ca3b58261018001516040518263ffffffff1660e01b8152600401620007fa91815260200190565b600060405180830381600087803b1580156200081557600080fd5b505af11580156200082a573d6000803e3d6000fd5b50505060608201518251602084015162000845935062001445565b60208101516060820151604051635f4fd9f160e11b81526001600160a01b03918216600482015291169063be9fb3e2906024015b600060405180830381600087803b1580156200089457600080fd5b505af1158015620008a9573d6000803e3d6000fd5b5050505050505050565b620008bf82826200145b565b5050565b60008181526004602052604090205481906001600160a01b0316338114620008ff5760405162461bcd60e51b8152600401620005e09062001c8f565b60008381526004602081815260409283902083516101a08101855281546001600160a01b0390811682526001830154811693820184905260028301548116828701526003830154811660608301819052838601549182166080840152600160a01b909104600b90810b60a0840152600584015460c0840152600684015460e084015260078401546101008401526008840154610120840152600984015460ff161515610140840152600a840154610160840152909201546101808201529351635f4fd9f160e11b8152928301529063be9fb3e29060240162000879565b620009e66200158b565b620005a26000620015e7565b6040516323b872dd60e01b81526001600160a01b038316906323b872dd9062000a249033903090869060040162001cde565b6020604051808303816000875af115801562000a44573d6000803e3d6000fd5b505050506040513d601f19601f8201168201806040525081019062000a6a919062001d02565b506040516308de640f60e11b8152600481018290526001600160a01b038316906311bcc81e90602401600060405180830381600087803b15801562000aae57600080fd5b505af115801562000ac3573d6000803e3d6000fd5b505050506000826001600160a01b031663ee719bc86040518163ffffffff1660e01b8152600401602060405180830381865afa15801562000b08573d6000803e3d6000fd5b505050506040513d601f19601f8201168201806040525081019062000b2e919062001d26565b6040516323b872dd60e01b81529091506001600160a01b038216906323b872dd9062000b639030903390879060040162001cde565b6020604051808303816000875af115801562000b83573d6000803e3d6000fd5b505050506040513d601f19601f8201168201806040525081019062000ba9919062001d02565b50505050565b60008181526004602081815260409283902083516101a08101855281546001600160a01b03908116825260018301548116938201939093526002820154831694810194909452600381015482166060850152918201549081166080840152600160a01b9004600b90810b60a0840152600582015460c0840152600682015460e084015260078201546101008401526008820154610120840152600982015460ff1615156101408401819052600a83015461016085015291015461018083015262000cb05760405162461bcd60e51b8152602060048201526011602482015270105b1c9958591e4810d85b98d95b1b1959607a1b6044820152606401620005e0565b8060c0015181610120015162000cc7919062001cb7565b421162000d115760405162461bcd60e51b8152602060048201526017602482015276151a5b594814195c9a5bd9081b9bdd0818dc9bdcdcd959604a1b6044820152606401620005e0565b6000610140820152602081015161016082015182516060840151620008bf9392919062001637565b60008181526004602052604090205481906001600160a01b031633811462000d755760405162461bcd60e51b8152600401620005e09062001c8f565b505050565b600060016003600082825462000d91919062001cb7565b9250508190555060035490506000866001600160a01b031663ee719bc86040518163ffffffff1660e01b8152600401602060405180830381865afa15801562000dde573d6000803e3d6000fd5b505050506040513d601f19601f8201168201806040525081019062000e04919062001d26565b604080516101a081018252338082526000602083018190526001600160a01b03808616848601528c811660608501528b81166080850152600b8b900b60a085015260c084018a905260e08401899052426101008501819052610120850152600161014085015261016084018290526101808401829052600254945195965092949093909216917f00000000000000000000000000000000000000000000000000000000000000009030908890879062000ebd9062001b1a565b62000ece9695949392919062001d46565b604051809103906000f08015801562000eeb573d6000803e3d6000fd5b506001600160a01b038116602084015290503462000f435760405162461bcd60e51b815260206004820152601460248201527353454e44204645455320464f522047454c41544f60601b6044820152606401620005e0565b806001600160a01b03166306c9c37d346040518263ffffffff1660e01b81526004016000604051808303818588803b15801562000f7f57600080fd5b505af115801562000f94573d6000803e3d6000fd5b505050505062000fa78933838a620016a0565b6040516326cbb5a560e21b8152600481018690526000906001600160a01b03831690639b2ed694906024016020604051808303816000875af115801562000ff2573d6000803e3d6000fd5b505050506040513d601f19601f8201168201806040525081019062001018919062001e5c565b61016084018190526040516301413de560e11b815260048101879052602481018990529091506000906001600160a01b038416906302827bca906044016020604051808303816000875af115801562001075573d6000803e3d6000fd5b505050506040513d601f19601f820116820180604052508101906200109b919062001e5c565b6101808501908152600087815260046020818152604092839020885181546001600160a01b039182166001600160a01b0319918216178355928a01516001830180549183169185169190911790559389015160028201805491861691841691909117905560608901516003820180549186169190931617909155608088015160a08901516bffffffffffffffffffffffff16600160a01b029316929092179082015560c0860151600582015560e086015160068201556101008601516007820155610120860151600882015561014086015160098201805491151560ff1990921691909117905561016090950151600a86015551600b90940193909355509298975050505050505050565b620011b06200158b565b6001600160a01b038116620012175760405162461bcd60e51b815260206004820152602660248201527f4f776e61626c653a206e6577206f776e657220697320746865207a65726f206160448201526564647265737360d01b6064820152608401620005e0565b6200122281620015e7565b50565b6040516323b872dd60e01b81526001600160a01b038416906323b872dd90620012579033903090869060040162001cde565b6020604051808303816000875af115801562001277573d6000803e3d6000fd5b505050506040513d601f19601f820116820180604052508101906200129d919062001d02565b5060405163095ea7b360e01b81526001600160a01b0383811660048301526024820183905284169063095ea7b3906044016020604051808303816000875af1158015620012ee573d6000803e3d6000fd5b505050506040513d601f19601f8201168201806040525081019062001314919062001d02565b506040516345977d0360e01b8152600481018290526001600160a01b038316906345977d0390602401600060405180830381600087803b1580156200135857600080fd5b505af11580156200136d573d6000803e3d6000fd5b505060405163a9059cbb60e01b8152336004820152602481018490526001600160a01b038516925063a9059cbb915060440162000b63565b60006001600160a01b03821673eeeeeeeeeeeeeeeeeeeeeeeeeeeeeeeeeeeeeeee14620013d4576000620013d6565b825b90507f00000000000000000000000000000000000000000000000000000000000000006001600160a01b031663c1461d57823085876040518563ffffffff1660e01b81526004016200142b9392919062001cde565b6000604051808303818588803b1580156200089457600080fd5b62000ba96001600160a01b0384168383620016be565b336001600160a01b037f00000000000000000000000000000000000000000000000000000000000000001614620014e15760405162461bcd60e51b815260206004820152602360248201527f4f6e6c792066756e6473206f776e65722063616e2077697468647261772066756044820152626e647360e81b6064820152608401620005e0565b604051631c20fadd60e01b81526001600160a01b037f00000000000000000000000000000000000000000000000000000000000000001690631c20fadd9062001553907f0000000000000000000000000000000000000000000000000000000000000000908590879060040162001cde565b600060405180830381600087803b1580156200156e57600080fd5b505af115801562001583573d6000803e3d6000fd5b505050505050565b6000546001600160a01b03163314620005a25760405162461bcd60e51b815260206004820181905260248201527f4f776e61626c653a2063616c6c6572206973206e6f7420746865206f776e65726044820152606401620005e0565b600080546001600160a01b038381166001600160a01b0319831681178455604051919092169283917f8be0079c531659141344cd1fd0a4f28419497f9722a3daafe3b4186f6b6457e09190a35050565b60405163ee8ca3b560e01b8152600481018490526001600160a01b0385169063ee8ca3b590602401600060405180830381600087803b1580156200167a57600080fd5b505af11580156200168f573d6000803e3d6000fd5b5050505062000ba981838662001445565b620016b76001600160a01b03851684848462001800565b5050505050565b6000806000620016ce8662001945565b91509150816001600160a01b03166339255d5b82836001600160a01b0316634c8b181f8a8a8a600067ffffffffffffffff81111562001711576200171162001e76565b6040519080825280601f01601f1916602001820160405280156200173c576020820181803683370190505b5060405160240162001752949392919062001ee9565b60408051601f19818403018152918152602080830180516001600160e01b031660e095861b179052815160008152908101918290529286901b6001600160e01b0319169052620017a9939250906024810162001f29565b6000604051808303816000875af1158015620017c9573d6000803e3d6000fd5b505050506040513d6000823e601f3d908101601f19168201604052620017f3919081019062001f63565b5060019695505050505050565b6000806000620018108762001945565b91509150816001600160a01b03166339255d5b82836001600160a01b03166394229ecb8b8b8b8b600067ffffffffffffffff81111562001854576200185462001e76565b6040519080825280601f01601f1916602001820160405280156200187f576020820181803683370190505b50604051602401620018969594939291906200201c565b60408051601f19818403018152918152602080830180516001600160e01b031660e095861b179052815160008152908101918290529286901b6001600160e01b0319169052620018ed939250906024810162001f29565b6000604051808303816000875af11580156200190d573d6000803e3d6000fd5b505050506040513d6000823e601f3d908101601f1916820160405262001937919081019062001f63565b506001979650505050505050565b7f65599bf746e17a00ea62e3610586992d88101b78eec3cf380706621fb97ea837547fb969d79d88acd02d04ed7ee7d43b949e7daf093d363abcfbbc43dfdfd1ce969a546001600160a01b03811662001ae3576001600160a01b03821662001a0f57826001600160a01b03166320bc44256040518163ffffffff1660e01b8152600401602060405180830381865afa158015620019e6573d6000803e3d6000fd5b505050506040513d601f19601f8201168201806040525081019062001a0c919062001d26565b91505b604051635b69006f60e11b81527fa9214cc96615e0085d3bb077758db69497dc2dce3b2b1e97bc93c3d18d83efd360048201526001600160a01b0383169063b6d200de90602401602060405180830381865afa15801562001a74573d6000803e3d6000fd5b505050506040513d601f19601f8201168201806040525081019062001a9a919062001d26565b9050817f65599bf746e17a00ea62e3610586992d88101b78eec3cf380706621fb97ea83755807fb969d79d88acd02d04ed7ee7d43b949e7daf093d363abcfbbc43dfdfd1ce969a555b6001600160a01b03821662001afc5762001afc6200205c565b6001600160a01b03811662001b155762001b156200205c565b915091565b611cfd806200207383390190565b60006020828403121562001b3b57600080fd5b5035919050565b6001600160a01b03811681146200122257600080fd5b6000806040838503121562001b6c57600080fd5b82359150602083013562001b808162001b42565b809150509250929050565b6000806040838503121562001b9f57600080fd5b823562001bac8162001b42565b946020939093013593505050565b600080600080600060a0868803121562001bd357600080fd5b853562001be08162001b42565b9450602086013562001bf28162001b42565b93506040860135600b81900b811462001c0a57600080fd5b94979396509394606081013594506080013592915050565b60006020828403121562001c3557600080fd5b813562001c428162001b42565b9392505050565b60008060006060848603121562001c5f57600080fd5b833562001c6c8162001b42565b9250602084013562001c7e8162001b42565b929592945050506040919091013590565b6020808252600e908201526d1393d5081055551213d49254d15160921b604082015260600190565b6000821982111562001cd957634e487b7160e01b600052601160045260246000fd5b500190565b6001600160a01b039384168152919092166020820152604081019190915260600190565b60006020828403121562001d1557600080fd5b8151801515811462001c4257600080fd5b60006020828403121562001d3957600080fd5b815162001c428162001b42565b6001600160a01b0387811682528681166020830152858116604083015284811660608301526080820184905282511660a0820152610240810160208301516001600160a01b03811660c08401525060408301516001600160a01b03811660e084015250606083015161010062001dc6818501836001600160a01b03169052565b6080850151915061012062001de5818601846001600160a01b03169052565b60a0860151925061014062001dfe81870185600b0b9052565b60c08701516101608781019190915260e088015161018080890191909152938801516101a0880152918701516101c087015286015115156101e086015285015161020085015290930151610220909201919091529695505050505050565b60006020828403121562001e6f57600080fd5b5051919050565b634e487b7160e01b600052604160045260246000fd5b60005b8381101562001ea957818101518382015260200162001e8f565b8381111562000ba95750506000910152565b6000815180845262001ed581602086016020860162001e8c565b601f01601f19169290920160200192915050565b6001600160a01b03858116825284811660208301528316604082015260806060820181905260009062001f1f9083018462001ebb565b9695505050505050565b6001600160a01b038416815260606020820181905260009062001f4f9083018562001ebb565b828103604084015262001f1f818562001ebb565b60006020828403121562001f7657600080fd5b815167ffffffffffffffff8082111562001f8f57600080fd5b818401915084601f83011262001fa457600080fd5b81518181111562001fb95762001fb962001e76565b604051601f8201601f19908116603f0116810190838211818310171562001fe45762001fe462001e76565b8160405282815287602084870101111562001ffe57600080fd5b6200201183602083016020880162001e8c565b979650505050505050565b6001600160a01b038681168252858116602083015284166040820152600b83900b606082015260a060808201819052600090620020119083018462001ebb565b634e487b7160e01b600052600160045260246000fdfe610140604052600180546001600160a01b03191690553480156200002257600080fd5b5060405162001cfd38038062001cfd83398101604081905262000045916200039c565b858581306200005433620002c5565b6001600160a01b03821660808190526040805163573ea57560e01b8152905163573ea575916004808201926020929091908290030181865afa1580156200009f573d6000803e3d6000fd5b505050506040513d601f19601f82011682018060405250810190620000c5919062000503565b6001600160a01b0390811660c0526040516337b6269f60e21b8152908216600482015273c815db16d4be6ddf2685c201937905abf338f5d79063ded89a7c906024016040805180830381865afa15801562000124573d6000803e3d6000fd5b505050506040513d601f19601f820116820180604052508101906200014a91906200052a565b506001600160a01b0390811660a05283811660e0526080516040805163e60a321360e01b8152905191909216935063e60a3213925060048083019260209291908290030181865afa158015620001a4573d6000803e3d6000fd5b505050506040513d601f19601f82011682018060405250810190620001ca919062000503565b6001600160a01b03908116610100908152968116610120908152600280549783166001600160a01b031998891617905560039590955583516004805491831691881691909117905560208401516005805491831691881691909117905560408401516006805491831691881691909117905560608401516007805491831691909716179095555050608081015160a08201516001600160601b0316600160a01b0293169290921760085560c082015160095560e0820151600a5591810151600b5590810151600c55610140810151600d805491151560ff19909216919091179055610160810151600e556101800151600f5550620005649050565b600080546001600160a01b038381166001600160a01b0319831681178455604051919092169283917f8be0079c531659141344cd1fd0a4f28419497f9722a3daafe3b4186f6b6457e09190a35050565b6001600160a01b03811681146200032b57600080fd5b50565b80516200033b8162000315565b919050565b6040516101a081016001600160401b03811182821017156200037257634e487b7160e01b600052604160045260246000fd5b60405290565b8051600b81900b81146200033b57600080fd5b805180151581146200033b57600080fd5b600080600080600080868803610240811215620003b857600080fd5b8751620003c58162000315565b6020890151909750620003d88162000315565b6040890151909650620003eb8162000315565b6060890151909550620003fe8162000315565b608089015190945092506101a0609f1982018113156200041d57600080fd5b6200042762000340565b91506200043760a08a016200032e565b82526200044760c08a016200032e565b60208301526200045a60e08a016200032e565b60408301526101006200046f818b016200032e565b606084015261012062000484818c016200032e565b608085015261014062000499818d0162000378565b60a0860152610160808d015160c0870152610180808e015160e0880152858e0151858801526101c08e015184880152620004d76101e08f016200038b565b838801526102008e0151828801526102208e015181880152505050505050809150509295509295509295565b6000602082840312156200051657600080fd5b8151620005238162000315565b9392505050565b600080604083850312156200053e57600080fd5b82516200054b8162000315565b91506200055b602084016200038b565b90509250929050565b60805160a05160c05160e0516101005161012051611714620005e96000396000818161043201528181611162015261122e01526000818161047c01528181610d140152610e4b01526000818161033f01528181610d840152610e1401526000505060006102d601526000818161017401528181610c2f01526110c601526117146000f3fe60806040526004361061012a5760003560e01c80636eaa31aa116100ab578063be9fb3e21161006f578063be9fb3e214610400578063c31c9c0714610420578063d6dc09f714610454578063e60a32131461046a578063ee8ca3b51461049e578063f2fde38b146104be57600080fd5b80636eaa31aa1461037757806370d05be014610397578063715018a6146103ad5780638da5cb5b146103c25780639b2ed694146103e057600080fd5b806328f150eb116100f257806328f150eb146102c45780632b044b73146102f8578063328e00f01461031857806346ee3c591461032d5780634ea573f11461036157600080fd5b806302827bca1461012f578063049aacfe1461016257806306c9c37d146101ae578063089fe6aa146101b85780631adc317f146101e2575b600080fd5b34801561013b57600080fd5b5061014f61014a3660046113e7565b6104de565b6040519081526020015b60405180910390f35b34801561016e57600080fd5b506101967f000000000000000000000000000000000000000000000000000000000000000081565b6040516001600160a01b039091168152602001610159565b6101b661075a565b005b3480156101c457600080fd5b506101ce610bb881565b60405162ffffff9091168152602001610159565b3480156101ee57600080fd5b50600454600554600654600754600854600954600a54600b8054600c54600d54600e54600f546102489c6001600160a01b039081169c81169b81169a81169990811698600160a01b90910490960b9694939260ff1691908d565b604080516001600160a01b039e8f1681529c8e1660208e01529a8d169a8c019a909a52978b1660608b0152999095166080890152600b9390930b60a088015260c087019190915260e08601526101008501526101208401529215156101408301526101608201929092526101808101919091526101a001610159565b3480156102d057600080fd5b506101967f000000000000000000000000000000000000000000000000000000000000000081565b34801561030457600080fd5b506101b661031336600461141e565b61077a565b34801561032457600080fd5b506101b6610788565b34801561033957600080fd5b506101967f000000000000000000000000000000000000000000000000000000000000000081565b34801561036d57600080fd5b5061014f60035481565b34801561038357600080fd5b50600254610196906001600160a01b031681565b3480156103a357600080fd5b5061014f60105481565b3480156103b957600080fd5b506101b6610824565b3480156103ce57600080fd5b506000546001600160a01b0316610196565b3480156103ec57600080fd5b5061014f6103fb36600461144e565b610836565b34801561040c57600080fd5b506101b661041b366004611467565b610a03565b34801561042c57600080fd5b506101967f000000000000000000000000000000000000000000000000000000000000000081565b34801561046057600080fd5b5061014f60115481565b34801561047657600080fd5b506101967f000000000000000000000000000000000000000000000000000000000000000081565b3480156104aa57600080fd5b506101b66104b936600461144e565b610b5c565b3480156104ca57600080fd5b506101b66104d9366004611467565b610b9c565b6002546000906001600160a01b031633146105145760405162461bcd60e51b815260040161050b9061148b565b60405180910390fd5b60408051600381830181815260c083019093526000928291606080840190803683370190505081526040805160038082526080820190925260209092019190816020015b6060815260200190600190039081610558575050905280518051919250600191600090610587576105876114b3565b602002602001019060048111156105a0576105a06114c9565b908160048111156105b3576105b36114c9565b81525050600281600001516001815181106105d0576105d06114b3565b602002602001019060048111156105e9576105e96114c9565b908160048111156105fc576105fc6114c9565b8152505060038160000151600281518110610619576106196114b3565b60200260200101906004811115610632576106326114c9565b90816004811115610645576106456114c9565b905250604080516001600160801b0342811660208301528516818301528151808203830181526060909101909152816020015160008151811061068a5761068a6114b3565b60200260200101819052506106aa60408051602081019091526000815290565b81602001516001815181106106c1576106c16114b3565b60200260200101819052506106e160408051602081019091526000815290565b81602001516002815181106106f8576106f86114b3565b6020908102919091018101919091526002546040805163a839bd0d60e01b93810193909352820186905261074d916001600160a01b03909116906060015b604051602081830303815290604052836000610c15565b600f819055949350505050565b6107783473eeeeeeeeeeeeeeeeeeeeeeeeeeeeeeeeeeeeeeee610cb6565b565b6107848282610d79565b5050565b600d5460ff166107c75760405162461bcd60e51b815260206004820152600a6024820152694e6f742041637469766560b01b604482015260640161050b565b600a54600b546107d791906114df565b421161081c5760405162461bcd60e51b8152602060048201526014602482015273119c995c481d1a5b59481b9bdd081c185cdcd95960621b604482015260640161050b565b610778610eac565b61082c611006565b6107786000611060565b6002546000906001600160a01b031633146108635760405162461bcd60e51b815260040161050b9061148b565b60408051600281830181815260a0830184526000938392906060840190803683370190505081526040805160028082526060820190925260209092019190816020015b60608152602001906001900390816108a65750509052805180519192506001916000906108d5576108d56114b3565b602002602001019060048111156108ee576108ee6114c9565b90816004811115610901576109016114c9565b815250506002816000015160018151811061091e5761091e6114b3565b60200260200101906004811115610937576109376114c9565b9081600481111561094a5761094a6114c9565b905250604080516001600160801b0342811660208301528516818301528151808203830181526060909101909152816020015160008151811061098f5761098f6114b3565b60200260200101819052506109af60408051602081019091526000815290565b81602001516001815181106109c6576109c66114b3565b602090810291909101810191909152604080513080841b63328e00f017831b938201939093526109f7929101610736565b600e8190559392505050565b6002546001600160a01b03163314610a2d5760405162461bcd60e51b815260040161050b9061148b565b600d5460ff1615610a6f5760405162461bcd60e51b815260206004820152600c60248201526b5354494c4c2041435449564560a01b604482015260640161050b565b6040516370a0823160e01b81523060048201526000906001600160a01b038316906370a0823190602401602060405180830381865afa158015610ab6573d6000803e3d6000fd5b505050506040513d601f19601f82011682018060405250810190610ada9190611505565b6004805460405163a9059cbb60e01b81526001600160a01b0391821692810192909252602482018390529192509083169063a9059cbb906044016020604051808303816000875af1158015610b33573d6000803e3d6000fd5b505050506040513d601f19601f82011682018060405250810190610b57919061151e565b505050565b6002546001600160a01b03163314610b865760405162461bcd60e51b815260040161050b9061148b565b610b8f816110b0565b50600d805460ff19169055565b610ba4611006565b6001600160a01b038116610c095760405162461bcd60e51b815260206004820152602660248201527f4f776e61626c653a206e6577206f776e657220697320746865207a65726f206160448201526564647265737360d01b606482015260840161050b565b610c1281611060565b50565b604051633323b46760e01b81526000906001600160a01b037f00000000000000000000000000000000000000000000000000000000000000001690633323b46790610c6a9088908890889088906004016115ed565b6020604051808303816000875af1158015610c89573d6000803e3d6000fd5b505050506040513d601f19601f82011682018060405250810190610cad9190611505565b95945050505050565b60006001600160a01b03821673eeeeeeeeeeeeeeeeeeeeeeeeeeeeeeeeeeeeeeee14610ce3576000610ce5565b825b60405163c1461d5760e01b81523060048201526001600160a01b038481166024830152604482018690529192507f00000000000000000000000000000000000000000000000000000000000000009091169063c1461d579083906064016000604051808303818588803b158015610d5b57600080fd5b505af1158015610d6f573d6000803e3d6000fd5b5050505050505050565b336001600160a01b037f00000000000000000000000000000000000000000000000000000000000000001614610dfd5760405162461bcd60e51b815260206004820152602360248201527f4f6e6c792066756e6473206f776e65722063616e2077697468647261772066756044820152626e647360e81b606482015260840161050b565b604051631c20fadd60e01b81526001600160a01b037f0000000000000000000000000000000000000000000000000000000000000000811660048301528281166024830152604482018490527f00000000000000000000000000000000000000000000000000000000000000001690631c20fadd906064015b600060405180830381600087803b158015610e9057600080fd5b505af1158015610ea4573d6000803e3d6000fd5b505050505050565b6007546040516370a0823160e01b81523060048201526001600160a01b039091169060009082906370a0823190602401602060405180830381865afa158015610ef9573d6000803e3d6000fd5b505050506040513d601f19601f82011682018060405250810190610f1d9190611505565b9050610f29828261112d565b6000826001600160a01b031663ee719bc86040518163ffffffff1660e01b8152600401602060405180830381865afa158015610f69573d6000803e3d6000fd5b505050506040513d601f19601f82011682018060405250810190610f8d91906116a5565b6006549091506001600160a01b03808316911614610fdd5760405162461bcd60e51b815260206004820152600d60248201526c24a72b20a624a2102a27a5a2a760991b604482015260640161050b565b600654600854600454611000926001600160a01b0390811692811691168561115a565b50505050565b6000546001600160a01b031633146107785760405162461bcd60e51b815260206004820181905260248201527f4f776e61626c653a2063616c6c6572206973206e6f7420746865206f776e6572604482015260640161050b565b600080546001600160a01b038381166001600160a01b0319831681178455604051919092169283917f8be0079c531659141344cd1fd0a4f28419497f9722a3daafe3b4186f6b6457e09190a35050565b60405163ee8ca3b560e01b8152600481018290527f00000000000000000000000000000000000000000000000000000000000000006001600160a01b03169063ee8ca3b590602401600060405180830381600087803b15801561111257600080fd5b505af1158015611126573d6000803e3d6000fd5b5050505050565b6040516308de640f60e11b8152600481018290526001600160a01b038316906311bcc81e90602401610e76565b6000611187857f0000000000000000000000000000000000000000000000000000000000000000846112b3565b60408051610100810182526001600160a01b03878116825286811660208301908152610bb883850190815287831660608501908152426080860190815260a08601898152600060c0880181815260e08901918252985163414bf38960e01b8152885188166004820152955187166024870152935162ffffff1660448601529151851660648501525160848401525160a4830152935160c48201529251811660e484015290917f00000000000000000000000000000000000000000000000000000000000000009091169063414bf38990610104016020604051808303816000875af115801561127a573d6000803e3d6000fd5b505050506040513d601f19601f8201168201806040525081019061129e9190611505565b91506112aa83836113ac565b50949350505050565b604080516001600160a01b038481166024830152604480830185905283518084039091018152606490920183526020820180516001600160e01b031663095ea7b360e01b179052915160009283929087169161130f91906116c2565b6000604051808303816000865af19150503d806000811461134c576040519150601f19603f3d011682016040523d82523d6000602084013e611351565b606091505b509150915081801561137b57508051158061137b57508080602001905181019061137b919061151e565b6111265760405162461bcd60e51b8152602060048201526002602482015261534160f01b604482015260640161050b565b42600b55601080548391906000906113c59084906114df565b9250508190555080601160008282546113de91906114df565b90915550505050565b600080604083850312156113fa57600080fd5b50508035926020909101359150565b6001600160a01b0381168114610c1257600080fd5b6000806040838503121561143157600080fd5b82359150602083013561144381611409565b809150509250929050565b60006020828403121561146057600080fd5b5035919050565b60006020828403121561147957600080fd5b813561148481611409565b9392505050565b6020808252600e908201526d1393d5081055551213d49254d15160921b604082015260600190565b634e487b7160e01b600052603260045260246000fd5b634e487b7160e01b600052602160045260246000fd5b6000821982111561150057634e487b7160e01b600052601160045260246000fd5b500190565b60006020828403121561151757600080fd5b5051919050565b60006020828403121561153057600080fd5b8151801515811461148457600080fd5b60005b8381101561155b578181015183820152602001611543565b838111156110005750506000910152565b60008151808452611584816020860160208601611540565b601f01601f19169290920160200192915050565b600081518084526020808501808196508360051b8101915082860160005b858110156115e05782840389526115ce84835161156c565b988501989350908401906001016115b6565b5091979650505050505050565b6001600160a01b0385168152608060208083018290526000916116129084018761156c565b838103604080860191909152865181835280519183018290528301906000906060840190825b818110156116705784516005811061165e57634e487b7160e01b85526021600452602485fd5b83529386019391860191600101611638565b5050848901519250838103858501526116898184611598565b95505050505050610cad60608301846001600160a01b03169052565b6000602082840312156116b757600080fd5b815161148481611409565b600082516116d4818460208701611540565b919091019291505056fea264697066735822122094567292f97eeb62b04a3439049599952be17f232bf21f0c393f506ba7224d7064736f6c634300080e0033a2646970667358221220cdff28a0e4c6bd4da4d7ec9f8618f58b4b20a876b9efc62bd2666a62c815989364736f6c634300080e0033",
			"opcodes": "PUSH2 0x140 PUSH1 0x40 MSTORE PUSH1 0x1 DUP1 SLOAD PUSH1 0x1 PUSH1 0x1 PUSH1 0xA0 SHL SUB NOT AND SWAP1 SSTORE CALLVALUE DUP1 ISZERO PUSH3 0x22 JUMPI PUSH1 0x0 DUP1 REVERT JUMPDEST POP PUSH1 0x40 MLOAD PUSH3 0x4153 CODESIZE SUB DUP1 PUSH3 0x4153 DUP4 CODECOPY DUP2 ADD PUSH1 0x40 DUP2 SWAP1 MSTORE PUSH3 0x45 SWAP2 PUSH3 0x280 JUMP JUMPDEST DUP3 DUP3 DUP2 ADDRESS DUP2 PUSH1 0x1 PUSH1 0x1 PUSH1 0xA0 SHL SUB AND PUSH1 0x80 DUP2 PUSH1 0x1 PUSH1 0x1 PUSH1 0xA0 SHL SUB AND DUP2 MSTORE POP POP DUP2 PUSH1 0x1 PUSH1 0x1 PUSH1 0xA0 SHL SUB AND PUSH4 0x573EA575 PUSH1 0x40 MLOAD DUP2 PUSH4 0xFFFFFFFF AND PUSH1 0xE0 SHL DUP2 MSTORE PUSH1 0x4 ADD PUSH1 0x20 PUSH1 0x40 MLOAD DUP1 DUP4 SUB DUP2 DUP7 GAS STATICCALL ISZERO DUP1 ISZERO PUSH3 0xA2 JUMPI RETURNDATASIZE PUSH1 0x0 DUP1 RETURNDATACOPY RETURNDATASIZE PUSH1 0x0 REVERT JUMPDEST POP POP POP POP PUSH1 0x40 MLOAD RETURNDATASIZE PUSH1 0x1F NOT PUSH1 0x1F DUP3 ADD AND DUP3 ADD DUP1 PUSH1 0x40 MSTORE POP DUP2 ADD SWAP1 PUSH3 0xC8 SWAP2 SWAP1 PUSH3 0x2D4 JUMP JUMPDEST PUSH1 0x1 PUSH1 0x1 PUSH1 0xA0 SHL SUB SWAP1 DUP2 AND PUSH1 0xC0 MSTORE PUSH1 0x40 MLOAD PUSH4 0x37B6269F PUSH1 0xE2 SHL DUP2 MSTORE SWAP1 DUP3 AND PUSH1 0x4 DUP3 ADD MSTORE PUSH20 0xC815DB16D4BE6DDF2685C201937905ABF338F5D7 SWAP1 PUSH4 0xDED89A7C SWAP1 PUSH1 0x24 ADD PUSH1 0x40 DUP1 MLOAD DUP1 DUP4 SUB DUP2 DUP7 GAS STATICCALL ISZERO DUP1 ISZERO PUSH3 0x127 JUMPI RETURNDATASIZE PUSH1 0x0 DUP1 RETURNDATACOPY RETURNDATASIZE PUSH1 0x0 REVERT JUMPDEST POP POP POP POP PUSH1 0x40 MLOAD RETURNDATASIZE PUSH1 0x1F NOT PUSH1 0x1F DUP3 ADD AND DUP3 ADD DUP1 PUSH1 0x40 MSTORE POP DUP2 ADD SWAP1 PUSH3 0x14D SWAP2 SWAP1 PUSH3 0x2FB JUMP JUMPDEST POP PUSH1 0x1 PUSH1 0x1 PUSH1 0xA0 SHL SUB SWAP1 DUP2 AND PUSH1 0xA0 MSTORE DUP4 DUP2 AND PUSH1 0xE0 MSTORE PUSH1 0x80 MLOAD PUSH1 0x40 DUP1 MLOAD PUSH4 0xE60A3213 PUSH1 0xE0 SHL DUP2 MSTORE SWAP1 MLOAD SWAP2 SWAP1 SWAP3 AND SWAP4 POP PUSH4 0xE60A3213 SWAP3 POP PUSH1 0x4 DUP1 DUP4 ADD SWAP3 PUSH1 0x20 SWAP3 SWAP2 SWAP1 DUP3 SWAP1 SUB ADD DUP2 DUP7 GAS STATICCALL ISZERO DUP1 ISZERO PUSH3 0x1A7 JUMPI RETURNDATASIZE PUSH1 0x0 DUP1 RETURNDATACOPY RETURNDATASIZE PUSH1 0x0 REVERT JUMPDEST POP POP POP POP PUSH1 0x40 MLOAD RETURNDATASIZE PUSH1 0x1F NOT PUSH1 0x1F DUP3 ADD AND DUP3 ADD DUP1 PUSH1 0x40 MSTORE POP DUP2 ADD SWAP1 PUSH3 0x1CD SWAP2 SWAP1 PUSH3 0x2D4 JUMP JUMPDEST PUSH1 0x1 PUSH1 0x1 PUSH1 0xA0 SHL SUB AND PUSH2 0x100 MSTORE POP PUSH3 0x1E8 SWAP1 POP CALLER PUSH3 0x217 JUMP JUMPDEST PUSH1 0x1 PUSH1 0x1 PUSH1 0xA0 SHL SUB SWAP1 DUP2 AND PUSH2 0x120 MSTORE PUSH1 0x2 DUP1 SLOAD PUSH1 0x1 PUSH1 0x1 PUSH1 0xA0 SHL SUB NOT AND SWAP4 SWAP1 SWAP2 AND SWAP3 SWAP1 SWAP3 OR SWAP1 SWAP2 SSTORE POP PUSH3 0x33E JUMP JUMPDEST PUSH1 0x0 DUP1 SLOAD PUSH1 0x1 PUSH1 0x1 PUSH1 0xA0 SHL SUB DUP4 DUP2 AND PUSH1 0x1 PUSH1 0x1 PUSH1 0xA0 SHL SUB NOT DUP4 AND DUP2 OR DUP5 SSTORE PUSH1 0x40 MLOAD SWAP2 SWAP1 SWAP3 AND SWAP3 DUP4 SWAP2 PUSH32 0x8BE0079C531659141344CD1FD0A4F28419497F9722A3DAAFE3B4186F6B6457E0 SWAP2 SWAP1 LOG3 POP POP JUMP JUMPDEST PUSH1 0x1 PUSH1 0x1 PUSH1 0xA0 SHL SUB DUP2 AND DUP2 EQ PUSH3 0x27D JUMPI PUSH1 0x0 DUP1 REVERT JUMPDEST POP JUMP JUMPDEST PUSH1 0x0 DUP1 PUSH1 0x0 PUSH1 0x60 DUP5 DUP7 SUB SLT ISZERO PUSH3 0x296 JUMPI PUSH1 0x0 DUP1 REVERT JUMPDEST DUP4 MLOAD PUSH3 0x2A3 DUP2 PUSH3 0x267 JUMP JUMPDEST PUSH1 0x20 DUP6 ADD MLOAD SWAP1 SWAP4 POP PUSH3 0x2B6 DUP2 PUSH3 0x267 JUMP JUMPDEST PUSH1 0x40 DUP6 ADD MLOAD SWAP1 SWAP3 POP PUSH3 0x2C9 DUP2 PUSH3 0x267 JUMP JUMPDEST DUP1 SWAP2 POP POP SWAP3 POP SWAP3 POP SWAP3 JUMP JUMPDEST PUSH1 0x0 PUSH1 0x20 DUP3 DUP5 SUB SLT ISZERO PUSH3 0x2E7 JUMPI PUSH1 0x0 DUP1 REVERT JUMPDEST DUP2 MLOAD PUSH3 0x2F4 DUP2 PUSH3 0x267 JUMP JUMPDEST SWAP4 SWAP3 POP POP POP JUMP JUMPDEST PUSH1 0x0 DUP1 PUSH1 0x40 DUP4 DUP6 SUB SLT ISZERO PUSH3 0x30F JUMPI PUSH1 0x0 DUP1 REVERT JUMPDEST DUP3 MLOAD PUSH3 0x31C DUP2 PUSH3 0x267 JUMP JUMPDEST PUSH1 0x20 DUP5 ADD MLOAD SWAP1 SWAP3 POP DUP1 ISZERO ISZERO DUP2 EQ PUSH3 0x333 JUMPI PUSH1 0x0 DUP1 REVERT JUMPDEST DUP1 SWAP2 POP POP SWAP3 POP SWAP3 SWAP1 POP JUMP JUMPDEST PUSH1 0x80 MLOAD PUSH1 0xA0 MLOAD PUSH1 0xC0 MLOAD PUSH1 0xE0 MLOAD PUSH2 0x100 MLOAD PUSH2 0x120 MLOAD PUSH2 0x3DA5 PUSH3 0x3AE PUSH1 0x0 CODECOPY PUSH1 0x0 DUP2 DUP2 PUSH2 0x3B3 ADD MSTORE PUSH2 0xE8C ADD MSTORE PUSH1 0x0 DUP2 DUP2 PUSH2 0x516 ADD MSTORE DUP2 DUP2 PUSH2 0x13DA ADD MSTORE PUSH2 0x14F8 ADD MSTORE PUSH1 0x0 DUP2 DUP2 PUSH2 0x2B1 ADD MSTORE DUP2 DUP2 PUSH2 0x1466 ADD MSTORE PUSH2 0x1526 ADD MSTORE PUSH1 0x0 POP POP PUSH1 0x0 PUSH2 0x256 ADD MSTORE PUSH1 0x0 PUSH2 0x15C ADD MSTORE PUSH2 0x3DA5 PUSH1 0x0 RETURN INVALID PUSH1 0x80 PUSH1 0x40 MSTORE PUSH1 0x4 CALLDATASIZE LT PUSH3 0x143 JUMPI PUSH1 0x0 CALLDATALOAD PUSH1 0xE0 SHR DUP1 PUSH4 0x715018A6 GT PUSH3 0xB9 JUMPI DUP1 PUSH4 0xC31C9C07 GT PUSH3 0x78 JUMPI DUP1 PUSH4 0xC31C9C07 EQ PUSH3 0x39F JUMPI DUP1 PUSH4 0xC806441C EQ PUSH3 0x3D5 JUMPI DUP1 PUSH4 0xE3A87347 EQ PUSH3 0x3EC JUMPI DUP1 PUSH4 0xE60A3213 EQ PUSH3 0x502 JUMPI DUP1 PUSH4 0xF2FDE38B EQ PUSH3 0x538 JUMPI DUP1 PUSH4 0xF6FE9C0C EQ PUSH3 0x55D JUMPI PUSH1 0x0 DUP1 REVERT JUMPDEST DUP1 PUSH4 0x715018A6 EQ PUSH3 0x2F8 JUMPI DUP1 PUSH4 0x8DA5CB5B EQ PUSH3 0x310 JUMPI DUP1 PUSH4 0x9597BB31 EQ PUSH3 0x330 JUMPI DUP1 PUSH4 0xA839BD0D EQ PUSH3 0x355 JUMPI DUP1 PUSH4 0xBFDC2D93 EQ PUSH3 0x37A JUMPI PUSH1 0x0 DUP1 REVERT JUMPDEST DUP1 PUSH4 0x225AC7EE GT PUSH3 0x106 JUMPI DUP1 PUSH4 0x225AC7EE EQ PUSH3 0x21B JUMPI DUP1 PUSH4 0x28F150EB EQ PUSH3 0x242 JUMPI DUP1 PUSH4 0x2B044B73 EQ PUSH3 0x278 JUMPI DUP1 PUSH4 0x46EE3C59 EQ PUSH3 0x29D JUMPI DUP1 PUSH4 0x59FE5C0F EQ PUSH3 0x2D3 JUMPI PUSH1 0x0 DUP1 REVERT JUMPDEST DUP1 PUSH4 0x49AACFE EQ PUSH3 0x148 JUMPI DUP1 PUSH4 0x6C9C37D EQ PUSH3 0x19B JUMPI DUP1 PUSH4 0x89FE6AA EQ PUSH3 0x1A7 JUMPI DUP1 PUSH4 0xC311C30 EQ PUSH3 0x1D4 JUMPI DUP1 PUSH4 0x18BAE557 EQ PUSH3 0x1F6 JUMPI JUMPDEST PUSH1 0x0 DUP1 REVERT JUMPDEST CALLVALUE DUP1 ISZERO PUSH3 0x155 JUMPI PUSH1 0x0 DUP1 REVERT JUMPDEST POP PUSH3 0x17E PUSH32 0x0 DUP2 JUMP JUMPDEST PUSH1 0x40 MLOAD PUSH1 0x1 PUSH1 0x1 PUSH1 0xA0 SHL SUB SWAP1 SWAP2 AND DUP2 MSTORE PUSH1 0x20 ADD JUMPDEST PUSH1 0x40 MLOAD DUP1 SWAP2 SUB SWAP1 RETURN JUMPDEST PUSH3 0x1A5 PUSH3 0x582 JUMP JUMPDEST STOP JUMPDEST CALLVALUE DUP1 ISZERO PUSH3 0x1B4 JUMPI PUSH1 0x0 DUP1 REVERT JUMPDEST POP PUSH3 0x1BF PUSH2 0xBB8 DUP2 JUMP JUMPDEST PUSH1 0x40 MLOAD PUSH3 0xFFFFFF SWAP1 SWAP2 AND DUP2 MSTORE PUSH1 0x20 ADD PUSH3 0x192 JUMP JUMPDEST CALLVALUE DUP1 ISZERO PUSH3 0x1E1 JUMPI PUSH1 0x0 DUP1 REVERT JUMPDEST POP PUSH1 0x2 SLOAD PUSH3 0x17E SWAP1 PUSH1 0x1 PUSH1 0x1 PUSH1 0xA0 SHL SUB AND DUP2 JUMP JUMPDEST CALLVALUE DUP1 ISZERO PUSH3 0x203 JUMPI PUSH1 0x0 DUP1 REVERT JUMPDEST POP PUSH3 0x1A5 PUSH3 0x215 CALLDATASIZE PUSH1 0x4 PUSH3 0x1B28 JUMP JUMPDEST PUSH3 0x5A4 JUMP JUMPDEST CALLVALUE DUP1 ISZERO PUSH3 0x228 JUMPI PUSH1 0x0 DUP1 REVERT JUMPDEST POP PUSH3 0x233 PUSH1 0x3 SLOAD DUP2 JUMP JUMPDEST PUSH1 0x40 MLOAD SWAP1 DUP2 MSTORE PUSH1 0x20 ADD PUSH3 0x192 JUMP JUMPDEST CALLVALUE DUP1 ISZERO PUSH3 0x24F JUMPI PUSH1 0x0 DUP1 REVERT JUMPDEST POP PUSH3 0x17E PUSH32 0x0 DUP2 JUMP JUMPDEST CALLVALUE DUP1 ISZERO PUSH3 0x285 JUMPI PUSH1 0x0 DUP1 REVERT JUMPDEST POP PUSH3 0x1A5 PUSH3 0x297 CALLDATASIZE PUSH1 0x4 PUSH3 0x1B58 JUMP JUMPDEST PUSH3 0x8B3 JUMP JUMPDEST CALLVALUE DUP1 ISZERO PUSH3 0x2AA JUMPI PUSH1 0x0 DUP1 REVERT JUMPDEST POP PUSH3 0x17E PUSH32 0x0 DUP2 JUMP JUMPDEST CALLVALUE DUP1 ISZERO PUSH3 0x2E0 JUMPI PUSH1 0x0 DUP1 REVERT JUMPDEST POP PUSH3 0x1A5 PUSH3 0x2F2 CALLDATASIZE PUSH1 0x4 PUSH3 0x1B28 JUMP JUMPDEST PUSH3 0x8C3 JUMP JUMPDEST CALLVALUE DUP1 ISZERO PUSH3 0x305 JUMPI PUSH1 0x0 DUP1 REVERT JUMPDEST POP PUSH3 0x1A5 PUSH3 0x9DC JUMP JUMPDEST CALLVALUE DUP1 ISZERO PUSH3 0x31D JUMPI PUSH1 0x0 DUP1 REVERT JUMPDEST POP PUSH1 0x0 SLOAD PUSH1 0x1 PUSH1 0x1 PUSH1 0xA0 SHL SUB AND PUSH3 0x17E JUMP JUMPDEST CALLVALUE DUP1 ISZERO PUSH3 0x33D JUMPI PUSH1 0x0 DUP1 REVERT JUMPDEST POP PUSH3 0x1A5 PUSH3 0x34F CALLDATASIZE PUSH1 0x4 PUSH3 0x1B8B JUMP JUMPDEST PUSH3 0x9F2 JUMP JUMPDEST CALLVALUE DUP1 ISZERO PUSH3 0x362 JUMPI PUSH1 0x0 DUP1 REVERT JUMPDEST POP PUSH3 0x1A5 PUSH3 0x374 CALLDATASIZE PUSH1 0x4 PUSH3 0x1B28 JUMP JUMPDEST PUSH3 0xBAF JUMP JUMPDEST CALLVALUE DUP1 ISZERO PUSH3 0x387 JUMPI PUSH1 0x0 DUP1 REVERT JUMPDEST POP PUSH3 0x1A5 PUSH3 0x399 CALLDATASIZE PUSH1 0x4 PUSH3 0x1B28 JUMP JUMPDEST PUSH3 0xD39 JUMP JUMPDEST CALLVALUE DUP1 ISZERO PUSH3 0x3AC JUMPI PUSH1 0x0 DUP1 REVERT JUMPDEST POP PUSH3 0x17E PUSH32 0x0 DUP2 JUMP JUMPDEST PUSH3 0x233 PUSH3 0x3E6 CALLDATASIZE PUSH1 0x4 PUSH3 0x1BBA JUMP JUMPDEST PUSH3 0xD7A JUMP JUMPDEST CALLVALUE DUP1 ISZERO PUSH3 0x3F9 JUMPI PUSH1 0x0 DUP1 REVERT JUMPDEST POP PUSH3 0x485 PUSH3 0x40B CALLDATASIZE PUSH1 0x4 PUSH3 0x1B28 JUMP JUMPDEST PUSH1 0x4 PUSH1 0x20 DUP2 SWAP1 MSTORE PUSH1 0x0 SWAP2 DUP3 MSTORE PUSH1 0x40 SWAP1 SWAP2 KECCAK256 DUP1 SLOAD PUSH1 0x1 DUP3 ADD SLOAD PUSH1 0x2 DUP4 ADD SLOAD PUSH1 0x3 DUP5 ADD SLOAD SWAP5 DUP5 ADD SLOAD PUSH1 0x5 DUP6 ADD SLOAD PUSH1 0x6 DUP7 ADD SLOAD PUSH1 0x7 DUP8 ADD SLOAD PUSH1 0x8 DUP9 ADD SLOAD PUSH1 0x9 DUP10 ADD SLOAD PUSH1 0xA DUP11 ADD SLOAD PUSH1 0xB SWAP11 DUP12 ADD SLOAD PUSH1 0x1 PUSH1 0x1 PUSH1 0xA0 SHL SUB SWAP11 DUP12 AND SWAP13 SWAP10 DUP12 AND SWAP12 SWAP9 DUP12 AND SWAP11 SWAP10 DUP11 AND SWAP10 DUP9 AND SWAP9 PUSH1 0x1 PUSH1 0xA0 SHL SWAP1 SWAP9 DIV SWAP1 SWAP8 SIGNEXTEND SWAP7 PUSH1 0xFF SWAP1 SWAP3 AND SWAP2 DUP14 JUMP JUMPDEST PUSH1 0x40 DUP1 MLOAD PUSH1 0x1 PUSH1 0x1 PUSH1 0xA0 SHL SUB SWAP15 DUP16 AND DUP2 MSTORE SWAP13 DUP15 AND PUSH1 0x20 DUP15 ADD MSTORE SWAP11 DUP14 AND SWAP11 DUP13 ADD SWAP11 SWAP1 SWAP11 MSTORE SWAP8 DUP12 AND PUSH1 0x60 DUP12 ADD MSTORE SWAP10 SWAP1 SWAP6 AND PUSH1 0x80 DUP10 ADD MSTORE PUSH1 0xB SWAP4 SWAP1 SWAP4 SIGNEXTEND PUSH1 0xA0 DUP9 ADD MSTORE PUSH1 0xC0 DUP8 ADD SWAP2 SWAP1 SWAP2 MSTORE PUSH1 0xE0 DUP7 ADD MSTORE PUSH2 0x100 DUP6 ADD MSTORE PUSH2 0x120 DUP5 ADD MSTORE SWAP3 ISZERO ISZERO PUSH2 0x140 DUP4 ADD MSTORE PUSH2 0x160 DUP3 ADD SWAP3 SWAP1 SWAP3 MSTORE PUSH2 0x180 DUP2 ADD SWAP2 SWAP1 SWAP2 MSTORE PUSH2 0x1A0 ADD PUSH3 0x192 JUMP JUMPDEST CALLVALUE DUP1 ISZERO PUSH3 0x50F JUMPI PUSH1 0x0 DUP1 REVERT JUMPDEST POP PUSH3 0x17E PUSH32 0x0 DUP2 JUMP JUMPDEST CALLVALUE DUP1 ISZERO PUSH3 0x545 JUMPI PUSH1 0x0 DUP1 REVERT JUMPDEST POP PUSH3 0x1A5 PUSH3 0x557 CALLDATASIZE PUSH1 0x4 PUSH3 0x1C22 JUMP JUMPDEST PUSH3 0x11A6 JUMP JUMPDEST CALLVALUE DUP1 ISZERO PUSH3 0x56A JUMPI PUSH1 0x0 DUP1 REVERT JUMPDEST POP PUSH3 0x1A5 PUSH3 0x57C CALLDATASIZE PUSH1 0x4 PUSH3 0x1C49 JUMP JUMPDEST PUSH3 0x1225 JUMP JUMPDEST PUSH3 0x5A2 CALLVALUE PUSH20 0xEEEEEEEEEEEEEEEEEEEEEEEEEEEEEEEEEEEEEEEE PUSH3 0x13A5 JUMP JUMPDEST JUMP JUMPDEST PUSH1 0x0 DUP2 DUP2 MSTORE PUSH1 0x4 PUSH1 0x20 MSTORE PUSH1 0x40 SWAP1 KECCAK256 SLOAD DUP2 SWAP1 PUSH1 0x1 PUSH1 0x1 PUSH1 0xA0 SHL SUB AND CALLER DUP2 EQ PUSH3 0x5E9 JUMPI PUSH1 0x40 MLOAD PUSH3 0x461BCD PUSH1 0xE5 SHL DUP2 MSTORE PUSH1 0x4 ADD PUSH3 0x5E0 SWAP1 PUSH3 0x1C8F JUMP JUMPDEST PUSH1 0x40 MLOAD DUP1 SWAP2 SUB SWAP1 REVERT JUMPDEST PUSH1 0x0 DUP4 DUP2 MSTORE PUSH1 0x4 PUSH1 0x20 DUP2 DUP2 MSTORE PUSH1 0x40 SWAP3 DUP4 SWAP1 KECCAK256 DUP4 MLOAD PUSH2 0x1A0 DUP2 ADD DUP6 MSTORE DUP2 SLOAD PUSH1 0x1 PUSH1 0x1 PUSH1 0xA0 SHL SUB SWAP1 DUP2 AND DUP3 MSTORE PUSH1 0x1 DUP4 ADD SLOAD DUP2 AND SWAP4 DUP3 ADD SWAP4 SWAP1 SWAP4 MSTORE PUSH1 0x2 DUP3 ADD SLOAD DUP4 AND SWAP5 DUP2 ADD SWAP5 SWAP1 SWAP5 MSTORE PUSH1 0x3 DUP2 ADD SLOAD DUP3 AND PUSH1 0x60 DUP6 ADD MSTORE SWAP2 DUP3 ADD SLOAD SWAP1 DUP2 AND PUSH1 0x80 DUP5 ADD MSTORE PUSH1 0x1 PUSH1 0xA0 SHL SWAP1 DIV PUSH1 0xB SWAP1 DUP2 SIGNEXTEND PUSH1 0xA0 DUP5 ADD MSTORE PUSH1 0x5 DUP3 ADD SLOAD PUSH1 0xC0 DUP5 ADD MSTORE PUSH1 0x6 DUP3 ADD SLOAD PUSH1 0xE0 DUP5 ADD MSTORE PUSH1 0x7 DUP3 ADD SLOAD PUSH2 0x100 DUP5 ADD MSTORE PUSH1 0x8 DUP3 ADD SLOAD PUSH2 0x120 DUP5 ADD MSTORE PUSH1 0x9 DUP3 ADD SLOAD PUSH1 0xFF AND ISZERO ISZERO PUSH2 0x140 DUP5 ADD DUP2 SWAP1 MSTORE PUSH1 0xA DUP4 ADD SLOAD PUSH2 0x160 DUP6 ADD MSTORE SWAP2 ADD SLOAD PUSH2 0x180 DUP4 ADD MSTORE PUSH3 0x6EA JUMPI PUSH1 0x40 MLOAD PUSH3 0x461BCD PUSH1 0xE5 SHL DUP2 MSTORE PUSH1 0x20 PUSH1 0x4 DUP3 ADD MSTORE PUSH1 0x11 PUSH1 0x24 DUP3 ADD MSTORE PUSH17 0x105B1C9958591E4810D85B98D95B1B1959 PUSH1 0x7A SHL PUSH1 0x44 DUP3 ADD MSTORE PUSH1 0x64 ADD PUSH3 0x5E0 JUMP JUMPDEST DUP1 PUSH1 0xC0 ADD MLOAD DUP2 PUSH2 0x120 ADD MLOAD PUSH3 0x701 SWAP2 SWAP1 PUSH3 0x1CB7 JUMP JUMPDEST TIMESTAMP GT PUSH3 0x74B JUMPI PUSH1 0x40 MLOAD PUSH3 0x461BCD PUSH1 0xE5 SHL DUP2 MSTORE PUSH1 0x20 PUSH1 0x4 DUP3 ADD MSTORE PUSH1 0x17 PUSH1 0x24 DUP3 ADD MSTORE PUSH23 0x151A5B594814195C9A5BD9081B9BDD0818DC9BDCDCD959 PUSH1 0x4A SHL PUSH1 0x44 DUP3 ADD MSTORE PUSH1 0x64 ADD PUSH3 0x5E0 JUMP JUMPDEST PUSH1 0x0 PUSH2 0x140 DUP3 ADD MSTORE PUSH1 0x20 DUP2 ADD MLOAD PUSH2 0x160 DUP3 ADD MLOAD PUSH1 0x40 MLOAD PUSH4 0xEE8CA3B5 PUSH1 0xE0 SHL DUP2 MSTORE PUSH1 0x1 PUSH1 0x1 PUSH1 0xA0 SHL SUB SWAP1 SWAP3 AND SWAP2 PUSH4 0xEE8CA3B5 SWAP2 PUSH3 0x78E SWAP2 PUSH1 0x4 ADD SWAP1 DUP2 MSTORE PUSH1 0x20 ADD SWAP1 JUMP JUMPDEST PUSH1 0x0 PUSH1 0x40 MLOAD DUP1 DUP4 SUB DUP2 PUSH1 0x0 DUP8 DUP1 EXTCODESIZE ISZERO DUP1 ISZERO PUSH3 0x7A9 JUMPI PUSH1 0x0 DUP1 REVERT JUMPDEST POP GAS CALL ISZERO DUP1 ISZERO PUSH3 0x7BE JUMPI RETURNDATASIZE PUSH1 0x0 DUP1 RETURNDATACOPY RETURNDATASIZE PUSH1 0x0 REVERT JUMPDEST POP POP POP POP DUP1 PUSH1 0x20 ADD MLOAD PUSH1 0x1 PUSH1 0x1 PUSH1 0xA0 SHL SUB AND PUSH4 0xEE8CA3B5 DUP3 PUSH2 0x180 ADD MLOAD PUSH1 0x40 MLOAD DUP3 PUSH4 0xFFFFFFFF AND PUSH1 0xE0 SHL DUP2 MSTORE PUSH1 0x4 ADD PUSH3 0x7FA SWAP2 DUP2 MSTORE PUSH1 0x20 ADD SWAP1 JUMP JUMPDEST PUSH1 0x0 PUSH1 0x40 MLOAD DUP1 DUP4 SUB DUP2 PUSH1 0x0 DUP8 DUP1 EXTCODESIZE ISZERO DUP1 ISZERO PUSH3 0x815 JUMPI PUSH1 0x0 DUP1 REVERT JUMPDEST POP GAS CALL ISZERO DUP1 ISZERO PUSH3 0x82A JUMPI RETURNDATASIZE PUSH1 0x0 DUP1 RETURNDATACOPY RETURNDATASIZE PUSH1 0x0 REVERT JUMPDEST POP POP POP PUSH1 0x60 DUP3 ADD MLOAD DUP3 MLOAD PUSH1 0x20 DUP5 ADD MLOAD PUSH3 0x845 SWAP4 POP PUSH3 0x1445 JUMP JUMPDEST PUSH1 0x20 DUP2 ADD MLOAD PUSH1 0x60 DUP3 ADD MLOAD PUSH1 0x40 MLOAD PUSH4 0x5F4FD9F1 PUSH1 0xE1 SHL DUP2 MSTORE PUSH1 0x1 PUSH1 0x1 PUSH1 0xA0 SHL SUB SWAP2 DUP3 AND PUSH1 0x4 DUP3 ADD MSTORE SWAP2 AND SWAP1 PUSH4 0xBE9FB3E2 SWAP1 PUSH1 0x24 ADD JUMPDEST PUSH1 0x0 PUSH1 0x40 MLOAD DUP1 DUP4 SUB DUP2 PUSH1 0x0 DUP8 DUP1 EXTCODESIZE ISZERO DUP1 ISZERO PUSH3 0x894 JUMPI PUSH1 0x0 DUP1 REVERT JUMPDEST POP GAS CALL ISZERO DUP1 ISZERO PUSH3 0x8A9 JUMPI RETURNDATASIZE PUSH1 0x0 DUP1 RETURNDATACOPY RETURNDATASIZE PUSH1 0x0 REVERT JUMPDEST POP POP POP POP POP POP POP POP JUMP JUMPDEST PUSH3 0x8BF DUP3 DUP3 PUSH3 0x145B JUMP JUMPDEST POP POP JUMP JUMPDEST PUSH1 0x0 DUP2 DUP2 MSTORE PUSH1 0x4 PUSH1 0x20 MSTORE PUSH1 0x40 SWAP1 KECCAK256 SLOAD DUP2 SWAP1 PUSH1 0x1 PUSH1 0x1 PUSH1 0xA0 SHL SUB AND CALLER DUP2 EQ PUSH3 0x8FF JUMPI PUSH1 0x40 MLOAD PUSH3 0x461BCD PUSH1 0xE5 SHL DUP2 MSTORE PUSH1 0x4 ADD PUSH3 0x5E0 SWAP1 PUSH3 0x1C8F JUMP JUMPDEST PUSH1 0x0 DUP4 DUP2 MSTORE PUSH1 0x4 PUSH1 0x20 DUP2 DUP2 MSTORE PUSH1 0x40 SWAP3 DUP4 SWAP1 KECCAK256 DUP4 MLOAD PUSH2 0x1A0 DUP2 ADD DUP6 MSTORE DUP2 SLOAD PUSH1 0x1 PUSH1 0x1 PUSH1 0xA0 SHL SUB SWAP1 DUP2 AND DUP3 MSTORE PUSH1 0x1 DUP4 ADD SLOAD DUP2 AND SWAP4 DUP3 ADD DUP5 SWAP1 MSTORE PUSH1 0x2 DUP4 ADD SLOAD DUP2 AND DUP3 DUP8 ADD MSTORE PUSH1 0x3 DUP4 ADD SLOAD DUP2 AND PUSH1 0x60 DUP4 ADD DUP2 SWAP1 MSTORE DUP4 DUP7 ADD SLOAD SWAP2 DUP3 AND PUSH1 0x80 DUP5 ADD MSTORE PUSH1 0x1 PUSH1 0xA0 SHL SWAP1 SWAP2 DIV PUSH1 0xB SWAP1 DUP2 SIGNEXTEND PUSH1 0xA0 DUP5 ADD MSTORE PUSH1 0x5 DUP5 ADD SLOAD PUSH1 0xC0 DUP5 ADD MSTORE PUSH1 0x6 DUP5 ADD SLOAD PUSH1 0xE0 DUP5 ADD MSTORE PUSH1 0x7 DUP5 ADD SLOAD PUSH2 0x100 DUP5 ADD MSTORE PUSH1 0x8 DUP5 ADD SLOAD PUSH2 0x120 DUP5 ADD MSTORE PUSH1 0x9 DUP5 ADD SLOAD PUSH1 0xFF AND ISZERO ISZERO PUSH2 0x140 DUP5 ADD MSTORE PUSH1 0xA DUP5 ADD SLOAD PUSH2 0x160 DUP5 ADD MSTORE SWAP1 SWAP3 ADD SLOAD PUSH2 0x180 DUP3 ADD MSTORE SWAP4 MLOAD PUSH4 0x5F4FD9F1 PUSH1 0xE1 SHL DUP2 MSTORE SWAP3 DUP4 ADD MSTORE SWAP1 PUSH4 0xBE9FB3E2 SWAP1 PUSH1 0x24 ADD PUSH3 0x879 JUMP JUMPDEST PUSH3 0x9E6 PUSH3 0x158B JUMP JUMPDEST PUSH3 0x5A2 PUSH1 0x0 PUSH3 0x15E7 JUMP JUMPDEST PUSH1 0x40 MLOAD PUSH4 0x23B872DD PUSH1 0xE0 SHL DUP2 MSTORE PUSH1 0x1 PUSH1 0x1 PUSH1 0xA0 SHL SUB DUP4 AND SWAP1 PUSH4 0x23B872DD SWAP1 PUSH3 0xA24 SWAP1 CALLER SWAP1 ADDRESS SWAP1 DUP7 SWAP1 PUSH1 0x4 ADD PUSH3 0x1CDE JUMP JUMPDEST PUSH1 0x20 PUSH1 0x40 MLOAD DUP1 DUP4 SUB DUP2 PUSH1 0x0 DUP8 GAS CALL ISZERO DUP1 ISZERO PUSH3 0xA44 JUMPI RETURNDATASIZE PUSH1 0x0 DUP1 RETURNDATACOPY RETURNDATASIZE PUSH1 0x0 REVERT JUMPDEST POP POP POP POP PUSH1 0x40 MLOAD RETURNDATASIZE PUSH1 0x1F NOT PUSH1 0x1F DUP3 ADD AND DUP3 ADD DUP1 PUSH1 0x40 MSTORE POP DUP2 ADD SWAP1 PUSH3 0xA6A SWAP2 SWAP1 PUSH3 0x1D02 JUMP JUMPDEST POP PUSH1 0x40 MLOAD PUSH4 0x8DE640F PUSH1 0xE1 SHL DUP2 MSTORE PUSH1 0x4 DUP2 ADD DUP3 SWAP1 MSTORE PUSH1 0x1 PUSH1 0x1 PUSH1 0xA0 SHL SUB DUP4 AND SWAP1 PUSH4 0x11BCC81E SWAP1 PUSH1 0x24 ADD PUSH1 0x0 PUSH1 0x40 MLOAD DUP1 DUP4 SUB DUP2 PUSH1 0x0 DUP8 DUP1 EXTCODESIZE ISZERO DUP1 ISZERO PUSH3 0xAAE JUMPI PUSH1 0x0 DUP1 REVERT JUMPDEST POP GAS CALL ISZERO DUP1 ISZERO PUSH3 0xAC3 JUMPI RETURNDATASIZE PUSH1 0x0 DUP1 RETURNDATACOPY RETURNDATASIZE PUSH1 0x0 REVERT JUMPDEST POP POP POP POP PUSH1 0x0 DUP3 PUSH1 0x1 PUSH1 0x1 PUSH1 0xA0 SHL SUB AND PUSH4 0xEE719BC8 PUSH1 0x40 MLOAD DUP2 PUSH4 0xFFFFFFFF AND PUSH1 0xE0 SHL DUP2 MSTORE PUSH1 0x4 ADD PUSH1 0x20 PUSH1 0x40 MLOAD DUP1 DUP4 SUB DUP2 DUP7 GAS STATICCALL ISZERO DUP1 ISZERO PUSH3 0xB08 JUMPI RETURNDATASIZE PUSH1 0x0 DUP1 RETURNDATACOPY RETURNDATASIZE PUSH1 0x0 REVERT JUMPDEST POP POP POP POP PUSH1 0x40 MLOAD RETURNDATASIZE PUSH1 0x1F NOT PUSH1 0x1F DUP3 ADD AND DUP3 ADD DUP1 PUSH1 0x40 MSTORE POP DUP2 ADD SWAP1 PUSH3 0xB2E SWAP2 SWAP1 PUSH3 0x1D26 JUMP JUMPDEST PUSH1 0x40 MLOAD PUSH4 0x23B872DD PUSH1 0xE0 SHL DUP2 MSTORE SWAP1 SWAP2 POP PUSH1 0x1 PUSH1 0x1 PUSH1 0xA0 SHL SUB DUP3 AND SWAP1 PUSH4 0x23B872DD SWAP1 PUSH3 0xB63 SWAP1 ADDRESS SWAP1 CALLER SWAP1 DUP8 SWAP1 PUSH1 0x4 ADD PUSH3 0x1CDE JUMP JUMPDEST PUSH1 0x20 PUSH1 0x40 MLOAD DUP1 DUP4 SUB DUP2 PUSH1 0x0 DUP8 GAS CALL ISZERO DUP1 ISZERO PUSH3 0xB83 JUMPI RETURNDATASIZE PUSH1 0x0 DUP1 RETURNDATACOPY RETURNDATASIZE PUSH1 0x0 REVERT JUMPDEST POP POP POP POP PUSH1 0x40 MLOAD RETURNDATASIZE PUSH1 0x1F NOT PUSH1 0x1F DUP3 ADD AND DUP3 ADD DUP1 PUSH1 0x40 MSTORE POP DUP2 ADD SWAP1 PUSH3 0xBA9 SWAP2 SWAP1 PUSH3 0x1D02 JUMP JUMPDEST POP POP POP POP JUMP JUMPDEST PUSH1 0x0 DUP2 DUP2 MSTORE PUSH1 0x4 PUSH1 0x20 DUP2 DUP2 MSTORE PUSH1 0x40 SWAP3 DUP4 SWAP1 KECCAK256 DUP4 MLOAD PUSH2 0x1A0 DUP2 ADD DUP6 MSTORE DUP2 SLOAD PUSH1 0x1 PUSH1 0x1 PUSH1 0xA0 SHL SUB SWAP1 DUP2 AND DUP3 MSTORE PUSH1 0x1 DUP4 ADD SLOAD DUP2 AND SWAP4 DUP3 ADD SWAP4 SWAP1 SWAP4 MSTORE PUSH1 0x2 DUP3 ADD SLOAD DUP4 AND SWAP5 DUP2 ADD SWAP5 SWAP1 SWAP5 MSTORE PUSH1 0x3 DUP2 ADD SLOAD DUP3 AND PUSH1 0x60 DUP6 ADD MSTORE SWAP2 DUP3 ADD SLOAD SWAP1 DUP2 AND PUSH1 0x80 DUP5 ADD MSTORE PUSH1 0x1 PUSH1 0xA0 SHL SWAP1 DIV PUSH1 0xB SWAP1 DUP2 SIGNEXTEND PUSH1 0xA0 DUP5 ADD MSTORE PUSH1 0x5 DUP3 ADD SLOAD PUSH1 0xC0 DUP5 ADD MSTORE PUSH1 0x6 DUP3 ADD SLOAD PUSH1 0xE0 DUP5 ADD MSTORE PUSH1 0x7 DUP3 ADD SLOAD PUSH2 0x100 DUP5 ADD MSTORE PUSH1 0x8 DUP3 ADD SLOAD PUSH2 0x120 DUP5 ADD MSTORE PUSH1 0x9 DUP3 ADD SLOAD PUSH1 0xFF AND ISZERO ISZERO PUSH2 0x140 DUP5 ADD DUP2 SWAP1 MSTORE PUSH1 0xA DUP4 ADD SLOAD PUSH2 0x160 DUP6 ADD MSTORE SWAP2 ADD SLOAD PUSH2 0x180 DUP4 ADD MSTORE PUSH3 0xCB0 JUMPI PUSH1 0x40 MLOAD PUSH3 0x461BCD PUSH1 0xE5 SHL DUP2 MSTORE PUSH1 0x20 PUSH1 0x4 DUP3 ADD MSTORE PUSH1 0x11 PUSH1 0x24 DUP3 ADD MSTORE PUSH17 0x105B1C9958591E4810D85B98D95B1B1959 PUSH1 0x7A SHL PUSH1 0x44 DUP3 ADD MSTORE PUSH1 0x64 ADD PUSH3 0x5E0 JUMP JUMPDEST DUP1 PUSH1 0xC0 ADD MLOAD DUP2 PUSH2 0x120 ADD MLOAD PUSH3 0xCC7 SWAP2 SWAP1 PUSH3 0x1CB7 JUMP JUMPDEST TIMESTAMP GT PUSH3 0xD11 JUMPI PUSH1 0x40 MLOAD PUSH3 0x461BCD PUSH1 0xE5 SHL DUP2 MSTORE PUSH1 0x20 PUSH1 0x4 DUP3 ADD MSTORE PUSH1 0x17 PUSH1 0x24 DUP3 ADD MSTORE PUSH23 0x151A5B594814195C9A5BD9081B9BDD0818DC9BDCDCD959 PUSH1 0x4A SHL PUSH1 0x44 DUP3 ADD MSTORE PUSH1 0x64 ADD PUSH3 0x5E0 JUMP JUMPDEST PUSH1 0x0 PUSH2 0x140 DUP3 ADD MSTORE PUSH1 0x20 DUP2 ADD MLOAD PUSH2 0x160 DUP3 ADD MLOAD DUP3 MLOAD PUSH1 0x60 DUP5 ADD MLOAD PUSH3 0x8BF SWAP4 SWAP3 SWAP2 SWAP1 PUSH3 0x1637 JUMP JUMPDEST PUSH1 0x0 DUP2 DUP2 MSTORE PUSH1 0x4 PUSH1 0x20 MSTORE PUSH1 0x40 SWAP1 KECCAK256 SLOAD DUP2 SWAP1 PUSH1 0x1 PUSH1 0x1 PUSH1 0xA0 SHL SUB AND CALLER DUP2 EQ PUSH3 0xD75 JUMPI PUSH1 0x40 MLOAD PUSH3 0x461BCD PUSH1 0xE5 SHL DUP2 MSTORE PUSH1 0x4 ADD PUSH3 0x5E0 SWAP1 PUSH3 0x1C8F JUMP JUMPDEST POP POP POP JUMP JUMPDEST PUSH1 0x0 PUSH1 0x1 PUSH1 0x3 PUSH1 0x0 DUP3 DUP3 SLOAD PUSH3 0xD91 SWAP2 SWAP1 PUSH3 0x1CB7 JUMP JUMPDEST SWAP3 POP POP DUP2 SWAP1 SSTORE POP PUSH1 0x3 SLOAD SWAP1 POP PUSH1 0x0 DUP7 PUSH1 0x1 PUSH1 0x1 PUSH1 0xA0 SHL SUB AND PUSH4 0xEE719BC8 PUSH1 0x40 MLOAD DUP2 PUSH4 0xFFFFFFFF AND PUSH1 0xE0 SHL DUP2 MSTORE PUSH1 0x4 ADD PUSH1 0x20 PUSH1 0x40 MLOAD DUP1 DUP4 SUB DUP2 DUP7 GAS STATICCALL ISZERO DUP1 ISZERO PUSH3 0xDDE JUMPI RETURNDATASIZE PUSH1 0x0 DUP1 RETURNDATACOPY RETURNDATASIZE PUSH1 0x0 REVERT JUMPDEST POP POP POP POP PUSH1 0x40 MLOAD RETURNDATASIZE PUSH1 0x1F NOT PUSH1 0x1F DUP3 ADD AND DUP3 ADD DUP1 PUSH1 0x40 MSTORE POP DUP2 ADD SWAP1 PUSH3 0xE04 SWAP2 SWAP1 PUSH3 0x1D26 JUMP JUMPDEST PUSH1 0x40 DUP1 MLOAD PUSH2 0x1A0 DUP2 ADD DUP3 MSTORE CALLER DUP1 DUP3 MSTORE PUSH1 0x0 PUSH1 0x20 DUP4 ADD DUP2 SWAP1 MSTORE PUSH1 0x1 PUSH1 0x1 PUSH1 0xA0 SHL SUB DUP1 DUP7 AND DUP5 DUP7 ADD MSTORE DUP13 DUP2 AND PUSH1 0x60 DUP6 ADD MSTORE DUP12 DUP2 AND PUSH1 0x80 DUP6 ADD MSTORE PUSH1 0xB DUP12 SWAP1 SIGNEXTEND PUSH1 0xA0 DUP6 ADD MSTORE PUSH1 0xC0 DUP5 ADD DUP11 SWAP1 MSTORE PUSH1 0xE0 DUP5 ADD DUP10 SWAP1 MSTORE TIMESTAMP PUSH2 0x100 DUP6 ADD DUP2 SWAP1 MSTORE PUSH2 0x120 DUP6 ADD MSTORE PUSH1 0x1 PUSH2 0x140 DUP6 ADD MSTORE PUSH2 0x160 DUP5 ADD DUP3 SWAP1 MSTORE PUSH2 0x180 DUP5 ADD DUP3 SWAP1 MSTORE PUSH1 0x2 SLOAD SWAP5 MLOAD SWAP6 SWAP7 POP SWAP3 SWAP5 SWAP1 SWAP4 SWAP1 SWAP3 AND SWAP2 PUSH32 0x0 SWAP1 ADDRESS SWAP1 DUP9 SWAP1 DUP8 SWAP1 PUSH3 0xEBD SWAP1 PUSH3 0x1B1A JUMP JUMPDEST PUSH3 0xECE SWAP7 SWAP6 SWAP5 SWAP4 SWAP3 SWAP2 SWAP1 PUSH3 0x1D46 JUMP JUMPDEST PUSH1 0x40 MLOAD DUP1 SWAP2 SUB SWAP1 PUSH1 0x0 CREATE DUP1 ISZERO DUP1 ISZERO PUSH3 0xEEB JUMPI RETURNDATASIZE PUSH1 0x0 DUP1 RETURNDATACOPY RETURNDATASIZE PUSH1 0x0 REVERT JUMPDEST POP PUSH1 0x1 PUSH1 0x1 PUSH1 0xA0 SHL SUB DUP2 AND PUSH1 0x20 DUP5 ADD MSTORE SWAP1 POP CALLVALUE PUSH3 0xF43 JUMPI PUSH1 0x40 MLOAD PUSH3 0x461BCD PUSH1 0xE5 SHL DUP2 MSTORE PUSH1 0x20 PUSH1 0x4 DUP3 ADD MSTORE PUSH1 0x14 PUSH1 0x24 DUP3 ADD MSTORE PUSH20 0x53454E44204645455320464F522047454C41544F PUSH1 0x60 SHL PUSH1 0x44 DUP3 ADD MSTORE PUSH1 0x64 ADD PUSH3 0x5E0 JUMP JUMPDEST DUP1 PUSH1 0x1 PUSH1 0x1 PUSH1 0xA0 SHL SUB AND PUSH4 0x6C9C37D CALLVALUE PUSH1 0x40 MLOAD DUP3 PUSH4 0xFFFFFFFF AND PUSH1 0xE0 SHL DUP2 MSTORE PUSH1 0x4 ADD PUSH1 0x0 PUSH1 0x40 MLOAD DUP1 DUP4 SUB DUP2 DUP6 DUP9 DUP1 EXTCODESIZE ISZERO DUP1 ISZERO PUSH3 0xF7F JUMPI PUSH1 0x0 DUP1 REVERT JUMPDEST POP GAS CALL ISZERO DUP1 ISZERO PUSH3 0xF94 JUMPI RETURNDATASIZE PUSH1 0x0 DUP1 RETURNDATACOPY RETURNDATASIZE PUSH1 0x0 REVERT JUMPDEST POP POP POP POP POP PUSH3 0xFA7 DUP10 CALLER DUP4 DUP11 PUSH3 0x16A0 JUMP JUMPDEST PUSH1 0x40 MLOAD PUSH4 0x26CBB5A5 PUSH1 0xE2 SHL DUP2 MSTORE PUSH1 0x4 DUP2 ADD DUP7 SWAP1 MSTORE PUSH1 0x0 SWAP1 PUSH1 0x1 PUSH1 0x1 PUSH1 0xA0 SHL SUB DUP4 AND SWAP1 PUSH4 0x9B2ED694 SWAP1 PUSH1 0x24 ADD PUSH1 0x20 PUSH1 0x40 MLOAD DUP1 DUP4 SUB DUP2 PUSH1 0x0 DUP8 GAS CALL ISZERO DUP1 ISZERO PUSH3 0xFF2 JUMPI RETURNDATASIZE PUSH1 0x0 DUP1 RETURNDATACOPY RETURNDATASIZE PUSH1 0x0 REVERT JUMPDEST POP POP POP POP PUSH1 0x40 MLOAD RETURNDATASIZE PUSH1 0x1F NOT PUSH1 0x1F DUP3 ADD AND DUP3 ADD DUP1 PUSH1 0x40 MSTORE POP DUP2 ADD SWAP1 PUSH3 0x1018 SWAP2 SWAP1 PUSH3 0x1E5C JUMP JUMPDEST PUSH2 0x160 DUP5 ADD DUP2 SWAP1 MSTORE PUSH1 0x40 MLOAD PUSH4 0x1413DE5 PUSH1 0xE1 SHL DUP2 MSTORE PUSH1 0x4 DUP2 ADD DUP8 SWAP1 MSTORE PUSH1 0x24 DUP2 ADD DUP10 SWAP1 MSTORE SWAP1 SWAP2 POP PUSH1 0x0 SWAP1 PUSH1 0x1 PUSH1 0x1 PUSH1 0xA0 SHL SUB DUP5 AND SWAP1 PUSH4 0x2827BCA SWAP1 PUSH1 0x44 ADD PUSH1 0x20 PUSH1 0x40 MLOAD DUP1 DUP4 SUB DUP2 PUSH1 0x0 DUP8 GAS CALL ISZERO DUP1 ISZERO PUSH3 0x1075 JUMPI RETURNDATASIZE PUSH1 0x0 DUP1 RETURNDATACOPY RETURNDATASIZE PUSH1 0x0 REVERT JUMPDEST POP POP POP POP PUSH1 0x40 MLOAD RETURNDATASIZE PUSH1 0x1F NOT PUSH1 0x1F DUP3 ADD AND DUP3 ADD DUP1 PUSH1 0x40 MSTORE POP DUP2 ADD SWAP1 PUSH3 0x109B SWAP2 SWAP1 PUSH3 0x1E5C JUMP JUMPDEST PUSH2 0x180 DUP6 ADD SWAP1 DUP2 MSTORE PUSH1 0x0 DUP8 DUP2 MSTORE PUSH1 0x4 PUSH1 0x20 DUP2 DUP2 MSTORE PUSH1 0x40 SWAP3 DUP4 SWAP1 KECCAK256 DUP9 MLOAD DUP2 SLOAD PUSH1 0x1 PUSH1 0x1 PUSH1 0xA0 SHL SUB SWAP2 DUP3 AND PUSH1 0x1 PUSH1 0x1 PUSH1 0xA0 SHL SUB NOT SWAP2 DUP3 AND OR DUP4 SSTORE SWAP3 DUP11 ADD MLOAD PUSH1 0x1 DUP4 ADD DUP1 SLOAD SWAP2 DUP4 AND SWAP2 DUP6 AND SWAP2 SWAP1 SWAP2 OR SWAP1 SSTORE SWAP4 DUP10 ADD MLOAD PUSH1 0x2 DUP3 ADD DUP1 SLOAD SWAP2 DUP7 AND SWAP2 DUP5 AND SWAP2 SWAP1 SWAP2 OR SWAP1 SSTORE PUSH1 0x60 DUP10 ADD MLOAD PUSH1 0x3 DUP3 ADD DUP1 SLOAD SWAP2 DUP7 AND SWAP2 SWAP1 SWAP4 AND OR SWAP1 SWAP2 SSTORE PUSH1 0x80 DUP9 ADD MLOAD PUSH1 0xA0 DUP10 ADD MLOAD PUSH12 0xFFFFFFFFFFFFFFFFFFFFFFFF AND PUSH1 0x1 PUSH1 0xA0 SHL MUL SWAP4 AND SWAP3 SWAP1 SWAP3 OR SWAP1 DUP3 ADD SSTORE PUSH1 0xC0 DUP7 ADD MLOAD PUSH1 0x5 DUP3 ADD SSTORE PUSH1 0xE0 DUP7 ADD MLOAD PUSH1 0x6 DUP3 ADD SSTORE PUSH2 0x100 DUP7 ADD MLOAD PUSH1 0x7 DUP3 ADD SSTORE PUSH2 0x120 DUP7 ADD MLOAD PUSH1 0x8 DUP3 ADD SSTORE PUSH2 0x140 DUP7 ADD MLOAD PUSH1 0x9 DUP3 ADD DUP1 SLOAD SWAP2 ISZERO ISZERO PUSH1 0xFF NOT SWAP1 SWAP3 AND SWAP2 SWAP1 SWAP2 OR SWAP1 SSTORE PUSH2 0x160 SWAP1 SWAP6 ADD MLOAD PUSH1 0xA DUP7 ADD SSTORE MLOAD PUSH1 0xB SWAP1 SWAP5 ADD SWAP4 SWAP1 SWAP4 SSTORE POP SWAP3 SWAP9 SWAP8 POP POP POP POP POP POP POP POP JUMP JUMPDEST PUSH3 0x11B0 PUSH3 0x158B JUMP JUMPDEST PUSH1 0x1 PUSH1 0x1 PUSH1 0xA0 SHL SUB DUP2 AND PUSH3 0x1217 JUMPI PUSH1 0x40 MLOAD PUSH3 0x461BCD PUSH1 0xE5 SHL DUP2 MSTORE PUSH1 0x20 PUSH1 0x4 DUP3 ADD MSTORE PUSH1 0x26 PUSH1 0x24 DUP3 ADD MSTORE PUSH32 0x4F776E61626C653A206E6577206F776E657220697320746865207A65726F2061 PUSH1 0x44 DUP3 ADD MSTORE PUSH6 0x646472657373 PUSH1 0xD0 SHL PUSH1 0x64 DUP3 ADD MSTORE PUSH1 0x84 ADD PUSH3 0x5E0 JUMP JUMPDEST PUSH3 0x1222 DUP2 PUSH3 0x15E7 JUMP JUMPDEST POP JUMP JUMPDEST PUSH1 0x40 MLOAD PUSH4 0x23B872DD PUSH1 0xE0 SHL DUP2 MSTORE PUSH1 0x1 PUSH1 0x1 PUSH1 0xA0 SHL SUB DUP5 AND SWAP1 PUSH4 0x23B872DD SWAP1 PUSH3 0x1257 SWAP1 CALLER SWAP1 ADDRESS SWAP1 DUP7 SWAP1 PUSH1 0x4 ADD PUSH3 0x1CDE JUMP JUMPDEST PUSH1 0x20 PUSH1 0x40 MLOAD DUP1 DUP4 SUB DUP2 PUSH1 0x0 DUP8 GAS CALL ISZERO DUP1 ISZERO PUSH3 0x1277 JUMPI RETURNDATASIZE PUSH1 0x0 DUP1 RETURNDATACOPY RETURNDATASIZE PUSH1 0x0 REVERT JUMPDEST POP POP POP POP PUSH1 0x40 MLOAD RETURNDATASIZE PUSH1 0x1F NOT PUSH1 0x1F DUP3 ADD AND DUP3 ADD DUP1 PUSH1 0x40 MSTORE POP DUP2 ADD SWAP1 PUSH3 0x129D SWAP2 SWAP1 PUSH3 0x1D02 JUMP JUMPDEST POP PUSH1 0x40 MLOAD PUSH4 0x95EA7B3 PUSH1 0xE0 SHL DUP2 MSTORE PUSH1 0x1 PUSH1 0x1 PUSH1 0xA0 SHL SUB DUP4 DUP2 AND PUSH1 0x4 DUP4 ADD MSTORE PUSH1 0x24 DUP3 ADD DUP4 SWAP1 MSTORE DUP5 AND SWAP1 PUSH4 0x95EA7B3 SWAP1 PUSH1 0x44 ADD PUSH1 0x20 PUSH1 0x40 MLOAD DUP1 DUP4 SUB DUP2 PUSH1 0x0 DUP8 GAS CALL ISZERO DUP1 ISZERO PUSH3 0x12EE JUMPI RETURNDATASIZE PUSH1 0x0 DUP1 RETURNDATACOPY RETURNDATASIZE PUSH1 0x0 REVERT JUMPDEST POP POP POP POP PUSH1 0x40 MLOAD RETURNDATASIZE PUSH1 0x1F NOT PUSH1 0x1F DUP3 ADD AND DUP3 ADD DUP1 PUSH1 0x40 MSTORE POP DUP2 ADD SWAP1 PUSH3 0x1314 SWAP2 SWAP1 PUSH3 0x1D02 JUMP JUMPDEST POP PUSH1 0x40 MLOAD PUSH4 0x45977D03 PUSH1 0xE0 SHL DUP2 MSTORE PUSH1 0x4 DUP2 ADD DUP3 SWAP1 MSTORE PUSH1 0x1 PUSH1 0x1 PUSH1 0xA0 SHL SUB DUP4 AND SWAP1 PUSH4 0x45977D03 SWAP1 PUSH1 0x24 ADD PUSH1 0x0 PUSH1 0x40 MLOAD DUP1 DUP4 SUB DUP2 PUSH1 0x0 DUP8 DUP1 EXTCODESIZE ISZERO DUP1 ISZERO PUSH3 0x1358 JUMPI PUSH1 0x0 DUP1 REVERT JUMPDEST POP GAS CALL ISZERO DUP1 ISZERO PUSH3 0x136D JUMPI RETURNDATASIZE PUSH1 0x0 DUP1 RETURNDATACOPY RETURNDATASIZE PUSH1 0x0 REVERT JUMPDEST POP POP PUSH1 0x40 MLOAD PUSH4 0xA9059CBB PUSH1 0xE0 SHL DUP2 MSTORE CALLER PUSH1 0x4 DUP3 ADD MSTORE PUSH1 0x24 DUP2 ADD DUP5 SWAP1 MSTORE PUSH1 0x1 PUSH1 0x1 PUSH1 0xA0 SHL SUB DUP6 AND SWAP3 POP PUSH4 0xA9059CBB SWAP2 POP PUSH1 0x44 ADD PUSH3 0xB63 JUMP JUMPDEST PUSH1 0x0 PUSH1 0x1 PUSH1 0x1 PUSH1 0xA0 SHL SUB DUP3 AND PUSH20 0xEEEEEEEEEEEEEEEEEEEEEEEEEEEEEEEEEEEEEEEE EQ PUSH3 0x13D4 JUMPI PUSH1 0x0 PUSH3 0x13D6 JUMP JUMPDEST DUP3 JUMPDEST SWAP1 POP PUSH32 0x0 PUSH1 0x1 PUSH1 0x1 PUSH1 0xA0 SHL SUB AND PUSH4 0xC1461D57 DUP3 ADDRESS DUP6 DUP8 PUSH1 0x40 MLOAD DUP6 PUSH4 0xFFFFFFFF AND PUSH1 0xE0 SHL DUP2 MSTORE PUSH1 0x4 ADD PUSH3 0x142B SWAP4 SWAP3 SWAP2 SWAP1 PUSH3 0x1CDE JUMP JUMPDEST PUSH1 0x0 PUSH1 0x40 MLOAD DUP1 DUP4 SUB DUP2 DUP6 DUP9 DUP1 EXTCODESIZE ISZERO DUP1 ISZERO PUSH3 0x894 JUMPI PUSH1 0x0 DUP1 REVERT JUMPDEST PUSH3 0xBA9 PUSH1 0x1 PUSH1 0x1 PUSH1 0xA0 SHL SUB DUP5 AND DUP4 DUP4 PUSH3 0x16BE JUMP JUMPDEST CALLER PUSH1 0x1 PUSH1 0x1 PUSH1 0xA0 SHL SUB PUSH32 0x0 AND EQ PUSH3 0x14E1 JUMPI PUSH1 0x40 MLOAD PUSH3 0x461BCD PUSH1 0xE5 SHL DUP2 MSTORE PUSH1 0x20 PUSH1 0x4 DUP3 ADD MSTORE PUSH1 0x23 PUSH1 0x24 DUP3 ADD MSTORE PUSH32 0x4F6E6C792066756E6473206F776E65722063616E207769746864726177206675 PUSH1 0x44 DUP3 ADD MSTORE PUSH3 0x6E6473 PUSH1 0xE8 SHL PUSH1 0x64 DUP3 ADD MSTORE PUSH1 0x84 ADD PUSH3 0x5E0 JUMP JUMPDEST PUSH1 0x40 MLOAD PUSH4 0x1C20FADD PUSH1 0xE0 SHL DUP2 MSTORE PUSH1 0x1 PUSH1 0x1 PUSH1 0xA0 SHL SUB PUSH32 0x0 AND SWAP1 PUSH4 0x1C20FADD SWAP1 PUSH3 0x1553 SWAP1 PUSH32 0x0 SWAP1 DUP6 SWAP1 DUP8 SWAP1 PUSH1 0x4 ADD PUSH3 0x1CDE JUMP JUMPDEST PUSH1 0x0 PUSH1 0x40 MLOAD DUP1 DUP4 SUB DUP2 PUSH1 0x0 DUP8 DUP1 EXTCODESIZE ISZERO DUP1 ISZERO PUSH3 0x156E JUMPI PUSH1 0x0 DUP1 REVERT JUMPDEST POP GAS CALL ISZERO DUP1 ISZERO PUSH3 0x1583 JUMPI RETURNDATASIZE PUSH1 0x0 DUP1 RETURNDATACOPY RETURNDATASIZE PUSH1 0x0 REVERT JUMPDEST POP POP POP POP POP POP JUMP JUMPDEST PUSH1 0x0 SLOAD PUSH1 0x1 PUSH1 0x1 PUSH1 0xA0 SHL SUB AND CALLER EQ PUSH3 0x5A2 JUMPI PUSH1 0x40 MLOAD PUSH3 0x461BCD PUSH1 0xE5 SHL DUP2 MSTORE PUSH1 0x20 PUSH1 0x4 DUP3 ADD DUP2 SWAP1 MSTORE PUSH1 0x24 DUP3 ADD MSTORE PUSH32 0x4F776E61626C653A2063616C6C6572206973206E6F7420746865206F776E6572 PUSH1 0x44 DUP3 ADD MSTORE PUSH1 0x64 ADD PUSH3 0x5E0 JUMP JUMPDEST PUSH1 0x0 DUP1 SLOAD PUSH1 0x1 PUSH1 0x1 PUSH1 0xA0 SHL SUB DUP4 DUP2 AND PUSH1 0x1 PUSH1 0x1 PUSH1 0xA0 SHL SUB NOT DUP4 AND DUP2 OR DUP5 SSTORE PUSH1 0x40 MLOAD SWAP2 SWAP1 SWAP3 AND SWAP3 DUP4 SWAP2 PUSH32 0x8BE0079C531659141344CD1FD0A4F28419497F9722A3DAAFE3B4186F6B6457E0 SWAP2 SWAP1 LOG3 POP POP JUMP JUMPDEST PUSH1 0x40 MLOAD PUSH4 0xEE8CA3B5 PUSH1 0xE0 SHL DUP2 MSTORE PUSH1 0x4 DUP2 ADD DUP5 SWAP1 MSTORE PUSH1 0x1 PUSH1 0x1 PUSH1 0xA0 SHL SUB DUP6 AND SWAP1 PUSH4 0xEE8CA3B5 SWAP1 PUSH1 0x24 ADD PUSH1 0x0 PUSH1 0x40 MLOAD DUP1 DUP4 SUB DUP2 PUSH1 0x0 DUP8 DUP1 EXTCODESIZE ISZERO DUP1 ISZERO PUSH3 0x167A JUMPI PUSH1 0x0 DUP1 REVERT JUMPDEST POP GAS CALL ISZERO DUP1 ISZERO PUSH3 0x168F JUMPI RETURNDATASIZE PUSH1 0x0 DUP1 RETURNDATACOPY RETURNDATASIZE PUSH1 0x0 REVERT JUMPDEST POP POP POP POP PUSH3 0xBA9 DUP2 DUP4 DUP7 PUSH3 0x1445 JUMP JUMPDEST PUSH3 0x16B7 PUSH1 0x1 PUSH1 0x1 PUSH1 0xA0 SHL SUB DUP6 AND DUP5 DUP5 DUP5 PUSH3 0x1800 JUMP JUMPDEST POP POP POP POP POP JUMP JUMPDEST PUSH1 0x0 DUP1 PUSH1 0x0 PUSH3 0x16CE DUP7 PUSH3 0x1945 JUMP JUMPDEST SWAP2 POP SWAP2 POP DUP2 PUSH1 0x1 PUSH1 0x1 PUSH1 0xA0 SHL SUB AND PUSH4 0x39255D5B DUP3 DUP4 PUSH1 0x1 PUSH1 0x1 PUSH1 0xA0 SHL SUB AND PUSH4 0x4C8B181F DUP11 DUP11 DUP11 PUSH1 0x0 PUSH8 0xFFFFFFFFFFFFFFFF DUP2 GT ISZERO PUSH3 0x1711 JUMPI PUSH3 0x1711 PUSH3 0x1E76 JUMP JUMPDEST PUSH1 0x40 MLOAD SWAP1 DUP1 DUP3 MSTORE DUP1 PUSH1 0x1F ADD PUSH1 0x1F NOT AND PUSH1 0x20 ADD DUP3 ADD PUSH1 0x40 MSTORE DUP1 ISZERO PUSH3 0x173C JUMPI PUSH1 0x20 DUP3 ADD DUP2 DUP1 CALLDATASIZE DUP4 CALLDATACOPY ADD SWAP1 POP JUMPDEST POP PUSH1 0x40 MLOAD PUSH1 0x24 ADD PUSH3 0x1752 SWAP5 SWAP4 SWAP3 SWAP2 SWAP1 PUSH3 0x1EE9 JUMP JUMPDEST PUSH1 0x40 DUP1 MLOAD PUSH1 0x1F NOT DUP2 DUP5 SUB ADD DUP2 MSTORE SWAP2 DUP2 MSTORE PUSH1 0x20 DUP1 DUP4 ADD DUP1 MLOAD PUSH1 0x1 PUSH1 0x1 PUSH1 0xE0 SHL SUB AND PUSH1 0xE0 SWAP6 DUP7 SHL OR SWAP1 MSTORE DUP2 MLOAD PUSH1 0x0 DUP2 MSTORE SWAP1 DUP2 ADD SWAP2 DUP3 SWAP1 MSTORE SWAP3 DUP7 SWAP1 SHL PUSH1 0x1 PUSH1 0x1 PUSH1 0xE0 SHL SUB NOT AND SWAP1 MSTORE PUSH3 0x17A9 SWAP4 SWAP3 POP SWAP1 PUSH1 0x24 DUP2 ADD PUSH3 0x1F29 JUMP JUMPDEST PUSH1 0x0 PUSH1 0x40 MLOAD DUP1 DUP4 SUB DUP2 PUSH1 0x0 DUP8 GAS CALL ISZERO DUP1 ISZERO PUSH3 0x17C9 JUMPI RETURNDATASIZE PUSH1 0x0 DUP1 RETURNDATACOPY RETURNDATASIZE PUSH1 0x0 REVERT JUMPDEST POP POP POP POP PUSH1 0x40 MLOAD RETURNDATASIZE PUSH1 0x0 DUP3 RETURNDATACOPY PUSH1 0x1F RETURNDATASIZE SWAP1 DUP2 ADD PUSH1 0x1F NOT AND DUP3 ADD PUSH1 0x40 MSTORE PUSH3 0x17F3 SWAP2 SWAP1 DUP2 ADD SWAP1 PUSH3 0x1F63 JUMP JUMPDEST POP PUSH1 0x1 SWAP7 SWAP6 POP POP POP POP POP POP JUMP JUMPDEST PUSH1 0x0 DUP1 PUSH1 0x0 PUSH3 0x1810 DUP8 PUSH3 0x1945 JUMP JUMPDEST SWAP2 POP SWAP2 POP DUP2 PUSH1 0x1 PUSH1 0x1 PUSH1 0xA0 SHL SUB AND PUSH4 0x39255D5B DUP3 DUP4 PUSH1 0x1 PUSH1 0x1 PUSH1 0xA0 SHL SUB AND PUSH4 0x94229ECB DUP12 DUP12 DUP12 DUP12 PUSH1 0x0 PUSH8 0xFFFFFFFFFFFFFFFF DUP2 GT ISZERO PUSH3 0x1854 JUMPI PUSH3 0x1854 PUSH3 0x1E76 JUMP JUMPDEST PUSH1 0x40 MLOAD SWAP1 DUP1 DUP3 MSTORE DUP1 PUSH1 0x1F ADD PUSH1 0x1F NOT AND PUSH1 0x20 ADD DUP3 ADD PUSH1 0x40 MSTORE DUP1 ISZERO PUSH3 0x187F JUMPI PUSH1 0x20 DUP3 ADD DUP2 DUP1 CALLDATASIZE DUP4 CALLDATACOPY ADD SWAP1 POP JUMPDEST POP PUSH1 0x40 MLOAD PUSH1 0x24 ADD PUSH3 0x1896 SWAP6 SWAP5 SWAP4 SWAP3 SWAP2 SWAP1 PUSH3 0x201C JUMP JUMPDEST PUSH1 0x40 DUP1 MLOAD PUSH1 0x1F NOT DUP2 DUP5 SUB ADD DUP2 MSTORE SWAP2 DUP2 MSTORE PUSH1 0x20 DUP1 DUP4 ADD DUP1 MLOAD PUSH1 0x1 PUSH1 0x1 PUSH1 0xE0 SHL SUB AND PUSH1 0xE0 SWAP6 DUP7 SHL OR SWAP1 MSTORE DUP2 MLOAD PUSH1 0x0 DUP2 MSTORE SWAP1 DUP2 ADD SWAP2 DUP3 SWAP1 MSTORE SWAP3 DUP7 SWAP1 SHL PUSH1 0x1 PUSH1 0x1 PUSH1 0xE0 SHL SUB NOT AND SWAP1 MSTORE PUSH3 0x18ED SWAP4 SWAP3 POP SWAP1 PUSH1 0x24 DUP2 ADD PUSH3 0x1F29 JUMP JUMPDEST PUSH1 0x0 PUSH1 0x40 MLOAD DUP1 DUP4 SUB DUP2 PUSH1 0x0 DUP8 GAS CALL ISZERO DUP1 ISZERO PUSH3 0x190D JUMPI RETURNDATASIZE PUSH1 0x0 DUP1 RETURNDATACOPY RETURNDATASIZE PUSH1 0x0 REVERT JUMPDEST POP POP POP POP PUSH1 0x40 MLOAD RETURNDATASIZE PUSH1 0x0 DUP3 RETURNDATACOPY PUSH1 0x1F RETURNDATASIZE SWAP1 DUP2 ADD PUSH1 0x1F NOT AND DUP3 ADD PUSH1 0x40 MSTORE PUSH3 0x1937 SWAP2 SWAP1 DUP2 ADD SWAP1 PUSH3 0x1F63 JUMP JUMPDEST POP PUSH1 0x1 SWAP8 SWAP7 POP POP POP POP POP POP POP JUMP JUMPDEST PUSH32 0x65599BF746E17A00EA62E3610586992D88101B78EEC3CF380706621FB97EA837 SLOAD PUSH32 0xB969D79D88ACD02D04ED7EE7D43B949E7DAF093D363ABCFBBC43DFDFD1CE969A SLOAD PUSH1 0x1 PUSH1 0x1 PUSH1 0xA0 SHL SUB DUP2 AND PUSH3 0x1AE3 JUMPI PUSH1 0x1 PUSH1 0x1 PUSH1 0xA0 SHL SUB DUP3 AND PUSH3 0x1A0F JUMPI DUP3 PUSH1 0x1 PUSH1 0x1 PUSH1 0xA0 SHL SUB AND PUSH4 0x20BC4425 PUSH1 0x40 MLOAD DUP2 PUSH4 0xFFFFFFFF AND PUSH1 0xE0 SHL DUP2 MSTORE PUSH1 0x4 ADD PUSH1 0x20 PUSH1 0x40 MLOAD DUP1 DUP4 SUB DUP2 DUP7 GAS STATICCALL ISZERO DUP1 ISZERO PUSH3 0x19E6 JUMPI RETURNDATASIZE PUSH1 0x0 DUP1 RETURNDATACOPY RETURNDATASIZE PUSH1 0x0 REVERT JUMPDEST POP POP POP POP PUSH1 0x40 MLOAD RETURNDATASIZE PUSH1 0x1F NOT PUSH1 0x1F DUP3 ADD AND DUP3 ADD DUP1 PUSH1 0x40 MSTORE POP DUP2 ADD SWAP1 PUSH3 0x1A0C SWAP2 SWAP1 PUSH3 0x1D26 JUMP JUMPDEST SWAP2 POP JUMPDEST PUSH1 0x40 MLOAD PUSH4 0x5B69006F PUSH1 0xE1 SHL DUP2 MSTORE PUSH32 0xA9214CC96615E0085D3BB077758DB69497DC2DCE3B2B1E97BC93C3D18D83EFD3 PUSH1 0x4 DUP3 ADD MSTORE PUSH1 0x1 PUSH1 0x1 PUSH1 0xA0 SHL SUB DUP4 AND SWAP1 PUSH4 0xB6D200DE SWAP1 PUSH1 0x24 ADD PUSH1 0x20 PUSH1 0x40 MLOAD DUP1 DUP4 SUB DUP2 DUP7 GAS STATICCALL ISZERO DUP1 ISZERO PUSH3 0x1A74 JUMPI RETURNDATASIZE PUSH1 0x0 DUP1 RETURNDATACOPY RETURNDATASIZE PUSH1 0x0 REVERT JUMPDEST POP POP POP POP PUSH1 0x40 MLOAD RETURNDATASIZE PUSH1 0x1F NOT PUSH1 0x1F DUP3 ADD AND DUP3 ADD DUP1 PUSH1 0x40 MSTORE POP DUP2 ADD SWAP1 PUSH3 0x1A9A SWAP2 SWAP1 PUSH3 0x1D26 JUMP JUMPDEST SWAP1 POP DUP2 PUSH32 0x65599BF746E17A00EA62E3610586992D88101B78EEC3CF380706621FB97EA837 SSTORE DUP1 PUSH32 0xB969D79D88ACD02D04ED7EE7D43B949E7DAF093D363ABCFBBC43DFDFD1CE969A SSTORE JUMPDEST PUSH1 0x1 PUSH1 0x1 PUSH1 0xA0 SHL SUB DUP3 AND PUSH3 0x1AFC JUMPI PUSH3 0x1AFC PUSH3 0x205C JUMP JUMPDEST PUSH1 0x1 PUSH1 0x1 PUSH1 0xA0 SHL SUB DUP2 AND PUSH3 0x1B15 JUMPI PUSH3 0x1B15 PUSH3 0x205C JUMP JUMPDEST SWAP2 POP SWAP2 JUMP JUMPDEST PUSH2 0x1CFD DUP1 PUSH3 0x2073 DUP4 CODECOPY ADD SWAP1 JUMP JUMPDEST PUSH1 0x0 PUSH1 0x20 DUP3 DUP5 SUB SLT ISZERO PUSH3 0x1B3B JUMPI PUSH1 0x0 DUP1 REVERT JUMPDEST POP CALLDATALOAD SWAP2 SWAP1 POP JUMP JUMPDEST PUSH1 0x1 PUSH1 0x1 PUSH1 0xA0 SHL SUB DUP2 AND DUP2 EQ PUSH3 0x1222 JUMPI PUSH1 0x0 DUP1 REVERT JUMPDEST PUSH1 0x0 DUP1 PUSH1 0x40 DUP4 DUP6 SUB SLT ISZERO PUSH3 0x1B6C JUMPI PUSH1 0x0 DUP1 REVERT JUMPDEST DUP3 CALLDATALOAD SWAP2 POP PUSH1 0x20 DUP4 ADD CALLDATALOAD PUSH3 0x1B80 DUP2 PUSH3 0x1B42 JUMP JUMPDEST DUP1 SWAP2 POP POP SWAP3 POP SWAP3 SWAP1 POP JUMP JUMPDEST PUSH1 0x0 DUP1 PUSH1 0x40 DUP4 DUP6 SUB SLT ISZERO PUSH3 0x1B9F JUMPI PUSH1 0x0 DUP1 REVERT JUMPDEST DUP3 CALLDATALOAD PUSH3 0x1BAC DUP2 PUSH3 0x1B42 JUMP JUMPDEST SWAP5 PUSH1 0x20 SWAP4 SWAP1 SWAP4 ADD CALLDATALOAD SWAP4 POP POP POP JUMP JUMPDEST PUSH1 0x0 DUP1 PUSH1 0x0 DUP1 PUSH1 0x0 PUSH1 0xA0 DUP7 DUP9 SUB SLT ISZERO PUSH3 0x1BD3 JUMPI PUSH1 0x0 DUP1 REVERT JUMPDEST DUP6 CALLDATALOAD PUSH3 0x1BE0 DUP2 PUSH3 0x1B42 JUMP JUMPDEST SWAP5 POP PUSH1 0x20 DUP7 ADD CALLDATALOAD PUSH3 0x1BF2 DUP2 PUSH3 0x1B42 JUMP JUMPDEST SWAP4 POP PUSH1 0x40 DUP7 ADD CALLDATALOAD PUSH1 0xB DUP2 SWAP1 SIGNEXTEND DUP2 EQ PUSH3 0x1C0A JUMPI PUSH1 0x0 DUP1 REVERT JUMPDEST SWAP5 SWAP8 SWAP4 SWAP7 POP SWAP4 SWAP5 PUSH1 0x60 DUP2 ADD CALLDATALOAD SWAP5 POP PUSH1 0x80 ADD CALLDATALOAD SWAP3 SWAP2 POP POP JUMP JUMPDEST PUSH1 0x0 PUSH1 0x20 DUP3 DUP5 SUB SLT ISZERO PUSH3 0x1C35 JUMPI PUSH1 0x0 DUP1 REVERT JUMPDEST DUP2 CALLDATALOAD PUSH3 0x1C42 DUP2 PUSH3 0x1B42 JUMP JUMPDEST SWAP4 SWAP3 POP POP POP JUMP JUMPDEST PUSH1 0x0 DUP1 PUSH1 0x0 PUSH1 0x60 DUP5 DUP7 SUB SLT ISZERO PUSH3 0x1C5F JUMPI PUSH1 0x0 DUP1 REVERT JUMPDEST DUP4 CALLDATALOAD PUSH3 0x1C6C DUP2 PUSH3 0x1B42 JUMP JUMPDEST SWAP3 POP PUSH1 0x20 DUP5 ADD CALLDATALOAD PUSH3 0x1C7E DUP2 PUSH3 0x1B42 JUMP JUMPDEST SWAP3 SWAP6 SWAP3 SWAP5 POP POP POP PUSH1 0x40 SWAP2 SWAP1 SWAP2 ADD CALLDATALOAD SWAP1 JUMP JUMPDEST PUSH1 0x20 DUP1 DUP3 MSTORE PUSH1 0xE SWAP1 DUP3 ADD MSTORE PUSH14 0x1393D5081055551213D49254D151 PUSH1 0x92 SHL PUSH1 0x40 DUP3 ADD MSTORE PUSH1 0x60 ADD SWAP1 JUMP JUMPDEST PUSH1 0x0 DUP3 NOT DUP3 GT ISZERO PUSH3 0x1CD9 JUMPI PUSH4 0x4E487B71 PUSH1 0xE0 SHL PUSH1 0x0 MSTORE PUSH1 0x11 PUSH1 0x4 MSTORE PUSH1 0x24 PUSH1 0x0 REVERT JUMPDEST POP ADD SWAP1 JUMP JUMPDEST PUSH1 0x1 PUSH1 0x1 PUSH1 0xA0 SHL SUB SWAP4 DUP5 AND DUP2 MSTORE SWAP2 SWAP1 SWAP3 AND PUSH1 0x20 DUP3 ADD MSTORE PUSH1 0x40 DUP2 ADD SWAP2 SWAP1 SWAP2 MSTORE PUSH1 0x60 ADD SWAP1 JUMP JUMPDEST PUSH1 0x0 PUSH1 0x20 DUP3 DUP5 SUB SLT ISZERO PUSH3 0x1D15 JUMPI PUSH1 0x0 DUP1 REVERT JUMPDEST DUP2 MLOAD DUP1 ISZERO ISZERO DUP2 EQ PUSH3 0x1C42 JUMPI PUSH1 0x0 DUP1 REVERT JUMPDEST PUSH1 0x0 PUSH1 0x20 DUP3 DUP5 SUB SLT ISZERO PUSH3 0x1D39 JUMPI PUSH1 0x0 DUP1 REVERT JUMPDEST DUP2 MLOAD PUSH3 0x1C42 DUP2 PUSH3 0x1B42 JUMP JUMPDEST PUSH1 0x1 PUSH1 0x1 PUSH1 0xA0 SHL SUB DUP8 DUP2 AND DUP3 MSTORE DUP7 DUP2 AND PUSH1 0x20 DUP4 ADD MSTORE DUP6 DUP2 AND PUSH1 0x40 DUP4 ADD MSTORE DUP5 DUP2 AND PUSH1 0x60 DUP4 ADD MSTORE PUSH1 0x80 DUP3 ADD DUP5 SWAP1 MSTORE DUP3 MLOAD AND PUSH1 0xA0 DUP3 ADD MSTORE PUSH2 0x240 DUP2 ADD PUSH1 0x20 DUP4 ADD MLOAD PUSH1 0x1 PUSH1 0x1 PUSH1 0xA0 SHL SUB DUP2 AND PUSH1 0xC0 DUP5 ADD MSTORE POP PUSH1 0x40 DUP4 ADD MLOAD PUSH1 0x1 PUSH1 0x1 PUSH1 0xA0 SHL SUB DUP2 AND PUSH1 0xE0 DUP5 ADD MSTORE POP PUSH1 0x60 DUP4 ADD MLOAD PUSH2 0x100 PUSH3 0x1DC6 DUP2 DUP6 ADD DUP4 PUSH1 0x1 PUSH1 0x1 PUSH1 0xA0 SHL SUB AND SWAP1 MSTORE JUMP JUMPDEST PUSH1 0x80 DUP6 ADD MLOAD SWAP2 POP PUSH2 0x120 PUSH3 0x1DE5 DUP2 DUP7 ADD DUP5 PUSH1 0x1 PUSH1 0x1 PUSH1 0xA0 SHL SUB AND SWAP1 MSTORE JUMP JUMPDEST PUSH1 0xA0 DUP7 ADD MLOAD SWAP3 POP PUSH2 0x140 PUSH3 0x1DFE DUP2 DUP8 ADD DUP6 PUSH1 0xB SIGNEXTEND SWAP1 MSTORE JUMP JUMPDEST PUSH1 0xC0 DUP8 ADD MLOAD PUSH2 0x160 DUP8 DUP2 ADD SWAP2 SWAP1 SWAP2 MSTORE PUSH1 0xE0 DUP9 ADD MLOAD PUSH2 0x180 DUP1 DUP10 ADD SWAP2 SWAP1 SWAP2 MSTORE SWAP4 DUP9 ADD MLOAD PUSH2 0x1A0 DUP9 ADD MSTORE SWAP2 DUP8 ADD MLOAD PUSH2 0x1C0 DUP8 ADD MSTORE DUP7 ADD MLOAD ISZERO ISZERO PUSH2 0x1E0 DUP7 ADD MSTORE DUP6 ADD MLOAD PUSH2 0x200 DUP6 ADD MSTORE SWAP1 SWAP4 ADD MLOAD PUSH2 0x220 SWAP1 SWAP3 ADD SWAP2 SWAP1 SWAP2 MSTORE SWAP7 SWAP6 POP POP POP POP POP POP JUMP JUMPDEST PUSH1 0x0 PUSH1 0x20 DUP3 DUP5 SUB SLT ISZERO PUSH3 0x1E6F JUMPI PUSH1 0x0 DUP1 REVERT JUMPDEST POP MLOAD SWAP2 SWAP1 POP JUMP JUMPDEST PUSH4 0x4E487B71 PUSH1 0xE0 SHL PUSH1 0x0 MSTORE PUSH1 0x41 PUSH1 0x4 MSTORE PUSH1 0x24 PUSH1 0x0 REVERT JUMPDEST PUSH1 0x0 JUMPDEST DUP4 DUP2 LT ISZERO PUSH3 0x1EA9 JUMPI DUP2 DUP2 ADD MLOAD DUP4 DUP3 ADD MSTORE PUSH1 0x20 ADD PUSH3 0x1E8F JUMP JUMPDEST DUP4 DUP2 GT ISZERO PUSH3 0xBA9 JUMPI POP POP PUSH1 0x0 SWAP2 ADD MSTORE JUMP JUMPDEST PUSH1 0x0 DUP2 MLOAD DUP1 DUP5 MSTORE PUSH3 0x1ED5 DUP2 PUSH1 0x20 DUP7 ADD PUSH1 0x20 DUP7 ADD PUSH3 0x1E8C JUMP JUMPDEST PUSH1 0x1F ADD PUSH1 0x1F NOT AND SWAP3 SWAP1 SWAP3 ADD PUSH1 0x20 ADD SWAP3 SWAP2 POP POP JUMP JUMPDEST PUSH1 0x1 PUSH1 0x1 PUSH1 0xA0 SHL SUB DUP6 DUP2 AND DUP3 MSTORE DUP5 DUP2 AND PUSH1 0x20 DUP4 ADD MSTORE DUP4 AND PUSH1 0x40 DUP3 ADD MSTORE PUSH1 0x80 PUSH1 0x60 DUP3 ADD DUP2 SWAP1 MSTORE PUSH1 0x0 SWAP1 PUSH3 0x1F1F SWAP1 DUP4 ADD DUP5 PUSH3 0x1EBB JUMP JUMPDEST SWAP7 SWAP6 POP POP POP POP POP POP JUMP JUMPDEST PUSH1 0x1 PUSH1 0x1 PUSH1 0xA0 SHL SUB DUP5 AND DUP2 MSTORE PUSH1 0x60 PUSH1 0x20 DUP3 ADD DUP2 SWAP1 MSTORE PUSH1 0x0 SWAP1 PUSH3 0x1F4F SWAP1 DUP4 ADD DUP6 PUSH3 0x1EBB JUMP JUMPDEST DUP3 DUP2 SUB PUSH1 0x40 DUP5 ADD MSTORE PUSH3 0x1F1F DUP2 DUP6 PUSH3 0x1EBB JUMP JUMPDEST PUSH1 0x0 PUSH1 0x20 DUP3 DUP5 SUB SLT ISZERO PUSH3 0x1F76 JUMPI PUSH1 0x0 DUP1 REVERT JUMPDEST DUP2 MLOAD PUSH8 0xFFFFFFFFFFFFFFFF DUP1 DUP3 GT ISZERO PUSH3 0x1F8F JUMPI PUSH1 0x0 DUP1 REVERT JUMPDEST DUP2 DUP5 ADD SWAP2 POP DUP5 PUSH1 0x1F DUP4 ADD SLT PUSH3 0x1FA4 JUMPI PUSH1 0x0 DUP1 REVERT JUMPDEST DUP2 MLOAD DUP2 DUP2 GT ISZERO PUSH3 0x1FB9 JUMPI PUSH3 0x1FB9 PUSH3 0x1E76 JUMP JUMPDEST PUSH1 0x40 MLOAD PUSH1 0x1F DUP3 ADD PUSH1 0x1F NOT SWAP1 DUP2 AND PUSH1 0x3F ADD AND DUP2 ADD SWAP1 DUP4 DUP3 GT DUP2 DUP4 LT OR ISZERO PUSH3 0x1FE4 JUMPI PUSH3 0x1FE4 PUSH3 0x1E76 JUMP JUMPDEST DUP2 PUSH1 0x40 MSTORE DUP3 DUP2 MSTORE DUP8 PUSH1 0x20 DUP5 DUP8 ADD ADD GT ISZERO PUSH3 0x1FFE JUMPI PUSH1 0x0 DUP1 REVERT JUMPDEST PUSH3 0x2011 DUP4 PUSH1 0x20 DUP4 ADD PUSH1 0x20 DUP9 ADD PUSH3 0x1E8C JUMP JUMPDEST SWAP8 SWAP7 POP POP POP POP POP POP POP JUMP JUMPDEST PUSH1 0x1 PUSH1 0x1 PUSH1 0xA0 SHL SUB DUP7 DUP2 AND DUP3 MSTORE DUP6 DUP2 AND PUSH1 0x20 DUP4 ADD MSTORE DUP5 AND PUSH1 0x40 DUP3 ADD MSTORE PUSH1 0xB DUP4 SWAP1 SIGNEXTEND PUSH1 0x60 DUP3 ADD MSTORE PUSH1 0xA0 PUSH1 0x80 DUP3 ADD DUP2 SWAP1 MSTORE PUSH1 0x0 SWAP1 PUSH3 0x2011 SWAP1 DUP4 ADD DUP5 PUSH3 0x1EBB JUMP JUMPDEST PUSH4 0x4E487B71 PUSH1 0xE0 SHL PUSH1 0x0 MSTORE PUSH1 0x1 PUSH1 0x4 MSTORE PUSH1 0x24 PUSH1 0x0 REVERT INVALID PUSH2 0x140 PUSH1 0x40 MSTORE PUSH1 0x1 DUP1 SLOAD PUSH1 0x1 PUSH1 0x1 PUSH1 0xA0 SHL SUB NOT AND SWAP1 SSTORE CALLVALUE DUP1 ISZERO PUSH3 0x22 JUMPI PUSH1 0x0 DUP1 REVERT JUMPDEST POP PUSH1 0x40 MLOAD PUSH3 0x1CFD CODESIZE SUB DUP1 PUSH3 0x1CFD DUP4 CODECOPY DUP2 ADD PUSH1 0x40 DUP2 SWAP1 MSTORE PUSH3 0x45 SWAP2 PUSH3 0x39C JUMP JUMPDEST DUP6 DUP6 DUP2 ADDRESS PUSH3 0x54 CALLER PUSH3 0x2C5 JUMP JUMPDEST PUSH1 0x1 PUSH1 0x1 PUSH1 0xA0 SHL SUB DUP3 AND PUSH1 0x80 DUP2 SWAP1 MSTORE PUSH1 0x40 DUP1 MLOAD PUSH4 0x573EA575 PUSH1 0xE0 SHL DUP2 MSTORE SWAP1 MLOAD PUSH4 0x573EA575 SWAP2 PUSH1 0x4 DUP1 DUP3 ADD SWAP3 PUSH1 0x20 SWAP3 SWAP1 SWAP2 SWAP1 DUP3 SWAP1 SUB ADD DUP2 DUP7 GAS STATICCALL ISZERO DUP1 ISZERO PUSH3 0x9F JUMPI RETURNDATASIZE PUSH1 0x0 DUP1 RETURNDATACOPY RETURNDATASIZE PUSH1 0x0 REVERT JUMPDEST POP POP POP POP PUSH1 0x40 MLOAD RETURNDATASIZE PUSH1 0x1F NOT PUSH1 0x1F DUP3 ADD AND DUP3 ADD DUP1 PUSH1 0x40 MSTORE POP DUP2 ADD SWAP1 PUSH3 0xC5 SWAP2 SWAP1 PUSH3 0x503 JUMP JUMPDEST PUSH1 0x1 PUSH1 0x1 PUSH1 0xA0 SHL SUB SWAP1 DUP2 AND PUSH1 0xC0 MSTORE PUSH1 0x40 MLOAD PUSH4 0x37B6269F PUSH1 0xE2 SHL DUP2 MSTORE SWAP1 DUP3 AND PUSH1 0x4 DUP3 ADD MSTORE PUSH20 0xC815DB16D4BE6DDF2685C201937905ABF338F5D7 SWAP1 PUSH4 0xDED89A7C SWAP1 PUSH1 0x24 ADD PUSH1 0x40 DUP1 MLOAD DUP1 DUP4 SUB DUP2 DUP7 GAS STATICCALL ISZERO DUP1 ISZERO PUSH3 0x124 JUMPI RETURNDATASIZE PUSH1 0x0 DUP1 RETURNDATACOPY RETURNDATASIZE PUSH1 0x0 REVERT JUMPDEST POP POP POP POP PUSH1 0x40 MLOAD RETURNDATASIZE PUSH1 0x1F NOT PUSH1 0x1F DUP3 ADD AND DUP3 ADD DUP1 PUSH1 0x40 MSTORE POP DUP2 ADD SWAP1 PUSH3 0x14A SWAP2 SWAP1 PUSH3 0x52A JUMP JUMPDEST POP PUSH1 0x1 PUSH1 0x1 PUSH1 0xA0 SHL SUB SWAP1 DUP2 AND PUSH1 0xA0 MSTORE DUP4 DUP2 AND PUSH1 0xE0 MSTORE PUSH1 0x80 MLOAD PUSH1 0x40 DUP1 MLOAD PUSH4 0xE60A3213 PUSH1 0xE0 SHL DUP2 MSTORE SWAP1 MLOAD SWAP2 SWAP1 SWAP3 AND SWAP4 POP PUSH4 0xE60A3213 SWAP3 POP PUSH1 0x4 DUP1 DUP4 ADD SWAP3 PUSH1 0x20 SWAP3 SWAP2 SWAP1 DUP3 SWAP1 SUB ADD DUP2 DUP7 GAS STATICCALL ISZERO DUP1 ISZERO PUSH3 0x1A4 JUMPI RETURNDATASIZE PUSH1 0x0 DUP1 RETURNDATACOPY RETURNDATASIZE PUSH1 0x0 REVERT JUMPDEST POP POP POP POP PUSH1 0x40 MLOAD RETURNDATASIZE PUSH1 0x1F NOT PUSH1 0x1F DUP3 ADD AND DUP3 ADD DUP1 PUSH1 0x40 MSTORE POP DUP2 ADD SWAP1 PUSH3 0x1CA SWAP2 SWAP1 PUSH3 0x503 JUMP JUMPDEST PUSH1 0x1 PUSH1 0x1 PUSH1 0xA0 SHL SUB SWAP1 DUP2 AND PUSH2 0x100 SWAP1 DUP2 MSTORE SWAP7 DUP2 AND PUSH2 0x120 SWAP1 DUP2 MSTORE PUSH1 0x2 DUP1 SLOAD SWAP8 DUP4 AND PUSH1 0x1 PUSH1 0x1 PUSH1 0xA0 SHL SUB NOT SWAP9 DUP10 AND OR SWAP1 SSTORE PUSH1 0x3 SWAP6 SWAP1 SWAP6 SSTORE DUP4 MLOAD PUSH1 0x4 DUP1 SLOAD SWAP2 DUP4 AND SWAP2 DUP9 AND SWAP2 SWAP1 SWAP2 OR SWAP1 SSTORE PUSH1 0x20 DUP5 ADD MLOAD PUSH1 0x5 DUP1 SLOAD SWAP2 DUP4 AND SWAP2 DUP9 AND SWAP2 SWAP1 SWAP2 OR SWAP1 SSTORE PUSH1 0x40 DUP5 ADD MLOAD PUSH1 0x6 DUP1 SLOAD SWAP2 DUP4 AND SWAP2 DUP9 AND SWAP2 SWAP1 SWAP2 OR SWAP1 SSTORE PUSH1 0x60 DUP5 ADD MLOAD PUSH1 0x7 DUP1 SLOAD SWAP2 DUP4 AND SWAP2 SWAP1 SWAP8 AND OR SWAP1 SWAP6 SSTORE POP POP PUSH1 0x80 DUP2 ADD MLOAD PUSH1 0xA0 DUP3 ADD MLOAD PUSH1 0x1 PUSH1 0x1 PUSH1 0x60 SHL SUB AND PUSH1 0x1 PUSH1 0xA0 SHL MUL SWAP4 AND SWAP3 SWAP1 SWAP3 OR PUSH1 0x8 SSTORE PUSH1 0xC0 DUP3 ADD MLOAD PUSH1 0x9 SSTORE PUSH1 0xE0 DUP3 ADD MLOAD PUSH1 0xA SSTORE SWAP2 DUP2 ADD MLOAD PUSH1 0xB SSTORE SWAP1 DUP2 ADD MLOAD PUSH1 0xC SSTORE PUSH2 0x140 DUP2 ADD MLOAD PUSH1 0xD DUP1 SLOAD SWAP2 ISZERO ISZERO PUSH1 0xFF NOT SWAP1 SWAP3 AND SWAP2 SWAP1 SWAP2 OR SWAP1 SSTORE PUSH2 0x160 DUP2 ADD MLOAD PUSH1 0xE SSTORE PUSH2 0x180 ADD MLOAD PUSH1 0xF SSTORE POP PUSH3 0x564 SWAP1 POP JUMP JUMPDEST PUSH1 0x0 DUP1 SLOAD PUSH1 0x1 PUSH1 0x1 PUSH1 0xA0 SHL SUB DUP4 DUP2 AND PUSH1 0x1 PUSH1 0x1 PUSH1 0xA0 SHL SUB NOT DUP4 AND DUP2 OR DUP5 SSTORE PUSH1 0x40 MLOAD SWAP2 SWAP1 SWAP3 AND SWAP3 DUP4 SWAP2 PUSH32 0x8BE0079C531659141344CD1FD0A4F28419497F9722A3DAAFE3B4186F6B6457E0 SWAP2 SWAP1 LOG3 POP POP JUMP JUMPDEST PUSH1 0x1 PUSH1 0x1 PUSH1 0xA0 SHL SUB DUP2 AND DUP2 EQ PUSH3 0x32B JUMPI PUSH1 0x0 DUP1 REVERT JUMPDEST POP JUMP JUMPDEST DUP1 MLOAD PUSH3 0x33B DUP2 PUSH3 0x315 JUMP JUMPDEST SWAP2 SWAP1 POP JUMP JUMPDEST PUSH1 0x40 MLOAD PUSH2 0x1A0 DUP2 ADD PUSH1 0x1 PUSH1 0x1 PUSH1 0x40 SHL SUB DUP2 GT DUP3 DUP3 LT OR ISZERO PUSH3 0x372 JUMPI PUSH4 0x4E487B71 PUSH1 0xE0 SHL PUSH1 0x0 MSTORE PUSH1 0x41 PUSH1 0x4 MSTORE PUSH1 0x24 PUSH1 0x0 REVERT JUMPDEST PUSH1 0x40 MSTORE SWAP1 JUMP JUMPDEST DUP1 MLOAD PUSH1 0xB DUP2 SWAP1 SIGNEXTEND DUP2 EQ PUSH3 0x33B JUMPI PUSH1 0x0 DUP1 REVERT JUMPDEST DUP1 MLOAD DUP1 ISZERO ISZERO DUP2 EQ PUSH3 0x33B JUMPI PUSH1 0x0 DUP1 REVERT JUMPDEST PUSH1 0x0 DUP1 PUSH1 0x0 DUP1 PUSH1 0x0 DUP1 DUP7 DUP9 SUB PUSH2 0x240 DUP2 SLT ISZERO PUSH3 0x3B8 JUMPI PUSH1 0x0 DUP1 REVERT JUMPDEST DUP8 MLOAD PUSH3 0x3C5 DUP2 PUSH3 0x315 JUMP JUMPDEST PUSH1 0x20 DUP10 ADD MLOAD SWAP1 SWAP8 POP PUSH3 0x3D8 DUP2 PUSH3 0x315 JUMP JUMPDEST PUSH1 0x40 DUP10 ADD MLOAD SWAP1 SWAP7 POP PUSH3 0x3EB DUP2 PUSH3 0x315 JUMP JUMPDEST PUSH1 0x60 DUP10 ADD MLOAD SWAP1 SWAP6 POP PUSH3 0x3FE DUP2 PUSH3 0x315 JUMP JUMPDEST PUSH1 0x80 DUP10 ADD MLOAD SWAP1 SWAP5 POP SWAP3 POP PUSH2 0x1A0 PUSH1 0x9F NOT DUP3 ADD DUP2 SGT ISZERO PUSH3 0x41D JUMPI PUSH1 0x0 DUP1 REVERT JUMPDEST PUSH3 0x427 PUSH3 0x340 JUMP JUMPDEST SWAP2 POP PUSH3 0x437 PUSH1 0xA0 DUP11 ADD PUSH3 0x32E JUMP JUMPDEST DUP3 MSTORE PUSH3 0x447 PUSH1 0xC0 DUP11 ADD PUSH3 0x32E JUMP JUMPDEST PUSH1 0x20 DUP4 ADD MSTORE PUSH3 0x45A PUSH1 0xE0 DUP11 ADD PUSH3 0x32E JUMP JUMPDEST PUSH1 0x40 DUP4 ADD MSTORE PUSH2 0x100 PUSH3 0x46F DUP2 DUP12 ADD PUSH3 0x32E JUMP JUMPDEST PUSH1 0x60 DUP5 ADD MSTORE PUSH2 0x120 PUSH3 0x484 DUP2 DUP13 ADD PUSH3 0x32E JUMP JUMPDEST PUSH1 0x80 DUP6 ADD MSTORE PUSH2 0x140 PUSH3 0x499 DUP2 DUP14 ADD PUSH3 0x378 JUMP JUMPDEST PUSH1 0xA0 DUP7 ADD MSTORE PUSH2 0x160 DUP1 DUP14 ADD MLOAD PUSH1 0xC0 DUP8 ADD MSTORE PUSH2 0x180 DUP1 DUP15 ADD MLOAD PUSH1 0xE0 DUP9 ADD MSTORE DUP6 DUP15 ADD MLOAD DUP6 DUP9 ADD MSTORE PUSH2 0x1C0 DUP15 ADD MLOAD DUP5 DUP9 ADD MSTORE PUSH3 0x4D7 PUSH2 0x1E0 DUP16 ADD PUSH3 0x38B JUMP JUMPDEST DUP4 DUP9 ADD MSTORE PUSH2 0x200 DUP15 ADD MLOAD DUP3 DUP9 ADD MSTORE PUSH2 0x220 DUP15 ADD MLOAD DUP2 DUP9 ADD MSTORE POP POP POP POP POP POP DUP1 SWAP2 POP POP SWAP3 SWAP6 POP SWAP3 SWAP6 POP SWAP3 SWAP6 JUMP JUMPDEST PUSH1 0x0 PUSH1 0x20 DUP3 DUP5 SUB SLT ISZERO PUSH3 0x516 JUMPI PUSH1 0x0 DUP1 REVERT JUMPDEST DUP2 MLOAD PUSH3 0x523 DUP2 PUSH3 0x315 JUMP JUMPDEST SWAP4 SWAP3 POP POP POP JUMP JUMPDEST PUSH1 0x0 DUP1 PUSH1 0x40 DUP4 DUP6 SUB SLT ISZERO PUSH3 0x53E JUMPI PUSH1 0x0 DUP1 REVERT JUMPDEST DUP3 MLOAD PUSH3 0x54B DUP2 PUSH3 0x315 JUMP JUMPDEST SWAP2 POP PUSH3 0x55B PUSH1 0x20 DUP5 ADD PUSH3 0x38B JUMP JUMPDEST SWAP1 POP SWAP3 POP SWAP3 SWAP1 POP JUMP JUMPDEST PUSH1 0x80 MLOAD PUSH1 0xA0 MLOAD PUSH1 0xC0 MLOAD PUSH1 0xE0 MLOAD PUSH2 0x100 MLOAD PUSH2 0x120 MLOAD PUSH2 0x1714 PUSH3 0x5E9 PUSH1 0x0 CODECOPY PUSH1 0x0 DUP2 DUP2 PUSH2 0x432 ADD MSTORE DUP2 DUP2 PUSH2 0x1162 ADD MSTORE PUSH2 0x122E ADD MSTORE PUSH1 0x0 DUP2 DUP2 PUSH2 0x47C ADD MSTORE DUP2 DUP2 PUSH2 0xD14 ADD MSTORE PUSH2 0xE4B ADD MSTORE PUSH1 0x0 DUP2 DUP2 PUSH2 0x33F ADD MSTORE DUP2 DUP2 PUSH2 0xD84 ADD MSTORE PUSH2 0xE14 ADD MSTORE PUSH1 0x0 POP POP PUSH1 0x0 PUSH2 0x2D6 ADD MSTORE PUSH1 0x0 DUP2 DUP2 PUSH2 0x174 ADD MSTORE DUP2 DUP2 PUSH2 0xC2F ADD MSTORE PUSH2 0x10C6 ADD MSTORE PUSH2 0x1714 PUSH1 0x0 RETURN INVALID PUSH1 0x80 PUSH1 0x40 MSTORE PUSH1 0x4 CALLDATASIZE LT PUSH2 0x12A JUMPI PUSH1 0x0 CALLDATALOAD PUSH1 0xE0 SHR DUP1 PUSH4 0x6EAA31AA GT PUSH2 0xAB JUMPI DUP1 PUSH4 0xBE9FB3E2 GT PUSH2 0x6F JUMPI DUP1 PUSH4 0xBE9FB3E2 EQ PUSH2 0x400 JUMPI DUP1 PUSH4 0xC31C9C07 EQ PUSH2 0x420 JUMPI DUP1 PUSH4 0xD6DC09F7 EQ PUSH2 0x454 JUMPI DUP1 PUSH4 0xE60A3213 EQ PUSH2 0x46A JUMPI DUP1 PUSH4 0xEE8CA3B5 EQ PUSH2 0x49E JUMPI DUP1 PUSH4 0xF2FDE38B EQ PUSH2 0x4BE JUMPI PUSH1 0x0 DUP1 REVERT JUMPDEST DUP1 PUSH4 0x6EAA31AA EQ PUSH2 0x377 JUMPI DUP1 PUSH4 0x70D05BE0 EQ PUSH2 0x397 JUMPI DUP1 PUSH4 0x715018A6 EQ PUSH2 0x3AD JUMPI DUP1 PUSH4 0x8DA5CB5B EQ PUSH2 0x3C2 JUMPI DUP1 PUSH4 0x9B2ED694 EQ PUSH2 0x3E0 JUMPI PUSH1 0x0 DUP1 REVERT JUMPDEST DUP1 PUSH4 0x28F150EB GT PUSH2 0xF2 JUMPI DUP1 PUSH4 0x28F150EB EQ PUSH2 0x2C4 JUMPI DUP1 PUSH4 0x2B044B73 EQ PUSH2 0x2F8 JUMPI DUP1 PUSH4 0x328E00F0 EQ PUSH2 0x318 JUMPI DUP1 PUSH4 0x46EE3C59 EQ PUSH2 0x32D JUMPI DUP1 PUSH4 0x4EA573F1 EQ PUSH2 0x361 JUMPI PUSH1 0x0 DUP1 REVERT JUMPDEST DUP1 PUSH4 0x2827BCA EQ PUSH2 0x12F JUMPI DUP1 PUSH4 0x49AACFE EQ PUSH2 0x162 JUMPI DUP1 PUSH4 0x6C9C37D EQ PUSH2 0x1AE JUMPI DUP1 PUSH4 0x89FE6AA EQ PUSH2 0x1B8 JUMPI DUP1 PUSH4 0x1ADC317F EQ PUSH2 0x1E2 JUMPI JUMPDEST PUSH1 0x0 DUP1 REVERT JUMPDEST CALLVALUE DUP1 ISZERO PUSH2 0x13B JUMPI PUSH1 0x0 DUP1 REVERT JUMPDEST POP PUSH2 0x14F PUSH2 0x14A CALLDATASIZE PUSH1 0x4 PUSH2 0x13E7 JUMP JUMPDEST PUSH2 0x4DE JUMP JUMPDEST PUSH1 0x40 MLOAD SWAP1 DUP2 MSTORE PUSH1 0x20 ADD JUMPDEST PUSH1 0x40 MLOAD DUP1 SWAP2 SUB SWAP1 RETURN JUMPDEST CALLVALUE DUP1 ISZERO PUSH2 0x16E JUMPI PUSH1 0x0 DUP1 REVERT JUMPDEST POP PUSH2 0x196 PUSH32 0x0 DUP2 JUMP JUMPDEST PUSH1 0x40 MLOAD PUSH1 0x1 PUSH1 0x1 PUSH1 0xA0 SHL SUB SWAP1 SWAP2 AND DUP2 MSTORE PUSH1 0x20 ADD PUSH2 0x159 JUMP JUMPDEST PUSH2 0x1B6 PUSH2 0x75A JUMP JUMPDEST STOP JUMPDEST CALLVALUE DUP1 ISZERO PUSH2 0x1C4 JUMPI PUSH1 0x0 DUP1 REVERT JUMPDEST POP PUSH2 0x1CE PUSH2 0xBB8 DUP2 JUMP JUMPDEST PUSH1 0x40 MLOAD PUSH3 0xFFFFFF SWAP1 SWAP2 AND DUP2 MSTORE PUSH1 0x20 ADD PUSH2 0x159 JUMP JUMPDEST CALLVALUE DUP1 ISZERO PUSH2 0x1EE JUMPI PUSH1 0x0 DUP1 REVERT JUMPDEST POP PUSH1 0x4 SLOAD PUSH1 0x5 SLOAD PUSH1 0x6 SLOAD PUSH1 0x7 SLOAD PUSH1 0x8 SLOAD PUSH1 0x9 SLOAD PUSH1 0xA SLOAD PUSH1 0xB DUP1 SLOAD PUSH1 0xC SLOAD PUSH1 0xD SLOAD PUSH1 0xE SLOAD PUSH1 0xF SLOAD PUSH2 0x248 SWAP13 PUSH1 0x1 PUSH1 0x1 PUSH1 0xA0 SHL SUB SWAP1 DUP2 AND SWAP13 DUP2 AND SWAP12 DUP2 AND SWAP11 DUP2 AND SWAP10 SWAP1 DUP2 AND SWAP9 PUSH1 0x1 PUSH1 0xA0 SHL SWAP1 SWAP2 DIV SWAP1 SWAP7 SIGNEXTEND SWAP7 SWAP5 SWAP4 SWAP3 PUSH1 0xFF AND SWAP2 SWAP1 DUP14 JUMP JUMPDEST PUSH1 0x40 DUP1 MLOAD PUSH1 0x1 PUSH1 0x1 PUSH1 0xA0 SHL SUB SWAP15 DUP16 AND DUP2 MSTORE SWAP13 DUP15 AND PUSH1 0x20 DUP15 ADD MSTORE SWAP11 DUP14 AND SWAP11 DUP13 ADD SWAP11 SWAP1 SWAP11 MSTORE SWAP8 DUP12 AND PUSH1 0x60 DUP12 ADD MSTORE SWAP10 SWAP1 SWAP6 AND PUSH1 0x80 DUP10 ADD MSTORE PUSH1 0xB SWAP4 SWAP1 SWAP4 SIGNEXTEND PUSH1 0xA0 DUP9 ADD MSTORE PUSH1 0xC0 DUP8 ADD SWAP2 SWAP1 SWAP2 MSTORE PUSH1 0xE0 DUP7 ADD MSTORE PUSH2 0x100 DUP6 ADD MSTORE PUSH2 0x120 DUP5 ADD MSTORE SWAP3 ISZERO ISZERO PUSH2 0x140 DUP4 ADD MSTORE PUSH2 0x160 DUP3 ADD SWAP3 SWAP1 SWAP3 MSTORE PUSH2 0x180 DUP2 ADD SWAP2 SWAP1 SWAP2 MSTORE PUSH2 0x1A0 ADD PUSH2 0x159 JUMP JUMPDEST CALLVALUE DUP1 ISZERO PUSH2 0x2D0 JUMPI PUSH1 0x0 DUP1 REVERT JUMPDEST POP PUSH2 0x196 PUSH32 0x0 DUP2 JUMP JUMPDEST CALLVALUE DUP1 ISZERO PUSH2 0x304 JUMPI PUSH1 0x0 DUP1 REVERT JUMPDEST POP PUSH2 0x1B6 PUSH2 0x313 CALLDATASIZE PUSH1 0x4 PUSH2 0x141E JUMP JUMPDEST PUSH2 0x77A JUMP JUMPDEST CALLVALUE DUP1 ISZERO PUSH2 0x324 JUMPI PUSH1 0x0 DUP1 REVERT JUMPDEST POP PUSH2 0x1B6 PUSH2 0x788 JUMP JUMPDEST CALLVALUE DUP1 ISZERO PUSH2 0x339 JUMPI PUSH1 0x0 DUP1 REVERT JUMPDEST POP PUSH2 0x196 PUSH32 0x0 DUP2 JUMP JUMPDEST CALLVALUE DUP1 ISZERO PUSH2 0x36D JUMPI PUSH1 0x0 DUP1 REVERT JUMPDEST POP PUSH2 0x14F PUSH1 0x3 SLOAD DUP2 JUMP JUMPDEST CALLVALUE DUP1 ISZERO PUSH2 0x383 JUMPI PUSH1 0x0 DUP1 REVERT JUMPDEST POP PUSH1 0x2 SLOAD PUSH2 0x196 SWAP1 PUSH1 0x1 PUSH1 0x1 PUSH1 0xA0 SHL SUB AND DUP2 JUMP JUMPDEST CALLVALUE DUP1 ISZERO PUSH2 0x3A3 JUMPI PUSH1 0x0 DUP1 REVERT JUMPDEST POP PUSH2 0x14F PUSH1 0x10 SLOAD DUP2 JUMP JUMPDEST CALLVALUE DUP1 ISZERO PUSH2 0x3B9 JUMPI PUSH1 0x0 DUP1 REVERT JUMPDEST POP PUSH2 0x1B6 PUSH2 0x824 JUMP JUMPDEST CALLVALUE DUP1 ISZERO PUSH2 0x3CE JUMPI PUSH1 0x0 DUP1 REVERT JUMPDEST POP PUSH1 0x0 SLOAD PUSH1 0x1 PUSH1 0x1 PUSH1 0xA0 SHL SUB AND PUSH2 0x196 JUMP JUMPDEST CALLVALUE DUP1 ISZERO PUSH2 0x3EC JUMPI PUSH1 0x0 DUP1 REVERT JUMPDEST POP PUSH2 0x14F PUSH2 0x3FB CALLDATASIZE PUSH1 0x4 PUSH2 0x144E JUMP JUMPDEST PUSH2 0x836 JUMP JUMPDEST CALLVALUE DUP1 ISZERO PUSH2 0x40C JUMPI PUSH1 0x0 DUP1 REVERT JUMPDEST POP PUSH2 0x1B6 PUSH2 0x41B CALLDATASIZE PUSH1 0x4 PUSH2 0x1467 JUMP JUMPDEST PUSH2 0xA03 JUMP JUMPDEST CALLVALUE DUP1 ISZERO PUSH2 0x42C JUMPI PUSH1 0x0 DUP1 REVERT JUMPDEST POP PUSH2 0x196 PUSH32 0x0 DUP2 JUMP JUMPDEST CALLVALUE DUP1 ISZERO PUSH2 0x460 JUMPI PUSH1 0x0 DUP1 REVERT JUMPDEST POP PUSH2 0x14F PUSH1 0x11 SLOAD DUP2 JUMP JUMPDEST CALLVALUE DUP1 ISZERO PUSH2 0x476 JUMPI PUSH1 0x0 DUP1 REVERT JUMPDEST POP PUSH2 0x196 PUSH32 0x0 DUP2 JUMP JUMPDEST CALLVALUE DUP1 ISZERO PUSH2 0x4AA JUMPI PUSH1 0x0 DUP1 REVERT JUMPDEST POP PUSH2 0x1B6 PUSH2 0x4B9 CALLDATASIZE PUSH1 0x4 PUSH2 0x144E JUMP JUMPDEST PUSH2 0xB5C JUMP JUMPDEST CALLVALUE DUP1 ISZERO PUSH2 0x4CA JUMPI PUSH1 0x0 DUP1 REVERT JUMPDEST POP PUSH2 0x1B6 PUSH2 0x4D9 CALLDATASIZE PUSH1 0x4 PUSH2 0x1467 JUMP JUMPDEST PUSH2 0xB9C JUMP JUMPDEST PUSH1 0x2 SLOAD PUSH1 0x0 SWAP1 PUSH1 0x1 PUSH1 0x1 PUSH1 0xA0 SHL SUB AND CALLER EQ PUSH2 0x514 JUMPI PUSH1 0x40 MLOAD PUSH3 0x461BCD PUSH1 0xE5 SHL DUP2 MSTORE PUSH1 0x4 ADD PUSH2 0x50B SWAP1 PUSH2 0x148B JUMP JUMPDEST PUSH1 0x40 MLOAD DUP1 SWAP2 SUB SWAP1 REVERT JUMPDEST PUSH1 0x40 DUP1 MLOAD PUSH1 0x3 DUP2 DUP4 ADD DUP2 DUP2 MSTORE PUSH1 0xC0 DUP4 ADD SWAP1 SWAP4 MSTORE PUSH1 0x0 SWAP3 DUP3 SWAP2 PUSH1 0x60 DUP1 DUP5 ADD SWAP1 DUP1 CALLDATASIZE DUP4 CALLDATACOPY ADD SWAP1 POP POP DUP2 MSTORE PUSH1 0x40 DUP1 MLOAD PUSH1 0x3 DUP1 DUP3 MSTORE PUSH1 0x80 DUP3 ADD SWAP1 SWAP3 MSTORE PUSH1 0x20 SWAP1 SWAP3 ADD SWAP2 SWAP1 DUP2 PUSH1 0x20 ADD JUMPDEST PUSH1 0x60 DUP2 MSTORE PUSH1 0x20 ADD SWAP1 PUSH1 0x1 SWAP1 SUB SWAP1 DUP2 PUSH2 0x558 JUMPI POP POP SWAP1 MSTORE DUP1 MLOAD DUP1 MLOAD SWAP2 SWAP3 POP PUSH1 0x1 SWAP2 PUSH1 0x0 SWAP1 PUSH2 0x587 JUMPI PUSH2 0x587 PUSH2 0x14B3 JUMP JUMPDEST PUSH1 0x20 MUL PUSH1 0x20 ADD ADD SWAP1 PUSH1 0x4 DUP2 GT ISZERO PUSH2 0x5A0 JUMPI PUSH2 0x5A0 PUSH2 0x14C9 JUMP JUMPDEST SWAP1 DUP2 PUSH1 0x4 DUP2 GT ISZERO PUSH2 0x5B3 JUMPI PUSH2 0x5B3 PUSH2 0x14C9 JUMP JUMPDEST DUP2 MSTORE POP POP PUSH1 0x2 DUP2 PUSH1 0x0 ADD MLOAD PUSH1 0x1 DUP2 MLOAD DUP2 LT PUSH2 0x5D0 JUMPI PUSH2 0x5D0 PUSH2 0x14B3 JUMP JUMPDEST PUSH1 0x20 MUL PUSH1 0x20 ADD ADD SWAP1 PUSH1 0x4 DUP2 GT ISZERO PUSH2 0x5E9 JUMPI PUSH2 0x5E9 PUSH2 0x14C9 JUMP JUMPDEST SWAP1 DUP2 PUSH1 0x4 DUP2 GT ISZERO PUSH2 0x5FC JUMPI PUSH2 0x5FC PUSH2 0x14C9 JUMP JUMPDEST DUP2 MSTORE POP POP PUSH1 0x3 DUP2 PUSH1 0x0 ADD MLOAD PUSH1 0x2 DUP2 MLOAD DUP2 LT PUSH2 0x619 JUMPI PUSH2 0x619 PUSH2 0x14B3 JUMP JUMPDEST PUSH1 0x20 MUL PUSH1 0x20 ADD ADD SWAP1 PUSH1 0x4 DUP2 GT ISZERO PUSH2 0x632 JUMPI PUSH2 0x632 PUSH2 0x14C9 JUMP JUMPDEST SWAP1 DUP2 PUSH1 0x4 DUP2 GT ISZERO PUSH2 0x645 JUMPI PUSH2 0x645 PUSH2 0x14C9 JUMP JUMPDEST SWAP1 MSTORE POP PUSH1 0x40 DUP1 MLOAD PUSH1 0x1 PUSH1 0x1 PUSH1 0x80 SHL SUB TIMESTAMP DUP2 AND PUSH1 0x20 DUP4 ADD MSTORE DUP6 AND DUP2 DUP4 ADD MSTORE DUP2 MLOAD DUP1 DUP3 SUB DUP4 ADD DUP2 MSTORE PUSH1 0x60 SWAP1 SWAP2 ADD SWAP1 SWAP2 MSTORE DUP2 PUSH1 0x20 ADD MLOAD PUSH1 0x0 DUP2 MLOAD DUP2 LT PUSH2 0x68A JUMPI PUSH2 0x68A PUSH2 0x14B3 JUMP JUMPDEST PUSH1 0x20 MUL PUSH1 0x20 ADD ADD DUP2 SWAP1 MSTORE POP PUSH2 0x6AA PUSH1 0x40 DUP1 MLOAD PUSH1 0x20 DUP2 ADD SWAP1 SWAP2 MSTORE PUSH1 0x0 DUP2 MSTORE SWAP1 JUMP JUMPDEST DUP2 PUSH1 0x20 ADD MLOAD PUSH1 0x1 DUP2 MLOAD DUP2 LT PUSH2 0x6C1 JUMPI PUSH2 0x6C1 PUSH2 0x14B3 JUMP JUMPDEST PUSH1 0x20 MUL PUSH1 0x20 ADD ADD DUP2 SWAP1 MSTORE POP PUSH2 0x6E1 PUSH1 0x40 DUP1 MLOAD PUSH1 0x20 DUP2 ADD SWAP1 SWAP2 MSTORE PUSH1 0x0 DUP2 MSTORE SWAP1 JUMP JUMPDEST DUP2 PUSH1 0x20 ADD MLOAD PUSH1 0x2 DUP2 MLOAD DUP2 LT PUSH2 0x6F8 JUMPI PUSH2 0x6F8 PUSH2 0x14B3 JUMP JUMPDEST PUSH1 0x20 SWAP1 DUP2 MUL SWAP2 SWAP1 SWAP2 ADD DUP2 ADD SWAP2 SWAP1 SWAP2 MSTORE PUSH1 0x2 SLOAD PUSH1 0x40 DUP1 MLOAD PUSH4 0xA839BD0D PUSH1 0xE0 SHL SWAP4 DUP2 ADD SWAP4 SWAP1 SWAP4 MSTORE DUP3 ADD DUP7 SWAP1 MSTORE PUSH2 0x74D SWAP2 PUSH1 0x1 PUSH1 0x1 PUSH1 0xA0 SHL SUB SWAP1 SWAP2 AND SWAP1 PUSH1 0x60 ADD JUMPDEST PUSH1 0x40 MLOAD PUSH1 0x20 DUP2 DUP4 SUB SUB DUP2 MSTORE SWAP1 PUSH1 0x40 MSTORE DUP4 PUSH1 0x0 PUSH2 0xC15 JUMP JUMPDEST PUSH1 0xF DUP2 SWAP1 SSTORE SWAP5 SWAP4 POP POP POP POP JUMP JUMPDEST PUSH2 0x778 CALLVALUE PUSH20 0xEEEEEEEEEEEEEEEEEEEEEEEEEEEEEEEEEEEEEEEE PUSH2 0xCB6 JUMP JUMPDEST JUMP JUMPDEST PUSH2 0x784 DUP3 DUP3 PUSH2 0xD79 JUMP JUMPDEST POP POP JUMP JUMPDEST PUSH1 0xD SLOAD PUSH1 0xFF AND PUSH2 0x7C7 JUMPI PUSH1 0x40 MLOAD PUSH3 0x461BCD PUSH1 0xE5 SHL DUP2 MSTORE PUSH1 0x20 PUSH1 0x4 DUP3 ADD MSTORE PUSH1 0xA PUSH1 0x24 DUP3 ADD MSTORE PUSH10 0x4E6F7420416374697665 PUSH1 0xB0 SHL PUSH1 0x44 DUP3 ADD MSTORE PUSH1 0x64 ADD PUSH2 0x50B JUMP JUMPDEST PUSH1 0xA SLOAD PUSH1 0xB SLOAD PUSH2 0x7D7 SWAP2 SWAP1 PUSH2 0x14DF JUMP JUMPDEST TIMESTAMP GT PUSH2 0x81C JUMPI PUSH1 0x40 MLOAD PUSH3 0x461BCD PUSH1 0xE5 SHL DUP2 MSTORE PUSH1 0x20 PUSH1 0x4 DUP3 ADD MSTORE PUSH1 0x14 PUSH1 0x24 DUP3 ADD MSTORE PUSH20 0x119C995C481D1A5B59481B9BDD081C185CDCD959 PUSH1 0x62 SHL PUSH1 0x44 DUP3 ADD MSTORE PUSH1 0x64 ADD PUSH2 0x50B JUMP JUMPDEST PUSH2 0x778 PUSH2 0xEAC JUMP JUMPDEST PUSH2 0x82C PUSH2 0x1006 JUMP JUMPDEST PUSH2 0x778 PUSH1 0x0 PUSH2 0x1060 JUMP JUMPDEST PUSH1 0x2 SLOAD PUSH1 0x0 SWAP1 PUSH1 0x1 PUSH1 0x1 PUSH1 0xA0 SHL SUB AND CALLER EQ PUSH2 0x863 JUMPI PUSH1 0x40 MLOAD PUSH3 0x461BCD PUSH1 0xE5 SHL DUP2 MSTORE PUSH1 0x4 ADD PUSH2 0x50B SWAP1 PUSH2 0x148B JUMP JUMPDEST PUSH1 0x40 DUP1 MLOAD PUSH1 0x2 DUP2 DUP4 ADD DUP2 DUP2 MSTORE PUSH1 0xA0 DUP4 ADD DUP5 MSTORE PUSH1 0x0 SWAP4 DUP4 SWAP3 SWAP1 PUSH1 0x60 DUP5 ADD SWAP1 DUP1 CALLDATASIZE DUP4 CALLDATACOPY ADD SWAP1 POP POP DUP2 MSTORE PUSH1 0x40 DUP1 MLOAD PUSH1 0x2 DUP1 DUP3 MSTORE PUSH1 0x60 DUP3 ADD SWAP1 SWAP3 MSTORE PUSH1 0x20 SWAP1 SWAP3 ADD SWAP2 SWAP1 DUP2 PUSH1 0x20 ADD JUMPDEST PUSH1 0x60 DUP2 MSTORE PUSH1 0x20 ADD SWAP1 PUSH1 0x1 SWAP1 SUB SWAP1 DUP2 PUSH2 0x8A6 JUMPI POP POP SWAP1 MSTORE DUP1 MLOAD DUP1 MLOAD SWAP2 SWAP3 POP PUSH1 0x1 SWAP2 PUSH1 0x0 SWAP1 PUSH2 0x8D5 JUMPI PUSH2 0x8D5 PUSH2 0x14B3 JUMP JUMPDEST PUSH1 0x20 MUL PUSH1 0x20 ADD ADD SWAP1 PUSH1 0x4 DUP2 GT ISZERO PUSH2 0x8EE JUMPI PUSH2 0x8EE PUSH2 0x14C9 JUMP JUMPDEST SWAP1 DUP2 PUSH1 0x4 DUP2 GT ISZERO PUSH2 0x901 JUMPI PUSH2 0x901 PUSH2 0x14C9 JUMP JUMPDEST DUP2 MSTORE POP POP PUSH1 0x2 DUP2 PUSH1 0x0 ADD MLOAD PUSH1 0x1 DUP2 MLOAD DUP2 LT PUSH2 0x91E JUMPI PUSH2 0x91E PUSH2 0x14B3 JUMP JUMPDEST PUSH1 0x20 MUL PUSH1 0x20 ADD ADD SWAP1 PUSH1 0x4 DUP2 GT ISZERO PUSH2 0x937 JUMPI PUSH2 0x937 PUSH2 0x14C9 JUMP JUMPDEST SWAP1 DUP2 PUSH1 0x4 DUP2 GT ISZERO PUSH2 0x94A JUMPI PUSH2 0x94A PUSH2 0x14C9 JUMP JUMPDEST SWAP1 MSTORE POP PUSH1 0x40 DUP1 MLOAD PUSH1 0x1 PUSH1 0x1 PUSH1 0x80 SHL SUB TIMESTAMP DUP2 AND PUSH1 0x20 DUP4 ADD MSTORE DUP6 AND DUP2 DUP4 ADD MSTORE DUP2 MLOAD DUP1 DUP3 SUB DUP4 ADD DUP2 MSTORE PUSH1 0x60 SWAP1 SWAP2 ADD SWAP1 SWAP2 MSTORE DUP2 PUSH1 0x20 ADD MLOAD PUSH1 0x0 DUP2 MLOAD DUP2 LT PUSH2 0x98F JUMPI PUSH2 0x98F PUSH2 0x14B3 JUMP JUMPDEST PUSH1 0x20 MUL PUSH1 0x20 ADD ADD DUP2 SWAP1 MSTORE POP PUSH2 0x9AF PUSH1 0x40 DUP1 MLOAD PUSH1 0x20 DUP2 ADD SWAP1 SWAP2 MSTORE PUSH1 0x0 DUP2 MSTORE SWAP1 JUMP JUMPDEST DUP2 PUSH1 0x20 ADD MLOAD PUSH1 0x1 DUP2 MLOAD DUP2 LT PUSH2 0x9C6 JUMPI PUSH2 0x9C6 PUSH2 0x14B3 JUMP JUMPDEST PUSH1 0x20 SWAP1 DUP2 MUL SWAP2 SWAP1 SWAP2 ADD DUP2 ADD SWAP2 SWAP1 SWAP2 MSTORE PUSH1 0x40 DUP1 MLOAD ADDRESS DUP1 DUP5 SHL PUSH4 0x328E00F0 OR DUP4 SHL SWAP4 DUP3 ADD SWAP4 SWAP1 SWAP4 MSTORE PUSH2 0x9F7 SWAP3 SWAP2 ADD PUSH2 0x736 JUMP JUMPDEST PUSH1 0xE DUP2 SWAP1 SSTORE SWAP4 SWAP3 POP POP POP JUMP JUMPDEST PUSH1 0x2 SLOAD PUSH1 0x1 PUSH1 0x1 PUSH1 0xA0 SHL SUB AND CALLER EQ PUSH2 0xA2D JUMPI PUSH1 0x40 MLOAD PUSH3 0x461BCD PUSH1 0xE5 SHL DUP2 MSTORE PUSH1 0x4 ADD PUSH2 0x50B SWAP1 PUSH2 0x148B JUMP JUMPDEST PUSH1 0xD SLOAD PUSH1 0xFF AND ISZERO PUSH2 0xA6F JUMPI PUSH1 0x40 MLOAD PUSH3 0x461BCD PUSH1 0xE5 SHL DUP2 MSTORE PUSH1 0x20 PUSH1 0x4 DUP3 ADD MSTORE PUSH1 0xC PUSH1 0x24 DUP3 ADD MSTORE PUSH12 0x5354494C4C20414354495645 PUSH1 0xA0 SHL PUSH1 0x44 DUP3 ADD MSTORE PUSH1 0x64 ADD PUSH2 0x50B JUMP JUMPDEST PUSH1 0x40 MLOAD PUSH4 0x70A08231 PUSH1 0xE0 SHL DUP2 MSTORE ADDRESS PUSH1 0x4 DUP3 ADD MSTORE PUSH1 0x0 SWAP1 PUSH1 0x1 PUSH1 0x1 PUSH1 0xA0 SHL SUB DUP4 AND SWAP1 PUSH4 0x70A08231 SWAP1 PUSH1 0x24 ADD PUSH1 0x20 PUSH1 0x40 MLOAD DUP1 DUP4 SUB DUP2 DUP7 GAS STATICCALL ISZERO DUP1 ISZERO PUSH2 0xAB6 JUMPI RETURNDATASIZE PUSH1 0x0 DUP1 RETURNDATACOPY RETURNDATASIZE PUSH1 0x0 REVERT JUMPDEST POP POP POP POP PUSH1 0x40 MLOAD RETURNDATASIZE PUSH1 0x1F NOT PUSH1 0x1F DUP3 ADD AND DUP3 ADD DUP1 PUSH1 0x40 MSTORE POP DUP2 ADD SWAP1 PUSH2 0xADA SWAP2 SWAP1 PUSH2 0x1505 JUMP JUMPDEST PUSH1 0x4 DUP1 SLOAD PUSH1 0x40 MLOAD PUSH4 0xA9059CBB PUSH1 0xE0 SHL DUP2 MSTORE PUSH1 0x1 PUSH1 0x1 PUSH1 0xA0 SHL SUB SWAP2 DUP3 AND SWAP3 DUP2 ADD SWAP3 SWAP1 SWAP3 MSTORE PUSH1 0x24 DUP3 ADD DUP4 SWAP1 MSTORE SWAP2 SWAP3 POP SWAP1 DUP4 AND SWAP1 PUSH4 0xA9059CBB SWAP1 PUSH1 0x44 ADD PUSH1 0x20 PUSH1 0x40 MLOAD DUP1 DUP4 SUB DUP2 PUSH1 0x0 DUP8 GAS CALL ISZERO DUP1 ISZERO PUSH2 0xB33 JUMPI RETURNDATASIZE PUSH1 0x0 DUP1 RETURNDATACOPY RETURNDATASIZE PUSH1 0x0 REVERT JUMPDEST POP POP POP POP PUSH1 0x40 MLOAD RETURNDATASIZE PUSH1 0x1F NOT PUSH1 0x1F DUP3 ADD AND DUP3 ADD DUP1 PUSH1 0x40 MSTORE POP DUP2 ADD SWAP1 PUSH2 0xB57 SWAP2 SWAP1 PUSH2 0x151E JUMP JUMPDEST POP POP POP JUMP JUMPDEST PUSH1 0x2 SLOAD PUSH1 0x1 PUSH1 0x1 PUSH1 0xA0 SHL SUB AND CALLER EQ PUSH2 0xB86 JUMPI PUSH1 0x40 MLOAD PUSH3 0x461BCD PUSH1 0xE5 SHL DUP2 MSTORE PUSH1 0x4 ADD PUSH2 0x50B SWAP1 PUSH2 0x148B JUMP JUMPDEST PUSH2 0xB8F DUP2 PUSH2 0x10B0 JUMP JUMPDEST POP PUSH1 0xD DUP1 SLOAD PUSH1 0xFF NOT AND SWAP1 SSTORE JUMP JUMPDEST PUSH2 0xBA4 PUSH2 0x1006 JUMP JUMPDEST PUSH1 0x1 PUSH1 0x1 PUSH1 0xA0 SHL SUB DUP2 AND PUSH2 0xC09 JUMPI PUSH1 0x40 MLOAD PUSH3 0x461BCD PUSH1 0xE5 SHL DUP2 MSTORE PUSH1 0x20 PUSH1 0x4 DUP3 ADD MSTORE PUSH1 0x26 PUSH1 0x24 DUP3 ADD MSTORE PUSH32 0x4F776E61626C653A206E6577206F776E657220697320746865207A65726F2061 PUSH1 0x44 DUP3 ADD MSTORE PUSH6 0x646472657373 PUSH1 0xD0 SHL PUSH1 0x64 DUP3 ADD MSTORE PUSH1 0x84 ADD PUSH2 0x50B JUMP JUMPDEST PUSH2 0xC12 DUP2 PUSH2 0x1060 JUMP JUMPDEST POP JUMP JUMPDEST PUSH1 0x40 MLOAD PUSH4 0x3323B467 PUSH1 0xE0 SHL DUP2 MSTORE PUSH1 0x0 SWAP1 PUSH1 0x1 PUSH1 0x1 PUSH1 0xA0 SHL SUB PUSH32 0x0 AND SWAP1 PUSH4 0x3323B467 SWAP1 PUSH2 0xC6A SWAP1 DUP9 SWAP1 DUP9 SWAP1 DUP9 SWAP1 DUP9 SWAP1 PUSH1 0x4 ADD PUSH2 0x15ED JUMP JUMPDEST PUSH1 0x20 PUSH1 0x40 MLOAD DUP1 DUP4 SUB DUP2 PUSH1 0x0 DUP8 GAS CALL ISZERO DUP1 ISZERO PUSH2 0xC89 JUMPI RETURNDATASIZE PUSH1 0x0 DUP1 RETURNDATACOPY RETURNDATASIZE PUSH1 0x0 REVERT JUMPDEST POP POP POP POP PUSH1 0x40 MLOAD RETURNDATASIZE PUSH1 0x1F NOT PUSH1 0x1F DUP3 ADD AND DUP3 ADD DUP1 PUSH1 0x40 MSTORE POP DUP2 ADD SWAP1 PUSH2 0xCAD SWAP2 SWAP1 PUSH2 0x1505 JUMP JUMPDEST SWAP6 SWAP5 POP POP POP POP POP JUMP JUMPDEST PUSH1 0x0 PUSH1 0x1 PUSH1 0x1 PUSH1 0xA0 SHL SUB DUP3 AND PUSH20 0xEEEEEEEEEEEEEEEEEEEEEEEEEEEEEEEEEEEEEEEE EQ PUSH2 0xCE3 JUMPI PUSH1 0x0 PUSH2 0xCE5 JUMP JUMPDEST DUP3 JUMPDEST PUSH1 0x40 MLOAD PUSH4 0xC1461D57 PUSH1 0xE0 SHL DUP2 MSTORE ADDRESS PUSH1 0x4 DUP3 ADD MSTORE PUSH1 0x1 PUSH1 0x1 PUSH1 0xA0 SHL SUB DUP5 DUP2 AND PUSH1 0x24 DUP4 ADD MSTORE PUSH1 0x44 DUP3 ADD DUP7 SWAP1 MSTORE SWAP2 SWAP3 POP PUSH32 0x0 SWAP1 SWAP2 AND SWAP1 PUSH4 0xC1461D57 SWAP1 DUP4 SWAP1 PUSH1 0x64 ADD PUSH1 0x0 PUSH1 0x40 MLOAD DUP1 DUP4 SUB DUP2 DUP6 DUP9 DUP1 EXTCODESIZE ISZERO DUP1 ISZERO PUSH2 0xD5B JUMPI PUSH1 0x0 DUP1 REVERT JUMPDEST POP GAS CALL ISZERO DUP1 ISZERO PUSH2 0xD6F JUMPI RETURNDATASIZE PUSH1 0x0 DUP1 RETURNDATACOPY RETURNDATASIZE PUSH1 0x0 REVERT JUMPDEST POP POP POP POP POP POP POP POP JUMP JUMPDEST CALLER PUSH1 0x1 PUSH1 0x1 PUSH1 0xA0 SHL SUB PUSH32 0x0 AND EQ PUSH2 0xDFD JUMPI PUSH1 0x40 MLOAD PUSH3 0x461BCD PUSH1 0xE5 SHL DUP2 MSTORE PUSH1 0x20 PUSH1 0x4 DUP3 ADD MSTORE PUSH1 0x23 PUSH1 0x24 DUP3 ADD MSTORE PUSH32 0x4F6E6C792066756E6473206F776E65722063616E207769746864726177206675 PUSH1 0x44 DUP3 ADD MSTORE PUSH3 0x6E6473 PUSH1 0xE8 SHL PUSH1 0x64 DUP3 ADD MSTORE PUSH1 0x84 ADD PUSH2 0x50B JUMP JUMPDEST PUSH1 0x40 MLOAD PUSH4 0x1C20FADD PUSH1 0xE0 SHL DUP2 MSTORE PUSH1 0x1 PUSH1 0x1 PUSH1 0xA0 SHL SUB PUSH32 0x0 DUP2 AND PUSH1 0x4 DUP4 ADD MSTORE DUP3 DUP2 AND PUSH1 0x24 DUP4 ADD MSTORE PUSH1 0x44 DUP3 ADD DUP5 SWAP1 MSTORE PUSH32 0x0 AND SWAP1 PUSH4 0x1C20FADD SWAP1 PUSH1 0x64 ADD JUMPDEST PUSH1 0x0 PUSH1 0x40 MLOAD DUP1 DUP4 SUB DUP2 PUSH1 0x0 DUP8 DUP1 EXTCODESIZE ISZERO DUP1 ISZERO PUSH2 0xE90 JUMPI PUSH1 0x0 DUP1 REVERT JUMPDEST POP GAS CALL ISZERO DUP1 ISZERO PUSH2 0xEA4 JUMPI RETURNDATASIZE PUSH1 0x0 DUP1 RETURNDATACOPY RETURNDATASIZE PUSH1 0x0 REVERT JUMPDEST POP POP POP POP POP POP JUMP JUMPDEST PUSH1 0x7 SLOAD PUSH1 0x40 MLOAD PUSH4 0x70A08231 PUSH1 0xE0 SHL DUP2 MSTORE ADDRESS PUSH1 0x4 DUP3 ADD MSTORE PUSH1 0x1 PUSH1 0x1 PUSH1 0xA0 SHL SUB SWAP1 SWAP2 AND SWAP1 PUSH1 0x0 SWAP1 DUP3 SWAP1 PUSH4 0x70A08231 SWAP1 PUSH1 0x24 ADD PUSH1 0x20 PUSH1 0x40 MLOAD DUP1 DUP4 SUB DUP2 DUP7 GAS STATICCALL ISZERO DUP1 ISZERO PUSH2 0xEF9 JUMPI RETURNDATASIZE PUSH1 0x0 DUP1 RETURNDATACOPY RETURNDATASIZE PUSH1 0x0 REVERT JUMPDEST POP POP POP POP PUSH1 0x40 MLOAD RETURNDATASIZE PUSH1 0x1F NOT PUSH1 0x1F DUP3 ADD AND DUP3 ADD DUP1 PUSH1 0x40 MSTORE POP DUP2 ADD SWAP1 PUSH2 0xF1D SWAP2 SWAP1 PUSH2 0x1505 JUMP JUMPDEST SWAP1 POP PUSH2 0xF29 DUP3 DUP3 PUSH2 0x112D JUMP JUMPDEST PUSH1 0x0 DUP3 PUSH1 0x1 PUSH1 0x1 PUSH1 0xA0 SHL SUB AND PUSH4 0xEE719BC8 PUSH1 0x40 MLOAD DUP2 PUSH4 0xFFFFFFFF AND PUSH1 0xE0 SHL DUP2 MSTORE PUSH1 0x4 ADD PUSH1 0x20 PUSH1 0x40 MLOAD DUP1 DUP4 SUB DUP2 DUP7 GAS STATICCALL ISZERO DUP1 ISZERO PUSH2 0xF69 JUMPI RETURNDATASIZE PUSH1 0x0 DUP1 RETURNDATACOPY RETURNDATASIZE PUSH1 0x0 REVERT JUMPDEST POP POP POP POP PUSH1 0x40 MLOAD RETURNDATASIZE PUSH1 0x1F NOT PUSH1 0x1F DUP3 ADD AND DUP3 ADD DUP1 PUSH1 0x40 MSTORE POP DUP2 ADD SWAP1 PUSH2 0xF8D SWAP2 SWAP1 PUSH2 0x16A5 JUMP JUMPDEST PUSH1 0x6 SLOAD SWAP1 SWAP2 POP PUSH1 0x1 PUSH1 0x1 PUSH1 0xA0 SHL SUB DUP1 DUP4 AND SWAP2 AND EQ PUSH2 0xFDD JUMPI PUSH1 0x40 MLOAD PUSH3 0x461BCD PUSH1 0xE5 SHL DUP2 MSTORE PUSH1 0x20 PUSH1 0x4 DUP3 ADD MSTORE PUSH1 0xD PUSH1 0x24 DUP3 ADD MSTORE PUSH13 0x24A72B20A624A2102A27A5A2A7 PUSH1 0x99 SHL PUSH1 0x44 DUP3 ADD MSTORE PUSH1 0x64 ADD PUSH2 0x50B JUMP JUMPDEST PUSH1 0x6 SLOAD PUSH1 0x8 SLOAD PUSH1 0x4 SLOAD PUSH2 0x1000 SWAP3 PUSH1 0x1 PUSH1 0x1 PUSH1 0xA0 SHL SUB SWAP1 DUP2 AND SWAP3 DUP2 AND SWAP2 AND DUP6 PUSH2 0x115A JUMP JUMPDEST POP POP POP POP JUMP JUMPDEST PUSH1 0x0 SLOAD PUSH1 0x1 PUSH1 0x1 PUSH1 0xA0 SHL SUB AND CALLER EQ PUSH2 0x778 JUMPI PUSH1 0x40 MLOAD PUSH3 0x461BCD PUSH1 0xE5 SHL DUP2 MSTORE PUSH1 0x20 PUSH1 0x4 DUP3 ADD DUP2 SWAP1 MSTORE PUSH1 0x24 DUP3 ADD MSTORE PUSH32 0x4F776E61626C653A2063616C6C6572206973206E6F7420746865206F776E6572 PUSH1 0x44 DUP3 ADD MSTORE PUSH1 0x64 ADD PUSH2 0x50B JUMP JUMPDEST PUSH1 0x0 DUP1 SLOAD PUSH1 0x1 PUSH1 0x1 PUSH1 0xA0 SHL SUB DUP4 DUP2 AND PUSH1 0x1 PUSH1 0x1 PUSH1 0xA0 SHL SUB NOT DUP4 AND DUP2 OR DUP5 SSTORE PUSH1 0x40 MLOAD SWAP2 SWAP1 SWAP3 AND SWAP3 DUP4 SWAP2 PUSH32 0x8BE0079C531659141344CD1FD0A4F28419497F9722A3DAAFE3B4186F6B6457E0 SWAP2 SWAP1 LOG3 POP POP JUMP JUMPDEST PUSH1 0x40 MLOAD PUSH4 0xEE8CA3B5 PUSH1 0xE0 SHL DUP2 MSTORE PUSH1 0x4 DUP2 ADD DUP3 SWAP1 MSTORE PUSH32 0x0 PUSH1 0x1 PUSH1 0x1 PUSH1 0xA0 SHL SUB AND SWAP1 PUSH4 0xEE8CA3B5 SWAP1 PUSH1 0x24 ADD PUSH1 0x0 PUSH1 0x40 MLOAD DUP1 DUP4 SUB DUP2 PUSH1 0x0 DUP8 DUP1 EXTCODESIZE ISZERO DUP1 ISZERO PUSH2 0x1112 JUMPI PUSH1 0x0 DUP1 REVERT JUMPDEST POP GAS CALL ISZERO DUP1 ISZERO PUSH2 0x1126 JUMPI RETURNDATASIZE PUSH1 0x0 DUP1 RETURNDATACOPY RETURNDATASIZE PUSH1 0x0 REVERT JUMPDEST POP POP POP POP POP JUMP JUMPDEST PUSH1 0x40 MLOAD PUSH4 0x8DE640F PUSH1 0xE1 SHL DUP2 MSTORE PUSH1 0x4 DUP2 ADD DUP3 SWAP1 MSTORE PUSH1 0x1 PUSH1 0x1 PUSH1 0xA0 SHL SUB DUP4 AND SWAP1 PUSH4 0x11BCC81E SWAP1 PUSH1 0x24 ADD PUSH2 0xE76 JUMP JUMPDEST PUSH1 0x0 PUSH2 0x1187 DUP6 PUSH32 0x0 DUP5 PUSH2 0x12B3 JUMP JUMPDEST PUSH1 0x40 DUP1 MLOAD PUSH2 0x100 DUP2 ADD DUP3 MSTORE PUSH1 0x1 PUSH1 0x1 PUSH1 0xA0 SHL SUB DUP8 DUP2 AND DUP3 MSTORE DUP7 DUP2 AND PUSH1 0x20 DUP4 ADD SWAP1 DUP2 MSTORE PUSH2 0xBB8 DUP4 DUP6 ADD SWAP1 DUP2 MSTORE DUP8 DUP4 AND PUSH1 0x60 DUP6 ADD SWAP1 DUP2 MSTORE TIMESTAMP PUSH1 0x80 DUP7 ADD SWAP1 DUP2 MSTORE PUSH1 0xA0 DUP7 ADD DUP10 DUP2 MSTORE PUSH1 0x0 PUSH1 0xC0 DUP9 ADD DUP2 DUP2 MSTORE PUSH1 0xE0 DUP10 ADD SWAP2 DUP3 MSTORE SWAP9 MLOAD PUSH4 0x414BF389 PUSH1 0xE0 SHL DUP2 MSTORE DUP9 MLOAD DUP9 AND PUSH1 0x4 DUP3 ADD MSTORE SWAP6 MLOAD DUP8 AND PUSH1 0x24 DUP8 ADD MSTORE SWAP4 MLOAD PUSH3 0xFFFFFF AND PUSH1 0x44 DUP7 ADD MSTORE SWAP2 MLOAD DUP6 AND PUSH1 0x64 DUP6 ADD MSTORE MLOAD PUSH1 0x84 DUP5 ADD MSTORE MLOAD PUSH1 0xA4 DUP4 ADD MSTORE SWAP4 MLOAD PUSH1 0xC4 DUP3 ADD MSTORE SWAP3 MLOAD DUP2 AND PUSH1 0xE4 DUP5 ADD MSTORE SWAP1 SWAP2 PUSH32 0x0 SWAP1 SWAP2 AND SWAP1 PUSH4 0x414BF389 SWAP1 PUSH2 0x104 ADD PUSH1 0x20 PUSH1 0x40 MLOAD DUP1 DUP4 SUB DUP2 PUSH1 0x0 DUP8 GAS CALL ISZERO DUP1 ISZERO PUSH2 0x127A JUMPI RETURNDATASIZE PUSH1 0x0 DUP1 RETURNDATACOPY RETURNDATASIZE PUSH1 0x0 REVERT JUMPDEST POP POP POP POP PUSH1 0x40 MLOAD RETURNDATASIZE PUSH1 0x1F NOT PUSH1 0x1F DUP3 ADD AND DUP3 ADD DUP1 PUSH1 0x40 MSTORE POP DUP2 ADD SWAP1 PUSH2 0x129E SWAP2 SWAP1 PUSH2 0x1505 JUMP JUMPDEST SWAP2 POP PUSH2 0x12AA DUP4 DUP4 PUSH2 0x13AC JUMP JUMPDEST POP SWAP5 SWAP4 POP POP POP POP JUMP JUMPDEST PUSH1 0x40 DUP1 MLOAD PUSH1 0x1 PUSH1 0x1 PUSH1 0xA0 SHL SUB DUP5 DUP2 AND PUSH1 0x24 DUP4 ADD MSTORE PUSH1 0x44 DUP1 DUP4 ADD DUP6 SWAP1 MSTORE DUP4 MLOAD DUP1 DUP5 SUB SWAP1 SWAP2 ADD DUP2 MSTORE PUSH1 0x64 SWAP1 SWAP3 ADD DUP4 MSTORE PUSH1 0x20 DUP3 ADD DUP1 MLOAD PUSH1 0x1 PUSH1 0x1 PUSH1 0xE0 SHL SUB AND PUSH4 0x95EA7B3 PUSH1 0xE0 SHL OR SWAP1 MSTORE SWAP2 MLOAD PUSH1 0x0 SWAP3 DUP4 SWAP3 SWAP1 DUP8 AND SWAP2 PUSH2 0x130F SWAP2 SWAP1 PUSH2 0x16C2 JUMP JUMPDEST PUSH1 0x0 PUSH1 0x40 MLOAD DUP1 DUP4 SUB DUP2 PUSH1 0x0 DUP7 GAS CALL SWAP2 POP POP RETURNDATASIZE DUP1 PUSH1 0x0 DUP2 EQ PUSH2 0x134C JUMPI PUSH1 0x40 MLOAD SWAP2 POP PUSH1 0x1F NOT PUSH1 0x3F RETURNDATASIZE ADD AND DUP3 ADD PUSH1 0x40 MSTORE RETURNDATASIZE DUP3 MSTORE RETURNDATASIZE PUSH1 0x0 PUSH1 0x20 DUP5 ADD RETURNDATACOPY PUSH2 0x1351 JUMP JUMPDEST PUSH1 0x60 SWAP2 POP JUMPDEST POP SWAP2 POP SWAP2 POP DUP2 DUP1 ISZERO PUSH2 0x137B JUMPI POP DUP1 MLOAD ISZERO DUP1 PUSH2 0x137B JUMPI POP DUP1 DUP1 PUSH1 0x20 ADD SWAP1 MLOAD DUP2 ADD SWAP1 PUSH2 0x137B SWAP2 SWAP1 PUSH2 0x151E JUMP JUMPDEST PUSH2 0x1126 JUMPI PUSH1 0x40 MLOAD PUSH3 0x461BCD PUSH1 0xE5 SHL DUP2 MSTORE PUSH1 0x20 PUSH1 0x4 DUP3 ADD MSTORE PUSH1 0x2 PUSH1 0x24 DUP3 ADD MSTORE PUSH2 0x5341 PUSH1 0xF0 SHL PUSH1 0x44 DUP3 ADD MSTORE PUSH1 0x64 ADD PUSH2 0x50B JUMP JUMPDEST TIMESTAMP PUSH1 0xB SSTORE PUSH1 0x10 DUP1 SLOAD DUP4 SWAP2 SWAP1 PUSH1 0x0 SWAP1 PUSH2 0x13C5 SWAP1 DUP5 SWAP1 PUSH2 0x14DF JUMP JUMPDEST SWAP3 POP POP DUP2 SWAP1 SSTORE POP DUP1 PUSH1 0x11 PUSH1 0x0 DUP3 DUP3 SLOAD PUSH2 0x13DE SWAP2 SWAP1 PUSH2 0x14DF JUMP JUMPDEST SWAP1 SWAP2 SSTORE POP POP POP POP JUMP JUMPDEST PUSH1 0x0 DUP1 PUSH1 0x40 DUP4 DUP6 SUB SLT ISZERO PUSH2 0x13FA JUMPI PUSH1 0x0 DUP1 REVERT JUMPDEST POP POP DUP1 CALLDATALOAD SWAP3 PUSH1 0x20 SWAP1 SWAP2 ADD CALLDATALOAD SWAP2 POP JUMP JUMPDEST PUSH1 0x1 PUSH1 0x1 PUSH1 0xA0 SHL SUB DUP2 AND DUP2 EQ PUSH2 0xC12 JUMPI PUSH1 0x0 DUP1 REVERT JUMPDEST PUSH1 0x0 DUP1 PUSH1 0x40 DUP4 DUP6 SUB SLT ISZERO PUSH2 0x1431 JUMPI PUSH1 0x0 DUP1 REVERT JUMPDEST DUP3 CALLDATALOAD SWAP2 POP PUSH1 0x20 DUP4 ADD CALLDATALOAD PUSH2 0x1443 DUP2 PUSH2 0x1409 JUMP JUMPDEST DUP1 SWAP2 POP POP SWAP3 POP SWAP3 SWAP1 POP JUMP JUMPDEST PUSH1 0x0 PUSH1 0x20 DUP3 DUP5 SUB SLT ISZERO PUSH2 0x1460 JUMPI PUSH1 0x0 DUP1 REVERT JUMPDEST POP CALLDATALOAD SWAP2 SWAP1 POP JUMP JUMPDEST PUSH1 0x0 PUSH1 0x20 DUP3 DUP5 SUB SLT ISZERO PUSH2 0x1479 JUMPI PUSH1 0x0 DUP1 REVERT JUMPDEST DUP2 CALLDATALOAD PUSH2 0x1484 DUP2 PUSH2 0x1409 JUMP JUMPDEST SWAP4 SWAP3 POP POP POP JUMP JUMPDEST PUSH1 0x20 DUP1 DUP3 MSTORE PUSH1 0xE SWAP1 DUP3 ADD MSTORE PUSH14 0x1393D5081055551213D49254D151 PUSH1 0x92 SHL PUSH1 0x40 DUP3 ADD MSTORE PUSH1 0x60 ADD SWAP1 JUMP JUMPDEST PUSH4 0x4E487B71 PUSH1 0xE0 SHL PUSH1 0x0 MSTORE PUSH1 0x32 PUSH1 0x4 MSTORE PUSH1 0x24 PUSH1 0x0 REVERT JUMPDEST PUSH4 0x4E487B71 PUSH1 0xE0 SHL PUSH1 0x0 MSTORE PUSH1 0x21 PUSH1 0x4 MSTORE PUSH1 0x24 PUSH1 0x0 REVERT JUMPDEST PUSH1 0x0 DUP3 NOT DUP3 GT ISZERO PUSH2 0x1500 JUMPI PUSH4 0x4E487B71 PUSH1 0xE0 SHL PUSH1 0x0 MSTORE PUSH1 0x11 PUSH1 0x4 MSTORE PUSH1 0x24 PUSH1 0x0 REVERT JUMPDEST POP ADD SWAP1 JUMP JUMPDEST PUSH1 0x0 PUSH1 0x20 DUP3 DUP5 SUB SLT ISZERO PUSH2 0x1517 JUMPI PUSH1 0x0 DUP1 REVERT JUMPDEST POP MLOAD SWAP2 SWAP1 POP JUMP JUMPDEST PUSH1 0x0 PUSH1 0x20 DUP3 DUP5 SUB SLT ISZERO PUSH2 0x1530 JUMPI PUSH1 0x0 DUP1 REVERT JUMPDEST DUP2 MLOAD DUP1 ISZERO ISZERO DUP2 EQ PUSH2 0x1484 JUMPI PUSH1 0x0 DUP1 REVERT JUMPDEST PUSH1 0x0 JUMPDEST DUP4 DUP2 LT ISZERO PUSH2 0x155B JUMPI DUP2 DUP2 ADD MLOAD DUP4 DUP3 ADD MSTORE PUSH1 0x20 ADD PUSH2 0x1543 JUMP JUMPDEST DUP4 DUP2 GT ISZERO PUSH2 0x1000 JUMPI POP POP PUSH1 0x0 SWAP2 ADD MSTORE JUMP JUMPDEST PUSH1 0x0 DUP2 MLOAD DUP1 DUP5 MSTORE PUSH2 0x1584 DUP2 PUSH1 0x20 DUP7 ADD PUSH1 0x20 DUP7 ADD PUSH2 0x1540 JUMP JUMPDEST PUSH1 0x1F ADD PUSH1 0x1F NOT AND SWAP3 SWAP1 SWAP3 ADD PUSH1 0x20 ADD SWAP3 SWAP2 POP POP JUMP JUMPDEST PUSH1 0x0 DUP2 MLOAD DUP1 DUP5 MSTORE PUSH1 0x20 DUP1 DUP6 ADD DUP1 DUP2 SWAP7 POP DUP4 PUSH1 0x5 SHL DUP2 ADD SWAP2 POP DUP3 DUP7 ADD PUSH1 0x0 JUMPDEST DUP6 DUP2 LT ISZERO PUSH2 0x15E0 JUMPI DUP3 DUP5 SUB DUP10 MSTORE PUSH2 0x15CE DUP5 DUP4 MLOAD PUSH2 0x156C JUMP JUMPDEST SWAP9 DUP6 ADD SWAP9 SWAP4 POP SWAP1 DUP5 ADD SWAP1 PUSH1 0x1 ADD PUSH2 0x15B6 JUMP JUMPDEST POP SWAP2 SWAP8 SWAP7 POP POP POP POP POP POP POP JUMP JUMPDEST PUSH1 0x1 PUSH1 0x1 PUSH1 0xA0 SHL SUB DUP6 AND DUP2 MSTORE PUSH1 0x80 PUSH1 0x20 DUP1 DUP4 ADD DUP3 SWAP1 MSTORE PUSH1 0x0 SWAP2 PUSH2 0x1612 SWAP1 DUP5 ADD DUP8 PUSH2 0x156C JUMP JUMPDEST DUP4 DUP2 SUB PUSH1 0x40 DUP1 DUP7 ADD SWAP2 SWAP1 SWAP2 MSTORE DUP7 MLOAD DUP2 DUP4 MSTORE DUP1 MLOAD SWAP2 DUP4 ADD DUP3 SWAP1 MSTORE DUP4 ADD SWAP1 PUSH1 0x0 SWAP1 PUSH1 0x60 DUP5 ADD SWAP1 DUP3 JUMPDEST DUP2 DUP2 LT ISZERO PUSH2 0x1670 JUMPI DUP5 MLOAD PUSH1 0x5 DUP2 LT PUSH2 0x165E JUMPI PUSH4 0x4E487B71 PUSH1 0xE0 SHL DUP6 MSTORE PUSH1 0x21 PUSH1 0x4 MSTORE PUSH1 0x24 DUP6 REVERT JUMPDEST DUP4 MSTORE SWAP4 DUP7 ADD SWAP4 SWAP2 DUP7 ADD SWAP2 PUSH1 0x1 ADD PUSH2 0x1638 JUMP JUMPDEST POP POP DUP5 DUP10 ADD MLOAD SWAP3 POP DUP4 DUP2 SUB DUP6 DUP6 ADD MSTORE PUSH2 0x1689 DUP2 DUP5 PUSH2 0x1598 JUMP JUMPDEST SWAP6 POP POP POP POP POP POP PUSH2 0xCAD PUSH1 0x60 DUP4 ADD DUP5 PUSH1 0x1 PUSH1 0x1 PUSH1 0xA0 SHL SUB AND SWAP1 MSTORE JUMP JUMPDEST PUSH1 0x0 PUSH1 0x20 DUP3 DUP5 SUB SLT ISZERO PUSH2 0x16B7 JUMPI PUSH1 0x0 DUP1 REVERT JUMPDEST DUP2 MLOAD PUSH2 0x1484 DUP2 PUSH2 0x1409 JUMP JUMPDEST PUSH1 0x0 DUP3 MLOAD PUSH2 0x16D4 DUP2 DUP5 PUSH1 0x20 DUP8 ADD PUSH2 0x1540 JUMP JUMPDEST SWAP2 SWAP1 SWAP2 ADD SWAP3 SWAP2 POP POP JUMP INVALID LOG2 PUSH5 0x6970667358 0x22 SLT KECCAK256 SWAP5 JUMP PUSH19 0x92F97EEB62B04A3439049599952BE17F232BF2 0x1F 0xC CODECOPY EXTCODEHASH POP PUSH12 0xA7224D7064736F6C63430008 0xE STOP CALLER LOG2 PUSH5 0x6970667358 0x22 SLT KECCAK256 0xCD SELFDESTRUCT 0x28 LOG0 0xE4 0xC6 0xBD 0x4D LOG4 0xD7 0xEC SWAP16 DUP7 XOR CREATE2 DUP12 0x4B KECCAK256 0xA8 PUSH23 0xB9EFC62BD2666A62C815989364736F6C634300080E0033 "
		},
		"gasEstimates": {
			"creation": {
				"codeDepositCost": "3156200",
				"executionCost": "infinite",
				"totalCost": "infinite"
			},
			"external": {
				"automate()": "infinite",
				"automateAddress()": "2416",
				"cancelDCA(uint256)": "infinite",
				"createDCA(address,address,int96,uint256,uint256)": "infinite",
				"dcafOrders(uint256)": "26144",
				"dedicatedMsgSender()": "infinite",
				"depositGelatoFees()": "infinite",
				"executeGelatoTask2(uint256)": "infinite",
				"fundsOwner()": "infinite",
				"owner()": "2365",
				"poolFee()": "272",
				"refundDCA(uint256)": "infinite",
				"renounceOwnership()": "infinite",
				"swapRouter()": "infinite",
				"taskTreasury()": "infinite",
				"totaldcafOrders()": "2318",
				"transferOwnership(address)": "infinite",
				"unwrapSuperTokenUser(address,uint256)": "infinite",
				"updateDCA(uint256)": "2681",
				"withdrawGealtoFees(uint256,address)": "infinite",
				"wrapSuperTokenUser(address,address,uint256)": "infinite"
			},
			"internal": {
				"_swapUniswapMulti(bytes memory,address,uint256)": "infinite",
				"_swapUniswapSingle(address,address,address,uint256)": "infinite",
				"cancelDCATask(address,bytes32,address,address)": "infinite",
				"cancelTask(bytes32)": "infinite",
				"createStreamToContract(address,address,address,int96)": "infinite",
				"deleteFlowToContract(address,address,address)": "infinite",
				"unwrapSuperToken(address,uint256)": "infinite",
				"updateFlowToContract(address,address,address,int96)": "infinite",
				"wrapSuperToken(address,address,uint256)": "infinite"
			}
		},
		"methodIdentifiers": {
			"automate()": "049aacfe",
			"automateAddress()": "0c311c30",
			"cancelDCA(uint256)": "18bae557",
			"createDCA(address,address,int96,uint256,uint256)": "c806441c",
			"dcafOrders(uint256)": "e3a87347",
			"dedicatedMsgSender()": "28f150eb",
			"depositGelatoFees()": "06c9c37d",
			"executeGelatoTask2(uint256)": "a839bd0d",
			"fundsOwner()": "46ee3c59",
			"owner()": "8da5cb5b",
			"poolFee()": "089fe6aa",
			"refundDCA(uint256)": "59fe5c0f",
			"renounceOwnership()": "715018a6",
			"swapRouter()": "c31c9c07",
			"taskTreasury()": "e60a3213",
			"totaldcafOrders()": "225ac7ee",
			"transferOwnership(address)": "f2fde38b",
			"unwrapSuperTokenUser(address,uint256)": "9597bb31",
			"updateDCA(uint256)": "bfdc2d93",
			"withdrawGealtoFees(uint256,address)": "2b044b73",
			"wrapSuperTokenUser(address,address,uint256)": "f6fe9c0c"
		}
	},
	"abi": [
		{
			"inputs": [
				{
					"internalType": "address payable",
					"name": "_automate",
					"type": "address"
				},
				{
					"internalType": "address",
					"name": "_fundsOwner",
					"type": "address"
				},
				{
					"internalType": "address",
					"name": "_swapRouter",
					"type": "address"
				}
			],
			"stateMutability": "nonpayable",
			"type": "constructor"
		},
		{
			"inputs": [],
			"name": "Unauthorized",
			"type": "error"
		},
		{
			"anonymous": false,
			"inputs": [
				{
					"indexed": true,
					"internalType": "address",
					"name": "previousOwner",
					"type": "address"
				},
				{
					"indexed": true,
					"internalType": "address",
					"name": "newOwner",
					"type": "address"
				}
			],
			"name": "OwnershipTransferred",
			"type": "event"
		},
		{
			"inputs": [],
			"name": "automate",
			"outputs": [
				{
					"internalType": "contract IAutomate",
					"name": "",
					"type": "address"
				}
			],
			"stateMutability": "view",
			"type": "function"
		},
		{
			"inputs": [],
			"name": "automateAddress",
			"outputs": [
				{
					"internalType": "address payable",
					"name": "",
					"type": "address"
				}
			],
			"stateMutability": "view",
			"type": "function"
		},
		{
			"inputs": [
				{
					"internalType": "uint256",
					"name": "dcafOrderId",
					"type": "uint256"
				}
			],
			"name": "cancelDCA",
			"outputs": [],
			"stateMutability": "nonpayable",
			"type": "function"
		},
		{
			"inputs": [
				{
					"internalType": "address",
					"name": "superToken",
					"type": "address"
				},
				{
					"internalType": "address",
					"name": "tokenOut",
					"type": "address"
				},
				{
					"internalType": "int96",
					"name": "flowRate",
					"type": "int96"
				},
				{
					"internalType": "uint256",
					"name": "timePeriod",
					"type": "uint256"
				},
				{
					"internalType": "uint256",
					"name": "dcafFreq",
					"type": "uint256"
				}
			],
			"name": "createDCA",
			"outputs": [
				{
					"internalType": "uint256",
					"name": "dcafOrderID",
					"type": "uint256"
				}
			],
			"stateMutability": "payable",
			"type": "function"
		},
		{
			"inputs": [
				{
					"internalType": "uint256",
					"name": "",
					"type": "uint256"
				}
			],
			"name": "dcafOrders",
			"outputs": [
				{
					"internalType": "address",
					"name": "creator",
					"type": "address"
				},
				{
					"internalType": "address",
					"name": "wallet",
					"type": "address"
				},
				{
					"internalType": "address",
					"name": "tokenIn",
					"type": "address"
				},
				{
					"internalType": "address",
					"name": "superToken",
					"type": "address"
				},
				{
					"internalType": "address",
					"name": "tokenOut",
					"type": "address"
				},
				{
					"internalType": "int96",
					"name": "flowRate",
					"type": "int96"
				},
				{
					"internalType": "uint256",
					"name": "timePeriod",
					"type": "uint256"
				},
				{
					"internalType": "uint256",
					"name": "dcafFreq",
					"type": "uint256"
				},
				{
					"internalType": "uint256",
					"name": "lastTradeTimeStamp",
					"type": "uint256"
				},
				{
					"internalType": "uint256",
					"name": "creationTimeStamp",
					"type": "uint256"
				},
				{
					"internalType": "bool",
					"name": "activeStatus",
					"type": "bool"
				},
				{
					"internalType": "bytes32",
					"name": "task1Id",
					"type": "bytes32"
				},
				{
					"internalType": "bytes32",
					"name": "task2Id",
					"type": "bytes32"
				}
			],
			"stateMutability": "view",
			"type": "function"
		},
		{
			"inputs": [],
			"name": "dedicatedMsgSender",
			"outputs": [
				{
					"internalType": "address",
					"name": "",
					"type": "address"
				}
			],
			"stateMutability": "view",
			"type": "function"
		},
		{
			"inputs": [],
			"name": "depositGelatoFees",
			"outputs": [],
			"stateMutability": "payable",
			"type": "function"
		},
		{
			"inputs": [
				{
					"internalType": "uint256",
					"name": "dcafOrderId",
					"type": "uint256"
				}
			],
			"name": "executeGelatoTask2",
			"outputs": [],
			"stateMutability": "nonpayable",
			"type": "function"
		},
		{
			"inputs": [],
			"name": "fundsOwner",
			"outputs": [
				{
					"internalType": "address",
					"name": "",
					"type": "address"
				}
			],
			"stateMutability": "view",
			"type": "function"
		},
		{
			"inputs": [],
			"name": "owner",
			"outputs": [
				{
					"internalType": "address",
					"name": "",
					"type": "address"
				}
			],
			"stateMutability": "view",
			"type": "function"
		},
		{
			"inputs": [],
			"name": "poolFee",
			"outputs": [
				{
					"internalType": "uint24",
					"name": "",
					"type": "uint24"
				}
			],
			"stateMutability": "view",
			"type": "function"
		},
		{
			"inputs": [
				{
					"internalType": "uint256",
					"name": "dcafOrderId",
					"type": "uint256"
				}
			],
			"name": "refundDCA",
			"outputs": [],
			"stateMutability": "nonpayable",
			"type": "function"
		},
		{
			"inputs": [],
			"name": "renounceOwnership",
			"outputs": [],
			"stateMutability": "nonpayable",
			"type": "function"
		},
		{
			"inputs": [],
			"name": "swapRouter",
			"outputs": [
				{
					"internalType": "contract ISwapRouter",
					"name": "",
					"type": "address"
				}
			],
			"stateMutability": "view",
			"type": "function"
		},
		{
			"inputs": [],
			"name": "taskTreasury",
			"outputs": [
				{
					"internalType": "contract ITaskTreasuryUpgradable",
					"name": "",
					"type": "address"
				}
			],
			"stateMutability": "view",
			"type": "function"
		},
		{
			"inputs": [],
			"name": "totaldcafOrders",
			"outputs": [
				{
					"internalType": "uint256",
					"name": "",
					"type": "uint256"
				}
			],
			"stateMutability": "view",
			"type": "function"
		},
		{
			"inputs": [
				{
					"internalType": "address",
					"name": "newOwner",
					"type": "address"
				}
			],
			"name": "transferOwnership",
			"outputs": [],
			"stateMutability": "nonpayable",
			"type": "function"
		},
		{
			"inputs": [
				{
					"internalType": "address",
					"name": "superTokenAddress",
					"type": "address"
				},
				{
					"internalType": "uint256",
					"name": "amountToUnwrap",
					"type": "uint256"
				}
			],
			"name": "unwrapSuperTokenUser",
			"outputs": [],
			"stateMutability": "nonpayable",
			"type": "function"
		},
		{
			"inputs": [
				{
					"internalType": "uint256",
					"name": "dcafOrderId",
					"type": "uint256"
				}
			],
			"name": "updateDCA",
			"outputs": [],
			"stateMutability": "nonpayable",
			"type": "function"
		},
		{
			"inputs": [
				{
					"internalType": "uint256",
					"name": "_amount",
					"type": "uint256"
				},
				{
					"internalType": "address",
					"name": "_token",
					"type": "address"
				}
			],
			"name": "withdrawGealtoFees",
			"outputs": [],
			"stateMutability": "nonpayable",
			"type": "function"
		},
		{
			"inputs": [
				{
					"internalType": "address",
					"name": "token",
					"type": "address"
				},
				{
					"internalType": "address",
					"name": "superTokenAddress",
					"type": "address"
				},
				{
					"internalType": "uint256",
					"name": "amountToWrap",
					"type": "uint256"
				}
			],
			"name": "wrapSuperTokenUser",
			"outputs": [],
			"stateMutability": "nonpayable",
			"type": "function"
		}
	]
}