{
	"data": {
		"bytecode": {
			"linkReferences": {},
			"object": "610140604052600180546001600160a01b03191690553480156200002257600080fd5b5060405162001cf838038062001cf883398101604081905262000045916200039c565b858581306200005433620002c5565b6001600160a01b03821660808190526040805163573ea57560e01b8152905163573ea575916004808201926020929091908290030181865afa1580156200009f573d6000803e3d6000fd5b505050506040513d601f19601f82011682018060405250810190620000c5919062000503565b6001600160a01b0390811660c0526040516337b6269f60e21b8152908216600482015273c815db16d4be6ddf2685c201937905abf338f5d79063ded89a7c906024016040805180830381865afa15801562000124573d6000803e3d6000fd5b505050506040513d601f19601f820116820180604052508101906200014a91906200052a565b506001600160a01b0390811660a05283811660e0526080516040805163e60a321360e01b8152905191909216935063e60a3213925060048083019260209291908290030181865afa158015620001a4573d6000803e3d6000fd5b505050506040513d601f19601f82011682018060405250810190620001ca919062000503565b6001600160a01b03908116610100908152968116610120908152600280549783166001600160a01b031998891617905560039590955583516004805491831691881691909117905560208401516005805491831691881691909117905560408401516006805491831691881691909117905560608401516007805491831691909716179095555050608081015160a08201516001600160601b0316600160a01b0293169290921760085560c082015160095560e0820151600a5591810151600b5590810151600c55610140810151600d805491151560ff19909216919091179055610160810151600e556101800151600f5550620005649050565b600080546001600160a01b038381166001600160a01b0319831681178455604051919092169283917f8be0079c531659141344cd1fd0a4f28419497f9722a3daafe3b4186f6b6457e09190a35050565b6001600160a01b03811681146200032b57600080fd5b50565b80516200033b8162000315565b919050565b6040516101a081016001600160401b03811182821017156200037257634e487b7160e01b600052604160045260246000fd5b60405290565b8051600b81900b81146200033b57600080fd5b805180151581146200033b57600080fd5b600080600080600080868803610240811215620003b857600080fd5b8751620003c58162000315565b6020890151909750620003d88162000315565b6040890151909650620003eb8162000315565b6060890151909550620003fe8162000315565b608089015190945092506101a0609f1982018113156200041d57600080fd5b6200042762000340565b91506200043760a08a016200032e565b82526200044760c08a016200032e565b60208301526200045a60e08a016200032e565b60408301526101006200046f818b016200032e565b606084015261012062000484818c016200032e565b608085015261014062000499818d0162000378565b60a0860152610160808d015160c0870152610180808e015160e0880152858e0151858801526101c08e015184880152620004d76101e08f016200038b565b838801526102008e0151828801526102208e015181880152505050505050809150509295509295509295565b6000602082840312156200051657600080fd5b8151620005238162000315565b9392505050565b600080604083850312156200053e57600080fd5b82516200054b8162000315565b91506200055b602084016200038b565b90509250929050565b60805160a05160c05160e051610100516101205161170f620005e9600039600081816104320152818161115d015261122901526000818161047c01528181610d0f0152610e4601526000818161033f01528181610d7f0152610e0f01526000505060006102d601526000818161017401528181610c2a01526110c1015261170f6000f3fe60806040526004361061012a5760003560e01c80636eaa31aa116100ab578063be9fb3e21161006f578063be9fb3e214610400578063c31c9c0714610420578063d6dc09f714610454578063e60a32131461046a578063ee8ca3b51461049e578063f2fde38b146104be57600080fd5b80636eaa31aa1461037757806370d05be014610397578063715018a6146103ad5780638da5cb5b146103c25780639b2ed694146103e057600080fd5b806328f150eb116100f257806328f150eb146102c45780632b044b73146102f8578063328e00f01461031857806346ee3c591461032d5780634ea573f11461036157600080fd5b806302827bca1461012f578063049aacfe1461016257806306c9c37d146101ae578063089fe6aa146101b85780631adc317f146101e2575b600080fd5b34801561013b57600080fd5b5061014f61014a3660046113e2565b6104de565b6040519081526020015b60405180910390f35b34801561016e57600080fd5b506101967f000000000000000000000000000000000000000000000000000000000000000081565b6040516001600160a01b039091168152602001610159565b6101b6610773565b005b3480156101c457600080fd5b506101ce610bb881565b60405162ffffff9091168152602001610159565b3480156101ee57600080fd5b50600454600554600654600754600854600954600a54600b8054600c54600d54600e54600f546102489c6001600160a01b039081169c81169b81169a81169990811698600160a01b90910490960b9694939260ff1691908d565b604080516001600160a01b039e8f1681529c8e1660208e01529a8d169a8c019a909a52978b1660608b0152999095166080890152600b9390930b60a088015260c087019190915260e08601526101008501526101208401529215156101408301526101608201929092526101808101919091526101a001610159565b3480156102d057600080fd5b506101967f000000000000000000000000000000000000000000000000000000000000000081565b34801561030457600080fd5b506101b6610313366004611419565b610793565b34801561032457600080fd5b506101b66107a1565b34801561033957600080fd5b506101967f000000000000000000000000000000000000000000000000000000000000000081565b34801561036d57600080fd5b5061014f60035481565b34801561038357600080fd5b50600254610196906001600160a01b031681565b3480156103a357600080fd5b5061014f60105481565b3480156103b957600080fd5b506101b661083d565b3480156103ce57600080fd5b506000546001600160a01b0316610196565b3480156103ec57600080fd5b5061014f6103fb366004611449565b61084f565b34801561040c57600080fd5b506101b661041b366004611462565b6109fe565b34801561042c57600080fd5b506101967f000000000000000000000000000000000000000000000000000000000000000081565b34801561046057600080fd5b5061014f60115481565b34801561047657600080fd5b506101967f000000000000000000000000000000000000000000000000000000000000000081565b3480156104aa57600080fd5b506101b66104b9366004611449565b610b57565b3480156104ca57600080fd5b506101b66104d9366004611462565b610b97565b6002546000906001600160a01b031633146105145760405162461bcd60e51b815260040161050b90611486565b60405180910390fd5b60408051600381830181815260c083019093526000928291606080840190803683370190505081526040805160038082526080820190925260209092019190816020015b6060815260200190600190039081610558575050905280518051919250600191600090610587576105876114ae565b602002602001019060048111156105a0576105a06114c4565b908160048111156105b3576105b36114c4565b81525050600281600001516001815181106105d0576105d06114ae565b602002602001019060048111156105e9576105e96114c4565b908160048111156105fc576105fc6114c4565b8152505060038160000151600281518110610619576106196114ae565b60200260200101906004811115610632576106326114c4565b90816004811115610645576106456114c4565b90525061068c61065584426114da565b604080516fffffffffffffffffffffffffffffffff9283166020820152918616828201528051808303820181526060909201905290565b81602001516000815181106106a3576106a36114ae565b60200260200101819052506106c360408051602081019091526000815290565b81602001516001815181106106da576106da6114ae565b60200260200101819052506106fa60408051602081019091526000815290565b8160200151600281518110610711576107116114ae565b6020908102919091018101919091526002546040805163a839bd0d60e01b938101939093528201869052610766916001600160a01b03909116906060015b604051602081830303815290604052836000610c10565b600f819055949350505050565b6107913473eeeeeeeeeeeeeeeeeeeeeeeeeeeeeeeeeeeeeeee610cb1565b565b61079d8282610d74565b5050565b600d5460ff166107e05760405162461bcd60e51b815260206004820152600a6024820152694e6f742041637469766560b01b604482015260640161050b565b600a54600b546107f091906114da565b42116108355760405162461bcd60e51b8152602060048201526014602482015273119c995c481d1a5b59481b9bdd081c185cdcd95960621b604482015260640161050b565b610791610ea7565b610845611001565b610791600061105b565b6002546000906001600160a01b0316331461087c5760405162461bcd60e51b815260040161050b90611486565b60408051600281830181815260a0830184526000938392906060840190803683370190505081526040805160028082526060820190925260209092019190816020015b60608152602001906001900390816108bf5750509052805180519192506001916000906108ee576108ee6114ae565b60200260200101906004811115610907576109076114c4565b9081600481111561091a5761091a6114c4565b8152505060028160000151600181518110610937576109376114ae565b60200260200101906004811115610950576109506114c4565b90816004811115610963576109636114c4565b90525061097361065584426114da565b816020015160008151811061098a5761098a6114ae565b60200260200101819052506109aa60408051602081019091526000815290565b81602001516001815181106109c1576109c16114ae565b602090810291909101810191909152604080513080841b63328e00f017831b938201939093526109f292910161074f565b600e8190559392505050565b6002546001600160a01b03163314610a285760405162461bcd60e51b815260040161050b90611486565b600d5460ff1615610a6a5760405162461bcd60e51b815260206004820152600c60248201526b5354494c4c2041435449564560a01b604482015260640161050b565b6040516370a0823160e01b81523060048201526000906001600160a01b038316906370a0823190602401602060405180830381865afa158015610ab1573d6000803e3d6000fd5b505050506040513d601f19601f82011682018060405250810190610ad59190611500565b6004805460405163a9059cbb60e01b81526001600160a01b0391821692810192909252602482018390529192509083169063a9059cbb906044016020604051808303816000875af1158015610b2e573d6000803e3d6000fd5b505050506040513d601f19601f82011682018060405250810190610b529190611519565b505050565b6002546001600160a01b03163314610b815760405162461bcd60e51b815260040161050b90611486565b610b8a816110ab565b50600d805460ff19169055565b610b9f611001565b6001600160a01b038116610c045760405162461bcd60e51b815260206004820152602660248201527f4f776e61626c653a206e6577206f776e657220697320746865207a65726f206160448201526564647265737360d01b606482015260840161050b565b610c0d8161105b565b50565b604051633323b46760e01b81526000906001600160a01b037f00000000000000000000000000000000000000000000000000000000000000001690633323b46790610c659088908890889088906004016115e8565b6020604051808303816000875af1158015610c84573d6000803e3d6000fd5b505050506040513d601f19601f82011682018060405250810190610ca89190611500565b95945050505050565b60006001600160a01b03821673eeeeeeeeeeeeeeeeeeeeeeeeeeeeeeeeeeeeeeee14610cde576000610ce0565b825b60405163c1461d5760e01b81523060048201526001600160a01b038481166024830152604482018690529192507f00000000000000000000000000000000000000000000000000000000000000009091169063c1461d579083906064016000604051808303818588803b158015610d5657600080fd5b505af1158015610d6a573d6000803e3d6000fd5b5050505050505050565b336001600160a01b037f00000000000000000000000000000000000000000000000000000000000000001614610df85760405162461bcd60e51b815260206004820152602360248201527f4f6e6c792066756e6473206f776e65722063616e2077697468647261772066756044820152626e647360e81b606482015260840161050b565b604051631c20fadd60e01b81526001600160a01b037f0000000000000000000000000000000000000000000000000000000000000000811660048301528281166024830152604482018490527f00000000000000000000000000000000000000000000000000000000000000001690631c20fadd906064015b600060405180830381600087803b158015610e8b57600080fd5b505af1158015610e9f573d6000803e3d6000fd5b505050505050565b6007546040516370a0823160e01b81523060048201526001600160a01b039091169060009082906370a0823190602401602060405180830381865afa158015610ef4573d6000803e3d6000fd5b505050506040513d601f19601f82011682018060405250810190610f189190611500565b9050610f248282611128565b6000826001600160a01b031663ee719bc86040518163ffffffff1660e01b8152600401602060405180830381865afa158015610f64573d6000803e3d6000fd5b505050506040513d601f19601f82011682018060405250810190610f8891906116a0565b6006549091506001600160a01b03808316911614610fd85760405162461bcd60e51b815260206004820152600d60248201526c24a72b20a624a2102a27a5a2a760991b604482015260640161050b565b600654600854600454610ffb926001600160a01b03908116928116911685611155565b50505050565b6000546001600160a01b031633146107915760405162461bcd60e51b815260206004820181905260248201527f4f776e61626c653a2063616c6c6572206973206e6f7420746865206f776e6572604482015260640161050b565b600080546001600160a01b038381166001600160a01b0319831681178455604051919092169283917f8be0079c531659141344cd1fd0a4f28419497f9722a3daafe3b4186f6b6457e09190a35050565b60405163ee8ca3b560e01b8152600481018290527f00000000000000000000000000000000000000000000000000000000000000006001600160a01b03169063ee8ca3b590602401600060405180830381600087803b15801561110d57600080fd5b505af1158015611121573d6000803e3d6000fd5b5050505050565b6040516308de640f60e11b8152600481018290526001600160a01b038316906311bcc81e90602401610e71565b6000611182857f0000000000000000000000000000000000000000000000000000000000000000846112ae565b60408051610100810182526001600160a01b03878116825286811660208301908152610bb883850190815287831660608501908152426080860190815260a08601898152600060c0880181815260e08901918252985163414bf38960e01b8152885188166004820152955187166024870152935162ffffff1660448601529151851660648501525160848401525160a4830152935160c48201529251811660e484015290917f00000000000000000000000000000000000000000000000000000000000000009091169063414bf38990610104016020604051808303816000875af1158015611275573d6000803e3d6000fd5b505050506040513d601f19601f820116820180604052508101906112999190611500565b91506112a583836113a7565b50949350505050565b604080516001600160a01b038481166024830152604480830185905283518084039091018152606490920183526020820180516001600160e01b031663095ea7b360e01b179052915160009283929087169161130a91906116bd565b6000604051808303816000865af19150503d8060008114611347576040519150601f19603f3d011682016040523d82523d6000602084013e61134c565b606091505b50915091508180156113765750805115806113765750808060200190518101906113769190611519565b6111215760405162461bcd60e51b8152602060048201526002602482015261534160f01b604482015260640161050b565b42600b55601080548391906000906113c09084906114da565b9250508190555080601160008282546113d991906114da565b90915550505050565b600080604083850312156113f557600080fd5b50508035926020909101359150565b6001600160a01b0381168114610c0d57600080fd5b6000806040838503121561142c57600080fd5b82359150602083013561143e81611404565b809150509250929050565b60006020828403121561145b57600080fd5b5035919050565b60006020828403121561147457600080fd5b813561147f81611404565b9392505050565b6020808252600e908201526d1393d5081055551213d49254d15160921b604082015260600190565b634e487b7160e01b600052603260045260246000fd5b634e487b7160e01b600052602160045260246000fd5b600082198211156114fb57634e487b7160e01b600052601160045260246000fd5b500190565b60006020828403121561151257600080fd5b5051919050565b60006020828403121561152b57600080fd5b8151801515811461147f57600080fd5b60005b8381101561155657818101518382015260200161153e565b83811115610ffb5750506000910152565b6000815180845261157f81602086016020860161153b565b601f01601f19169290920160200192915050565b600081518084526020808501808196508360051b8101915082860160005b858110156115db5782840389526115c9848351611567565b988501989350908401906001016115b1565b5091979650505050505050565b6001600160a01b03851681526080602080830182905260009161160d90840187611567565b838103604080860191909152865181835280519183018290528301906000906060840190825b8181101561166b5784516005811061165957634e487b7160e01b85526021600452602485fd5b83529386019391860191600101611633565b5050848901519250838103858501526116848184611593565b95505050505050610ca860608301846001600160a01b03169052565b6000602082840312156116b257600080fd5b815161147f81611404565b600082516116cf81846020870161153b565b919091019291505056fea2646970667358221220e4c4b7ed601c5f2b66fe57d3ca820656303f62dbbe4a403239f6e258750fc1e264736f6c634300080e0033",
			"opcodes": "PUSH2 0x140 PUSH1 0x40 MSTORE PUSH1 0x1 DUP1 SLOAD PUSH1 0x1 PUSH1 0x1 PUSH1 0xA0 SHL SUB NOT AND SWAP1 SSTORE CALLVALUE DUP1 ISZERO PUSH3 0x22 JUMPI PUSH1 0x0 DUP1 REVERT JUMPDEST POP PUSH1 0x40 MLOAD PUSH3 0x1CF8 CODESIZE SUB DUP1 PUSH3 0x1CF8 DUP4 CODECOPY DUP2 ADD PUSH1 0x40 DUP2 SWAP1 MSTORE PUSH3 0x45 SWAP2 PUSH3 0x39C JUMP JUMPDEST DUP6 DUP6 DUP2 ADDRESS PUSH3 0x54 CALLER PUSH3 0x2C5 JUMP JUMPDEST PUSH1 0x1 PUSH1 0x1 PUSH1 0xA0 SHL SUB DUP3 AND PUSH1 0x80 DUP2 SWAP1 MSTORE PUSH1 0x40 DUP1 MLOAD PUSH4 0x573EA575 PUSH1 0xE0 SHL DUP2 MSTORE SWAP1 MLOAD PUSH4 0x573EA575 SWAP2 PUSH1 0x4 DUP1 DUP3 ADD SWAP3 PUSH1 0x20 SWAP3 SWAP1 SWAP2 SWAP1 DUP3 SWAP1 SUB ADD DUP2 DUP7 GAS STATICCALL ISZERO DUP1 ISZERO PUSH3 0x9F JUMPI RETURNDATASIZE PUSH1 0x0 DUP1 RETURNDATACOPY RETURNDATASIZE PUSH1 0x0 REVERT JUMPDEST POP POP POP POP PUSH1 0x40 MLOAD RETURNDATASIZE PUSH1 0x1F NOT PUSH1 0x1F DUP3 ADD AND DUP3 ADD DUP1 PUSH1 0x40 MSTORE POP DUP2 ADD SWAP1 PUSH3 0xC5 SWAP2 SWAP1 PUSH3 0x503 JUMP JUMPDEST PUSH1 0x1 PUSH1 0x1 PUSH1 0xA0 SHL SUB SWAP1 DUP2 AND PUSH1 0xC0 MSTORE PUSH1 0x40 MLOAD PUSH4 0x37B6269F PUSH1 0xE2 SHL DUP2 MSTORE SWAP1 DUP3 AND PUSH1 0x4 DUP3 ADD MSTORE PUSH20 0xC815DB16D4BE6DDF2685C201937905ABF338F5D7 SWAP1 PUSH4 0xDED89A7C SWAP1 PUSH1 0x24 ADD PUSH1 0x40 DUP1 MLOAD DUP1 DUP4 SUB DUP2 DUP7 GAS STATICCALL ISZERO DUP1 ISZERO PUSH3 0x124 JUMPI RETURNDATASIZE PUSH1 0x0 DUP1 RETURNDATACOPY RETURNDATASIZE PUSH1 0x0 REVERT JUMPDEST POP POP POP POP PUSH1 0x40 MLOAD RETURNDATASIZE PUSH1 0x1F NOT PUSH1 0x1F DUP3 ADD AND DUP3 ADD DUP1 PUSH1 0x40 MSTORE POP DUP2 ADD SWAP1 PUSH3 0x14A SWAP2 SWAP1 PUSH3 0x52A JUMP JUMPDEST POP PUSH1 0x1 PUSH1 0x1 PUSH1 0xA0 SHL SUB SWAP1 DUP2 AND PUSH1 0xA0 MSTORE DUP4 DUP2 AND PUSH1 0xE0 MSTORE PUSH1 0x80 MLOAD PUSH1 0x40 DUP1 MLOAD PUSH4 0xE60A3213 PUSH1 0xE0 SHL DUP2 MSTORE SWAP1 MLOAD SWAP2 SWAP1 SWAP3 AND SWAP4 POP PUSH4 0xE60A3213 SWAP3 POP PUSH1 0x4 DUP1 DUP4 ADD SWAP3 PUSH1 0x20 SWAP3 SWAP2 SWAP1 DUP3 SWAP1 SUB ADD DUP2 DUP7 GAS STATICCALL ISZERO DUP1 ISZERO PUSH3 0x1A4 JUMPI RETURNDATASIZE PUSH1 0x0 DUP1 RETURNDATACOPY RETURNDATASIZE PUSH1 0x0 REVERT JUMPDEST POP POP POP POP PUSH1 0x40 MLOAD RETURNDATASIZE PUSH1 0x1F NOT PUSH1 0x1F DUP3 ADD AND DUP3 ADD DUP1 PUSH1 0x40 MSTORE POP DUP2 ADD SWAP1 PUSH3 0x1CA SWAP2 SWAP1 PUSH3 0x503 JUMP JUMPDEST PUSH1 0x1 PUSH1 0x1 PUSH1 0xA0 SHL SUB SWAP1 DUP2 AND PUSH2 0x100 SWAP1 DUP2 MSTORE SWAP7 DUP2 AND PUSH2 0x120 SWAP1 DUP2 MSTORE PUSH1 0x2 DUP1 SLOAD SWAP8 DUP4 AND PUSH1 0x1 PUSH1 0x1 PUSH1 0xA0 SHL SUB NOT SWAP9 DUP10 AND OR SWAP1 SSTORE PUSH1 0x3 SWAP6 SWAP1 SWAP6 SSTORE DUP4 MLOAD PUSH1 0x4 DUP1 SLOAD SWAP2 DUP4 AND SWAP2 DUP9 AND SWAP2 SWAP1 SWAP2 OR SWAP1 SSTORE PUSH1 0x20 DUP5 ADD MLOAD PUSH1 0x5 DUP1 SLOAD SWAP2 DUP4 AND SWAP2 DUP9 AND SWAP2 SWAP1 SWAP2 OR SWAP1 SSTORE PUSH1 0x40 DUP5 ADD MLOAD PUSH1 0x6 DUP1 SLOAD SWAP2 DUP4 AND SWAP2 DUP9 AND SWAP2 SWAP1 SWAP2 OR SWAP1 SSTORE PUSH1 0x60 DUP5 ADD MLOAD PUSH1 0x7 DUP1 SLOAD SWAP2 DUP4 AND SWAP2 SWAP1 SWAP8 AND OR SWAP1 SWAP6 SSTORE POP POP PUSH1 0x80 DUP2 ADD MLOAD PUSH1 0xA0 DUP3 ADD MLOAD PUSH1 0x1 PUSH1 0x1 PUSH1 0x60 SHL SUB AND PUSH1 0x1 PUSH1 0xA0 SHL MUL SWAP4 AND SWAP3 SWAP1 SWAP3 OR PUSH1 0x8 SSTORE PUSH1 0xC0 DUP3 ADD MLOAD PUSH1 0x9 SSTORE PUSH1 0xE0 DUP3 ADD MLOAD PUSH1 0xA SSTORE SWAP2 DUP2 ADD MLOAD PUSH1 0xB SSTORE SWAP1 DUP2 ADD MLOAD PUSH1 0xC SSTORE PUSH2 0x140 DUP2 ADD MLOAD PUSH1 0xD DUP1 SLOAD SWAP2 ISZERO ISZERO PUSH1 0xFF NOT SWAP1 SWAP3 AND SWAP2 SWAP1 SWAP2 OR SWAP1 SSTORE PUSH2 0x160 DUP2 ADD MLOAD PUSH1 0xE SSTORE PUSH2 0x180 ADD MLOAD PUSH1 0xF SSTORE POP PUSH3 0x564 SWAP1 POP JUMP JUMPDEST PUSH1 0x0 DUP1 SLOAD PUSH1 0x1 PUSH1 0x1 PUSH1 0xA0 SHL SUB DUP4 DUP2 AND PUSH1 0x1 PUSH1 0x1 PUSH1 0xA0 SHL SUB NOT DUP4 AND DUP2 OR DUP5 SSTORE PUSH1 0x40 MLOAD SWAP2 SWAP1 SWAP3 AND SWAP3 DUP4 SWAP2 PUSH32 0x8BE0079C531659141344CD1FD0A4F28419497F9722A3DAAFE3B4186F6B6457E0 SWAP2 SWAP1 LOG3 POP POP JUMP JUMPDEST PUSH1 0x1 PUSH1 0x1 PUSH1 0xA0 SHL SUB DUP2 AND DUP2 EQ PUSH3 0x32B JUMPI PUSH1 0x0 DUP1 REVERT JUMPDEST POP JUMP JUMPDEST DUP1 MLOAD PUSH3 0x33B DUP2 PUSH3 0x315 JUMP JUMPDEST SWAP2 SWAP1 POP JUMP JUMPDEST PUSH1 0x40 MLOAD PUSH2 0x1A0 DUP2 ADD PUSH1 0x1 PUSH1 0x1 PUSH1 0x40 SHL SUB DUP2 GT DUP3 DUP3 LT OR ISZERO PUSH3 0x372 JUMPI PUSH4 0x4E487B71 PUSH1 0xE0 SHL PUSH1 0x0 MSTORE PUSH1 0x41 PUSH1 0x4 MSTORE PUSH1 0x24 PUSH1 0x0 REVERT JUMPDEST PUSH1 0x40 MSTORE SWAP1 JUMP JUMPDEST DUP1 MLOAD PUSH1 0xB DUP2 SWAP1 SIGNEXTEND DUP2 EQ PUSH3 0x33B JUMPI PUSH1 0x0 DUP1 REVERT JUMPDEST DUP1 MLOAD DUP1 ISZERO ISZERO DUP2 EQ PUSH3 0x33B JUMPI PUSH1 0x0 DUP1 REVERT JUMPDEST PUSH1 0x0 DUP1 PUSH1 0x0 DUP1 PUSH1 0x0 DUP1 DUP7 DUP9 SUB PUSH2 0x240 DUP2 SLT ISZERO PUSH3 0x3B8 JUMPI PUSH1 0x0 DUP1 REVERT JUMPDEST DUP8 MLOAD PUSH3 0x3C5 DUP2 PUSH3 0x315 JUMP JUMPDEST PUSH1 0x20 DUP10 ADD MLOAD SWAP1 SWAP8 POP PUSH3 0x3D8 DUP2 PUSH3 0x315 JUMP JUMPDEST PUSH1 0x40 DUP10 ADD MLOAD SWAP1 SWAP7 POP PUSH3 0x3EB DUP2 PUSH3 0x315 JUMP JUMPDEST PUSH1 0x60 DUP10 ADD MLOAD SWAP1 SWAP6 POP PUSH3 0x3FE DUP2 PUSH3 0x315 JUMP JUMPDEST PUSH1 0x80 DUP10 ADD MLOAD SWAP1 SWAP5 POP SWAP3 POP PUSH2 0x1A0 PUSH1 0x9F NOT DUP3 ADD DUP2 SGT ISZERO PUSH3 0x41D JUMPI PUSH1 0x0 DUP1 REVERT JUMPDEST PUSH3 0x427 PUSH3 0x340 JUMP JUMPDEST SWAP2 POP PUSH3 0x437 PUSH1 0xA0 DUP11 ADD PUSH3 0x32E JUMP JUMPDEST DUP3 MSTORE PUSH3 0x447 PUSH1 0xC0 DUP11 ADD PUSH3 0x32E JUMP JUMPDEST PUSH1 0x20 DUP4 ADD MSTORE PUSH3 0x45A PUSH1 0xE0 DUP11 ADD PUSH3 0x32E JUMP JUMPDEST PUSH1 0x40 DUP4 ADD MSTORE PUSH2 0x100 PUSH3 0x46F DUP2 DUP12 ADD PUSH3 0x32E JUMP JUMPDEST PUSH1 0x60 DUP5 ADD MSTORE PUSH2 0x120 PUSH3 0x484 DUP2 DUP13 ADD PUSH3 0x32E JUMP JUMPDEST PUSH1 0x80 DUP6 ADD MSTORE PUSH2 0x140 PUSH3 0x499 DUP2 DUP14 ADD PUSH3 0x378 JUMP JUMPDEST PUSH1 0xA0 DUP7 ADD MSTORE PUSH2 0x160 DUP1 DUP14 ADD MLOAD PUSH1 0xC0 DUP8 ADD MSTORE PUSH2 0x180 DUP1 DUP15 ADD MLOAD PUSH1 0xE0 DUP9 ADD MSTORE DUP6 DUP15 ADD MLOAD DUP6 DUP9 ADD MSTORE PUSH2 0x1C0 DUP15 ADD MLOAD DUP5 DUP9 ADD MSTORE PUSH3 0x4D7 PUSH2 0x1E0 DUP16 ADD PUSH3 0x38B JUMP JUMPDEST DUP4 DUP9 ADD MSTORE PUSH2 0x200 DUP15 ADD MLOAD DUP3 DUP9 ADD MSTORE PUSH2 0x220 DUP15 ADD MLOAD DUP2 DUP9 ADD MSTORE POP POP POP POP POP POP DUP1 SWAP2 POP POP SWAP3 SWAP6 POP SWAP3 SWAP6 POP SWAP3 SWAP6 JUMP JUMPDEST PUSH1 0x0 PUSH1 0x20 DUP3 DUP5 SUB SLT ISZERO PUSH3 0x516 JUMPI PUSH1 0x0 DUP1 REVERT JUMPDEST DUP2 MLOAD PUSH3 0x523 DUP2 PUSH3 0x315 JUMP JUMPDEST SWAP4 SWAP3 POP POP POP JUMP JUMPDEST PUSH1 0x0 DUP1 PUSH1 0x40 DUP4 DUP6 SUB SLT ISZERO PUSH3 0x53E JUMPI PUSH1 0x0 DUP1 REVERT JUMPDEST DUP3 MLOAD PUSH3 0x54B DUP2 PUSH3 0x315 JUMP JUMPDEST SWAP2 POP PUSH3 0x55B PUSH1 0x20 DUP5 ADD PUSH3 0x38B JUMP JUMPDEST SWAP1 POP SWAP3 POP SWAP3 SWAP1 POP JUMP JUMPDEST PUSH1 0x80 MLOAD PUSH1 0xA0 MLOAD PUSH1 0xC0 MLOAD PUSH1 0xE0 MLOAD PUSH2 0x100 MLOAD PUSH2 0x120 MLOAD PUSH2 0x170F PUSH3 0x5E9 PUSH1 0x0 CODECOPY PUSH1 0x0 DUP2 DUP2 PUSH2 0x432 ADD MSTORE DUP2 DUP2 PUSH2 0x115D ADD MSTORE PUSH2 0x1229 ADD MSTORE PUSH1 0x0 DUP2 DUP2 PUSH2 0x47C ADD MSTORE DUP2 DUP2 PUSH2 0xD0F ADD MSTORE PUSH2 0xE46 ADD MSTORE PUSH1 0x0 DUP2 DUP2 PUSH2 0x33F ADD MSTORE DUP2 DUP2 PUSH2 0xD7F ADD MSTORE PUSH2 0xE0F ADD MSTORE PUSH1 0x0 POP POP PUSH1 0x0 PUSH2 0x2D6 ADD MSTORE PUSH1 0x0 DUP2 DUP2 PUSH2 0x174 ADD MSTORE DUP2 DUP2 PUSH2 0xC2A ADD MSTORE PUSH2 0x10C1 ADD MSTORE PUSH2 0x170F PUSH1 0x0 RETURN INVALID PUSH1 0x80 PUSH1 0x40 MSTORE PUSH1 0x4 CALLDATASIZE LT PUSH2 0x12A JUMPI PUSH1 0x0 CALLDATALOAD PUSH1 0xE0 SHR DUP1 PUSH4 0x6EAA31AA GT PUSH2 0xAB JUMPI DUP1 PUSH4 0xBE9FB3E2 GT PUSH2 0x6F JUMPI DUP1 PUSH4 0xBE9FB3E2 EQ PUSH2 0x400 JUMPI DUP1 PUSH4 0xC31C9C07 EQ PUSH2 0x420 JUMPI DUP1 PUSH4 0xD6DC09F7 EQ PUSH2 0x454 JUMPI DUP1 PUSH4 0xE60A3213 EQ PUSH2 0x46A JUMPI DUP1 PUSH4 0xEE8CA3B5 EQ PUSH2 0x49E JUMPI DUP1 PUSH4 0xF2FDE38B EQ PUSH2 0x4BE JUMPI PUSH1 0x0 DUP1 REVERT JUMPDEST DUP1 PUSH4 0x6EAA31AA EQ PUSH2 0x377 JUMPI DUP1 PUSH4 0x70D05BE0 EQ PUSH2 0x397 JUMPI DUP1 PUSH4 0x715018A6 EQ PUSH2 0x3AD JUMPI DUP1 PUSH4 0x8DA5CB5B EQ PUSH2 0x3C2 JUMPI DUP1 PUSH4 0x9B2ED694 EQ PUSH2 0x3E0 JUMPI PUSH1 0x0 DUP1 REVERT JUMPDEST DUP1 PUSH4 0x28F150EB GT PUSH2 0xF2 JUMPI DUP1 PUSH4 0x28F150EB EQ PUSH2 0x2C4 JUMPI DUP1 PUSH4 0x2B044B73 EQ PUSH2 0x2F8 JUMPI DUP1 PUSH4 0x328E00F0 EQ PUSH2 0x318 JUMPI DUP1 PUSH4 0x46EE3C59 EQ PUSH2 0x32D JUMPI DUP1 PUSH4 0x4EA573F1 EQ PUSH2 0x361 JUMPI PUSH1 0x0 DUP1 REVERT JUMPDEST DUP1 PUSH4 0x2827BCA EQ PUSH2 0x12F JUMPI DUP1 PUSH4 0x49AACFE EQ PUSH2 0x162 JUMPI DUP1 PUSH4 0x6C9C37D EQ PUSH2 0x1AE JUMPI DUP1 PUSH4 0x89FE6AA EQ PUSH2 0x1B8 JUMPI DUP1 PUSH4 0x1ADC317F EQ PUSH2 0x1E2 JUMPI JUMPDEST PUSH1 0x0 DUP1 REVERT JUMPDEST CALLVALUE DUP1 ISZERO PUSH2 0x13B JUMPI PUSH1 0x0 DUP1 REVERT JUMPDEST POP PUSH2 0x14F PUSH2 0x14A CALLDATASIZE PUSH1 0x4 PUSH2 0x13E2 JUMP JUMPDEST PUSH2 0x4DE JUMP JUMPDEST PUSH1 0x40 MLOAD SWAP1 DUP2 MSTORE PUSH1 0x20 ADD JUMPDEST PUSH1 0x40 MLOAD DUP1 SWAP2 SUB SWAP1 RETURN JUMPDEST CALLVALUE DUP1 ISZERO PUSH2 0x16E JUMPI PUSH1 0x0 DUP1 REVERT JUMPDEST POP PUSH2 0x196 PUSH32 0x0 DUP2 JUMP JUMPDEST PUSH1 0x40 MLOAD PUSH1 0x1 PUSH1 0x1 PUSH1 0xA0 SHL SUB SWAP1 SWAP2 AND DUP2 MSTORE PUSH1 0x20 ADD PUSH2 0x159 JUMP JUMPDEST PUSH2 0x1B6 PUSH2 0x773 JUMP JUMPDEST STOP JUMPDEST CALLVALUE DUP1 ISZERO PUSH2 0x1C4 JUMPI PUSH1 0x0 DUP1 REVERT JUMPDEST POP PUSH2 0x1CE PUSH2 0xBB8 DUP2 JUMP JUMPDEST PUSH1 0x40 MLOAD PUSH3 0xFFFFFF SWAP1 SWAP2 AND DUP2 MSTORE PUSH1 0x20 ADD PUSH2 0x159 JUMP JUMPDEST CALLVALUE DUP1 ISZERO PUSH2 0x1EE JUMPI PUSH1 0x0 DUP1 REVERT JUMPDEST POP PUSH1 0x4 SLOAD PUSH1 0x5 SLOAD PUSH1 0x6 SLOAD PUSH1 0x7 SLOAD PUSH1 0x8 SLOAD PUSH1 0x9 SLOAD PUSH1 0xA SLOAD PUSH1 0xB DUP1 SLOAD PUSH1 0xC SLOAD PUSH1 0xD SLOAD PUSH1 0xE SLOAD PUSH1 0xF SLOAD PUSH2 0x248 SWAP13 PUSH1 0x1 PUSH1 0x1 PUSH1 0xA0 SHL SUB SWAP1 DUP2 AND SWAP13 DUP2 AND SWAP12 DUP2 AND SWAP11 DUP2 AND SWAP10 SWAP1 DUP2 AND SWAP9 PUSH1 0x1 PUSH1 0xA0 SHL SWAP1 SWAP2 DIV SWAP1 SWAP7 SIGNEXTEND SWAP7 SWAP5 SWAP4 SWAP3 PUSH1 0xFF AND SWAP2 SWAP1 DUP14 JUMP JUMPDEST PUSH1 0x40 DUP1 MLOAD PUSH1 0x1 PUSH1 0x1 PUSH1 0xA0 SHL SUB SWAP15 DUP16 AND DUP2 MSTORE SWAP13 DUP15 AND PUSH1 0x20 DUP15 ADD MSTORE SWAP11 DUP14 AND SWAP11 DUP13 ADD SWAP11 SWAP1 SWAP11 MSTORE SWAP8 DUP12 AND PUSH1 0x60 DUP12 ADD MSTORE SWAP10 SWAP1 SWAP6 AND PUSH1 0x80 DUP10 ADD MSTORE PUSH1 0xB SWAP4 SWAP1 SWAP4 SIGNEXTEND PUSH1 0xA0 DUP9 ADD MSTORE PUSH1 0xC0 DUP8 ADD SWAP2 SWAP1 SWAP2 MSTORE PUSH1 0xE0 DUP7 ADD MSTORE PUSH2 0x100 DUP6 ADD MSTORE PUSH2 0x120 DUP5 ADD MSTORE SWAP3 ISZERO ISZERO PUSH2 0x140 DUP4 ADD MSTORE PUSH2 0x160 DUP3 ADD SWAP3 SWAP1 SWAP3 MSTORE PUSH2 0x180 DUP2 ADD SWAP2 SWAP1 SWAP2 MSTORE PUSH2 0x1A0 ADD PUSH2 0x159 JUMP JUMPDEST CALLVALUE DUP1 ISZERO PUSH2 0x2D0 JUMPI PUSH1 0x0 DUP1 REVERT JUMPDEST POP PUSH2 0x196 PUSH32 0x0 DUP2 JUMP JUMPDEST CALLVALUE DUP1 ISZERO PUSH2 0x304 JUMPI PUSH1 0x0 DUP1 REVERT JUMPDEST POP PUSH2 0x1B6 PUSH2 0x313 CALLDATASIZE PUSH1 0x4 PUSH2 0x1419 JUMP JUMPDEST PUSH2 0x793 JUMP JUMPDEST CALLVALUE DUP1 ISZERO PUSH2 0x324 JUMPI PUSH1 0x0 DUP1 REVERT JUMPDEST POP PUSH2 0x1B6 PUSH2 0x7A1 JUMP JUMPDEST CALLVALUE DUP1 ISZERO PUSH2 0x339 JUMPI PUSH1 0x0 DUP1 REVERT JUMPDEST POP PUSH2 0x196 PUSH32 0x0 DUP2 JUMP JUMPDEST CALLVALUE DUP1 ISZERO PUSH2 0x36D JUMPI PUSH1 0x0 DUP1 REVERT JUMPDEST POP PUSH2 0x14F PUSH1 0x3 SLOAD DUP2 JUMP JUMPDEST CALLVALUE DUP1 ISZERO PUSH2 0x383 JUMPI PUSH1 0x0 DUP1 REVERT JUMPDEST POP PUSH1 0x2 SLOAD PUSH2 0x196 SWAP1 PUSH1 0x1 PUSH1 0x1 PUSH1 0xA0 SHL SUB AND DUP2 JUMP JUMPDEST CALLVALUE DUP1 ISZERO PUSH2 0x3A3 JUMPI PUSH1 0x0 DUP1 REVERT JUMPDEST POP PUSH2 0x14F PUSH1 0x10 SLOAD DUP2 JUMP JUMPDEST CALLVALUE DUP1 ISZERO PUSH2 0x3B9 JUMPI PUSH1 0x0 DUP1 REVERT JUMPDEST POP PUSH2 0x1B6 PUSH2 0x83D JUMP JUMPDEST CALLVALUE DUP1 ISZERO PUSH2 0x3CE JUMPI PUSH1 0x0 DUP1 REVERT JUMPDEST POP PUSH1 0x0 SLOAD PUSH1 0x1 PUSH1 0x1 PUSH1 0xA0 SHL SUB AND PUSH2 0x196 JUMP JUMPDEST CALLVALUE DUP1 ISZERO PUSH2 0x3EC JUMPI PUSH1 0x0 DUP1 REVERT JUMPDEST POP PUSH2 0x14F PUSH2 0x3FB CALLDATASIZE PUSH1 0x4 PUSH2 0x1449 JUMP JUMPDEST PUSH2 0x84F JUMP JUMPDEST CALLVALUE DUP1 ISZERO PUSH2 0x40C JUMPI PUSH1 0x0 DUP1 REVERT JUMPDEST POP PUSH2 0x1B6 PUSH2 0x41B CALLDATASIZE PUSH1 0x4 PUSH2 0x1462 JUMP JUMPDEST PUSH2 0x9FE JUMP JUMPDEST CALLVALUE DUP1 ISZERO PUSH2 0x42C JUMPI PUSH1 0x0 DUP1 REVERT JUMPDEST POP PUSH2 0x196 PUSH32 0x0 DUP2 JUMP JUMPDEST CALLVALUE DUP1 ISZERO PUSH2 0x460 JUMPI PUSH1 0x0 DUP1 REVERT JUMPDEST POP PUSH2 0x14F PUSH1 0x11 SLOAD DUP2 JUMP JUMPDEST CALLVALUE DUP1 ISZERO PUSH2 0x476 JUMPI PUSH1 0x0 DUP1 REVERT JUMPDEST POP PUSH2 0x196 PUSH32 0x0 DUP2 JUMP JUMPDEST CALLVALUE DUP1 ISZERO PUSH2 0x4AA JUMPI PUSH1 0x0 DUP1 REVERT JUMPDEST POP PUSH2 0x1B6 PUSH2 0x4B9 CALLDATASIZE PUSH1 0x4 PUSH2 0x1449 JUMP JUMPDEST PUSH2 0xB57 JUMP JUMPDEST CALLVALUE DUP1 ISZERO PUSH2 0x4CA JUMPI PUSH1 0x0 DUP1 REVERT JUMPDEST POP PUSH2 0x1B6 PUSH2 0x4D9 CALLDATASIZE PUSH1 0x4 PUSH2 0x1462 JUMP JUMPDEST PUSH2 0xB97 JUMP JUMPDEST PUSH1 0x2 SLOAD PUSH1 0x0 SWAP1 PUSH1 0x1 PUSH1 0x1 PUSH1 0xA0 SHL SUB AND CALLER EQ PUSH2 0x514 JUMPI PUSH1 0x40 MLOAD PUSH3 0x461BCD PUSH1 0xE5 SHL DUP2 MSTORE PUSH1 0x4 ADD PUSH2 0x50B SWAP1 PUSH2 0x1486 JUMP JUMPDEST PUSH1 0x40 MLOAD DUP1 SWAP2 SUB SWAP1 REVERT JUMPDEST PUSH1 0x40 DUP1 MLOAD PUSH1 0x3 DUP2 DUP4 ADD DUP2 DUP2 MSTORE PUSH1 0xC0 DUP4 ADD SWAP1 SWAP4 MSTORE PUSH1 0x0 SWAP3 DUP3 SWAP2 PUSH1 0x60 DUP1 DUP5 ADD SWAP1 DUP1 CALLDATASIZE DUP4 CALLDATACOPY ADD SWAP1 POP POP DUP2 MSTORE PUSH1 0x40 DUP1 MLOAD PUSH1 0x3 DUP1 DUP3 MSTORE PUSH1 0x80 DUP3 ADD SWAP1 SWAP3 MSTORE PUSH1 0x20 SWAP1 SWAP3 ADD SWAP2 SWAP1 DUP2 PUSH1 0x20 ADD JUMPDEST PUSH1 0x60 DUP2 MSTORE PUSH1 0x20 ADD SWAP1 PUSH1 0x1 SWAP1 SUB SWAP1 DUP2 PUSH2 0x558 JUMPI POP POP SWAP1 MSTORE DUP1 MLOAD DUP1 MLOAD SWAP2 SWAP3 POP PUSH1 0x1 SWAP2 PUSH1 0x0 SWAP1 PUSH2 0x587 JUMPI PUSH2 0x587 PUSH2 0x14AE JUMP JUMPDEST PUSH1 0x20 MUL PUSH1 0x20 ADD ADD SWAP1 PUSH1 0x4 DUP2 GT ISZERO PUSH2 0x5A0 JUMPI PUSH2 0x5A0 PUSH2 0x14C4 JUMP JUMPDEST SWAP1 DUP2 PUSH1 0x4 DUP2 GT ISZERO PUSH2 0x5B3 JUMPI PUSH2 0x5B3 PUSH2 0x14C4 JUMP JUMPDEST DUP2 MSTORE POP POP PUSH1 0x2 DUP2 PUSH1 0x0 ADD MLOAD PUSH1 0x1 DUP2 MLOAD DUP2 LT PUSH2 0x5D0 JUMPI PUSH2 0x5D0 PUSH2 0x14AE JUMP JUMPDEST PUSH1 0x20 MUL PUSH1 0x20 ADD ADD SWAP1 PUSH1 0x4 DUP2 GT ISZERO PUSH2 0x5E9 JUMPI PUSH2 0x5E9 PUSH2 0x14C4 JUMP JUMPDEST SWAP1 DUP2 PUSH1 0x4 DUP2 GT ISZERO PUSH2 0x5FC JUMPI PUSH2 0x5FC PUSH2 0x14C4 JUMP JUMPDEST DUP2 MSTORE POP POP PUSH1 0x3 DUP2 PUSH1 0x0 ADD MLOAD PUSH1 0x2 DUP2 MLOAD DUP2 LT PUSH2 0x619 JUMPI PUSH2 0x619 PUSH2 0x14AE JUMP JUMPDEST PUSH1 0x20 MUL PUSH1 0x20 ADD ADD SWAP1 PUSH1 0x4 DUP2 GT ISZERO PUSH2 0x632 JUMPI PUSH2 0x632 PUSH2 0x14C4 JUMP JUMPDEST SWAP1 DUP2 PUSH1 0x4 DUP2 GT ISZERO PUSH2 0x645 JUMPI PUSH2 0x645 PUSH2 0x14C4 JUMP JUMPDEST SWAP1 MSTORE POP PUSH2 0x68C PUSH2 0x655 DUP5 TIMESTAMP PUSH2 0x14DA JUMP JUMPDEST PUSH1 0x40 DUP1 MLOAD PUSH16 0xFFFFFFFFFFFFFFFFFFFFFFFFFFFFFFFF SWAP3 DUP4 AND PUSH1 0x20 DUP3 ADD MSTORE SWAP2 DUP7 AND DUP3 DUP3 ADD MSTORE DUP1 MLOAD DUP1 DUP4 SUB DUP3 ADD DUP2 MSTORE PUSH1 0x60 SWAP1 SWAP3 ADD SWAP1 MSTORE SWAP1 JUMP JUMPDEST DUP2 PUSH1 0x20 ADD MLOAD PUSH1 0x0 DUP2 MLOAD DUP2 LT PUSH2 0x6A3 JUMPI PUSH2 0x6A3 PUSH2 0x14AE JUMP JUMPDEST PUSH1 0x20 MUL PUSH1 0x20 ADD ADD DUP2 SWAP1 MSTORE POP PUSH2 0x6C3 PUSH1 0x40 DUP1 MLOAD PUSH1 0x20 DUP2 ADD SWAP1 SWAP2 MSTORE PUSH1 0x0 DUP2 MSTORE SWAP1 JUMP JUMPDEST DUP2 PUSH1 0x20 ADD MLOAD PUSH1 0x1 DUP2 MLOAD DUP2 LT PUSH2 0x6DA JUMPI PUSH2 0x6DA PUSH2 0x14AE JUMP JUMPDEST PUSH1 0x20 MUL PUSH1 0x20 ADD ADD DUP2 SWAP1 MSTORE POP PUSH2 0x6FA PUSH1 0x40 DUP1 MLOAD PUSH1 0x20 DUP2 ADD SWAP1 SWAP2 MSTORE PUSH1 0x0 DUP2 MSTORE SWAP1 JUMP JUMPDEST DUP2 PUSH1 0x20 ADD MLOAD PUSH1 0x2 DUP2 MLOAD DUP2 LT PUSH2 0x711 JUMPI PUSH2 0x711 PUSH2 0x14AE JUMP JUMPDEST PUSH1 0x20 SWAP1 DUP2 MUL SWAP2 SWAP1 SWAP2 ADD DUP2 ADD SWAP2 SWAP1 SWAP2 MSTORE PUSH1 0x2 SLOAD PUSH1 0x40 DUP1 MLOAD PUSH4 0xA839BD0D PUSH1 0xE0 SHL SWAP4 DUP2 ADD SWAP4 SWAP1 SWAP4 MSTORE DUP3 ADD DUP7 SWAP1 MSTORE PUSH2 0x766 SWAP2 PUSH1 0x1 PUSH1 0x1 PUSH1 0xA0 SHL SUB SWAP1 SWAP2 AND SWAP1 PUSH1 0x60 ADD JUMPDEST PUSH1 0x40 MLOAD PUSH1 0x20 DUP2 DUP4 SUB SUB DUP2 MSTORE SWAP1 PUSH1 0x40 MSTORE DUP4 PUSH1 0x0 PUSH2 0xC10 JUMP JUMPDEST PUSH1 0xF DUP2 SWAP1 SSTORE SWAP5 SWAP4 POP POP POP POP JUMP JUMPDEST PUSH2 0x791 CALLVALUE PUSH20 0xEEEEEEEEEEEEEEEEEEEEEEEEEEEEEEEEEEEEEEEE PUSH2 0xCB1 JUMP JUMPDEST JUMP JUMPDEST PUSH2 0x79D DUP3 DUP3 PUSH2 0xD74 JUMP JUMPDEST POP POP JUMP JUMPDEST PUSH1 0xD SLOAD PUSH1 0xFF AND PUSH2 0x7E0 JUMPI PUSH1 0x40 MLOAD PUSH3 0x461BCD PUSH1 0xE5 SHL DUP2 MSTORE PUSH1 0x20 PUSH1 0x4 DUP3 ADD MSTORE PUSH1 0xA PUSH1 0x24 DUP3 ADD MSTORE PUSH10 0x4E6F7420416374697665 PUSH1 0xB0 SHL PUSH1 0x44 DUP3 ADD MSTORE PUSH1 0x64 ADD PUSH2 0x50B JUMP JUMPDEST PUSH1 0xA SLOAD PUSH1 0xB SLOAD PUSH2 0x7F0 SWAP2 SWAP1 PUSH2 0x14DA JUMP JUMPDEST TIMESTAMP GT PUSH2 0x835 JUMPI PUSH1 0x40 MLOAD PUSH3 0x461BCD PUSH1 0xE5 SHL DUP2 MSTORE PUSH1 0x20 PUSH1 0x4 DUP3 ADD MSTORE PUSH1 0x14 PUSH1 0x24 DUP3 ADD MSTORE PUSH20 0x119C995C481D1A5B59481B9BDD081C185CDCD959 PUSH1 0x62 SHL PUSH1 0x44 DUP3 ADD MSTORE PUSH1 0x64 ADD PUSH2 0x50B JUMP JUMPDEST PUSH2 0x791 PUSH2 0xEA7 JUMP JUMPDEST PUSH2 0x845 PUSH2 0x1001 JUMP JUMPDEST PUSH2 0x791 PUSH1 0x0 PUSH2 0x105B JUMP JUMPDEST PUSH1 0x2 SLOAD PUSH1 0x0 SWAP1 PUSH1 0x1 PUSH1 0x1 PUSH1 0xA0 SHL SUB AND CALLER EQ PUSH2 0x87C JUMPI PUSH1 0x40 MLOAD PUSH3 0x461BCD PUSH1 0xE5 SHL DUP2 MSTORE PUSH1 0x4 ADD PUSH2 0x50B SWAP1 PUSH2 0x1486 JUMP JUMPDEST PUSH1 0x40 DUP1 MLOAD PUSH1 0x2 DUP2 DUP4 ADD DUP2 DUP2 MSTORE PUSH1 0xA0 DUP4 ADD DUP5 MSTORE PUSH1 0x0 SWAP4 DUP4 SWAP3 SWAP1 PUSH1 0x60 DUP5 ADD SWAP1 DUP1 CALLDATASIZE DUP4 CALLDATACOPY ADD SWAP1 POP POP DUP2 MSTORE PUSH1 0x40 DUP1 MLOAD PUSH1 0x2 DUP1 DUP3 MSTORE PUSH1 0x60 DUP3 ADD SWAP1 SWAP3 MSTORE PUSH1 0x20 SWAP1 SWAP3 ADD SWAP2 SWAP1 DUP2 PUSH1 0x20 ADD JUMPDEST PUSH1 0x60 DUP2 MSTORE PUSH1 0x20 ADD SWAP1 PUSH1 0x1 SWAP1 SUB SWAP1 DUP2 PUSH2 0x8BF JUMPI POP POP SWAP1 MSTORE DUP1 MLOAD DUP1 MLOAD SWAP2 SWAP3 POP PUSH1 0x1 SWAP2 PUSH1 0x0 SWAP1 PUSH2 0x8EE JUMPI PUSH2 0x8EE PUSH2 0x14AE JUMP JUMPDEST PUSH1 0x20 MUL PUSH1 0x20 ADD ADD SWAP1 PUSH1 0x4 DUP2 GT ISZERO PUSH2 0x907 JUMPI PUSH2 0x907 PUSH2 0x14C4 JUMP JUMPDEST SWAP1 DUP2 PUSH1 0x4 DUP2 GT ISZERO PUSH2 0x91A JUMPI PUSH2 0x91A PUSH2 0x14C4 JUMP JUMPDEST DUP2 MSTORE POP POP PUSH1 0x2 DUP2 PUSH1 0x0 ADD MLOAD PUSH1 0x1 DUP2 MLOAD DUP2 LT PUSH2 0x937 JUMPI PUSH2 0x937 PUSH2 0x14AE JUMP JUMPDEST PUSH1 0x20 MUL PUSH1 0x20 ADD ADD SWAP1 PUSH1 0x4 DUP2 GT ISZERO PUSH2 0x950 JUMPI PUSH2 0x950 PUSH2 0x14C4 JUMP JUMPDEST SWAP1 DUP2 PUSH1 0x4 DUP2 GT ISZERO PUSH2 0x963 JUMPI PUSH2 0x963 PUSH2 0x14C4 JUMP JUMPDEST SWAP1 MSTORE POP PUSH2 0x973 PUSH2 0x655 DUP5 TIMESTAMP PUSH2 0x14DA JUMP JUMPDEST DUP2 PUSH1 0x20 ADD MLOAD PUSH1 0x0 DUP2 MLOAD DUP2 LT PUSH2 0x98A JUMPI PUSH2 0x98A PUSH2 0x14AE JUMP JUMPDEST PUSH1 0x20 MUL PUSH1 0x20 ADD ADD DUP2 SWAP1 MSTORE POP PUSH2 0x9AA PUSH1 0x40 DUP1 MLOAD PUSH1 0x20 DUP2 ADD SWAP1 SWAP2 MSTORE PUSH1 0x0 DUP2 MSTORE SWAP1 JUMP JUMPDEST DUP2 PUSH1 0x20 ADD MLOAD PUSH1 0x1 DUP2 MLOAD DUP2 LT PUSH2 0x9C1 JUMPI PUSH2 0x9C1 PUSH2 0x14AE JUMP JUMPDEST PUSH1 0x20 SWAP1 DUP2 MUL SWAP2 SWAP1 SWAP2 ADD DUP2 ADD SWAP2 SWAP1 SWAP2 MSTORE PUSH1 0x40 DUP1 MLOAD ADDRESS DUP1 DUP5 SHL PUSH4 0x328E00F0 OR DUP4 SHL SWAP4 DUP3 ADD SWAP4 SWAP1 SWAP4 MSTORE PUSH2 0x9F2 SWAP3 SWAP2 ADD PUSH2 0x74F JUMP JUMPDEST PUSH1 0xE DUP2 SWAP1 SSTORE SWAP4 SWAP3 POP POP POP JUMP JUMPDEST PUSH1 0x2 SLOAD PUSH1 0x1 PUSH1 0x1 PUSH1 0xA0 SHL SUB AND CALLER EQ PUSH2 0xA28 JUMPI PUSH1 0x40 MLOAD PUSH3 0x461BCD PUSH1 0xE5 SHL DUP2 MSTORE PUSH1 0x4 ADD PUSH2 0x50B SWAP1 PUSH2 0x1486 JUMP JUMPDEST PUSH1 0xD SLOAD PUSH1 0xFF AND ISZERO PUSH2 0xA6A JUMPI PUSH1 0x40 MLOAD PUSH3 0x461BCD PUSH1 0xE5 SHL DUP2 MSTORE PUSH1 0x20 PUSH1 0x4 DUP3 ADD MSTORE PUSH1 0xC PUSH1 0x24 DUP3 ADD MSTORE PUSH12 0x5354494C4C20414354495645 PUSH1 0xA0 SHL PUSH1 0x44 DUP3 ADD MSTORE PUSH1 0x64 ADD PUSH2 0x50B JUMP JUMPDEST PUSH1 0x40 MLOAD PUSH4 0x70A08231 PUSH1 0xE0 SHL DUP2 MSTORE ADDRESS PUSH1 0x4 DUP3 ADD MSTORE PUSH1 0x0 SWAP1 PUSH1 0x1 PUSH1 0x1 PUSH1 0xA0 SHL SUB DUP4 AND SWAP1 PUSH4 0x70A08231 SWAP1 PUSH1 0x24 ADD PUSH1 0x20 PUSH1 0x40 MLOAD DUP1 DUP4 SUB DUP2 DUP7 GAS STATICCALL ISZERO DUP1 ISZERO PUSH2 0xAB1 JUMPI RETURNDATASIZE PUSH1 0x0 DUP1 RETURNDATACOPY RETURNDATASIZE PUSH1 0x0 REVERT JUMPDEST POP POP POP POP PUSH1 0x40 MLOAD RETURNDATASIZE PUSH1 0x1F NOT PUSH1 0x1F DUP3 ADD AND DUP3 ADD DUP1 PUSH1 0x40 MSTORE POP DUP2 ADD SWAP1 PUSH2 0xAD5 SWAP2 SWAP1 PUSH2 0x1500 JUMP JUMPDEST PUSH1 0x4 DUP1 SLOAD PUSH1 0x40 MLOAD PUSH4 0xA9059CBB PUSH1 0xE0 SHL DUP2 MSTORE PUSH1 0x1 PUSH1 0x1 PUSH1 0xA0 SHL SUB SWAP2 DUP3 AND SWAP3 DUP2 ADD SWAP3 SWAP1 SWAP3 MSTORE PUSH1 0x24 DUP3 ADD DUP4 SWAP1 MSTORE SWAP2 SWAP3 POP SWAP1 DUP4 AND SWAP1 PUSH4 0xA9059CBB SWAP1 PUSH1 0x44 ADD PUSH1 0x20 PUSH1 0x40 MLOAD DUP1 DUP4 SUB DUP2 PUSH1 0x0 DUP8 GAS CALL ISZERO DUP1 ISZERO PUSH2 0xB2E JUMPI RETURNDATASIZE PUSH1 0x0 DUP1 RETURNDATACOPY RETURNDATASIZE PUSH1 0x0 REVERT JUMPDEST POP POP POP POP PUSH1 0x40 MLOAD RETURNDATASIZE PUSH1 0x1F NOT PUSH1 0x1F DUP3 ADD AND DUP3 ADD DUP1 PUSH1 0x40 MSTORE POP DUP2 ADD SWAP1 PUSH2 0xB52 SWAP2 SWAP1 PUSH2 0x1519 JUMP JUMPDEST POP POP POP JUMP JUMPDEST PUSH1 0x2 SLOAD PUSH1 0x1 PUSH1 0x1 PUSH1 0xA0 SHL SUB AND CALLER EQ PUSH2 0xB81 JUMPI PUSH1 0x40 MLOAD PUSH3 0x461BCD PUSH1 0xE5 SHL DUP2 MSTORE PUSH1 0x4 ADD PUSH2 0x50B SWAP1 PUSH2 0x1486 JUMP JUMPDEST PUSH2 0xB8A DUP2 PUSH2 0x10AB JUMP JUMPDEST POP PUSH1 0xD DUP1 SLOAD PUSH1 0xFF NOT AND SWAP1 SSTORE JUMP JUMPDEST PUSH2 0xB9F PUSH2 0x1001 JUMP JUMPDEST PUSH1 0x1 PUSH1 0x1 PUSH1 0xA0 SHL SUB DUP2 AND PUSH2 0xC04 JUMPI PUSH1 0x40 MLOAD PUSH3 0x461BCD PUSH1 0xE5 SHL DUP2 MSTORE PUSH1 0x20 PUSH1 0x4 DUP3 ADD MSTORE PUSH1 0x26 PUSH1 0x24 DUP3 ADD MSTORE PUSH32 0x4F776E61626C653A206E6577206F776E657220697320746865207A65726F2061 PUSH1 0x44 DUP3 ADD MSTORE PUSH6 0x646472657373 PUSH1 0xD0 SHL PUSH1 0x64 DUP3 ADD MSTORE PUSH1 0x84 ADD PUSH2 0x50B JUMP JUMPDEST PUSH2 0xC0D DUP2 PUSH2 0x105B JUMP JUMPDEST POP JUMP JUMPDEST PUSH1 0x40 MLOAD PUSH4 0x3323B467 PUSH1 0xE0 SHL DUP2 MSTORE PUSH1 0x0 SWAP1 PUSH1 0x1 PUSH1 0x1 PUSH1 0xA0 SHL SUB PUSH32 0x0 AND SWAP1 PUSH4 0x3323B467 SWAP1 PUSH2 0xC65 SWAP1 DUP9 SWAP1 DUP9 SWAP1 DUP9 SWAP1 DUP9 SWAP1 PUSH1 0x4 ADD PUSH2 0x15E8 JUMP JUMPDEST PUSH1 0x20 PUSH1 0x40 MLOAD DUP1 DUP4 SUB DUP2 PUSH1 0x0 DUP8 GAS CALL ISZERO DUP1 ISZERO PUSH2 0xC84 JUMPI RETURNDATASIZE PUSH1 0x0 DUP1 RETURNDATACOPY RETURNDATASIZE PUSH1 0x0 REVERT JUMPDEST POP POP POP POP PUSH1 0x40 MLOAD RETURNDATASIZE PUSH1 0x1F NOT PUSH1 0x1F DUP3 ADD AND DUP3 ADD DUP1 PUSH1 0x40 MSTORE POP DUP2 ADD SWAP1 PUSH2 0xCA8 SWAP2 SWAP1 PUSH2 0x1500 JUMP JUMPDEST SWAP6 SWAP5 POP POP POP POP POP JUMP JUMPDEST PUSH1 0x0 PUSH1 0x1 PUSH1 0x1 PUSH1 0xA0 SHL SUB DUP3 AND PUSH20 0xEEEEEEEEEEEEEEEEEEEEEEEEEEEEEEEEEEEEEEEE EQ PUSH2 0xCDE JUMPI PUSH1 0x0 PUSH2 0xCE0 JUMP JUMPDEST DUP3 JUMPDEST PUSH1 0x40 MLOAD PUSH4 0xC1461D57 PUSH1 0xE0 SHL DUP2 MSTORE ADDRESS PUSH1 0x4 DUP3 ADD MSTORE PUSH1 0x1 PUSH1 0x1 PUSH1 0xA0 SHL SUB DUP5 DUP2 AND PUSH1 0x24 DUP4 ADD MSTORE PUSH1 0x44 DUP3 ADD DUP7 SWAP1 MSTORE SWAP2 SWAP3 POP PUSH32 0x0 SWAP1 SWAP2 AND SWAP1 PUSH4 0xC1461D57 SWAP1 DUP4 SWAP1 PUSH1 0x64 ADD PUSH1 0x0 PUSH1 0x40 MLOAD DUP1 DUP4 SUB DUP2 DUP6 DUP9 DUP1 EXTCODESIZE ISZERO DUP1 ISZERO PUSH2 0xD56 JUMPI PUSH1 0x0 DUP1 REVERT JUMPDEST POP GAS CALL ISZERO DUP1 ISZERO PUSH2 0xD6A JUMPI RETURNDATASIZE PUSH1 0x0 DUP1 RETURNDATACOPY RETURNDATASIZE PUSH1 0x0 REVERT JUMPDEST POP POP POP POP POP POP POP POP JUMP JUMPDEST CALLER PUSH1 0x1 PUSH1 0x1 PUSH1 0xA0 SHL SUB PUSH32 0x0 AND EQ PUSH2 0xDF8 JUMPI PUSH1 0x40 MLOAD PUSH3 0x461BCD PUSH1 0xE5 SHL DUP2 MSTORE PUSH1 0x20 PUSH1 0x4 DUP3 ADD MSTORE PUSH1 0x23 PUSH1 0x24 DUP3 ADD MSTORE PUSH32 0x4F6E6C792066756E6473206F776E65722063616E207769746864726177206675 PUSH1 0x44 DUP3 ADD MSTORE PUSH3 0x6E6473 PUSH1 0xE8 SHL PUSH1 0x64 DUP3 ADD MSTORE PUSH1 0x84 ADD PUSH2 0x50B JUMP JUMPDEST PUSH1 0x40 MLOAD PUSH4 0x1C20FADD PUSH1 0xE0 SHL DUP2 MSTORE PUSH1 0x1 PUSH1 0x1 PUSH1 0xA0 SHL SUB PUSH32 0x0 DUP2 AND PUSH1 0x4 DUP4 ADD MSTORE DUP3 DUP2 AND PUSH1 0x24 DUP4 ADD MSTORE PUSH1 0x44 DUP3 ADD DUP5 SWAP1 MSTORE PUSH32 0x0 AND SWAP1 PUSH4 0x1C20FADD SWAP1 PUSH1 0x64 ADD JUMPDEST PUSH1 0x0 PUSH1 0x40 MLOAD DUP1 DUP4 SUB DUP2 PUSH1 0x0 DUP8 DUP1 EXTCODESIZE ISZERO DUP1 ISZERO PUSH2 0xE8B JUMPI PUSH1 0x0 DUP1 REVERT JUMPDEST POP GAS CALL ISZERO DUP1 ISZERO PUSH2 0xE9F JUMPI RETURNDATASIZE PUSH1 0x0 DUP1 RETURNDATACOPY RETURNDATASIZE PUSH1 0x0 REVERT JUMPDEST POP POP POP POP POP POP JUMP JUMPDEST PUSH1 0x7 SLOAD PUSH1 0x40 MLOAD PUSH4 0x70A08231 PUSH1 0xE0 SHL DUP2 MSTORE ADDRESS PUSH1 0x4 DUP3 ADD MSTORE PUSH1 0x1 PUSH1 0x1 PUSH1 0xA0 SHL SUB SWAP1 SWAP2 AND SWAP1 PUSH1 0x0 SWAP1 DUP3 SWAP1 PUSH4 0x70A08231 SWAP1 PUSH1 0x24 ADD PUSH1 0x20 PUSH1 0x40 MLOAD DUP1 DUP4 SUB DUP2 DUP7 GAS STATICCALL ISZERO DUP1 ISZERO PUSH2 0xEF4 JUMPI RETURNDATASIZE PUSH1 0x0 DUP1 RETURNDATACOPY RETURNDATASIZE PUSH1 0x0 REVERT JUMPDEST POP POP POP POP PUSH1 0x40 MLOAD RETURNDATASIZE PUSH1 0x1F NOT PUSH1 0x1F DUP3 ADD AND DUP3 ADD DUP1 PUSH1 0x40 MSTORE POP DUP2 ADD SWAP1 PUSH2 0xF18 SWAP2 SWAP1 PUSH2 0x1500 JUMP JUMPDEST SWAP1 POP PUSH2 0xF24 DUP3 DUP3 PUSH2 0x1128 JUMP JUMPDEST PUSH1 0x0 DUP3 PUSH1 0x1 PUSH1 0x1 PUSH1 0xA0 SHL SUB AND PUSH4 0xEE719BC8 PUSH1 0x40 MLOAD DUP2 PUSH4 0xFFFFFFFF AND PUSH1 0xE0 SHL DUP2 MSTORE PUSH1 0x4 ADD PUSH1 0x20 PUSH1 0x40 MLOAD DUP1 DUP4 SUB DUP2 DUP7 GAS STATICCALL ISZERO DUP1 ISZERO PUSH2 0xF64 JUMPI RETURNDATASIZE PUSH1 0x0 DUP1 RETURNDATACOPY RETURNDATASIZE PUSH1 0x0 REVERT JUMPDEST POP POP POP POP PUSH1 0x40 MLOAD RETURNDATASIZE PUSH1 0x1F NOT PUSH1 0x1F DUP3 ADD AND DUP3 ADD DUP1 PUSH1 0x40 MSTORE POP DUP2 ADD SWAP1 PUSH2 0xF88 SWAP2 SWAP1 PUSH2 0x16A0 JUMP JUMPDEST PUSH1 0x6 SLOAD SWAP1 SWAP2 POP PUSH1 0x1 PUSH1 0x1 PUSH1 0xA0 SHL SUB DUP1 DUP4 AND SWAP2 AND EQ PUSH2 0xFD8 JUMPI PUSH1 0x40 MLOAD PUSH3 0x461BCD PUSH1 0xE5 SHL DUP2 MSTORE PUSH1 0x20 PUSH1 0x4 DUP3 ADD MSTORE PUSH1 0xD PUSH1 0x24 DUP3 ADD MSTORE PUSH13 0x24A72B20A624A2102A27A5A2A7 PUSH1 0x99 SHL PUSH1 0x44 DUP3 ADD MSTORE PUSH1 0x64 ADD PUSH2 0x50B JUMP JUMPDEST PUSH1 0x6 SLOAD PUSH1 0x8 SLOAD PUSH1 0x4 SLOAD PUSH2 0xFFB SWAP3 PUSH1 0x1 PUSH1 0x1 PUSH1 0xA0 SHL SUB SWAP1 DUP2 AND SWAP3 DUP2 AND SWAP2 AND DUP6 PUSH2 0x1155 JUMP JUMPDEST POP POP POP POP JUMP JUMPDEST PUSH1 0x0 SLOAD PUSH1 0x1 PUSH1 0x1 PUSH1 0xA0 SHL SUB AND CALLER EQ PUSH2 0x791 JUMPI PUSH1 0x40 MLOAD PUSH3 0x461BCD PUSH1 0xE5 SHL DUP2 MSTORE PUSH1 0x20 PUSH1 0x4 DUP3 ADD DUP2 SWAP1 MSTORE PUSH1 0x24 DUP3 ADD MSTORE PUSH32 0x4F776E61626C653A2063616C6C6572206973206E6F7420746865206F776E6572 PUSH1 0x44 DUP3 ADD MSTORE PUSH1 0x64 ADD PUSH2 0x50B JUMP JUMPDEST PUSH1 0x0 DUP1 SLOAD PUSH1 0x1 PUSH1 0x1 PUSH1 0xA0 SHL SUB DUP4 DUP2 AND PUSH1 0x1 PUSH1 0x1 PUSH1 0xA0 SHL SUB NOT DUP4 AND DUP2 OR DUP5 SSTORE PUSH1 0x40 MLOAD SWAP2 SWAP1 SWAP3 AND SWAP3 DUP4 SWAP2 PUSH32 0x8BE0079C531659141344CD1FD0A4F28419497F9722A3DAAFE3B4186F6B6457E0 SWAP2 SWAP1 LOG3 POP POP JUMP JUMPDEST PUSH1 0x40 MLOAD PUSH4 0xEE8CA3B5 PUSH1 0xE0 SHL DUP2 MSTORE PUSH1 0x4 DUP2 ADD DUP3 SWAP1 MSTORE PUSH32 0x0 PUSH1 0x1 PUSH1 0x1 PUSH1 0xA0 SHL SUB AND SWAP1 PUSH4 0xEE8CA3B5 SWAP1 PUSH1 0x24 ADD PUSH1 0x0 PUSH1 0x40 MLOAD DUP1 DUP4 SUB DUP2 PUSH1 0x0 DUP8 DUP1 EXTCODESIZE ISZERO DUP1 ISZERO PUSH2 0x110D JUMPI PUSH1 0x0 DUP1 REVERT JUMPDEST POP GAS CALL ISZERO DUP1 ISZERO PUSH2 0x1121 JUMPI RETURNDATASIZE PUSH1 0x0 DUP1 RETURNDATACOPY RETURNDATASIZE PUSH1 0x0 REVERT JUMPDEST POP POP POP POP POP JUMP JUMPDEST PUSH1 0x40 MLOAD PUSH4 0x8DE640F PUSH1 0xE1 SHL DUP2 MSTORE PUSH1 0x4 DUP2 ADD DUP3 SWAP1 MSTORE PUSH1 0x1 PUSH1 0x1 PUSH1 0xA0 SHL SUB DUP4 AND SWAP1 PUSH4 0x11BCC81E SWAP1 PUSH1 0x24 ADD PUSH2 0xE71 JUMP JUMPDEST PUSH1 0x0 PUSH2 0x1182 DUP6 PUSH32 0x0 DUP5 PUSH2 0x12AE JUMP JUMPDEST PUSH1 0x40 DUP1 MLOAD PUSH2 0x100 DUP2 ADD DUP3 MSTORE PUSH1 0x1 PUSH1 0x1 PUSH1 0xA0 SHL SUB DUP8 DUP2 AND DUP3 MSTORE DUP7 DUP2 AND PUSH1 0x20 DUP4 ADD SWAP1 DUP2 MSTORE PUSH2 0xBB8 DUP4 DUP6 ADD SWAP1 DUP2 MSTORE DUP8 DUP4 AND PUSH1 0x60 DUP6 ADD SWAP1 DUP2 MSTORE TIMESTAMP PUSH1 0x80 DUP7 ADD SWAP1 DUP2 MSTORE PUSH1 0xA0 DUP7 ADD DUP10 DUP2 MSTORE PUSH1 0x0 PUSH1 0xC0 DUP9 ADD DUP2 DUP2 MSTORE PUSH1 0xE0 DUP10 ADD SWAP2 DUP3 MSTORE SWAP9 MLOAD PUSH4 0x414BF389 PUSH1 0xE0 SHL DUP2 MSTORE DUP9 MLOAD DUP9 AND PUSH1 0x4 DUP3 ADD MSTORE SWAP6 MLOAD DUP8 AND PUSH1 0x24 DUP8 ADD MSTORE SWAP4 MLOAD PUSH3 0xFFFFFF AND PUSH1 0x44 DUP7 ADD MSTORE SWAP2 MLOAD DUP6 AND PUSH1 0x64 DUP6 ADD MSTORE MLOAD PUSH1 0x84 DUP5 ADD MSTORE MLOAD PUSH1 0xA4 DUP4 ADD MSTORE SWAP4 MLOAD PUSH1 0xC4 DUP3 ADD MSTORE SWAP3 MLOAD DUP2 AND PUSH1 0xE4 DUP5 ADD MSTORE SWAP1 SWAP2 PUSH32 0x0 SWAP1 SWAP2 AND SWAP1 PUSH4 0x414BF389 SWAP1 PUSH2 0x104 ADD PUSH1 0x20 PUSH1 0x40 MLOAD DUP1 DUP4 SUB DUP2 PUSH1 0x0 DUP8 GAS CALL ISZERO DUP1 ISZERO PUSH2 0x1275 JUMPI RETURNDATASIZE PUSH1 0x0 DUP1 RETURNDATACOPY RETURNDATASIZE PUSH1 0x0 REVERT JUMPDEST POP POP POP POP PUSH1 0x40 MLOAD RETURNDATASIZE PUSH1 0x1F NOT PUSH1 0x1F DUP3 ADD AND DUP3 ADD DUP1 PUSH1 0x40 MSTORE POP DUP2 ADD SWAP1 PUSH2 0x1299 SWAP2 SWAP1 PUSH2 0x1500 JUMP JUMPDEST SWAP2 POP PUSH2 0x12A5 DUP4 DUP4 PUSH2 0x13A7 JUMP JUMPDEST POP SWAP5 SWAP4 POP POP POP POP JUMP JUMPDEST PUSH1 0x40 DUP1 MLOAD PUSH1 0x1 PUSH1 0x1 PUSH1 0xA0 SHL SUB DUP5 DUP2 AND PUSH1 0x24 DUP4 ADD MSTORE PUSH1 0x44 DUP1 DUP4 ADD DUP6 SWAP1 MSTORE DUP4 MLOAD DUP1 DUP5 SUB SWAP1 SWAP2 ADD DUP2 MSTORE PUSH1 0x64 SWAP1 SWAP3 ADD DUP4 MSTORE PUSH1 0x20 DUP3 ADD DUP1 MLOAD PUSH1 0x1 PUSH1 0x1 PUSH1 0xE0 SHL SUB AND PUSH4 0x95EA7B3 PUSH1 0xE0 SHL OR SWAP1 MSTORE SWAP2 MLOAD PUSH1 0x0 SWAP3 DUP4 SWAP3 SWAP1 DUP8 AND SWAP2 PUSH2 0x130A SWAP2 SWAP1 PUSH2 0x16BD JUMP JUMPDEST PUSH1 0x0 PUSH1 0x40 MLOAD DUP1 DUP4 SUB DUP2 PUSH1 0x0 DUP7 GAS CALL SWAP2 POP POP RETURNDATASIZE DUP1 PUSH1 0x0 DUP2 EQ PUSH2 0x1347 JUMPI PUSH1 0x40 MLOAD SWAP2 POP PUSH1 0x1F NOT PUSH1 0x3F RETURNDATASIZE ADD AND DUP3 ADD PUSH1 0x40 MSTORE RETURNDATASIZE DUP3 MSTORE RETURNDATASIZE PUSH1 0x0 PUSH1 0x20 DUP5 ADD RETURNDATACOPY PUSH2 0x134C JUMP JUMPDEST PUSH1 0x60 SWAP2 POP JUMPDEST POP SWAP2 POP SWAP2 POP DUP2 DUP1 ISZERO PUSH2 0x1376 JUMPI POP DUP1 MLOAD ISZERO DUP1 PUSH2 0x1376 JUMPI POP DUP1 DUP1 PUSH1 0x20 ADD SWAP1 MLOAD DUP2 ADD SWAP1 PUSH2 0x1376 SWAP2 SWAP1 PUSH2 0x1519 JUMP JUMPDEST PUSH2 0x1121 JUMPI PUSH1 0x40 MLOAD PUSH3 0x461BCD PUSH1 0xE5 SHL DUP2 MSTORE PUSH1 0x20 PUSH1 0x4 DUP3 ADD MSTORE PUSH1 0x2 PUSH1 0x24 DUP3 ADD MSTORE PUSH2 0x5341 PUSH1 0xF0 SHL PUSH1 0x44 DUP3 ADD MSTORE PUSH1 0x64 ADD PUSH2 0x50B JUMP JUMPDEST TIMESTAMP PUSH1 0xB SSTORE PUSH1 0x10 DUP1 SLOAD DUP4 SWAP2 SWAP1 PUSH1 0x0 SWAP1 PUSH2 0x13C0 SWAP1 DUP5 SWAP1 PUSH2 0x14DA JUMP JUMPDEST SWAP3 POP POP DUP2 SWAP1 SSTORE POP DUP1 PUSH1 0x11 PUSH1 0x0 DUP3 DUP3 SLOAD PUSH2 0x13D9 SWAP2 SWAP1 PUSH2 0x14DA JUMP JUMPDEST SWAP1 SWAP2 SSTORE POP POP POP POP JUMP JUMPDEST PUSH1 0x0 DUP1 PUSH1 0x40 DUP4 DUP6 SUB SLT ISZERO PUSH2 0x13F5 JUMPI PUSH1 0x0 DUP1 REVERT JUMPDEST POP POP DUP1 CALLDATALOAD SWAP3 PUSH1 0x20 SWAP1 SWAP2 ADD CALLDATALOAD SWAP2 POP JUMP JUMPDEST PUSH1 0x1 PUSH1 0x1 PUSH1 0xA0 SHL SUB DUP2 AND DUP2 EQ PUSH2 0xC0D JUMPI PUSH1 0x0 DUP1 REVERT JUMPDEST PUSH1 0x0 DUP1 PUSH1 0x40 DUP4 DUP6 SUB SLT ISZERO PUSH2 0x142C JUMPI PUSH1 0x0 DUP1 REVERT JUMPDEST DUP3 CALLDATALOAD SWAP2 POP PUSH1 0x20 DUP4 ADD CALLDATALOAD PUSH2 0x143E DUP2 PUSH2 0x1404 JUMP JUMPDEST DUP1 SWAP2 POP POP SWAP3 POP SWAP3 SWAP1 POP JUMP JUMPDEST PUSH1 0x0 PUSH1 0x20 DUP3 DUP5 SUB SLT ISZERO PUSH2 0x145B JUMPI PUSH1 0x0 DUP1 REVERT JUMPDEST POP CALLDATALOAD SWAP2 SWAP1 POP JUMP JUMPDEST PUSH1 0x0 PUSH1 0x20 DUP3 DUP5 SUB SLT ISZERO PUSH2 0x1474 JUMPI PUSH1 0x0 DUP1 REVERT JUMPDEST DUP2 CALLDATALOAD PUSH2 0x147F DUP2 PUSH2 0x1404 JUMP JUMPDEST SWAP4 SWAP3 POP POP POP JUMP JUMPDEST PUSH1 0x20 DUP1 DUP3 MSTORE PUSH1 0xE SWAP1 DUP3 ADD MSTORE PUSH14 0x1393D5081055551213D49254D151 PUSH1 0x92 SHL PUSH1 0x40 DUP3 ADD MSTORE PUSH1 0x60 ADD SWAP1 JUMP JUMPDEST PUSH4 0x4E487B71 PUSH1 0xE0 SHL PUSH1 0x0 MSTORE PUSH1 0x32 PUSH1 0x4 MSTORE PUSH1 0x24 PUSH1 0x0 REVERT JUMPDEST PUSH4 0x4E487B71 PUSH1 0xE0 SHL PUSH1 0x0 MSTORE PUSH1 0x21 PUSH1 0x4 MSTORE PUSH1 0x24 PUSH1 0x0 REVERT JUMPDEST PUSH1 0x0 DUP3 NOT DUP3 GT ISZERO PUSH2 0x14FB JUMPI PUSH4 0x4E487B71 PUSH1 0xE0 SHL PUSH1 0x0 MSTORE PUSH1 0x11 PUSH1 0x4 MSTORE PUSH1 0x24 PUSH1 0x0 REVERT JUMPDEST POP ADD SWAP1 JUMP JUMPDEST PUSH1 0x0 PUSH1 0x20 DUP3 DUP5 SUB SLT ISZERO PUSH2 0x1512 JUMPI PUSH1 0x0 DUP1 REVERT JUMPDEST POP MLOAD SWAP2 SWAP1 POP JUMP JUMPDEST PUSH1 0x0 PUSH1 0x20 DUP3 DUP5 SUB SLT ISZERO PUSH2 0x152B JUMPI PUSH1 0x0 DUP1 REVERT JUMPDEST DUP2 MLOAD DUP1 ISZERO ISZERO DUP2 EQ PUSH2 0x147F JUMPI PUSH1 0x0 DUP1 REVERT JUMPDEST PUSH1 0x0 JUMPDEST DUP4 DUP2 LT ISZERO PUSH2 0x1556 JUMPI DUP2 DUP2 ADD MLOAD DUP4 DUP3 ADD MSTORE PUSH1 0x20 ADD PUSH2 0x153E JUMP JUMPDEST DUP4 DUP2 GT ISZERO PUSH2 0xFFB JUMPI POP POP PUSH1 0x0 SWAP2 ADD MSTORE JUMP JUMPDEST PUSH1 0x0 DUP2 MLOAD DUP1 DUP5 MSTORE PUSH2 0x157F DUP2 PUSH1 0x20 DUP7 ADD PUSH1 0x20 DUP7 ADD PUSH2 0x153B JUMP JUMPDEST PUSH1 0x1F ADD PUSH1 0x1F NOT AND SWAP3 SWAP1 SWAP3 ADD PUSH1 0x20 ADD SWAP3 SWAP2 POP POP JUMP JUMPDEST PUSH1 0x0 DUP2 MLOAD DUP1 DUP5 MSTORE PUSH1 0x20 DUP1 DUP6 ADD DUP1 DUP2 SWAP7 POP DUP4 PUSH1 0x5 SHL DUP2 ADD SWAP2 POP DUP3 DUP7 ADD PUSH1 0x0 JUMPDEST DUP6 DUP2 LT ISZERO PUSH2 0x15DB JUMPI DUP3 DUP5 SUB DUP10 MSTORE PUSH2 0x15C9 DUP5 DUP4 MLOAD PUSH2 0x1567 JUMP JUMPDEST SWAP9 DUP6 ADD SWAP9 SWAP4 POP SWAP1 DUP5 ADD SWAP1 PUSH1 0x1 ADD PUSH2 0x15B1 JUMP JUMPDEST POP SWAP2 SWAP8 SWAP7 POP POP POP POP POP POP POP JUMP JUMPDEST PUSH1 0x1 PUSH1 0x1 PUSH1 0xA0 SHL SUB DUP6 AND DUP2 MSTORE PUSH1 0x80 PUSH1 0x20 DUP1 DUP4 ADD DUP3 SWAP1 MSTORE PUSH1 0x0 SWAP2 PUSH2 0x160D SWAP1 DUP5 ADD DUP8 PUSH2 0x1567 JUMP JUMPDEST DUP4 DUP2 SUB PUSH1 0x40 DUP1 DUP7 ADD SWAP2 SWAP1 SWAP2 MSTORE DUP7 MLOAD DUP2 DUP4 MSTORE DUP1 MLOAD SWAP2 DUP4 ADD DUP3 SWAP1 MSTORE DUP4 ADD SWAP1 PUSH1 0x0 SWAP1 PUSH1 0x60 DUP5 ADD SWAP1 DUP3 JUMPDEST DUP2 DUP2 LT ISZERO PUSH2 0x166B JUMPI DUP5 MLOAD PUSH1 0x5 DUP2 LT PUSH2 0x1659 JUMPI PUSH4 0x4E487B71 PUSH1 0xE0 SHL DUP6 MSTORE PUSH1 0x21 PUSH1 0x4 MSTORE PUSH1 0x24 DUP6 REVERT JUMPDEST DUP4 MSTORE SWAP4 DUP7 ADD SWAP4 SWAP2 DUP7 ADD SWAP2 PUSH1 0x1 ADD PUSH2 0x1633 JUMP JUMPDEST POP POP DUP5 DUP10 ADD MLOAD SWAP3 POP DUP4 DUP2 SUB DUP6 DUP6 ADD MSTORE PUSH2 0x1684 DUP2 DUP5 PUSH2 0x1593 JUMP JUMPDEST SWAP6 POP POP POP POP POP POP PUSH2 0xCA8 PUSH1 0x60 DUP4 ADD DUP5 PUSH1 0x1 PUSH1 0x1 PUSH1 0xA0 SHL SUB AND SWAP1 MSTORE JUMP JUMPDEST PUSH1 0x0 PUSH1 0x20 DUP3 DUP5 SUB SLT ISZERO PUSH2 0x16B2 JUMPI PUSH1 0x0 DUP1 REVERT JUMPDEST DUP2 MLOAD PUSH2 0x147F DUP2 PUSH2 0x1404 JUMP JUMPDEST PUSH1 0x0 DUP3 MLOAD PUSH2 0x16CF DUP2 DUP5 PUSH1 0x20 DUP8 ADD PUSH2 0x153B JUMP JUMPDEST SWAP2 SWAP1 SWAP2 ADD SWAP3 SWAP2 POP POP JUMP INVALID LOG2 PUSH5 0x6970667358 0x22 SLT KECCAK256 0xE4 0xC4 0xB7 0xED PUSH1 0x1C 0x5F 0x2B PUSH7 0xFE57D3CA820656 ADDRESS EXTCODEHASH PUSH3 0xDBBE4A BLOCKHASH ORIGIN CODECOPY 0xF6 0xE2 PC PUSH22 0xFC1E264736F6C634300080E00330000000000000000 "
		},
		"gasEstimates": {
			"creation": {
				"codeDepositCost": "1180600",
				"executionCost": "infinite",
				"totalCost": "infinite"
			},
			"external": {
				"automate()": "infinite",
				"cancelTask(bytes32)": "infinite",
				"createTask1(uint256)": "infinite",
				"createTask2(uint256,uint256)": "infinite",
				"dcafManager()": "2360",
				"dcafOrder()": "25972",
				"dcafOrderId()": "2395",
				"dedicatedMsgSender()": "infinite",
				"depositGelatoFees()": "infinite",
				"executeGelatoTask1()": "infinite",
				"fundsOwner()": "infinite",
				"owner()": "2420",
				"poolFee()": "294",
				"refundSuperToken(address)": "infinite",
				"renounceOwnership()": "infinite",
				"swapRouter()": "infinite",
				"taskTreasury()": "infinite",
				"totalAmountTradedIn()": "2329",
				"totalAmountTradedOut()": "2350",
				"transferOwnership(address)": "infinite",
				"withdrawGealtoFees(uint256,address)": "infinite"
			},
			"internal": {
				"_swapUniswapSingle(address,address,address,uint256)": "infinite",
				"afterSwap(uint256,uint256)": "infinite",
				"beforeSwap()": "infinite",
				"unwrapSuperToken(address,uint256)": "infinite",
				"wrapSuperToken(address,address,uint256)": "infinite"
			}
		},
		"methodIdentifiers": {
			"automate()": "049aacfe",
			"cancelTask(bytes32)": "ee8ca3b5",
			"createTask1(uint256)": "9b2ed694",
			"createTask2(uint256,uint256)": "02827bca",
			"dcafManager()": "6eaa31aa",
			"dcafOrder()": "1adc317f",
			"dcafOrderId()": "4ea573f1",
			"dedicatedMsgSender()": "28f150eb",
			"depositGelatoFees()": "06c9c37d",
			"executeGelatoTask1()": "328e00f0",
			"fundsOwner()": "46ee3c59",
			"owner()": "8da5cb5b",
			"poolFee()": "089fe6aa",
			"refundSuperToken(address)": "be9fb3e2",
			"renounceOwnership()": "715018a6",
			"swapRouter()": "c31c9c07",
			"taskTreasury()": "e60a3213",
			"totalAmountTradedIn()": "70d05be0",
			"totalAmountTradedOut()": "d6dc09f7",
			"transferOwnership(address)": "f2fde38b",
			"withdrawGealtoFees(uint256,address)": "2b044b73"
		}
	},
	"abi": [
		{
			"inputs": [
				{
					"internalType": "address payable",
					"name": "_automate",
					"type": "address"
				},
				{
					"internalType": "address",
					"name": "_fundsOwner",
					"type": "address"
				},
				{
					"internalType": "address",
					"name": "_swapRouter",
					"type": "address"
				},
				{
					"internalType": "address",
					"name": "_manager",
					"type": "address"
				},
				{
					"internalType": "uint256",
					"name": "_dcafOrderId",
					"type": "uint256"
				},
				{
					"components": [
						{
							"internalType": "address",
							"name": "creator",
							"type": "address"
						},
						{
							"internalType": "address",
							"name": "wallet",
							"type": "address"
						},
						{
							"internalType": "address",
							"name": "tokenIn",
							"type": "address"
						},
						{
							"internalType": "address",
							"name": "superToken",
							"type": "address"
						},
						{
							"internalType": "address",
							"name": "tokenOut",
							"type": "address"
						},
						{
							"internalType": "int96",
							"name": "flowRate",
							"type": "int96"
						},
						{
							"internalType": "uint256",
							"name": "timePeriod",
							"type": "uint256"
						},
						{
							"internalType": "uint256",
							"name": "dcafFreq",
							"type": "uint256"
						},
						{
							"internalType": "uint256",
							"name": "lastTradeTimeStamp",
							"type": "uint256"
						},
						{
							"internalType": "uint256",
							"name": "creationTimeStamp",
							"type": "uint256"
						},
						{
							"internalType": "bool",
							"name": "activeStatus",
							"type": "bool"
						},
						{
							"internalType": "bytes32",
							"name": "task1Id",
							"type": "bytes32"
						},
						{
							"internalType": "bytes32",
							"name": "task2Id",
							"type": "bytes32"
						}
					],
					"internalType": "struct dCafProtocol.DCAfOrder",
					"name": "_order",
					"type": "tuple"
				}
			],
			"stateMutability": "nonpayable",
			"type": "constructor"
		},
		{
			"anonymous": false,
			"inputs": [
				{
					"indexed": true,
					"internalType": "address",
					"name": "previousOwner",
					"type": "address"
				},
				{
					"indexed": true,
					"internalType": "address",
					"name": "newOwner",
					"type": "address"
				}
			],
			"name": "OwnershipTransferred",
			"type": "event"
		},
		{
			"inputs": [],
			"name": "automate",
			"outputs": [
				{
					"internalType": "contract IAutomate",
					"name": "",
					"type": "address"
				}
			],
			"stateMutability": "view",
			"type": "function"
		},
		{
			"inputs": [
				{
					"internalType": "bytes32",
					"name": "taskId",
					"type": "bytes32"
				}
			],
			"name": "cancelTask",
			"outputs": [],
			"stateMutability": "nonpayable",
			"type": "function"
		},
		{
			"inputs": [
				{
					"internalType": "uint256",
					"name": "frequency",
					"type": "uint256"
				}
			],
			"name": "createTask1",
			"outputs": [
				{
					"internalType": "bytes32",
					"name": "taskId",
					"type": "bytes32"
				}
			],
			"stateMutability": "nonpayable",
			"type": "function"
		},
		{
			"inputs": [
				{
					"internalType": "uint256",
					"name": "_dcafOrderId",
					"type": "uint256"
				},
				{
					"internalType": "uint256",
					"name": "timePeriod",
					"type": "uint256"
				}
			],
			"name": "createTask2",
			"outputs": [
				{
					"internalType": "bytes32",
					"name": "taskId",
					"type": "bytes32"
				}
			],
			"stateMutability": "nonpayable",
			"type": "function"
		},
		{
			"inputs": [],
			"name": "dcafManager",
			"outputs": [
				{
					"internalType": "address",
					"name": "",
					"type": "address"
				}
			],
			"stateMutability": "view",
			"type": "function"
		},
		{
			"inputs": [],
			"name": "dcafOrder",
			"outputs": [
				{
					"internalType": "address",
					"name": "creator",
					"type": "address"
				},
				{
					"internalType": "address",
					"name": "wallet",
					"type": "address"
				},
				{
					"internalType": "address",
					"name": "tokenIn",
					"type": "address"
				},
				{
					"internalType": "address",
					"name": "superToken",
					"type": "address"
				},
				{
					"internalType": "address",
					"name": "tokenOut",
					"type": "address"
				},
				{
					"internalType": "int96",
					"name": "flowRate",
					"type": "int96"
				},
				{
					"internalType": "uint256",
					"name": "timePeriod",
					"type": "uint256"
				},
				{
					"internalType": "uint256",
					"name": "dcafFreq",
					"type": "uint256"
				},
				{
					"internalType": "uint256",
					"name": "lastTradeTimeStamp",
					"type": "uint256"
				},
				{
					"internalType": "uint256",
					"name": "creationTimeStamp",
					"type": "uint256"
				},
				{
					"internalType": "bool",
					"name": "activeStatus",
					"type": "bool"
				},
				{
					"internalType": "bytes32",
					"name": "task1Id",
					"type": "bytes32"
				},
				{
					"internalType": "bytes32",
					"name": "task2Id",
					"type": "bytes32"
				}
			],
			"stateMutability": "view",
			"type": "function"
		},
		{
			"inputs": [],
			"name": "dcafOrderId",
			"outputs": [
				{
					"internalType": "uint256",
					"name": "",
					"type": "uint256"
				}
			],
			"stateMutability": "view",
			"type": "function"
		},
		{
			"inputs": [],
			"name": "dedicatedMsgSender",
			"outputs": [
				{
					"internalType": "address",
					"name": "",
					"type": "address"
				}
			],
			"stateMutability": "view",
			"type": "function"
		},
		{
			"inputs": [],
			"name": "depositGelatoFees",
			"outputs": [],
			"stateMutability": "payable",
			"type": "function"
		},
		{
			"inputs": [],
			"name": "executeGelatoTask1",
			"outputs": [],
			"stateMutability": "nonpayable",
			"type": "function"
		},
		{
			"inputs": [],
			"name": "fundsOwner",
			"outputs": [
				{
					"internalType": "address",
					"name": "",
					"type": "address"
				}
			],
			"stateMutability": "view",
			"type": "function"
		},
		{
			"inputs": [],
			"name": "owner",
			"outputs": [
				{
					"internalType": "address",
					"name": "",
					"type": "address"
				}
			],
			"stateMutability": "view",
			"type": "function"
		},
		{
			"inputs": [],
			"name": "poolFee",
			"outputs": [
				{
					"internalType": "uint24",
					"name": "",
					"type": "uint24"
				}
			],
			"stateMutability": "view",
			"type": "function"
		},
		{
			"inputs": [
				{
					"internalType": "address",
					"name": "superToken",
					"type": "address"
				}
			],
			"name": "refundSuperToken",
			"outputs": [],
			"stateMutability": "nonpayable",
			"type": "function"
		},
		{
			"inputs": [],
			"name": "renounceOwnership",
			"outputs": [],
			"stateMutability": "nonpayable",
			"type": "function"
		},
		{
			"inputs": [],
			"name": "swapRouter",
			"outputs": [
				{
					"internalType": "contract ISwapRouter",
					"name": "",
					"type": "address"
				}
			],
			"stateMutability": "view",
			"type": "function"
		},
		{
			"inputs": [],
			"name": "taskTreasury",
			"outputs": [
				{
					"internalType": "contract ITaskTreasuryUpgradable",
					"name": "",
					"type": "address"
				}
			],
			"stateMutability": "view",
			"type": "function"
		},
		{
			"inputs": [],
			"name": "totalAmountTradedIn",
			"outputs": [
				{
					"internalType": "uint256",
					"name": "",
					"type": "uint256"
				}
			],
			"stateMutability": "view",
			"type": "function"
		},
		{
			"inputs": [],
			"name": "totalAmountTradedOut",
			"outputs": [
				{
					"internalType": "uint256",
					"name": "",
					"type": "uint256"
				}
			],
			"stateMutability": "view",
			"type": "function"
		},
		{
			"inputs": [
				{
					"internalType": "address",
					"name": "newOwner",
					"type": "address"
				}
			],
			"name": "transferOwnership",
			"outputs": [],
			"stateMutability": "nonpayable",
			"type": "function"
		},
		{
			"inputs": [
				{
					"internalType": "uint256",
					"name": "_amount",
					"type": "uint256"
				},
				{
					"internalType": "address",
					"name": "_token",
					"type": "address"
				}
			],
			"name": "withdrawGealtoFees",
			"outputs": [],
			"stateMutability": "nonpayable",
			"type": "function"
		}
	]
}