{
	"data": {
		"bytecode": {
			"linkReferences": {},
			"object": "6101206040523480156200001257600080fd5b5060405162001039380380620010398339810160408190526200003591620001ee565b81818130816001600160a01b03166080816001600160a01b031681525050816001600160a01b031663573ea5756040518163ffffffff1660e01b8152600401602060405180830381865afa15801562000092573d6000803e3d6000fd5b505050506040513d601f19601f82011682018060405250810190620000b891906200022d565b6001600160a01b0390811660c0526040516337b6269f60e21b8152908216600482015273c815db16d4be6ddf2685c201937905abf338f5d79063ded89a7c906024016040805180830381865afa15801562000117573d6000803e3d6000fd5b505050506040513d601f19601f820116820180604052508101906200013d919062000254565b506001600160a01b0390811660a05283811660e0526080516040805163e60a321360e01b8152905191909216935063e60a3213925060048083019260209291908290030181865afa15801562000197573d6000803e3d6000fd5b505050506040513d601f19601f82011682018060405250810190620001bd91906200022d565b6001600160a01b031661010052506200028c92505050565b6001600160a01b0381168114620001eb57600080fd5b50565b600080604083850312156200020257600080fd5b82516200020f81620001d5565b60208401519092506200022281620001d5565b809150509250929050565b6000602082840312156200024057600080fd5b81516200024d81620001d5565b9392505050565b600080604083850312156200026857600080fd5b82516200027581620001d5565b602084015190925080151581146200022257600080fd5b60805160a05160c05160e05161010051610d41620002f860003960008181610255015281816108a101526109dc0152600081816101e10152818161091101526109a5015260005050600061016201526000818161010c015281816107bc0152610a520152610d416000f3fe6080604052600436106100c25760003560e01c8063426c160e1161007f578063a839bd0d11610059578063a839bd0d14610223578063e60a321314610243578063ed1e0c9314610277578063ee8ca3b51461028d57600080fd5b8063426c160e146101b957806346ee3c59146101cf5780639b2ed6941461020357600080fd5b806302827bca146100c7578063049aacfe146100fa57806306c9c37d1461014657806328f150eb146101505780632b044b7314610184578063328e00f0146101a4575b600080fd5b3480156100d357600080fd5b506100e76100e2366004610ab9565b6102ad565b6040519081526020015b60405180910390f35b34801561010657600080fd5b5061012e7f000000000000000000000000000000000000000000000000000000000000000081565b6040516001600160a01b0390911681526020016100f1565b61014e610538565b005b34801561015c57600080fd5b5061012e7f000000000000000000000000000000000000000000000000000000000000000081565b34801561019057600080fd5b5061014e61019f366004610adb565b610558565b3480156101b057600080fd5b5061014e610566565b3480156101c557600080fd5b506100e760015481565b3480156101db57600080fd5b5061012e7f000000000000000000000000000000000000000000000000000000000000000081565b34801561020f57600080fd5b506100e761021e366004610b17565b6105a0565b34801561022f57600080fd5b5061014e61023e366004610b17565b610755565b34801561024f57600080fd5b5061012e7f000000000000000000000000000000000000000000000000000000000000000081565b34801561028357600080fd5b506100e760005481565b34801561029957600080fd5b5061014e6102a8366004610b17565b610796565b6000806040518060400160405280600367ffffffffffffffff8111156102d5576102d5610b30565b6040519080825280602002602001820160405280156102fe578160200160208202803683370190505b5081526040805160038082526080820190925260209092019190816020015b606081526020019060019003908161031d57505090528051805191925060019160009061034c5761034c610b46565b6020026020010190600481111561036557610365610b5c565b9081600481111561037857610378610b5c565b815250506002816000015160018151811061039557610395610b46565b602002602001019060048111156103ae576103ae610b5c565b908160048111156103c1576103c1610b5c565b81525050600381600001516002815181106103de576103de610b46565b602002602001019060048111156103f7576103f7610b5c565b9081600481111561040a5761040a610b5c565b90525061045161041a8442610b72565b604080516fffffffffffffffffffffffffffffffff9283166020820152918616828201528051808303820181526060909201905290565b816020015160008151811061046857610468610b46565b602002602001018190525061048860408051602081019091526000815290565b816020015160018151811061049f5761049f610b46565b60200260200101819052506104bf60408051602081019091526000815290565b81602001516002815181106104d6576104d6610b46565b602002602001018190525061052b3063a839bd0d60e01b866040516020016105149291906001600160e01b0319929092168252602082015260400190565b6040516020818303038152906040528360006107a2565b6001819055949350505050565b6105563473eeeeeeeeeeeeeeeeeeeeeeeeeeeeeeeeeeeeeeee610843565b565b6105628282610906565b5050565b604080514281523360208201527f44e785171b0487a668162e962ebb4bfb4009192db8d4a64e7fb1954cfb9c23be910160405180910390a1565b6000806040518060400160405280600267ffffffffffffffff8111156105c8576105c8610b30565b6040519080825280602002602001820160405280156105f1578160200160208202803683370190505b5081526040805160028082526060820190925260209092019190816020015b606081526020019060019003908161061057505090528051805191925060019160009061063f5761063f610b46565b6020026020010190600481111561065857610658610b5c565b9081600481111561066b5761066b610b5c565b815250506002816000015160018151811061068857610688610b46565b602002602001019060048111156106a1576106a1610b5c565b908160048111156106b4576106b4610b5c565b9052506106c461041a8442610b72565b81602001516000815181106106db576106db610b46565b60200260200101819052506106fb60408051602081019091526000815290565b816020015160018151811061071257610712610b46565b60200260200101819052506107493063328e00f060e01b60405160200161051491906001600160e01b031991909116815260200190565b60008190559392505050565b60408051828152426020820152338183015290517f0d0af9d396036cb8b2901f1b984fdd38b64158f2ac21437ec8ff3c241d9611aa9181900360600190a150565b61079f81610a3c565b50565b604051633323b46760e01b81526000906001600160a01b037f00000000000000000000000000000000000000000000000000000000000000001690633323b467906107f7908890889088908890600401610c3a565b6020604051808303816000875af1158015610816573d6000803e3d6000fd5b505050506040513d601f19601f8201168201806040525081019061083a9190610cf2565b95945050505050565b60006001600160a01b03821673eeeeeeeeeeeeeeeeeeeeeeeeeeeeeeeeeeeeeeee14610870576000610872565b825b60405163c1461d5760e01b81523060048201526001600160a01b038481166024830152604482018690529192507f00000000000000000000000000000000000000000000000000000000000000009091169063c1461d579083906064016000604051808303818588803b1580156108e857600080fd5b505af11580156108fc573d6000803e3d6000fd5b5050505050505050565b336001600160a01b037f0000000000000000000000000000000000000000000000000000000000000000161461098e5760405162461bcd60e51b815260206004820152602360248201527f4f6e6c792066756e6473206f776e65722063616e2077697468647261772066756044820152626e647360e81b606482015260840160405180910390fd5b604051631c20fadd60e01b81526001600160a01b037f0000000000000000000000000000000000000000000000000000000000000000811660048301528281166024830152604482018490527f00000000000000000000000000000000000000000000000000000000000000001690631c20fadd90606401600060405180830381600087803b158015610a2057600080fd5b505af1158015610a34573d6000803e3d6000fd5b505050505050565b60405163ee8ca3b560e01b8152600481018290527f00000000000000000000000000000000000000000000000000000000000000006001600160a01b03169063ee8ca3b590602401600060405180830381600087803b158015610a9e57600080fd5b505af1158015610ab2573d6000803e3d6000fd5b5050505050565b60008060408385031215610acc57600080fd5b50508035926020909101359150565b60008060408385031215610aee57600080fd5b8235915060208301356001600160a01b0381168114610b0c57600080fd5b809150509250929050565b600060208284031215610b2957600080fd5b5035919050565b634e487b7160e01b600052604160045260246000fd5b634e487b7160e01b600052603260045260246000fd5b634e487b7160e01b600052602160045260246000fd5b60008219821115610b9357634e487b7160e01b600052601160045260246000fd5b500190565b6000815180845260005b81811015610bbe57602081850181015186830182015201610ba2565b81811115610bd0576000602083870101525b50601f01601f19169290920160200192915050565b600081518084526020808501808196508360051b8101915082860160005b85811015610c2d578284038952610c1b848351610b98565b98850198935090840190600101610c03565b5091979650505050505050565b6001600160a01b038516815260806020808301829052600091610c5f90840187610b98565b838103604080860191909152865181835280519183018290528301906000906060840190825b81811015610cbd57845160058110610cab57634e487b7160e01b85526021600452602485fd5b83529386019391860191600101610c85565b505084890151925083810385850152610cd68184610be5565b9550505050505061083a60608301846001600160a01b03169052565b600060208284031215610d0457600080fd5b505191905056fea26469706673582212207f3e89bdb3077483fc1ca2a7111f8010b58ad74be29f77a660366d1f269db76c64736f6c634300080e0033",
			"opcodes": "PUSH2 0x120 PUSH1 0x40 MSTORE CALLVALUE DUP1 ISZERO PUSH3 0x12 JUMPI PUSH1 0x0 DUP1 REVERT JUMPDEST POP PUSH1 0x40 MLOAD PUSH3 0x1039 CODESIZE SUB DUP1 PUSH3 0x1039 DUP4 CODECOPY DUP2 ADD PUSH1 0x40 DUP2 SWAP1 MSTORE PUSH3 0x35 SWAP2 PUSH3 0x1EE JUMP JUMPDEST DUP2 DUP2 DUP2 ADDRESS DUP2 PUSH1 0x1 PUSH1 0x1 PUSH1 0xA0 SHL SUB AND PUSH1 0x80 DUP2 PUSH1 0x1 PUSH1 0x1 PUSH1 0xA0 SHL SUB AND DUP2 MSTORE POP POP DUP2 PUSH1 0x1 PUSH1 0x1 PUSH1 0xA0 SHL SUB AND PUSH4 0x573EA575 PUSH1 0x40 MLOAD DUP2 PUSH4 0xFFFFFFFF AND PUSH1 0xE0 SHL DUP2 MSTORE PUSH1 0x4 ADD PUSH1 0x20 PUSH1 0x40 MLOAD DUP1 DUP4 SUB DUP2 DUP7 GAS STATICCALL ISZERO DUP1 ISZERO PUSH3 0x92 JUMPI RETURNDATASIZE PUSH1 0x0 DUP1 RETURNDATACOPY RETURNDATASIZE PUSH1 0x0 REVERT JUMPDEST POP POP POP POP PUSH1 0x40 MLOAD RETURNDATASIZE PUSH1 0x1F NOT PUSH1 0x1F DUP3 ADD AND DUP3 ADD DUP1 PUSH1 0x40 MSTORE POP DUP2 ADD SWAP1 PUSH3 0xB8 SWAP2 SWAP1 PUSH3 0x22D JUMP JUMPDEST PUSH1 0x1 PUSH1 0x1 PUSH1 0xA0 SHL SUB SWAP1 DUP2 AND PUSH1 0xC0 MSTORE PUSH1 0x40 MLOAD PUSH4 0x37B6269F PUSH1 0xE2 SHL DUP2 MSTORE SWAP1 DUP3 AND PUSH1 0x4 DUP3 ADD MSTORE PUSH20 0xC815DB16D4BE6DDF2685C201937905ABF338F5D7 SWAP1 PUSH4 0xDED89A7C SWAP1 PUSH1 0x24 ADD PUSH1 0x40 DUP1 MLOAD DUP1 DUP4 SUB DUP2 DUP7 GAS STATICCALL ISZERO DUP1 ISZERO PUSH3 0x117 JUMPI RETURNDATASIZE PUSH1 0x0 DUP1 RETURNDATACOPY RETURNDATASIZE PUSH1 0x0 REVERT JUMPDEST POP POP POP POP PUSH1 0x40 MLOAD RETURNDATASIZE PUSH1 0x1F NOT PUSH1 0x1F DUP3 ADD AND DUP3 ADD DUP1 PUSH1 0x40 MSTORE POP DUP2 ADD SWAP1 PUSH3 0x13D SWAP2 SWAP1 PUSH3 0x254 JUMP JUMPDEST POP PUSH1 0x1 PUSH1 0x1 PUSH1 0xA0 SHL SUB SWAP1 DUP2 AND PUSH1 0xA0 MSTORE DUP4 DUP2 AND PUSH1 0xE0 MSTORE PUSH1 0x80 MLOAD PUSH1 0x40 DUP1 MLOAD PUSH4 0xE60A3213 PUSH1 0xE0 SHL DUP2 MSTORE SWAP1 MLOAD SWAP2 SWAP1 SWAP3 AND SWAP4 POP PUSH4 0xE60A3213 SWAP3 POP PUSH1 0x4 DUP1 DUP4 ADD SWAP3 PUSH1 0x20 SWAP3 SWAP2 SWAP1 DUP3 SWAP1 SUB ADD DUP2 DUP7 GAS STATICCALL ISZERO DUP1 ISZERO PUSH3 0x197 JUMPI RETURNDATASIZE PUSH1 0x0 DUP1 RETURNDATACOPY RETURNDATASIZE PUSH1 0x0 REVERT JUMPDEST POP POP POP POP PUSH1 0x40 MLOAD RETURNDATASIZE PUSH1 0x1F NOT PUSH1 0x1F DUP3 ADD AND DUP3 ADD DUP1 PUSH1 0x40 MSTORE POP DUP2 ADD SWAP1 PUSH3 0x1BD SWAP2 SWAP1 PUSH3 0x22D JUMP JUMPDEST PUSH1 0x1 PUSH1 0x1 PUSH1 0xA0 SHL SUB AND PUSH2 0x100 MSTORE POP PUSH3 0x28C SWAP3 POP POP POP JUMP JUMPDEST PUSH1 0x1 PUSH1 0x1 PUSH1 0xA0 SHL SUB DUP2 AND DUP2 EQ PUSH3 0x1EB JUMPI PUSH1 0x0 DUP1 REVERT JUMPDEST POP JUMP JUMPDEST PUSH1 0x0 DUP1 PUSH1 0x40 DUP4 DUP6 SUB SLT ISZERO PUSH3 0x202 JUMPI PUSH1 0x0 DUP1 REVERT JUMPDEST DUP3 MLOAD PUSH3 0x20F DUP2 PUSH3 0x1D5 JUMP JUMPDEST PUSH1 0x20 DUP5 ADD MLOAD SWAP1 SWAP3 POP PUSH3 0x222 DUP2 PUSH3 0x1D5 JUMP JUMPDEST DUP1 SWAP2 POP POP SWAP3 POP SWAP3 SWAP1 POP JUMP JUMPDEST PUSH1 0x0 PUSH1 0x20 DUP3 DUP5 SUB SLT ISZERO PUSH3 0x240 JUMPI PUSH1 0x0 DUP1 REVERT JUMPDEST DUP2 MLOAD PUSH3 0x24D DUP2 PUSH3 0x1D5 JUMP JUMPDEST SWAP4 SWAP3 POP POP POP JUMP JUMPDEST PUSH1 0x0 DUP1 PUSH1 0x40 DUP4 DUP6 SUB SLT ISZERO PUSH3 0x268 JUMPI PUSH1 0x0 DUP1 REVERT JUMPDEST DUP3 MLOAD PUSH3 0x275 DUP2 PUSH3 0x1D5 JUMP JUMPDEST PUSH1 0x20 DUP5 ADD MLOAD SWAP1 SWAP3 POP DUP1 ISZERO ISZERO DUP2 EQ PUSH3 0x222 JUMPI PUSH1 0x0 DUP1 REVERT JUMPDEST PUSH1 0x80 MLOAD PUSH1 0xA0 MLOAD PUSH1 0xC0 MLOAD PUSH1 0xE0 MLOAD PUSH2 0x100 MLOAD PUSH2 0xD41 PUSH3 0x2F8 PUSH1 0x0 CODECOPY PUSH1 0x0 DUP2 DUP2 PUSH2 0x255 ADD MSTORE DUP2 DUP2 PUSH2 0x8A1 ADD MSTORE PUSH2 0x9DC ADD MSTORE PUSH1 0x0 DUP2 DUP2 PUSH2 0x1E1 ADD MSTORE DUP2 DUP2 PUSH2 0x911 ADD MSTORE PUSH2 0x9A5 ADD MSTORE PUSH1 0x0 POP POP PUSH1 0x0 PUSH2 0x162 ADD MSTORE PUSH1 0x0 DUP2 DUP2 PUSH2 0x10C ADD MSTORE DUP2 DUP2 PUSH2 0x7BC ADD MSTORE PUSH2 0xA52 ADD MSTORE PUSH2 0xD41 PUSH1 0x0 RETURN INVALID PUSH1 0x80 PUSH1 0x40 MSTORE PUSH1 0x4 CALLDATASIZE LT PUSH2 0xC2 JUMPI PUSH1 0x0 CALLDATALOAD PUSH1 0xE0 SHR DUP1 PUSH4 0x426C160E GT PUSH2 0x7F JUMPI DUP1 PUSH4 0xA839BD0D GT PUSH2 0x59 JUMPI DUP1 PUSH4 0xA839BD0D EQ PUSH2 0x223 JUMPI DUP1 PUSH4 0xE60A3213 EQ PUSH2 0x243 JUMPI DUP1 PUSH4 0xED1E0C93 EQ PUSH2 0x277 JUMPI DUP1 PUSH4 0xEE8CA3B5 EQ PUSH2 0x28D JUMPI PUSH1 0x0 DUP1 REVERT JUMPDEST DUP1 PUSH4 0x426C160E EQ PUSH2 0x1B9 JUMPI DUP1 PUSH4 0x46EE3C59 EQ PUSH2 0x1CF JUMPI DUP1 PUSH4 0x9B2ED694 EQ PUSH2 0x203 JUMPI PUSH1 0x0 DUP1 REVERT JUMPDEST DUP1 PUSH4 0x2827BCA EQ PUSH2 0xC7 JUMPI DUP1 PUSH4 0x49AACFE EQ PUSH2 0xFA JUMPI DUP1 PUSH4 0x6C9C37D EQ PUSH2 0x146 JUMPI DUP1 PUSH4 0x28F150EB EQ PUSH2 0x150 JUMPI DUP1 PUSH4 0x2B044B73 EQ PUSH2 0x184 JUMPI DUP1 PUSH4 0x328E00F0 EQ PUSH2 0x1A4 JUMPI JUMPDEST PUSH1 0x0 DUP1 REVERT JUMPDEST CALLVALUE DUP1 ISZERO PUSH2 0xD3 JUMPI PUSH1 0x0 DUP1 REVERT JUMPDEST POP PUSH2 0xE7 PUSH2 0xE2 CALLDATASIZE PUSH1 0x4 PUSH2 0xAB9 JUMP JUMPDEST PUSH2 0x2AD JUMP JUMPDEST PUSH1 0x40 MLOAD SWAP1 DUP2 MSTORE PUSH1 0x20 ADD JUMPDEST PUSH1 0x40 MLOAD DUP1 SWAP2 SUB SWAP1 RETURN JUMPDEST CALLVALUE DUP1 ISZERO PUSH2 0x106 JUMPI PUSH1 0x0 DUP1 REVERT JUMPDEST POP PUSH2 0x12E PUSH32 0x0 DUP2 JUMP JUMPDEST PUSH1 0x40 MLOAD PUSH1 0x1 PUSH1 0x1 PUSH1 0xA0 SHL SUB SWAP1 SWAP2 AND DUP2 MSTORE PUSH1 0x20 ADD PUSH2 0xF1 JUMP JUMPDEST PUSH2 0x14E PUSH2 0x538 JUMP JUMPDEST STOP JUMPDEST CALLVALUE DUP1 ISZERO PUSH2 0x15C JUMPI PUSH1 0x0 DUP1 REVERT JUMPDEST POP PUSH2 0x12E PUSH32 0x0 DUP2 JUMP JUMPDEST CALLVALUE DUP1 ISZERO PUSH2 0x190 JUMPI PUSH1 0x0 DUP1 REVERT JUMPDEST POP PUSH2 0x14E PUSH2 0x19F CALLDATASIZE PUSH1 0x4 PUSH2 0xADB JUMP JUMPDEST PUSH2 0x558 JUMP JUMPDEST CALLVALUE DUP1 ISZERO PUSH2 0x1B0 JUMPI PUSH1 0x0 DUP1 REVERT JUMPDEST POP PUSH2 0x14E PUSH2 0x566 JUMP JUMPDEST CALLVALUE DUP1 ISZERO PUSH2 0x1C5 JUMPI PUSH1 0x0 DUP1 REVERT JUMPDEST POP PUSH2 0xE7 PUSH1 0x1 SLOAD DUP2 JUMP JUMPDEST CALLVALUE DUP1 ISZERO PUSH2 0x1DB JUMPI PUSH1 0x0 DUP1 REVERT JUMPDEST POP PUSH2 0x12E PUSH32 0x0 DUP2 JUMP JUMPDEST CALLVALUE DUP1 ISZERO PUSH2 0x20F JUMPI PUSH1 0x0 DUP1 REVERT JUMPDEST POP PUSH2 0xE7 PUSH2 0x21E CALLDATASIZE PUSH1 0x4 PUSH2 0xB17 JUMP JUMPDEST PUSH2 0x5A0 JUMP JUMPDEST CALLVALUE DUP1 ISZERO PUSH2 0x22F JUMPI PUSH1 0x0 DUP1 REVERT JUMPDEST POP PUSH2 0x14E PUSH2 0x23E CALLDATASIZE PUSH1 0x4 PUSH2 0xB17 JUMP JUMPDEST PUSH2 0x755 JUMP JUMPDEST CALLVALUE DUP1 ISZERO PUSH2 0x24F JUMPI PUSH1 0x0 DUP1 REVERT JUMPDEST POP PUSH2 0x12E PUSH32 0x0 DUP2 JUMP JUMPDEST CALLVALUE DUP1 ISZERO PUSH2 0x283 JUMPI PUSH1 0x0 DUP1 REVERT JUMPDEST POP PUSH2 0xE7 PUSH1 0x0 SLOAD DUP2 JUMP JUMPDEST CALLVALUE DUP1 ISZERO PUSH2 0x299 JUMPI PUSH1 0x0 DUP1 REVERT JUMPDEST POP PUSH2 0x14E PUSH2 0x2A8 CALLDATASIZE PUSH1 0x4 PUSH2 0xB17 JUMP JUMPDEST PUSH2 0x796 JUMP JUMPDEST PUSH1 0x0 DUP1 PUSH1 0x40 MLOAD DUP1 PUSH1 0x40 ADD PUSH1 0x40 MSTORE DUP1 PUSH1 0x3 PUSH8 0xFFFFFFFFFFFFFFFF DUP2 GT ISZERO PUSH2 0x2D5 JUMPI PUSH2 0x2D5 PUSH2 0xB30 JUMP JUMPDEST PUSH1 0x40 MLOAD SWAP1 DUP1 DUP3 MSTORE DUP1 PUSH1 0x20 MUL PUSH1 0x20 ADD DUP3 ADD PUSH1 0x40 MSTORE DUP1 ISZERO PUSH2 0x2FE JUMPI DUP2 PUSH1 0x20 ADD PUSH1 0x20 DUP3 MUL DUP1 CALLDATASIZE DUP4 CALLDATACOPY ADD SWAP1 POP JUMPDEST POP DUP2 MSTORE PUSH1 0x40 DUP1 MLOAD PUSH1 0x3 DUP1 DUP3 MSTORE PUSH1 0x80 DUP3 ADD SWAP1 SWAP3 MSTORE PUSH1 0x20 SWAP1 SWAP3 ADD SWAP2 SWAP1 DUP2 PUSH1 0x20 ADD JUMPDEST PUSH1 0x60 DUP2 MSTORE PUSH1 0x20 ADD SWAP1 PUSH1 0x1 SWAP1 SUB SWAP1 DUP2 PUSH2 0x31D JUMPI POP POP SWAP1 MSTORE DUP1 MLOAD DUP1 MLOAD SWAP2 SWAP3 POP PUSH1 0x1 SWAP2 PUSH1 0x0 SWAP1 PUSH2 0x34C JUMPI PUSH2 0x34C PUSH2 0xB46 JUMP JUMPDEST PUSH1 0x20 MUL PUSH1 0x20 ADD ADD SWAP1 PUSH1 0x4 DUP2 GT ISZERO PUSH2 0x365 JUMPI PUSH2 0x365 PUSH2 0xB5C JUMP JUMPDEST SWAP1 DUP2 PUSH1 0x4 DUP2 GT ISZERO PUSH2 0x378 JUMPI PUSH2 0x378 PUSH2 0xB5C JUMP JUMPDEST DUP2 MSTORE POP POP PUSH1 0x2 DUP2 PUSH1 0x0 ADD MLOAD PUSH1 0x1 DUP2 MLOAD DUP2 LT PUSH2 0x395 JUMPI PUSH2 0x395 PUSH2 0xB46 JUMP JUMPDEST PUSH1 0x20 MUL PUSH1 0x20 ADD ADD SWAP1 PUSH1 0x4 DUP2 GT ISZERO PUSH2 0x3AE JUMPI PUSH2 0x3AE PUSH2 0xB5C JUMP JUMPDEST SWAP1 DUP2 PUSH1 0x4 DUP2 GT ISZERO PUSH2 0x3C1 JUMPI PUSH2 0x3C1 PUSH2 0xB5C JUMP JUMPDEST DUP2 MSTORE POP POP PUSH1 0x3 DUP2 PUSH1 0x0 ADD MLOAD PUSH1 0x2 DUP2 MLOAD DUP2 LT PUSH2 0x3DE JUMPI PUSH2 0x3DE PUSH2 0xB46 JUMP JUMPDEST PUSH1 0x20 MUL PUSH1 0x20 ADD ADD SWAP1 PUSH1 0x4 DUP2 GT ISZERO PUSH2 0x3F7 JUMPI PUSH2 0x3F7 PUSH2 0xB5C JUMP JUMPDEST SWAP1 DUP2 PUSH1 0x4 DUP2 GT ISZERO PUSH2 0x40A JUMPI PUSH2 0x40A PUSH2 0xB5C JUMP JUMPDEST SWAP1 MSTORE POP PUSH2 0x451 PUSH2 0x41A DUP5 TIMESTAMP PUSH2 0xB72 JUMP JUMPDEST PUSH1 0x40 DUP1 MLOAD PUSH16 0xFFFFFFFFFFFFFFFFFFFFFFFFFFFFFFFF SWAP3 DUP4 AND PUSH1 0x20 DUP3 ADD MSTORE SWAP2 DUP7 AND DUP3 DUP3 ADD MSTORE DUP1 MLOAD DUP1 DUP4 SUB DUP3 ADD DUP2 MSTORE PUSH1 0x60 SWAP1 SWAP3 ADD SWAP1 MSTORE SWAP1 JUMP JUMPDEST DUP2 PUSH1 0x20 ADD MLOAD PUSH1 0x0 DUP2 MLOAD DUP2 LT PUSH2 0x468 JUMPI PUSH2 0x468 PUSH2 0xB46 JUMP JUMPDEST PUSH1 0x20 MUL PUSH1 0x20 ADD ADD DUP2 SWAP1 MSTORE POP PUSH2 0x488 PUSH1 0x40 DUP1 MLOAD PUSH1 0x20 DUP2 ADD SWAP1 SWAP2 MSTORE PUSH1 0x0 DUP2 MSTORE SWAP1 JUMP JUMPDEST DUP2 PUSH1 0x20 ADD MLOAD PUSH1 0x1 DUP2 MLOAD DUP2 LT PUSH2 0x49F JUMPI PUSH2 0x49F PUSH2 0xB46 JUMP JUMPDEST PUSH1 0x20 MUL PUSH1 0x20 ADD ADD DUP2 SWAP1 MSTORE POP PUSH2 0x4BF PUSH1 0x40 DUP1 MLOAD PUSH1 0x20 DUP2 ADD SWAP1 SWAP2 MSTORE PUSH1 0x0 DUP2 MSTORE SWAP1 JUMP JUMPDEST DUP2 PUSH1 0x20 ADD MLOAD PUSH1 0x2 DUP2 MLOAD DUP2 LT PUSH2 0x4D6 JUMPI PUSH2 0x4D6 PUSH2 0xB46 JUMP JUMPDEST PUSH1 0x20 MUL PUSH1 0x20 ADD ADD DUP2 SWAP1 MSTORE POP PUSH2 0x52B ADDRESS PUSH4 0xA839BD0D PUSH1 0xE0 SHL DUP7 PUSH1 0x40 MLOAD PUSH1 0x20 ADD PUSH2 0x514 SWAP3 SWAP2 SWAP1 PUSH1 0x1 PUSH1 0x1 PUSH1 0xE0 SHL SUB NOT SWAP3 SWAP1 SWAP3 AND DUP3 MSTORE PUSH1 0x20 DUP3 ADD MSTORE PUSH1 0x40 ADD SWAP1 JUMP JUMPDEST PUSH1 0x40 MLOAD PUSH1 0x20 DUP2 DUP4 SUB SUB DUP2 MSTORE SWAP1 PUSH1 0x40 MSTORE DUP4 PUSH1 0x0 PUSH2 0x7A2 JUMP JUMPDEST PUSH1 0x1 DUP2 SWAP1 SSTORE SWAP5 SWAP4 POP POP POP POP JUMP JUMPDEST PUSH2 0x556 CALLVALUE PUSH20 0xEEEEEEEEEEEEEEEEEEEEEEEEEEEEEEEEEEEEEEEE PUSH2 0x843 JUMP JUMPDEST JUMP JUMPDEST PUSH2 0x562 DUP3 DUP3 PUSH2 0x906 JUMP JUMPDEST POP POP JUMP JUMPDEST PUSH1 0x40 DUP1 MLOAD TIMESTAMP DUP2 MSTORE CALLER PUSH1 0x20 DUP3 ADD MSTORE PUSH32 0x44E785171B0487A668162E962EBB4BFB4009192DB8D4A64E7FB1954CFB9C23BE SWAP2 ADD PUSH1 0x40 MLOAD DUP1 SWAP2 SUB SWAP1 LOG1 JUMP JUMPDEST PUSH1 0x0 DUP1 PUSH1 0x40 MLOAD DUP1 PUSH1 0x40 ADD PUSH1 0x40 MSTORE DUP1 PUSH1 0x2 PUSH8 0xFFFFFFFFFFFFFFFF DUP2 GT ISZERO PUSH2 0x5C8 JUMPI PUSH2 0x5C8 PUSH2 0xB30 JUMP JUMPDEST PUSH1 0x40 MLOAD SWAP1 DUP1 DUP3 MSTORE DUP1 PUSH1 0x20 MUL PUSH1 0x20 ADD DUP3 ADD PUSH1 0x40 MSTORE DUP1 ISZERO PUSH2 0x5F1 JUMPI DUP2 PUSH1 0x20 ADD PUSH1 0x20 DUP3 MUL DUP1 CALLDATASIZE DUP4 CALLDATACOPY ADD SWAP1 POP JUMPDEST POP DUP2 MSTORE PUSH1 0x40 DUP1 MLOAD PUSH1 0x2 DUP1 DUP3 MSTORE PUSH1 0x60 DUP3 ADD SWAP1 SWAP3 MSTORE PUSH1 0x20 SWAP1 SWAP3 ADD SWAP2 SWAP1 DUP2 PUSH1 0x20 ADD JUMPDEST PUSH1 0x60 DUP2 MSTORE PUSH1 0x20 ADD SWAP1 PUSH1 0x1 SWAP1 SUB SWAP1 DUP2 PUSH2 0x610 JUMPI POP POP SWAP1 MSTORE DUP1 MLOAD DUP1 MLOAD SWAP2 SWAP3 POP PUSH1 0x1 SWAP2 PUSH1 0x0 SWAP1 PUSH2 0x63F JUMPI PUSH2 0x63F PUSH2 0xB46 JUMP JUMPDEST PUSH1 0x20 MUL PUSH1 0x20 ADD ADD SWAP1 PUSH1 0x4 DUP2 GT ISZERO PUSH2 0x658 JUMPI PUSH2 0x658 PUSH2 0xB5C JUMP JUMPDEST SWAP1 DUP2 PUSH1 0x4 DUP2 GT ISZERO PUSH2 0x66B JUMPI PUSH2 0x66B PUSH2 0xB5C JUMP JUMPDEST DUP2 MSTORE POP POP PUSH1 0x2 DUP2 PUSH1 0x0 ADD MLOAD PUSH1 0x1 DUP2 MLOAD DUP2 LT PUSH2 0x688 JUMPI PUSH2 0x688 PUSH2 0xB46 JUMP JUMPDEST PUSH1 0x20 MUL PUSH1 0x20 ADD ADD SWAP1 PUSH1 0x4 DUP2 GT ISZERO PUSH2 0x6A1 JUMPI PUSH2 0x6A1 PUSH2 0xB5C JUMP JUMPDEST SWAP1 DUP2 PUSH1 0x4 DUP2 GT ISZERO PUSH2 0x6B4 JUMPI PUSH2 0x6B4 PUSH2 0xB5C JUMP JUMPDEST SWAP1 MSTORE POP PUSH2 0x6C4 PUSH2 0x41A DUP5 TIMESTAMP PUSH2 0xB72 JUMP JUMPDEST DUP2 PUSH1 0x20 ADD MLOAD PUSH1 0x0 DUP2 MLOAD DUP2 LT PUSH2 0x6DB JUMPI PUSH2 0x6DB PUSH2 0xB46 JUMP JUMPDEST PUSH1 0x20 MUL PUSH1 0x20 ADD ADD DUP2 SWAP1 MSTORE POP PUSH2 0x6FB PUSH1 0x40 DUP1 MLOAD PUSH1 0x20 DUP2 ADD SWAP1 SWAP2 MSTORE PUSH1 0x0 DUP2 MSTORE SWAP1 JUMP JUMPDEST DUP2 PUSH1 0x20 ADD MLOAD PUSH1 0x1 DUP2 MLOAD DUP2 LT PUSH2 0x712 JUMPI PUSH2 0x712 PUSH2 0xB46 JUMP JUMPDEST PUSH1 0x20 MUL PUSH1 0x20 ADD ADD DUP2 SWAP1 MSTORE POP PUSH2 0x749 ADDRESS PUSH4 0x328E00F0 PUSH1 0xE0 SHL PUSH1 0x40 MLOAD PUSH1 0x20 ADD PUSH2 0x514 SWAP2 SWAP1 PUSH1 0x1 PUSH1 0x1 PUSH1 0xE0 SHL SUB NOT SWAP2 SWAP1 SWAP2 AND DUP2 MSTORE PUSH1 0x20 ADD SWAP1 JUMP JUMPDEST PUSH1 0x0 DUP2 SWAP1 SSTORE SWAP4 SWAP3 POP POP POP JUMP JUMPDEST PUSH1 0x40 DUP1 MLOAD DUP3 DUP2 MSTORE TIMESTAMP PUSH1 0x20 DUP3 ADD MSTORE CALLER DUP2 DUP4 ADD MSTORE SWAP1 MLOAD PUSH32 0xD0AF9D396036CB8B2901F1B984FDD38B64158F2AC21437EC8FF3C241D9611AA SWAP2 DUP2 SWAP1 SUB PUSH1 0x60 ADD SWAP1 LOG1 POP JUMP JUMPDEST PUSH2 0x79F DUP2 PUSH2 0xA3C JUMP JUMPDEST POP JUMP JUMPDEST PUSH1 0x40 MLOAD PUSH4 0x3323B467 PUSH1 0xE0 SHL DUP2 MSTORE PUSH1 0x0 SWAP1 PUSH1 0x1 PUSH1 0x1 PUSH1 0xA0 SHL SUB PUSH32 0x0 AND SWAP1 PUSH4 0x3323B467 SWAP1 PUSH2 0x7F7 SWAP1 DUP9 SWAP1 DUP9 SWAP1 DUP9 SWAP1 DUP9 SWAP1 PUSH1 0x4 ADD PUSH2 0xC3A JUMP JUMPDEST PUSH1 0x20 PUSH1 0x40 MLOAD DUP1 DUP4 SUB DUP2 PUSH1 0x0 DUP8 GAS CALL ISZERO DUP1 ISZERO PUSH2 0x816 JUMPI RETURNDATASIZE PUSH1 0x0 DUP1 RETURNDATACOPY RETURNDATASIZE PUSH1 0x0 REVERT JUMPDEST POP POP POP POP PUSH1 0x40 MLOAD RETURNDATASIZE PUSH1 0x1F NOT PUSH1 0x1F DUP3 ADD AND DUP3 ADD DUP1 PUSH1 0x40 MSTORE POP DUP2 ADD SWAP1 PUSH2 0x83A SWAP2 SWAP1 PUSH2 0xCF2 JUMP JUMPDEST SWAP6 SWAP5 POP POP POP POP POP JUMP JUMPDEST PUSH1 0x0 PUSH1 0x1 PUSH1 0x1 PUSH1 0xA0 SHL SUB DUP3 AND PUSH20 0xEEEEEEEEEEEEEEEEEEEEEEEEEEEEEEEEEEEEEEEE EQ PUSH2 0x870 JUMPI PUSH1 0x0 PUSH2 0x872 JUMP JUMPDEST DUP3 JUMPDEST PUSH1 0x40 MLOAD PUSH4 0xC1461D57 PUSH1 0xE0 SHL DUP2 MSTORE ADDRESS PUSH1 0x4 DUP3 ADD MSTORE PUSH1 0x1 PUSH1 0x1 PUSH1 0xA0 SHL SUB DUP5 DUP2 AND PUSH1 0x24 DUP4 ADD MSTORE PUSH1 0x44 DUP3 ADD DUP7 SWAP1 MSTORE SWAP2 SWAP3 POP PUSH32 0x0 SWAP1 SWAP2 AND SWAP1 PUSH4 0xC1461D57 SWAP1 DUP4 SWAP1 PUSH1 0x64 ADD PUSH1 0x0 PUSH1 0x40 MLOAD DUP1 DUP4 SUB DUP2 DUP6 DUP9 DUP1 EXTCODESIZE ISZERO DUP1 ISZERO PUSH2 0x8E8 JUMPI PUSH1 0x0 DUP1 REVERT JUMPDEST POP GAS CALL ISZERO DUP1 ISZERO PUSH2 0x8FC JUMPI RETURNDATASIZE PUSH1 0x0 DUP1 RETURNDATACOPY RETURNDATASIZE PUSH1 0x0 REVERT JUMPDEST POP POP POP POP POP POP POP POP JUMP JUMPDEST CALLER PUSH1 0x1 PUSH1 0x1 PUSH1 0xA0 SHL SUB PUSH32 0x0 AND EQ PUSH2 0x98E JUMPI PUSH1 0x40 MLOAD PUSH3 0x461BCD PUSH1 0xE5 SHL DUP2 MSTORE PUSH1 0x20 PUSH1 0x4 DUP3 ADD MSTORE PUSH1 0x23 PUSH1 0x24 DUP3 ADD MSTORE PUSH32 0x4F6E6C792066756E6473206F776E65722063616E207769746864726177206675 PUSH1 0x44 DUP3 ADD MSTORE PUSH3 0x6E6473 PUSH1 0xE8 SHL PUSH1 0x64 DUP3 ADD MSTORE PUSH1 0x84 ADD PUSH1 0x40 MLOAD DUP1 SWAP2 SUB SWAP1 REVERT JUMPDEST PUSH1 0x40 MLOAD PUSH4 0x1C20FADD PUSH1 0xE0 SHL DUP2 MSTORE PUSH1 0x1 PUSH1 0x1 PUSH1 0xA0 SHL SUB PUSH32 0x0 DUP2 AND PUSH1 0x4 DUP4 ADD MSTORE DUP3 DUP2 AND PUSH1 0x24 DUP4 ADD MSTORE PUSH1 0x44 DUP3 ADD DUP5 SWAP1 MSTORE PUSH32 0x0 AND SWAP1 PUSH4 0x1C20FADD SWAP1 PUSH1 0x64 ADD PUSH1 0x0 PUSH1 0x40 MLOAD DUP1 DUP4 SUB DUP2 PUSH1 0x0 DUP8 DUP1 EXTCODESIZE ISZERO DUP1 ISZERO PUSH2 0xA20 JUMPI PUSH1 0x0 DUP1 REVERT JUMPDEST POP GAS CALL ISZERO DUP1 ISZERO PUSH2 0xA34 JUMPI RETURNDATASIZE PUSH1 0x0 DUP1 RETURNDATACOPY RETURNDATASIZE PUSH1 0x0 REVERT JUMPDEST POP POP POP POP POP POP JUMP JUMPDEST PUSH1 0x40 MLOAD PUSH4 0xEE8CA3B5 PUSH1 0xE0 SHL DUP2 MSTORE PUSH1 0x4 DUP2 ADD DUP3 SWAP1 MSTORE PUSH32 0x0 PUSH1 0x1 PUSH1 0x1 PUSH1 0xA0 SHL SUB AND SWAP1 PUSH4 0xEE8CA3B5 SWAP1 PUSH1 0x24 ADD PUSH1 0x0 PUSH1 0x40 MLOAD DUP1 DUP4 SUB DUP2 PUSH1 0x0 DUP8 DUP1 EXTCODESIZE ISZERO DUP1 ISZERO PUSH2 0xA9E JUMPI PUSH1 0x0 DUP1 REVERT JUMPDEST POP GAS CALL ISZERO DUP1 ISZERO PUSH2 0xAB2 JUMPI RETURNDATASIZE PUSH1 0x0 DUP1 RETURNDATACOPY RETURNDATASIZE PUSH1 0x0 REVERT JUMPDEST POP POP POP POP POP JUMP JUMPDEST PUSH1 0x0 DUP1 PUSH1 0x40 DUP4 DUP6 SUB SLT ISZERO PUSH2 0xACC JUMPI PUSH1 0x0 DUP1 REVERT JUMPDEST POP POP DUP1 CALLDATALOAD SWAP3 PUSH1 0x20 SWAP1 SWAP2 ADD CALLDATALOAD SWAP2 POP JUMP JUMPDEST PUSH1 0x0 DUP1 PUSH1 0x40 DUP4 DUP6 SUB SLT ISZERO PUSH2 0xAEE JUMPI PUSH1 0x0 DUP1 REVERT JUMPDEST DUP3 CALLDATALOAD SWAP2 POP PUSH1 0x20 DUP4 ADD CALLDATALOAD PUSH1 0x1 PUSH1 0x1 PUSH1 0xA0 SHL SUB DUP2 AND DUP2 EQ PUSH2 0xB0C JUMPI PUSH1 0x0 DUP1 REVERT JUMPDEST DUP1 SWAP2 POP POP SWAP3 POP SWAP3 SWAP1 POP JUMP JUMPDEST PUSH1 0x0 PUSH1 0x20 DUP3 DUP5 SUB SLT ISZERO PUSH2 0xB29 JUMPI PUSH1 0x0 DUP1 REVERT JUMPDEST POP CALLDATALOAD SWAP2 SWAP1 POP JUMP JUMPDEST PUSH4 0x4E487B71 PUSH1 0xE0 SHL PUSH1 0x0 MSTORE PUSH1 0x41 PUSH1 0x4 MSTORE PUSH1 0x24 PUSH1 0x0 REVERT JUMPDEST PUSH4 0x4E487B71 PUSH1 0xE0 SHL PUSH1 0x0 MSTORE PUSH1 0x32 PUSH1 0x4 MSTORE PUSH1 0x24 PUSH1 0x0 REVERT JUMPDEST PUSH4 0x4E487B71 PUSH1 0xE0 SHL PUSH1 0x0 MSTORE PUSH1 0x21 PUSH1 0x4 MSTORE PUSH1 0x24 PUSH1 0x0 REVERT JUMPDEST PUSH1 0x0 DUP3 NOT DUP3 GT ISZERO PUSH2 0xB93 JUMPI PUSH4 0x4E487B71 PUSH1 0xE0 SHL PUSH1 0x0 MSTORE PUSH1 0x11 PUSH1 0x4 MSTORE PUSH1 0x24 PUSH1 0x0 REVERT JUMPDEST POP ADD SWAP1 JUMP JUMPDEST PUSH1 0x0 DUP2 MLOAD DUP1 DUP5 MSTORE PUSH1 0x0 JUMPDEST DUP2 DUP2 LT ISZERO PUSH2 0xBBE JUMPI PUSH1 0x20 DUP2 DUP6 ADD DUP2 ADD MLOAD DUP7 DUP4 ADD DUP3 ADD MSTORE ADD PUSH2 0xBA2 JUMP JUMPDEST DUP2 DUP2 GT ISZERO PUSH2 0xBD0 JUMPI PUSH1 0x0 PUSH1 0x20 DUP4 DUP8 ADD ADD MSTORE JUMPDEST POP PUSH1 0x1F ADD PUSH1 0x1F NOT AND SWAP3 SWAP1 SWAP3 ADD PUSH1 0x20 ADD SWAP3 SWAP2 POP POP JUMP JUMPDEST PUSH1 0x0 DUP2 MLOAD DUP1 DUP5 MSTORE PUSH1 0x20 DUP1 DUP6 ADD DUP1 DUP2 SWAP7 POP DUP4 PUSH1 0x5 SHL DUP2 ADD SWAP2 POP DUP3 DUP7 ADD PUSH1 0x0 JUMPDEST DUP6 DUP2 LT ISZERO PUSH2 0xC2D JUMPI DUP3 DUP5 SUB DUP10 MSTORE PUSH2 0xC1B DUP5 DUP4 MLOAD PUSH2 0xB98 JUMP JUMPDEST SWAP9 DUP6 ADD SWAP9 SWAP4 POP SWAP1 DUP5 ADD SWAP1 PUSH1 0x1 ADD PUSH2 0xC03 JUMP JUMPDEST POP SWAP2 SWAP8 SWAP7 POP POP POP POP POP POP POP JUMP JUMPDEST PUSH1 0x1 PUSH1 0x1 PUSH1 0xA0 SHL SUB DUP6 AND DUP2 MSTORE PUSH1 0x80 PUSH1 0x20 DUP1 DUP4 ADD DUP3 SWAP1 MSTORE PUSH1 0x0 SWAP2 PUSH2 0xC5F SWAP1 DUP5 ADD DUP8 PUSH2 0xB98 JUMP JUMPDEST DUP4 DUP2 SUB PUSH1 0x40 DUP1 DUP7 ADD SWAP2 SWAP1 SWAP2 MSTORE DUP7 MLOAD DUP2 DUP4 MSTORE DUP1 MLOAD SWAP2 DUP4 ADD DUP3 SWAP1 MSTORE DUP4 ADD SWAP1 PUSH1 0x0 SWAP1 PUSH1 0x60 DUP5 ADD SWAP1 DUP3 JUMPDEST DUP2 DUP2 LT ISZERO PUSH2 0xCBD JUMPI DUP5 MLOAD PUSH1 0x5 DUP2 LT PUSH2 0xCAB JUMPI PUSH4 0x4E487B71 PUSH1 0xE0 SHL DUP6 MSTORE PUSH1 0x21 PUSH1 0x4 MSTORE PUSH1 0x24 DUP6 REVERT JUMPDEST DUP4 MSTORE SWAP4 DUP7 ADD SWAP4 SWAP2 DUP7 ADD SWAP2 PUSH1 0x1 ADD PUSH2 0xC85 JUMP JUMPDEST POP POP DUP5 DUP10 ADD MLOAD SWAP3 POP DUP4 DUP2 SUB DUP6 DUP6 ADD MSTORE PUSH2 0xCD6 DUP2 DUP5 PUSH2 0xBE5 JUMP JUMPDEST SWAP6 POP POP POP POP POP POP PUSH2 0x83A PUSH1 0x60 DUP4 ADD DUP5 PUSH1 0x1 PUSH1 0x1 PUSH1 0xA0 SHL SUB AND SWAP1 MSTORE JUMP JUMPDEST PUSH1 0x0 PUSH1 0x20 DUP3 DUP5 SUB SLT ISZERO PUSH2 0xD04 JUMPI PUSH1 0x0 DUP1 REVERT JUMPDEST POP MLOAD SWAP2 SWAP1 POP JUMP INVALID LOG2 PUSH5 0x6970667358 0x22 SLT KECCAK256 PUSH32 0x3E89BDB3077483FC1CA2A7111F8010B58AD74BE29F77A660366D1F269DB76C64 PUSH20 0x6F6C634300080E00330000000000000000000000 "
		},
		"gasEstimates": {
			"creation": {
				"codeDepositCost": "678600",
				"executionCost": "infinite",
				"totalCost": "infinite"
			},
			"external": {
				"automate()": "infinite",
				"cancelTask(bytes32)": "infinite",
				"createTask1(uint256)": "infinite",
				"createTask2(uint256,uint256)": "infinite",
				"dedicatedMsgSender()": "infinite",
				"depositGelatoFees()": "infinite",
				"executeGelatoTask1()": "1584",
				"executeGelatoTask2(uint256)": "1851",
				"fundsOwner()": "infinite",
				"task1Id()": "2350",
				"task2Id()": "2307",
				"taskTreasury()": "infinite",
				"withdrawGealtoFees(uint256,address)": "infinite"
			}
		},
		"methodIdentifiers": {
			"automate()": "049aacfe",
			"cancelTask(bytes32)": "ee8ca3b5",
			"createTask1(uint256)": "9b2ed694",
			"createTask2(uint256,uint256)": "02827bca",
			"dedicatedMsgSender()": "28f150eb",
			"depositGelatoFees()": "06c9c37d",
			"executeGelatoTask1()": "328e00f0",
			"executeGelatoTask2(uint256)": "a839bd0d",
			"fundsOwner()": "46ee3c59",
			"task1Id()": "ed1e0c93",
			"task2Id()": "426c160e",
			"taskTreasury()": "e60a3213",
			"withdrawGealtoFees(uint256,address)": "2b044b73"
		}
	},
	"abi": [
		{
			"inputs": [
				{
					"internalType": "address payable",
					"name": "_automate",
					"type": "address"
				},
				{
					"internalType": "address",
					"name": "_fundsOwner",
					"type": "address"
				}
			],
			"stateMutability": "nonpayable",
			"type": "constructor"
		},
		{
			"anonymous": false,
			"inputs": [
				{
					"indexed": false,
					"internalType": "uint256",
					"name": "timestamp",
					"type": "uint256"
				},
				{
					"indexed": false,
					"internalType": "address",
					"name": "sender",
					"type": "address"
				}
			],
			"name": "task1Exectued",
			"type": "event"
		},
		{
			"anonymous": false,
			"inputs": [
				{
					"indexed": false,
					"internalType": "uint256",
					"name": "dcafOrderId",
					"type": "uint256"
				},
				{
					"indexed": false,
					"internalType": "uint256",
					"name": "timestamp",
					"type": "uint256"
				},
				{
					"indexed": false,
					"internalType": "address",
					"name": "sender",
					"type": "address"
				}
			],
			"name": "task2Executed",
			"type": "event"
		},
		{
			"inputs": [],
			"name": "automate",
			"outputs": [
				{
					"internalType": "contract IAutomate",
					"name": "",
					"type": "address"
				}
			],
			"stateMutability": "view",
			"type": "function"
		},
		{
			"inputs": [
				{
					"internalType": "bytes32",
					"name": "taskId",
					"type": "bytes32"
				}
			],
			"name": "cancelTask",
			"outputs": [],
			"stateMutability": "nonpayable",
			"type": "function"
		},
		{
			"inputs": [
				{
					"internalType": "uint256",
					"name": "frequency",
					"type": "uint256"
				}
			],
			"name": "createTask1",
			"outputs": [
				{
					"internalType": "bytes32",
					"name": "taskId",
					"type": "bytes32"
				}
			],
			"stateMutability": "nonpayable",
			"type": "function"
		},
		{
			"inputs": [
				{
					"internalType": "uint256",
					"name": "_dcafOrderId",
					"type": "uint256"
				},
				{
					"internalType": "uint256",
					"name": "timePeriod",
					"type": "uint256"
				}
			],
			"name": "createTask2",
			"outputs": [
				{
					"internalType": "bytes32",
					"name": "taskId",
					"type": "bytes32"
				}
			],
			"stateMutability": "nonpayable",
			"type": "function"
		},
		{
			"inputs": [],
			"name": "dedicatedMsgSender",
			"outputs": [
				{
					"internalType": "address",
					"name": "",
					"type": "address"
				}
			],
			"stateMutability": "view",
			"type": "function"
		},
		{
			"inputs": [],
			"name": "depositGelatoFees",
			"outputs": [],
			"stateMutability": "payable",
			"type": "function"
		},
		{
			"inputs": [],
			"name": "executeGelatoTask1",
			"outputs": [],
			"stateMutability": "nonpayable",
			"type": "function"
		},
		{
			"inputs": [
				{
					"internalType": "uint256",
					"name": "dcafOrderId",
					"type": "uint256"
				}
			],
			"name": "executeGelatoTask2",
			"outputs": [],
			"stateMutability": "nonpayable",
			"type": "function"
		},
		{
			"inputs": [],
			"name": "fundsOwner",
			"outputs": [
				{
					"internalType": "address",
					"name": "",
					"type": "address"
				}
			],
			"stateMutability": "view",
			"type": "function"
		},
		{
			"inputs": [],
			"name": "task1Id",
			"outputs": [
				{
					"internalType": "bytes32",
					"name": "",
					"type": "bytes32"
				}
			],
			"stateMutability": "view",
			"type": "function"
		},
		{
			"inputs": [],
			"name": "task2Id",
			"outputs": [
				{
					"internalType": "bytes32",
					"name": "",
					"type": "bytes32"
				}
			],
			"stateMutability": "view",
			"type": "function"
		},
		{
			"inputs": [],
			"name": "taskTreasury",
			"outputs": [
				{
					"internalType": "contract ITaskTreasuryUpgradable",
					"name": "",
					"type": "address"
				}
			],
			"stateMutability": "view",
			"type": "function"
		},
		{
			"inputs": [
				{
					"internalType": "uint256",
					"name": "_amount",
					"type": "uint256"
				},
				{
					"internalType": "address",
					"name": "_token",
					"type": "address"
				}
			],
			"name": "withdrawGealtoFees",
			"outputs": [],
			"stateMutability": "nonpayable",
			"type": "function"
		}
	]
}