{
	"swap.sol": {
		"swapper": {
			"abi": [
				{
					"inputs": [
						{
							"internalType": "address",
							"name": "_router",
							"type": "address"
						}
					],
					"stateMutability": "nonpayable",
					"type": "constructor"
				},
				{
					"inputs": [
						{
							"internalType": "address",
							"name": "tokenIn",
							"type": "address"
						},
						{
							"internalType": "address",
							"name": "tokenOut",
							"type": "address"
						},
						{
							"internalType": "address",
							"name": "recepient",
							"type": "address"
						},
						{
							"internalType": "uint256",
							"name": "amountIn",
							"type": "uint256"
						}
					],
					"name": "_swapUniswapSingle",
					"outputs": [
						{
							"internalType": "uint256",
							"name": "amountOut",
							"type": "uint256"
						}
					],
					"stateMutability": "nonpayable",
					"type": "function"
				},
				{
					"inputs": [],
					"name": "poolFee",
					"outputs": [
						{
							"internalType": "uint24",
							"name": "",
							"type": "uint24"
						}
					],
					"stateMutability": "view",
					"type": "function"
				},
				{
					"inputs": [],
					"name": "swapRouter",
					"outputs": [
						{
							"internalType": "contract ISwapRouter",
							"name": "",
							"type": "address"
						}
					],
					"stateMutability": "view",
					"type": "function"
				}
			],
			"devdoc": {
				"kind": "dev",
				"methods": {},
				"version": 1
			},
			"evm": {
				"assembly": "    /* \"swap.sol\":206:1449  contract swapper {... */\n  mstore(0x40, 0xa0)\n    /* \"swap.sol\":345:346  0 */\n  0x00\n    /* \"swap.sol\":317:346  uint160 sqrtPriceLimitX96 = 0 */\n  dup1\n  sload\n  not(sub(shl(0xa0, 0x01), 0x01))\n  and\n  swap1\n  sstore\n    /* \"swap.sol\":353:432  constructor(address _router) {... */\n  callvalue\n  dup1\n  iszero\n  tag_1\n  jumpi\n  0x00\n  dup1\n  revert\ntag_1:\n  pop\n  mload(0x40)\n  sub(codesize, bytecodeSize)\n  dup1\n  bytecodeSize\n  dup4\n  codecopy\n  dup2\n  add\n  0x40\n  dup2\n  swap1\n  mstore\n  tag_2\n  swap2\n  tag_3\n  jump\t// in\ntag_2:\n  sub(shl(0xa0, 0x01), 0x01)\n    /* \"swap.sol\":392:425  swapRouter = ISwapRouter(_router) */\n  and\n  0x80\n  mstore\n    /* \"swap.sol\":206:1449  contract swapper {... */\n  jump(tag_7)\n    /* \"#utility.yul\":14:304   */\ntag_3:\n    /* \"#utility.yul\":84:90   */\n  0x00\n    /* \"#utility.yul\":137:139   */\n  0x20\n    /* \"#utility.yul\":125:134   */\n  dup3\n    /* \"#utility.yul\":116:123   */\n  dup5\n    /* \"#utility.yul\":112:135   */\n  sub\n    /* \"#utility.yul\":108:140   */\n  slt\n    /* \"#utility.yul\":105:157   */\n  iszero\n  tag_9\n  jumpi\n    /* \"#utility.yul\":153:154   */\n  0x00\n    /* \"#utility.yul\":150:151   */\n  dup1\n    /* \"#utility.yul\":143:155   */\n  revert\n    /* \"#utility.yul\":105:157   */\ntag_9:\n    /* \"#utility.yul\":179:195   */\n  dup2\n  mload\n  sub(shl(0xa0, 0x01), 0x01)\n    /* \"#utility.yul\":224:255   */\n  dup2\n  and\n    /* \"#utility.yul\":214:256   */\n  dup2\n  eq\n    /* \"#utility.yul\":204:274   */\n  tag_10\n  jumpi\n    /* \"#utility.yul\":270:271   */\n  0x00\n    /* \"#utility.yul\":267:268   */\n  dup1\n    /* \"#utility.yul\":260:272   */\n  revert\n    /* \"#utility.yul\":204:274   */\ntag_10:\n    /* \"#utility.yul\":293:298   */\n  swap4\n    /* \"#utility.yul\":14:304   */\n  swap3\n  pop\n  pop\n  pop\n  jump\t// out\ntag_7:\n    /* \"swap.sol\":206:1449  contract swapper {... */\n  mload(0x80)\n  codecopy(0x00, dataOffset(sub_0), dataSize(sub_0))\n  0x00\n  assignImmutable(\"0x747491254fc29a61c3f0f8ca603d468b83f8d0af60d3a86e8b935f39643493bc\")\n  return(0x00, dataSize(sub_0))\nstop\n\nsub_0: assembly {\n        /* \"swap.sol\":206:1449  contract swapper {... */\n      mstore(0x40, 0x80)\n      callvalue\n      dup1\n      iszero\n      tag_1\n      jumpi\n      0x00\n      dup1\n      revert\n    tag_1:\n      pop\n      jumpi(tag_2, lt(calldatasize, 0x04))\n      shr(0xe0, calldataload(0x00))\n      dup1\n      0x089fe6aa\n      eq\n      tag_3\n      jumpi\n      dup1\n      0xc31c9c07\n      eq\n      tag_4\n      jumpi\n      dup1\n      0xe42d6291\n      eq\n      tag_5\n      jumpi\n    tag_2:\n      0x00\n      dup1\n      revert\n        /* \"swap.sol\":274:311  uint24 public constant poolFee = 3000 */\n    tag_3:\n      tag_6\n        /* \"swap.sol\":307:311  3000 */\n      0x0bb8\n        /* \"swap.sol\":274:311  uint24 public constant poolFee = 3000 */\n      dup2\n      jump\n    tag_6:\n      mload(0x40)\n        /* \"#utility.yul\":188:196   */\n      0xffffff\n        /* \"#utility.yul\":176:197   */\n      swap1\n      swap2\n      and\n        /* \"#utility.yul\":158:198   */\n      dup2\n      mstore\n        /* \"#utility.yul\":146:148   */\n      0x20\n        /* \"#utility.yul\":131:149   */\n      add\n        /* \"swap.sol\":274:311  uint24 public constant poolFee = 3000 */\n    tag_8:\n      mload(0x40)\n      dup1\n      swap2\n      sub\n      swap1\n      return\n        /* \"swap.sol\":229:268  ISwapRouter public immutable swapRouter */\n    tag_4:\n      tag_10\n      immutable(\"0x747491254fc29a61c3f0f8ca603d468b83f8d0af60d3a86e8b935f39643493bc\")\n      dup2\n      jump\n    tag_10:\n      mload(0x40)\n      sub(shl(0xa0, 0x01), 0x01)\n        /* \"#utility.yul\":392:424   */\n      swap1\n      swap2\n      and\n        /* \"#utility.yul\":374:425   */\n      dup2\n      mstore\n        /* \"#utility.yul\":362:364   */\n      0x20\n        /* \"#utility.yul\":347:365   */\n      add\n        /* \"swap.sol\":229:268  ISwapRouter public immutable swapRouter */\n      tag_8\n        /* \"#utility.yul\":209:431   */\n      jump\n        /* \"swap.sol\":480:1447  function _swapUniswapSingle(... */\n    tag_5:\n      tag_14\n      tag_15\n      calldatasize\n      0x04\n      tag_16\n      jump\t// in\n    tag_15:\n      tag_17\n      jump\t// in\n    tag_14:\n      mload(0x40)\n        /* \"#utility.yul\":1168:1193   */\n      swap1\n      dup2\n      mstore\n        /* \"#utility.yul\":1156:1158   */\n      0x20\n        /* \"#utility.yul\":1141:1159   */\n      add\n        /* \"swap.sol\":480:1447  function _swapUniswapSingle(... */\n      tag_8\n        /* \"#utility.yul\":1022:1199   */\n      jump\n        /* \"swap.sol\":480:1447  function _swapUniswapSingle(... */\n    tag_17:\n        /* \"swap.sol\":634:648  uint amountOut */\n      0x00\n        /* \"swap.sol\":709:775  TransferHelper.safeApprove(tokenIn, address(swapRouter), amountIn) */\n      tag_21\n        /* \"swap.sol\":736:743  tokenIn */\n      dup6\n        /* \"swap.sol\":753:763  swapRouter */\n      immutable(\"0x747491254fc29a61c3f0f8ca603d468b83f8d0af60d3a86e8b935f39643493bc\")\n        /* \"swap.sol\":766:774  amountIn */\n      dup5\n        /* \"swap.sol\":709:735  TransferHelper.safeApprove */\n      tag_22\n        /* \"swap.sol\":709:775  TransferHelper.safeApprove(tokenIn, address(swapRouter), amountIn) */\n      jump\t// in\n    tag_21:\n        /* \"swap.sol\":869:1224  ISwapRouter... */\n      0x40\n      dup1\n      mload\n      0x0100\n      dup2\n      add\n      dup3\n      mstore\n      sub(shl(0xa0, 0x01), 0x01)\n      dup8\n      dup2\n      and\n      dup3\n      mstore\n      dup7\n      dup2\n      and\n      0x20\n      dup4\n      add\n      swap1\n      dup2\n      mstore\n        /* \"swap.sol\":307:311  3000 */\n      0x0bb8\n        /* \"swap.sol\":869:1224  ISwapRouter... */\n      dup4\n      dup6\n      add\n      swap1\n      dup2\n      mstore\n      dup8\n      dup4\n      and\n      0x60\n      dup6\n      add\n      swap1\n      dup2\n      mstore\n        /* \"swap.sol\":1083:1098  block.timestamp */\n      timestamp\n        /* \"swap.sol\":869:1224  ISwapRouter... */\n      0x80\n      dup7\n      add\n      swap1\n      dup2\n      mstore\n      0xa0\n      dup7\n      add\n      dup10\n      dup2\n      mstore\n      0x00\n      0xc0\n      dup9\n      add\n      dup2\n      dup2\n      mstore\n      0xe0\n      dup10\n      add\n      swap2\n      dup3\n      mstore\n        /* \"swap.sol\":1308:1343  swapRouter.exactInputSingle(params) */\n      swap9\n      mload\n      shl(0xe0, 0x414bf389)\n      dup2\n      mstore\n        /* \"#utility.yul\":1489:1502   */\n      dup9\n      mload\n        /* \"#utility.yul\":1485:1507   */\n      dup9\n      and\n        /* \"swap.sol\":1308:1343  swapRouter.exactInputSingle(params) */\n      0x04\n      dup3\n      add\n        /* \"#utility.yul\":1467:1508   */\n      mstore\n        /* \"#utility.yul\":1550:1574   */\n      swap6\n      mload\n        /* \"#utility.yul\":1546:1579   */\n      dup8\n      and\n        /* \"#utility.yul\":1524:1544   */\n      0x24\n      dup8\n      add\n        /* \"#utility.yul\":1517:1580   */\n      mstore\n        /* \"#utility.yul\":1622:1646   */\n      swap4\n      mload\n        /* \"#utility.yul\":1648:1656   */\n      0xffffff\n        /* \"#utility.yul\":1618:1657   */\n      and\n        /* \"#utility.yul\":1596:1616   */\n      0x44\n      dup7\n      add\n        /* \"#utility.yul\":1589:1658   */\n      mstore\n        /* \"#utility.yul\":1700:1724   */\n      swap2\n      mload\n        /* \"#utility.yul\":1696:1729   */\n      dup6\n      and\n        /* \"#utility.yul\":1674:1694   */\n      0x64\n      dup6\n      add\n        /* \"#utility.yul\":1667:1730   */\n      mstore\n        /* \"#utility.yul\":1768:1792   */\n      mload\n        /* \"#utility.yul\":1746:1766   */\n      0x84\n      dup5\n      add\n        /* \"#utility.yul\":1739:1793   */\n      mstore\n        /* \"#utility.yul\":1831:1855   */\n      mload\n        /* \"#utility.yul\":1809:1829   */\n      0xa4\n      dup4\n      add\n        /* \"#utility.yul\":1802:1856   */\n      mstore\n        /* \"#utility.yul\":1894:1918   */\n      swap4\n      mload\n        /* \"#utility.yul\":1872:1892   */\n      0xc4\n      dup3\n      add\n        /* \"#utility.yul\":1865:1919   */\n      mstore\n        /* \"#utility.yul\":1961:1985   */\n      swap3\n      mload\n        /* \"#utility.yul\":1957:1990   */\n      dup2\n      and\n        /* \"#utility.yul\":1935:1955   */\n      0xe4\n      dup5\n      add\n        /* \"#utility.yul\":1928:1991   */\n      mstore\n        /* \"swap.sol\":869:1224  ISwapRouter... */\n      swap1\n      swap2\n        /* \"swap.sol\":1308:1318  swapRouter */\n      immutable(\"0x747491254fc29a61c3f0f8ca603d468b83f8d0af60d3a86e8b935f39643493bc\")\n        /* \"swap.sol\":1308:1335  swapRouter.exactInputSingle */\n      swap1\n      swap2\n      and\n      swap1\n      0x414bf389\n      swap1\n        /* \"#utility.yul\":1401:1420   */\n      0x0104\n      add\n        /* \"swap.sol\":1308:1343  swapRouter.exactInputSingle(params) */\n      0x20\n      mload(0x40)\n      dup1\n      dup4\n      sub\n      dup2\n      0x00\n      dup8\n      gas\n      call\n      iszero\n      dup1\n      iszero\n      tag_26\n      jumpi\n      returndatasize\n      0x00\n      dup1\n      returndatacopy\n      revert(0x00, returndatasize)\n    tag_26:\n      pop\n      pop\n      pop\n      pop\n      mload(0x40)\n      returndatasize\n      not(0x1f)\n      0x1f\n      dup3\n      add\n      and\n      dup3\n      add\n      dup1\n      0x40\n      mstore\n      pop\n      dup2\n      add\n      swap1\n      tag_27\n      swap2\n      swap1\n      tag_28\n      jump\t// in\n    tag_27:\n        /* \"swap.sol\":1296:1343  amountOut = swapRouter.exactInputSingle(params) */\n      swap7\n        /* \"swap.sol\":480:1447  function _swapUniswapSingle(... */\n      swap6\n      pop\n      pop\n      pop\n      pop\n      pop\n      pop\n      jump\t// out\n        /* \"@uniswap/v3-periphery/contracts/libraries/TransferHelper.sol\":1873:2180  function safeApprove(... */\n    tag_22:\n        /* \"@uniswap/v3-periphery/contracts/libraries/TransferHelper.sol\":2032:2090  abi.encodeWithSelector(IERC20.approve.selector, to, value) */\n      0x40\n      dup1\n      mload\n      sub(shl(0xa0, 0x01), 0x01)\n        /* \"#utility.yul\":2383:2415   */\n      dup5\n      dup2\n      and\n        /* \"@uniswap/v3-periphery/contracts/libraries/TransferHelper.sol\":2032:2090  abi.encodeWithSelector(IERC20.approve.selector, to, value) */\n      0x24\n      dup4\n      add\n        /* \"#utility.yul\":2365:2416   */\n      mstore\n        /* \"#utility.yul\":2432:2450   */\n      0x44\n      dup1\n      dup4\n      add\n        /* \"#utility.yul\":2425:2459   */\n      dup6\n      swap1\n      mstore\n        /* \"@uniswap/v3-periphery/contracts/libraries/TransferHelper.sol\":2032:2090  abi.encodeWithSelector(IERC20.approve.selector, to, value) */\n      dup4\n      mload\n      dup1\n      dup5\n      sub\n      swap1\n      swap2\n      add\n      dup2\n      mstore\n        /* \"#utility.yul\":2338:2356   */\n      0x64\n      swap1\n      swap3\n      add\n        /* \"@uniswap/v3-periphery/contracts/libraries/TransferHelper.sol\":2032:2090  abi.encodeWithSelector(IERC20.approve.selector, to, value) */\n      dup4\n      mstore\n      0x20\n      dup3\n      add\n      dup1\n      mload\n      sub(shl(0xe0, 0x01), 0x01)\n      and\n      shl(0xe0, 0x095ea7b3)\n      or\n      swap1\n      mstore\n        /* \"@uniswap/v3-periphery/contracts/libraries/TransferHelper.sol\":2021:2091  token.call(abi.encodeWithSelector(IERC20.approve.selector, to, value)) */\n      swap2\n      mload\n      0x00\n      swap3\n      dup4\n      swap3\n        /* \"@uniswap/v3-periphery/contracts/libraries/TransferHelper.sol\":2021:2031  token.call */\n      swap1\n      dup8\n      and\n      swap2\n        /* \"@uniswap/v3-periphery/contracts/libraries/TransferHelper.sol\":2021:2091  token.call(abi.encodeWithSelector(IERC20.approve.selector, to, value)) */\n      tag_32\n      swap2\n        /* \"@uniswap/v3-periphery/contracts/libraries/TransferHelper.sol\":2032:2090  abi.encodeWithSelector(IERC20.approve.selector, to, value) */\n      swap1\n        /* \"@uniswap/v3-periphery/contracts/libraries/TransferHelper.sol\":2021:2091  token.call(abi.encodeWithSelector(IERC20.approve.selector, to, value)) */\n      tag_33\n      jump\t// in\n    tag_32:\n      0x00\n      mload(0x40)\n      dup1\n      dup4\n      sub\n      dup2\n      0x00\n      dup7\n      gas\n      call\n      swap2\n      pop\n      pop\n      returndatasize\n      dup1\n      0x00\n      dup2\n      eq\n      tag_36\n      jumpi\n      mload(0x40)\n      swap2\n      pop\n      and(add(returndatasize, 0x3f), not(0x1f))\n      dup3\n      add\n      0x40\n      mstore\n      returndatasize\n      dup3\n      mstore\n      returndatasize\n      0x00\n      0x20\n      dup5\n      add\n      returndatacopy\n      jump(tag_35)\n    tag_36:\n      0x60\n      swap2\n      pop\n    tag_35:\n      pop\n        /* \"@uniswap/v3-periphery/contracts/libraries/TransferHelper.sol\":1985:2091  (bool success, bytes memory data) = token.call(abi.encodeWithSelector(IERC20.approve.selector, to, value)) */\n      swap2\n      pop\n      swap2\n      pop\n        /* \"@uniswap/v3-periphery/contracts/libraries/TransferHelper.sol\":2109:2116  success */\n      dup2\n        /* \"@uniswap/v3-periphery/contracts/libraries/TransferHelper.sol\":2109:2166  success && (data.length == 0 || abi.decode(data, (bool))) */\n      dup1\n      iszero\n      tag_39\n      jumpi\n      pop\n        /* \"@uniswap/v3-periphery/contracts/libraries/TransferHelper.sol\":2121:2132  data.length */\n      dup1\n      mload\n        /* \"@uniswap/v3-periphery/contracts/libraries/TransferHelper.sol\":2121:2137  data.length == 0 */\n      iszero\n      dup1\n        /* \"@uniswap/v3-periphery/contracts/libraries/TransferHelper.sol\":2121:2165  data.length == 0 || abi.decode(data, (bool)) */\n      tag_39\n      jumpi\n      pop\n        /* \"@uniswap/v3-periphery/contracts/libraries/TransferHelper.sol\":2152:2156  data */\n      dup1\n        /* \"@uniswap/v3-periphery/contracts/libraries/TransferHelper.sol\":2141:2165  abi.decode(data, (bool)) */\n      dup1\n      0x20\n      add\n      swap1\n      mload\n      dup2\n      add\n      swap1\n      tag_39\n      swap2\n      swap1\n      tag_40\n      jump\t// in\n    tag_39:\n        /* \"@uniswap/v3-periphery/contracts/libraries/TransferHelper.sol\":2101:2173  require(success && (data.length == 0 || abi.decode(data, (bool))), 'SA') */\n      tag_41\n      jumpi\n      mload(0x40)\n      shl(0xe5, 0x461bcd)\n      dup2\n      mstore\n        /* \"#utility.yul\":3385:3387   */\n      0x20\n        /* \"@uniswap/v3-periphery/contracts/libraries/TransferHelper.sol\":2101:2173  require(success && (data.length == 0 || abi.decode(data, (bool))), 'SA') */\n      0x04\n      dup3\n      add\n        /* \"#utility.yul\":3367:3388   */\n      mstore\n        /* \"#utility.yul\":3424:3425   */\n      0x02\n        /* \"#utility.yul\":3404:3422   */\n      0x24\n      dup3\n      add\n        /* \"#utility.yul\":3397:3426   */\n      mstore\n      shl(0xf0, 0x5341)\n        /* \"#utility.yul\":3442:3460   */\n      0x44\n      dup3\n      add\n        /* \"#utility.yul\":3435:3467   */\n      mstore\n        /* \"#utility.yul\":3484:3502   */\n      0x64\n      add\n        /* \"@uniswap/v3-periphery/contracts/libraries/TransferHelper.sol\":2101:2173  require(success && (data.length == 0 || abi.decode(data, (bool))), 'SA') */\n      mload(0x40)\n      dup1\n      swap2\n      sub\n      swap1\n      revert\n    tag_41:\n        /* \"@uniswap/v3-periphery/contracts/libraries/TransferHelper.sol\":1975:2180  {... */\n      pop\n      pop\n        /* \"@uniswap/v3-periphery/contracts/libraries/TransferHelper.sol\":1873:2180  function safeApprove(... */\n      pop\n      pop\n      pop\n      jump\t// out\n        /* \"#utility.yul\":436:609   */\n    tag_44:\n        /* \"#utility.yul\":504:524   */\n      dup1\n      calldataload\n      sub(shl(0xa0, 0x01), 0x01)\n        /* \"#utility.yul\":553:584   */\n      dup2\n      and\n        /* \"#utility.yul\":543:585   */\n      dup2\n      eq\n        /* \"#utility.yul\":533:603   */\n      tag_49\n      jumpi\n        /* \"#utility.yul\":599:600   */\n      0x00\n        /* \"#utility.yul\":596:597   */\n      dup1\n        /* \"#utility.yul\":589:601   */\n      revert\n        /* \"#utility.yul\":533:603   */\n    tag_49:\n        /* \"#utility.yul\":436:609   */\n      swap2\n      swap1\n      pop\n      jump\t// out\n        /* \"#utility.yul\":614:1017   */\n    tag_16:\n        /* \"#utility.yul\":700:706   */\n      0x00\n        /* \"#utility.yul\":708:714   */\n      dup1\n        /* \"#utility.yul\":716:722   */\n      0x00\n        /* \"#utility.yul\":724:730   */\n      dup1\n        /* \"#utility.yul\":777:780   */\n      0x80\n        /* \"#utility.yul\":765:774   */\n      dup6\n        /* \"#utility.yul\":756:763   */\n      dup8\n        /* \"#utility.yul\":752:775   */\n      sub\n        /* \"#utility.yul\":748:781   */\n      slt\n        /* \"#utility.yul\":745:798   */\n      iszero\n      tag_51\n      jumpi\n        /* \"#utility.yul\":794:795   */\n      0x00\n        /* \"#utility.yul\":791:792   */\n      dup1\n        /* \"#utility.yul\":784:796   */\n      revert\n        /* \"#utility.yul\":745:798   */\n    tag_51:\n        /* \"#utility.yul\":817:846   */\n      tag_52\n        /* \"#utility.yul\":836:845   */\n      dup6\n        /* \"#utility.yul\":817:846   */\n      tag_44\n      jump\t// in\n    tag_52:\n        /* \"#utility.yul\":807:846   */\n      swap4\n      pop\n        /* \"#utility.yul\":865:903   */\n      tag_53\n        /* \"#utility.yul\":899:901   */\n      0x20\n        /* \"#utility.yul\":888:897   */\n      dup7\n        /* \"#utility.yul\":884:902   */\n      add\n        /* \"#utility.yul\":865:903   */\n      tag_44\n      jump\t// in\n    tag_53:\n        /* \"#utility.yul\":855:903   */\n      swap3\n      pop\n        /* \"#utility.yul\":922:960   */\n      tag_54\n        /* \"#utility.yul\":956:958   */\n      0x40\n        /* \"#utility.yul\":945:954   */\n      dup7\n        /* \"#utility.yul\":941:959   */\n      add\n        /* \"#utility.yul\":922:960   */\n      tag_44\n      jump\t// in\n    tag_54:\n        /* \"#utility.yul\":614:1017   */\n      swap4\n      swap7\n      swap3\n      swap6\n      pop\n        /* \"#utility.yul\":912:960   */\n      swap3\n      swap4\n        /* \"#utility.yul\":1007:1009   */\n      0x60\n        /* \"#utility.yul\":992:1010   */\n      add\n        /* \"#utility.yul\":979:1011   */\n      calldataload\n      swap3\n      pop\n      pop\n        /* \"#utility.yul\":614:1017   */\n      jump\t// out\n        /* \"#utility.yul\":2002:2186   */\n    tag_28:\n        /* \"#utility.yul\":2072:2078   */\n      0x00\n        /* \"#utility.yul\":2125:2127   */\n      0x20\n        /* \"#utility.yul\":2113:2122   */\n      dup3\n        /* \"#utility.yul\":2104:2111   */\n      dup5\n        /* \"#utility.yul\":2100:2123   */\n      sub\n        /* \"#utility.yul\":2096:2128   */\n      slt\n        /* \"#utility.yul\":2093:2145   */\n      iszero\n      tag_58\n      jumpi\n        /* \"#utility.yul\":2141:2142   */\n      0x00\n        /* \"#utility.yul\":2138:2139   */\n      dup1\n        /* \"#utility.yul\":2131:2143   */\n      revert\n        /* \"#utility.yul\":2093:2145   */\n    tag_58:\n      pop\n        /* \"#utility.yul\":2164:2180   */\n      mload\n      swap2\n        /* \"#utility.yul\":2002:2186   */\n      swap1\n      pop\n      jump\t// out\n        /* \"#utility.yul\":2470:2896   */\n    tag_33:\n        /* \"#utility.yul\":2599:2602   */\n      0x00\n        /* \"#utility.yul\":2637:2643   */\n      dup3\n        /* \"#utility.yul\":2631:2644   */\n      mload\n        /* \"#utility.yul\":2662:2663   */\n      0x00\n        /* \"#utility.yul\":2672:2801   */\n    tag_61:\n        /* \"#utility.yul\":2686:2692   */\n      dup2\n        /* \"#utility.yul\":2683:2684   */\n      dup2\n        /* \"#utility.yul\":2680:2693   */\n      lt\n        /* \"#utility.yul\":2672:2801   */\n      iszero\n      tag_63\n      jumpi\n        /* \"#utility.yul\":2784:2788   */\n      0x20\n        /* \"#utility.yul\":2768:2782   */\n      dup2\n      dup7\n      add\n        /* \"#utility.yul\":2764:2789   */\n      dup2\n      add\n        /* \"#utility.yul\":2758:2790   */\n      mload\n        /* \"#utility.yul\":2745:2756   */\n      dup6\n      dup4\n      add\n        /* \"#utility.yul\":2738:2791   */\n      mstore\n        /* \"#utility.yul\":2701:2713   */\n      add\n        /* \"#utility.yul\":2672:2801   */\n      jump(tag_61)\n    tag_63:\n        /* \"#utility.yul\":2819:2825   */\n      dup2\n        /* \"#utility.yul\":2816:2817   */\n      dup2\n        /* \"#utility.yul\":2813:2826   */\n      gt\n        /* \"#utility.yul\":2810:2858   */\n      iszero\n      tag_64\n      jumpi\n        /* \"#utility.yul\":2854:2855   */\n      0x00\n        /* \"#utility.yul\":2845:2851   */\n      dup3\n        /* \"#utility.yul\":2840:2843   */\n      dup6\n        /* \"#utility.yul\":2836:2852   */\n      add\n        /* \"#utility.yul\":2829:2856   */\n      mstore\n        /* \"#utility.yul\":2810:2858   */\n    tag_64:\n      pop\n        /* \"#utility.yul\":2874:2890   */\n      swap2\n      swap1\n      swap2\n      add\n      swap3\n        /* \"#utility.yul\":2470:2896   */\n      swap2\n      pop\n      pop\n      jump\t// out\n        /* \"#utility.yul\":2901:3178   */\n    tag_40:\n        /* \"#utility.yul\":2968:2974   */\n      0x00\n        /* \"#utility.yul\":3021:3023   */\n      0x20\n        /* \"#utility.yul\":3009:3018   */\n      dup3\n        /* \"#utility.yul\":3000:3007   */\n      dup5\n        /* \"#utility.yul\":2996:3019   */\n      sub\n        /* \"#utility.yul\":2992:3024   */\n      slt\n        /* \"#utility.yul\":2989:3041   */\n      iszero\n      tag_66\n      jumpi\n        /* \"#utility.yul\":3037:3038   */\n      0x00\n        /* \"#utility.yul\":3034:3035   */\n      dup1\n        /* \"#utility.yul\":3027:3039   */\n      revert\n        /* \"#utility.yul\":2989:3041   */\n    tag_66:\n        /* \"#utility.yul\":3069:3078   */\n      dup2\n        /* \"#utility.yul\":3063:3079   */\n      mload\n        /* \"#utility.yul\":3122:3127   */\n      dup1\n        /* \"#utility.yul\":3115:3128   */\n      iszero\n        /* \"#utility.yul\":3108:3129   */\n      iszero\n        /* \"#utility.yul\":3101:3106   */\n      dup2\n        /* \"#utility.yul\":3098:3130   */\n      eq\n        /* \"#utility.yul\":3088:3148   */\n      tag_67\n      jumpi\n        /* \"#utility.yul\":3144:3145   */\n      0x00\n        /* \"#utility.yul\":3141:3142   */\n      dup1\n        /* \"#utility.yul\":3134:3146   */\n      revert\n        /* \"#utility.yul\":3088:3148   */\n    tag_67:\n        /* \"#utility.yul\":3167:3172   */\n      swap4\n        /* \"#utility.yul\":2901:3178   */\n      swap3\n      pop\n      pop\n      pop\n      jump\t// out\n\n    auxdata: 0xa2646970667358221220892eeca048d70d34df1317ca0cacc218fed234536bce2aa4cc34955183a4e52764736f6c634300080e0033\n}\n",
				"bytecode": {
					"linkReferences": {},
					"object": "60a0604052600080546001600160a01b031916905534801561002057600080fd5b506040516104db3803806104db83398101604081905261003f91610050565b6001600160a01b0316608052610080565b60006020828403121561006257600080fd5b81516001600160a01b038116811461007957600080fd5b9392505050565b6080516104346100a760003960008181606d0152818160d0015261019c01526104346000f3fe608060405234801561001057600080fd5b50600436106100415760003560e01c8063089fe6aa14610046578063c31c9c0714610068578063e42d6291146100a7575b600080fd5b61004f610bb881565b60405162ffffff90911681526020015b60405180910390f35b61008f7f000000000000000000000000000000000000000000000000000000000000000081565b6040516001600160a01b03909116815260200161005f565b6100ba6100b5366004610336565b6100c8565b60405190815260200161005f565b60006100f5857f000000000000000000000000000000000000000000000000000000000000000084610216565b60408051610100810182526001600160a01b03878116825286811660208301908152610bb883850190815287831660608501908152426080860190815260a08601898152600060c0880181815260e08901918252985163414bf38960e01b8152885188166004820152955187166024870152935162ffffff1660448601529151851660648501525160848401525160a4830152935160c48201529251811660e484015290917f00000000000000000000000000000000000000000000000000000000000000009091169063414bf38990610104016020604051808303816000875af11580156101e8573d6000803e3d6000fd5b505050506040513d601f19601f8201168201806040525081019061020c9190610381565b9695505050505050565b604080516001600160a01b038481166024830152604480830185905283518084039091018152606490920183526020820180516001600160e01b031663095ea7b360e01b1790529151600092839290871691610272919061039a565b6000604051808303816000865af19150503d80600081146102af576040519150601f19603f3d011682016040523d82523d6000602084013e6102b4565b606091505b50915091508180156102de5750805115806102de5750808060200190518101906102de91906103d5565b6103135760405162461bcd60e51b8152602060048201526002602482015261534160f01b604482015260640160405180910390fd5b5050505050565b80356001600160a01b038116811461033157600080fd5b919050565b6000806000806080858703121561034c57600080fd5b6103558561031a565b93506103636020860161031a565b92506103716040860161031a565b9396929550929360600135925050565b60006020828403121561039357600080fd5b5051919050565b6000825160005b818110156103bb57602081860181015185830152016103a1565b818111156103ca576000828501525b509190910192915050565b6000602082840312156103e757600080fd5b815180151581146103f757600080fd5b939250505056fea2646970667358221220892eeca048d70d34df1317ca0cacc218fed234536bce2aa4cc34955183a4e52764736f6c634300080e0033",
					"opcodes": "PUSH1 0xA0 PUSH1 0x40 MSTORE PUSH1 0x0 DUP1 SLOAD PUSH1 0x1 PUSH1 0x1 PUSH1 0xA0 SHL SUB NOT AND SWAP1 SSTORE CALLVALUE DUP1 ISZERO PUSH2 0x20 JUMPI PUSH1 0x0 DUP1 REVERT JUMPDEST POP PUSH1 0x40 MLOAD PUSH2 0x4DB CODESIZE SUB DUP1 PUSH2 0x4DB DUP4 CODECOPY DUP2 ADD PUSH1 0x40 DUP2 SWAP1 MSTORE PUSH2 0x3F SWAP2 PUSH2 0x50 JUMP JUMPDEST PUSH1 0x1 PUSH1 0x1 PUSH1 0xA0 SHL SUB AND PUSH1 0x80 MSTORE PUSH2 0x80 JUMP JUMPDEST PUSH1 0x0 PUSH1 0x20 DUP3 DUP5 SUB SLT ISZERO PUSH2 0x62 JUMPI PUSH1 0x0 DUP1 REVERT JUMPDEST DUP2 MLOAD PUSH1 0x1 PUSH1 0x1 PUSH1 0xA0 SHL SUB DUP2 AND DUP2 EQ PUSH2 0x79 JUMPI PUSH1 0x0 DUP1 REVERT JUMPDEST SWAP4 SWAP3 POP POP POP JUMP JUMPDEST PUSH1 0x80 MLOAD PUSH2 0x434 PUSH2 0xA7 PUSH1 0x0 CODECOPY PUSH1 0x0 DUP2 DUP2 PUSH1 0x6D ADD MSTORE DUP2 DUP2 PUSH1 0xD0 ADD MSTORE PUSH2 0x19C ADD MSTORE PUSH2 0x434 PUSH1 0x0 RETURN INVALID PUSH1 0x80 PUSH1 0x40 MSTORE CALLVALUE DUP1 ISZERO PUSH2 0x10 JUMPI PUSH1 0x0 DUP1 REVERT JUMPDEST POP PUSH1 0x4 CALLDATASIZE LT PUSH2 0x41 JUMPI PUSH1 0x0 CALLDATALOAD PUSH1 0xE0 SHR DUP1 PUSH4 0x89FE6AA EQ PUSH2 0x46 JUMPI DUP1 PUSH4 0xC31C9C07 EQ PUSH2 0x68 JUMPI DUP1 PUSH4 0xE42D6291 EQ PUSH2 0xA7 JUMPI JUMPDEST PUSH1 0x0 DUP1 REVERT JUMPDEST PUSH2 0x4F PUSH2 0xBB8 DUP2 JUMP JUMPDEST PUSH1 0x40 MLOAD PUSH3 0xFFFFFF SWAP1 SWAP2 AND DUP2 MSTORE PUSH1 0x20 ADD JUMPDEST PUSH1 0x40 MLOAD DUP1 SWAP2 SUB SWAP1 RETURN JUMPDEST PUSH2 0x8F PUSH32 0x0 DUP2 JUMP JUMPDEST PUSH1 0x40 MLOAD PUSH1 0x1 PUSH1 0x1 PUSH1 0xA0 SHL SUB SWAP1 SWAP2 AND DUP2 MSTORE PUSH1 0x20 ADD PUSH2 0x5F JUMP JUMPDEST PUSH2 0xBA PUSH2 0xB5 CALLDATASIZE PUSH1 0x4 PUSH2 0x336 JUMP JUMPDEST PUSH2 0xC8 JUMP JUMPDEST PUSH1 0x40 MLOAD SWAP1 DUP2 MSTORE PUSH1 0x20 ADD PUSH2 0x5F JUMP JUMPDEST PUSH1 0x0 PUSH2 0xF5 DUP6 PUSH32 0x0 DUP5 PUSH2 0x216 JUMP JUMPDEST PUSH1 0x40 DUP1 MLOAD PUSH2 0x100 DUP2 ADD DUP3 MSTORE PUSH1 0x1 PUSH1 0x1 PUSH1 0xA0 SHL SUB DUP8 DUP2 AND DUP3 MSTORE DUP7 DUP2 AND PUSH1 0x20 DUP4 ADD SWAP1 DUP2 MSTORE PUSH2 0xBB8 DUP4 DUP6 ADD SWAP1 DUP2 MSTORE DUP8 DUP4 AND PUSH1 0x60 DUP6 ADD SWAP1 DUP2 MSTORE TIMESTAMP PUSH1 0x80 DUP7 ADD SWAP1 DUP2 MSTORE PUSH1 0xA0 DUP7 ADD DUP10 DUP2 MSTORE PUSH1 0x0 PUSH1 0xC0 DUP9 ADD DUP2 DUP2 MSTORE PUSH1 0xE0 DUP10 ADD SWAP2 DUP3 MSTORE SWAP9 MLOAD PUSH4 0x414BF389 PUSH1 0xE0 SHL DUP2 MSTORE DUP9 MLOAD DUP9 AND PUSH1 0x4 DUP3 ADD MSTORE SWAP6 MLOAD DUP8 AND PUSH1 0x24 DUP8 ADD MSTORE SWAP4 MLOAD PUSH3 0xFFFFFF AND PUSH1 0x44 DUP7 ADD MSTORE SWAP2 MLOAD DUP6 AND PUSH1 0x64 DUP6 ADD MSTORE MLOAD PUSH1 0x84 DUP5 ADD MSTORE MLOAD PUSH1 0xA4 DUP4 ADD MSTORE SWAP4 MLOAD PUSH1 0xC4 DUP3 ADD MSTORE SWAP3 MLOAD DUP2 AND PUSH1 0xE4 DUP5 ADD MSTORE SWAP1 SWAP2 PUSH32 0x0 SWAP1 SWAP2 AND SWAP1 PUSH4 0x414BF389 SWAP1 PUSH2 0x104 ADD PUSH1 0x20 PUSH1 0x40 MLOAD DUP1 DUP4 SUB DUP2 PUSH1 0x0 DUP8 GAS CALL ISZERO DUP1 ISZERO PUSH2 0x1E8 JUMPI RETURNDATASIZE PUSH1 0x0 DUP1 RETURNDATACOPY RETURNDATASIZE PUSH1 0x0 REVERT JUMPDEST POP POP POP POP PUSH1 0x40 MLOAD RETURNDATASIZE PUSH1 0x1F NOT PUSH1 0x1F DUP3 ADD AND DUP3 ADD DUP1 PUSH1 0x40 MSTORE POP DUP2 ADD SWAP1 PUSH2 0x20C SWAP2 SWAP1 PUSH2 0x381 JUMP JUMPDEST SWAP7 SWAP6 POP POP POP POP POP POP JUMP JUMPDEST PUSH1 0x40 DUP1 MLOAD PUSH1 0x1 PUSH1 0x1 PUSH1 0xA0 SHL SUB DUP5 DUP2 AND PUSH1 0x24 DUP4 ADD MSTORE PUSH1 0x44 DUP1 DUP4 ADD DUP6 SWAP1 MSTORE DUP4 MLOAD DUP1 DUP5 SUB SWAP1 SWAP2 ADD DUP2 MSTORE PUSH1 0x64 SWAP1 SWAP3 ADD DUP4 MSTORE PUSH1 0x20 DUP3 ADD DUP1 MLOAD PUSH1 0x1 PUSH1 0x1 PUSH1 0xE0 SHL SUB AND PUSH4 0x95EA7B3 PUSH1 0xE0 SHL OR SWAP1 MSTORE SWAP2 MLOAD PUSH1 0x0 SWAP3 DUP4 SWAP3 SWAP1 DUP8 AND SWAP2 PUSH2 0x272 SWAP2 SWAP1 PUSH2 0x39A JUMP JUMPDEST PUSH1 0x0 PUSH1 0x40 MLOAD DUP1 DUP4 SUB DUP2 PUSH1 0x0 DUP7 GAS CALL SWAP2 POP POP RETURNDATASIZE DUP1 PUSH1 0x0 DUP2 EQ PUSH2 0x2AF JUMPI PUSH1 0x40 MLOAD SWAP2 POP PUSH1 0x1F NOT PUSH1 0x3F RETURNDATASIZE ADD AND DUP3 ADD PUSH1 0x40 MSTORE RETURNDATASIZE DUP3 MSTORE RETURNDATASIZE PUSH1 0x0 PUSH1 0x20 DUP5 ADD RETURNDATACOPY PUSH2 0x2B4 JUMP JUMPDEST PUSH1 0x60 SWAP2 POP JUMPDEST POP SWAP2 POP SWAP2 POP DUP2 DUP1 ISZERO PUSH2 0x2DE JUMPI POP DUP1 MLOAD ISZERO DUP1 PUSH2 0x2DE JUMPI POP DUP1 DUP1 PUSH1 0x20 ADD SWAP1 MLOAD DUP2 ADD SWAP1 PUSH2 0x2DE SWAP2 SWAP1 PUSH2 0x3D5 JUMP JUMPDEST PUSH2 0x313 JUMPI PUSH1 0x40 MLOAD PUSH3 0x461BCD PUSH1 0xE5 SHL DUP2 MSTORE PUSH1 0x20 PUSH1 0x4 DUP3 ADD MSTORE PUSH1 0x2 PUSH1 0x24 DUP3 ADD MSTORE PUSH2 0x5341 PUSH1 0xF0 SHL PUSH1 0x44 DUP3 ADD MSTORE PUSH1 0x64 ADD PUSH1 0x40 MLOAD DUP1 SWAP2 SUB SWAP1 REVERT JUMPDEST POP POP POP POP POP JUMP JUMPDEST DUP1 CALLDATALOAD PUSH1 0x1 PUSH1 0x1 PUSH1 0xA0 SHL SUB DUP2 AND DUP2 EQ PUSH2 0x331 JUMPI PUSH1 0x0 DUP1 REVERT JUMPDEST SWAP2 SWAP1 POP JUMP JUMPDEST PUSH1 0x0 DUP1 PUSH1 0x0 DUP1 PUSH1 0x80 DUP6 DUP8 SUB SLT ISZERO PUSH2 0x34C JUMPI PUSH1 0x0 DUP1 REVERT JUMPDEST PUSH2 0x355 DUP6 PUSH2 0x31A JUMP JUMPDEST SWAP4 POP PUSH2 0x363 PUSH1 0x20 DUP7 ADD PUSH2 0x31A JUMP JUMPDEST SWAP3 POP PUSH2 0x371 PUSH1 0x40 DUP7 ADD PUSH2 0x31A JUMP JUMPDEST SWAP4 SWAP7 SWAP3 SWAP6 POP SWAP3 SWAP4 PUSH1 0x60 ADD CALLDATALOAD SWAP3 POP POP JUMP JUMPDEST PUSH1 0x0 PUSH1 0x20 DUP3 DUP5 SUB SLT ISZERO PUSH2 0x393 JUMPI PUSH1 0x0 DUP1 REVERT JUMPDEST POP MLOAD SWAP2 SWAP1 POP JUMP JUMPDEST PUSH1 0x0 DUP3 MLOAD PUSH1 0x0 JUMPDEST DUP2 DUP2 LT ISZERO PUSH2 0x3BB JUMPI PUSH1 0x20 DUP2 DUP7 ADD DUP2 ADD MLOAD DUP6 DUP4 ADD MSTORE ADD PUSH2 0x3A1 JUMP JUMPDEST DUP2 DUP2 GT ISZERO PUSH2 0x3CA JUMPI PUSH1 0x0 DUP3 DUP6 ADD MSTORE JUMPDEST POP SWAP2 SWAP1 SWAP2 ADD SWAP3 SWAP2 POP POP JUMP JUMPDEST PUSH1 0x0 PUSH1 0x20 DUP3 DUP5 SUB SLT ISZERO PUSH2 0x3E7 JUMPI PUSH1 0x0 DUP1 REVERT JUMPDEST DUP2 MLOAD DUP1 ISZERO ISZERO DUP2 EQ PUSH2 0x3F7 JUMPI PUSH1 0x0 DUP1 REVERT JUMPDEST SWAP4 SWAP3 POP POP POP JUMP INVALID LOG2 PUSH5 0x6970667358 0x22 SLT KECCAK256 DUP10 0x2E 0xEC LOG0 BASEFEE 0xD7 0xD CALLVALUE 0xDF SGT OR 0xCA 0xC 0xAC 0xC2 XOR INVALID 0xD2 CALLVALUE MSTORE8 PUSH12 0xCE2AA4CC34955183A4E52764 PUSH20 0x6F6C634300080E00330000000000000000000000 "
				},
				"gasEstimates": {
					"creation": {
						"codeDepositCost": "215200",
						"executionCost": "infinite",
						"totalCost": "infinite"
					},
					"external": {
						"_swapUniswapSingle(address,address,address,uint256)": "infinite",
						"poolFee()": "171",
						"swapRouter()": "infinite"
					}
				},
				"methodIdentifiers": {
					"_swapUniswapSingle(address,address,address,uint256)": "e42d6291",
					"poolFee()": "089fe6aa",
					"swapRouter()": "c31c9c07"
				}
			},
			"storageLayout": {
				"storage": [
					{
						"astId": 375,
						"contract": "swap.sol:swapper",
						"label": "sqrtPriceLimitX96",
						"offset": 0,
						"slot": "0",
						"type": "t_uint160"
					}
				],
				"types": {
					"t_uint160": {
						"encoding": "inplace",
						"label": "uint160",
						"numberOfBytes": "20"
					}
				}
			},
			"userdoc": {
				"kind": "user",
				"methods": {},
				"version": 1
			}
		}
	}
}