{
	"gelatoDemo.sol": {
		"GelatoDemo": {
			"abi": [
				{
					"inputs": [
						{
							"internalType": "address payable",
							"name": "_automate",
							"type": "address"
						},
						{
							"internalType": "address",
							"name": "_fundsOwner",
							"type": "address"
						}
					],
					"stateMutability": "nonpayable",
					"type": "constructor"
				},
				{
					"anonymous": false,
					"inputs": [
						{
							"indexed": false,
							"internalType": "uint256",
							"name": "timestamp",
							"type": "uint256"
						},
						{
							"indexed": false,
							"internalType": "address",
							"name": "sender",
							"type": "address"
						}
					],
					"name": "task1Exectued",
					"type": "event"
				},
				{
					"anonymous": false,
					"inputs": [
						{
							"indexed": false,
							"internalType": "uint256",
							"name": "dcafOrderId",
							"type": "uint256"
						},
						{
							"indexed": false,
							"internalType": "uint256",
							"name": "timestamp",
							"type": "uint256"
						},
						{
							"indexed": false,
							"internalType": "address",
							"name": "sender",
							"type": "address"
						}
					],
					"name": "task2Executed",
					"type": "event"
				},
				{
					"inputs": [],
					"name": "automate",
					"outputs": [
						{
							"internalType": "contract IAutomate",
							"name": "",
							"type": "address"
						}
					],
					"stateMutability": "view",
					"type": "function"
				},
				{
					"inputs": [
						{
							"internalType": "bytes32",
							"name": "taskId",
							"type": "bytes32"
						}
					],
					"name": "cancelTask",
					"outputs": [],
					"stateMutability": "nonpayable",
					"type": "function"
				},
				{
					"inputs": [
						{
							"internalType": "uint256",
							"name": "frequency",
							"type": "uint256"
						}
					],
					"name": "createTask1",
					"outputs": [
						{
							"internalType": "bytes32",
							"name": "taskId",
							"type": "bytes32"
						}
					],
					"stateMutability": "nonpayable",
					"type": "function"
				},
				{
					"inputs": [
						{
							"internalType": "uint256",
							"name": "_dcafOrderId",
							"type": "uint256"
						},
						{
							"internalType": "uint256",
							"name": "timePeriod",
							"type": "uint256"
						}
					],
					"name": "createTask2",
					"outputs": [
						{
							"internalType": "bytes32",
							"name": "taskId",
							"type": "bytes32"
						}
					],
					"stateMutability": "nonpayable",
					"type": "function"
				},
				{
					"inputs": [],
					"name": "dedicatedMsgSender",
					"outputs": [
						{
							"internalType": "address",
							"name": "",
							"type": "address"
						}
					],
					"stateMutability": "view",
					"type": "function"
				},
				{
					"inputs": [],
					"name": "depositGelatoFees",
					"outputs": [],
					"stateMutability": "payable",
					"type": "function"
				},
				{
					"inputs": [],
					"name": "executeGelatoTask1",
					"outputs": [],
					"stateMutability": "nonpayable",
					"type": "function"
				},
				{
					"inputs": [
						{
							"internalType": "uint256",
							"name": "dcafOrderId",
							"type": "uint256"
						}
					],
					"name": "executeGelatoTask2",
					"outputs": [],
					"stateMutability": "nonpayable",
					"type": "function"
				},
				{
					"inputs": [],
					"name": "fundsOwner",
					"outputs": [
						{
							"internalType": "address",
							"name": "",
							"type": "address"
						}
					],
					"stateMutability": "view",
					"type": "function"
				},
				{
					"inputs": [],
					"name": "task1Id",
					"outputs": [
						{
							"internalType": "bytes32",
							"name": "",
							"type": "bytes32"
						}
					],
					"stateMutability": "view",
					"type": "function"
				},
				{
					"inputs": [],
					"name": "task2Id",
					"outputs": [
						{
							"internalType": "bytes32",
							"name": "",
							"type": "bytes32"
						}
					],
					"stateMutability": "view",
					"type": "function"
				},
				{
					"inputs": [],
					"name": "taskTreasury",
					"outputs": [
						{
							"internalType": "contract ITaskTreasuryUpgradable",
							"name": "",
							"type": "address"
						}
					],
					"stateMutability": "view",
					"type": "function"
				},
				{
					"inputs": [
						{
							"internalType": "uint256",
							"name": "_amount",
							"type": "uint256"
						},
						{
							"internalType": "address",
							"name": "_token",
							"type": "address"
						}
					],
					"name": "withdrawGealtoFees",
					"outputs": [],
					"stateMutability": "nonpayable",
					"type": "function"
				}
			],
			"devdoc": {
				"kind": "dev",
				"methods": {},
				"version": 1
			},
			"evm": {
				"assembly": "    /* \"gelatoDemo.sol\":121:3144  contract GelatoDemo is AutomateTaskCreator {... */\n  mstore(0x40, 0x0120)\n    /* \"gelatoDemo.sol\":377:505  constructor(... */\n  callvalue\n  dup1\n  iszero\n  tag_1\n  jumpi\n  0x00\n  dup1\n  revert\ntag_1:\n  pop\n  mload(0x40)\n  sub(codesize, bytecodeSize)\n  dup1\n  bytecodeSize\n  dup4\n  codecopy\n  dup2\n  add\n  0x40\n  dup2\n  swap1\n  mstore\n  tag_2\n  swap2\n  tag_3\n  jump\t// in\ntag_2:\n    /* \"gelatoDemo.sol\":479:488  _automate */\n  dup2\n    /* \"gelatoDemo.sol\":490:501  _fundsOwner */\n  dup2\n    /* \"interfaces/Gelato/AutomateTaskCreator.sol\":488:497  _automate */\n  dup2\n    /* \"interfaces/Gelato/AutomateTaskCreator.sol\":507:511  this */\n  address\n    /* \"interfaces/Gelato/AutomateReady.sol\":1190:1199  _automate */\n  dup2\n  sub(shl(0xa0, 0x01), 0x01)\n    /* \"interfaces/Gelato/AutomateReady.sol\":1169:1200  automate = IAutomate(_automate) */\n  and\n  0x80\n  dup2\n  sub(shl(0xa0, 0x01), 0x01)\n  and\n  dup2\n  mstore\n  pop\n  pop\n    /* \"interfaces/Gelato/AutomateReady.sol\":1230:1239  _automate */\n  dup2\n  sub(shl(0xa0, 0x01), 0x01)\n    /* \"interfaces/Gelato/AutomateReady.sol\":1220:1247  IAutomate(_automate).gelato */\n  and\n  0x573ea575\n    /* \"interfaces/Gelato/AutomateReady.sol\":1220:1249  IAutomate(_automate).gelato() */\n  mload(0x40)\n  dup2\n  0xffffffff\n  and\n  0xe0\n  shl\n  dup2\n  mstore\n  0x04\n  add\n  0x20\n  mload(0x40)\n  dup1\n  dup4\n  sub\n  dup2\n  dup7\n  gas\n  staticcall\n  iszero\n  dup1\n  iszero\n  tag_9\n  jumpi\n  returndatasize\n  0x00\n  dup1\n  returndatacopy\n  revert(0x00, returndatasize)\ntag_9:\n  pop\n  pop\n  pop\n  pop\n  mload(0x40)\n  returndatasize\n  not(0x1f)\n  0x1f\n  dup3\n  add\n  and\n  dup3\n  add\n  dup1\n  0x40\n  mstore\n  pop\n  dup2\n  add\n  swap1\n  tag_10\n  swap2\n  swap1\n  tag_11\n  jump\t// in\ntag_10:\n  sub(shl(0xa0, 0x01), 0x01)\n    /* \"interfaces/Gelato/AutomateReady.sol\":1210:1249  _gelato = IAutomate(_automate).gelato() */\n  swap1\n  dup2\n  and\n  0xc0\n  mstore\n    /* \"interfaces/Gelato/AutomateReady.sol\":1522:1595  IOpsProxyFactory(OPS_PROXY_FACTORY)... */\n  mload(0x40)\n  shl(0xe2, 0x37b6269f)\n  dup2\n  mstore\n    /* \"#utility.yul\":1008:1040   */\n  swap1\n  dup3\n  and\n    /* \"interfaces/Gelato/AutomateReady.sol\":1522:1595  IOpsProxyFactory(OPS_PROXY_FACTORY)... */\n  0x04\n  dup3\n  add\n    /* \"#utility.yul\":990:1041   */\n  mstore\n    /* \"interfaces/Gelato/AutomateReady.sol\":670:712  0xC815dB16D4be6ddf2685C201937905aBf338F5D7 */\n  0xc815db16d4be6ddf2685c201937905abf338f5d7\n  swap1\n    /* \"interfaces/Gelato/AutomateReady.sol\":1522:1581  IOpsProxyFactory(OPS_PROXY_FACTORY)... */\n  0xded89a7c\n  swap1\n    /* \"#utility.yul\":963:981   */\n  0x24\n  add\n    /* \"interfaces/Gelato/AutomateReady.sol\":1522:1595  IOpsProxyFactory(OPS_PROXY_FACTORY)... */\n  0x40\n  dup1\n  mload\n  dup1\n  dup4\n  sub\n  dup2\n  dup7\n  gas\n  staticcall\n  iszero\n  dup1\n  iszero\n  tag_15\n  jumpi\n  returndatasize\n  0x00\n  dup1\n  returndatacopy\n  revert(0x00, returndatasize)\ntag_15:\n  pop\n  pop\n  pop\n  pop\n  mload(0x40)\n  returndatasize\n  not(0x1f)\n  0x1f\n  dup3\n  add\n  and\n  dup3\n  add\n  dup1\n  0x40\n  mstore\n  pop\n  dup2\n  add\n  swap1\n  tag_16\n  swap2\n  swap1\n  tag_17\n  jump\t// in\ntag_16:\n  pop\n  sub(shl(0xa0, 0x01), 0x01)\n    /* \"interfaces/Gelato/AutomateReady.sol\":1497:1595  (dedicatedMsgSender, ) = IOpsProxyFactory(OPS_PROXY_FACTORY)... */\n  swap1\n  dup2\n  and\n  0xa0\n  mstore\n    /* \"interfaces/Gelato/AutomateTaskCreator.sol\":524:548  fundsOwner = _fundsOwner */\n  dup4\n  dup2\n  and\n  0xe0\n  mstore\n    /* \"interfaces/Gelato/AutomateTaskCreator.sol\":573:581  automate */\n  mload(0x80)\n    /* \"interfaces/Gelato/AutomateTaskCreator.sol\":573:596  automate.taskTreasury() */\n  0x40\n  dup1\n  mload\n  shl(0xe0, 0xe60a3213)\n  dup2\n  mstore\n  swap1\n  mload\n    /* \"interfaces/Gelato/AutomateTaskCreator.sol\":573:594  automate.taskTreasury */\n  swap2\n  swap1\n  swap3\n  and\n  swap4\n  pop\n  0xe60a3213\n  swap3\n  pop\n    /* \"interfaces/Gelato/AutomateTaskCreator.sol\":573:596  automate.taskTreasury() */\n  0x04\n  dup1\n  dup4\n  add\n  swap3\n  0x20\n  swap3\n  swap2\n  swap1\n  dup3\n  swap1\n  sub\n  add\n  dup2\n    /* \"interfaces/Gelato/AutomateTaskCreator.sol\":573:594  automate.taskTreasury */\n  dup7\n    /* \"interfaces/Gelato/AutomateTaskCreator.sol\":573:596  automate.taskTreasury() */\n  gas\n  staticcall\n  iszero\n  dup1\n  iszero\n  tag_20\n  jumpi\n  returndatasize\n  0x00\n  dup1\n  returndatacopy\n  revert(0x00, returndatasize)\ntag_20:\n  pop\n  pop\n  pop\n  pop\n  mload(0x40)\n  returndatasize\n  not(0x1f)\n  0x1f\n  dup3\n  add\n  and\n  dup3\n  add\n  dup1\n  0x40\n  mstore\n  pop\n  dup2\n  add\n  swap1\n  tag_21\n  swap2\n  swap1\n  tag_11\n  jump\t// in\ntag_21:\n  sub(shl(0xa0, 0x01), 0x01)\n    /* \"interfaces/Gelato/AutomateTaskCreator.sol\":558:596  taskTreasury = automate.taskTreasury() */\n  and\n  0x0100\n  mstore\n  pop\n    /* \"gelatoDemo.sol\":121:3144  contract GelatoDemo is AutomateTaskCreator {... */\n  tag_26\n  swap3\n  pop\n  pop\n  pop\n  jump\n    /* \"#utility.yul\":14:153   */\ntag_25:\n  sub(shl(0xa0, 0x01), 0x01)\n    /* \"#utility.yul\":97:128   */\n  dup2\n  and\n    /* \"#utility.yul\":87:129   */\n  dup2\n  eq\n    /* \"#utility.yul\":77:147   */\n  tag_28\n  jumpi\n    /* \"#utility.yul\":143:144   */\n  0x00\n    /* \"#utility.yul\":140:141   */\n  dup1\n    /* \"#utility.yul\":133:145   */\n  revert\n    /* \"#utility.yul\":77:147   */\ntag_28:\n    /* \"#utility.yul\":14:153   */\n  pop\n  jump\t// out\n    /* \"#utility.yul\":158:567   */\ntag_3:\n    /* \"#utility.yul\":245:251   */\n  0x00\n    /* \"#utility.yul\":253:259   */\n  dup1\n    /* \"#utility.yul\":306:308   */\n  0x40\n    /* \"#utility.yul\":294:303   */\n  dup4\n    /* \"#utility.yul\":285:292   */\n  dup6\n    /* \"#utility.yul\":281:304   */\n  sub\n    /* \"#utility.yul\":277:309   */\n  slt\n    /* \"#utility.yul\":274:326   */\n  iszero\n  tag_30\n  jumpi\n    /* \"#utility.yul\":322:323   */\n  0x00\n    /* \"#utility.yul\":319:320   */\n  dup1\n    /* \"#utility.yul\":312:324   */\n  revert\n    /* \"#utility.yul\":274:326   */\ntag_30:\n    /* \"#utility.yul\":354:363   */\n  dup3\n    /* \"#utility.yul\":348:364   */\n  mload\n    /* \"#utility.yul\":373:412   */\n  tag_31\n    /* \"#utility.yul\":406:411   */\n  dup2\n    /* \"#utility.yul\":373:412   */\n  tag_25\n  jump\t// in\ntag_31:\n    /* \"#utility.yul\":481:483   */\n  0x20\n    /* \"#utility.yul\":466:484   */\n  dup5\n  add\n    /* \"#utility.yul\":460:485   */\n  mload\n    /* \"#utility.yul\":431:436   */\n  swap1\n  swap3\n  pop\n    /* \"#utility.yul\":494:535   */\n  tag_32\n    /* \"#utility.yul\":460:485   */\n  dup2\n    /* \"#utility.yul\":494:535   */\n  tag_25\n  jump\t// in\ntag_32:\n    /* \"#utility.yul\":554:561   */\n  dup1\n    /* \"#utility.yul\":544:561   */\n  swap2\n  pop\n  pop\n    /* \"#utility.yul\":158:567   */\n  swap3\n  pop\n  swap3\n  swap1\n  pop\n  jump\t// out\n    /* \"#utility.yul\":572:839   */\ntag_11:\n    /* \"#utility.yul\":650:656   */\n  0x00\n    /* \"#utility.yul\":703:705   */\n  0x20\n    /* \"#utility.yul\":691:700   */\n  dup3\n    /* \"#utility.yul\":682:689   */\n  dup5\n    /* \"#utility.yul\":678:701   */\n  sub\n    /* \"#utility.yul\":674:706   */\n  slt\n    /* \"#utility.yul\":671:723   */\n  iszero\n  tag_34\n  jumpi\n    /* \"#utility.yul\":719:720   */\n  0x00\n    /* \"#utility.yul\":716:717   */\n  dup1\n    /* \"#utility.yul\":709:721   */\n  revert\n    /* \"#utility.yul\":671:723   */\ntag_34:\n    /* \"#utility.yul\":751:760   */\n  dup2\n    /* \"#utility.yul\":745:761   */\n  mload\n    /* \"#utility.yul\":770:809   */\n  tag_35\n    /* \"#utility.yul\":803:808   */\n  dup2\n    /* \"#utility.yul\":770:809   */\n  tag_25\n  jump\t// in\ntag_35:\n    /* \"#utility.yul\":828:833   */\n  swap4\n    /* \"#utility.yul\":572:839   */\n  swap3\n  pop\n  pop\n  pop\n  jump\t// out\n    /* \"#utility.yul\":1052:1473   */\ntag_17:\n    /* \"#utility.yul\":1128:1134   */\n  0x00\n    /* \"#utility.yul\":1136:1142   */\n  dup1\n    /* \"#utility.yul\":1189:1191   */\n  0x40\n    /* \"#utility.yul\":1177:1186   */\n  dup4\n    /* \"#utility.yul\":1168:1175   */\n  dup6\n    /* \"#utility.yul\":1164:1187   */\n  sub\n    /* \"#utility.yul\":1160:1192   */\n  slt\n    /* \"#utility.yul\":1157:1209   */\n  iszero\n  tag_38\n  jumpi\n    /* \"#utility.yul\":1205:1206   */\n  0x00\n    /* \"#utility.yul\":1202:1203   */\n  dup1\n    /* \"#utility.yul\":1195:1207   */\n  revert\n    /* \"#utility.yul\":1157:1209   */\ntag_38:\n    /* \"#utility.yul\":1237:1246   */\n  dup3\n    /* \"#utility.yul\":1231:1247   */\n  mload\n    /* \"#utility.yul\":1256:1295   */\n  tag_39\n    /* \"#utility.yul\":1289:1294   */\n  dup2\n    /* \"#utility.yul\":1256:1295   */\n  tag_25\n  jump\t// in\ntag_39:\n    /* \"#utility.yul\":1364:1366   */\n  0x20\n    /* \"#utility.yul\":1349:1367   */\n  dup5\n  add\n    /* \"#utility.yul\":1343:1368   */\n  mload\n    /* \"#utility.yul\":1314:1319   */\n  swap1\n  swap3\n  pop\n    /* \"#utility.yul\":1406:1421   */\n  dup1\n  iszero\n    /* \"#utility.yul\":1399:1422   */\n  iszero\n    /* \"#utility.yul\":1387:1423   */\n  dup2\n  eq\n    /* \"#utility.yul\":1377:1441   */\n  tag_32\n  jumpi\n    /* \"#utility.yul\":1437:1438   */\n  0x00\n    /* \"#utility.yul\":1434:1435   */\n  dup1\n    /* \"#utility.yul\":1427:1439   */\n  revert\n    /* \"#utility.yul\":1478:1769   */\ntag_26:\n    /* \"gelatoDemo.sol\":121:3144  contract GelatoDemo is AutomateTaskCreator {... */\n  mload(0x80)\n  mload(0xa0)\n  mload(0xc0)\n  mload(0xe0)\n  mload(0x0100)\n  codecopy(0x00, dataOffset(sub_0), dataSize(sub_0))\n  0x00\n  assignImmutable(\"0x1a45ca7668f6fd690a47c068475ec89da9de3fdba185742769282510bfc3031f\")\n  0x00\n  assignImmutable(\"0x6b4f1a89a3636d8ffaaa27fbe821abd36856ce6fc2f1e0168eaf0024b1cb717f\")\n  0x00\n  assignImmutable(\"0x9190f05ccd24e7f78eb29a27d65fd73f7abb99ab584b5b00c3dbe6eba170e6e4\")\n  0x00\n  assignImmutable(\"0x0c978dce7d1d407b588f07e2560b814521b1c4bd9935c52651a8fcd1eb6e9e5f\")\n  0x00\n  assignImmutable(\"0x674ac0d280fec980ad6630d1de8158121778271ec1e2754162ca3560b27f5c65\")\n  return(0x00, dataSize(sub_0))\nstop\n\nsub_0: assembly {\n        /* \"gelatoDemo.sol\":121:3144  contract GelatoDemo is AutomateTaskCreator {... */\n      mstore(0x40, 0x80)\n      jumpi(tag_1, lt(calldatasize, 0x04))\n      shr(0xe0, calldataload(0x00))\n      dup1\n      0x426c160e\n      gt\n      tag_15\n      jumpi\n      dup1\n      0xa839bd0d\n      gt\n      tag_16\n      jumpi\n      dup1\n      0xa839bd0d\n      eq\n      tag_11\n      jumpi\n      dup1\n      0xe60a3213\n      eq\n      tag_12\n      jumpi\n      dup1\n      0xed1e0c93\n      eq\n      tag_13\n      jumpi\n      dup1\n      0xee8ca3b5\n      eq\n      tag_14\n      jumpi\n      0x00\n      dup1\n      revert\n    tag_16:\n      dup1\n      0x426c160e\n      eq\n      tag_8\n      jumpi\n      dup1\n      0x46ee3c59\n      eq\n      tag_9\n      jumpi\n      dup1\n      0x9b2ed694\n      eq\n      tag_10\n      jumpi\n      0x00\n      dup1\n      revert\n    tag_15:\n      dup1\n      0x02827bca\n      eq\n      tag_2\n      jumpi\n      dup1\n      0x049aacfe\n      eq\n      tag_3\n      jumpi\n      dup1\n      0x06c9c37d\n      eq\n      tag_4\n      jumpi\n      dup1\n      0x28f150eb\n      eq\n      tag_5\n      jumpi\n      dup1\n      0x2b044b73\n      eq\n      tag_6\n      jumpi\n      dup1\n      0x328e00f0\n      eq\n      tag_7\n      jumpi\n    tag_1:\n      0x00\n      dup1\n      revert\n        /* \"gelatoDemo.sol\":1998:3028  function createTask2(... */\n    tag_2:\n      callvalue\n      dup1\n      iszero\n      tag_17\n      jumpi\n      0x00\n      dup1\n      revert\n    tag_17:\n      pop\n      tag_18\n      tag_19\n      calldatasize\n      0x04\n      tag_20\n      jump\t// in\n    tag_19:\n      tag_21\n      jump\t// in\n    tag_18:\n      mload(0x40)\n        /* \"#utility.yul\":413:438   */\n      swap1\n      dup2\n      mstore\n        /* \"#utility.yul\":401:403   */\n      0x20\n        /* \"#utility.yul\":386:404   */\n      add\n        /* \"gelatoDemo.sol\":1998:3028  function createTask2(... */\n    tag_22:\n      mload(0x40)\n      dup1\n      swap2\n      sub\n      swap1\n      return\n        /* \"interfaces/Gelato/AutomateReady.sol\":408:443  IAutomate public immutable automate */\n    tag_3:\n      callvalue\n      dup1\n      iszero\n      tag_24\n      jumpi\n      0x00\n      dup1\n      revert\n    tag_24:\n      pop\n      tag_25\n      immutable(\"0x674ac0d280fec980ad6630d1de8158121778271ec1e2754162ca3560b27f5c65\")\n      dup2\n      jump\n    tag_25:\n      mload(0x40)\n      sub(shl(0xa0, 0x01), 0x01)\n        /* \"#utility.yul\":631:663   */\n      swap1\n      swap2\n      and\n        /* \"#utility.yul\":613:664   */\n      dup2\n      mstore\n        /* \"#utility.yul\":601:603   */\n      0x20\n        /* \"#utility.yul\":586:604   */\n      add\n        /* \"interfaces/Gelato/AutomateReady.sol\":408:443  IAutomate public immutable automate */\n      tag_22\n        /* \"#utility.yul\":449:670   */\n      jump\n        /* \"gelatoDemo.sol\":754:846  function depositGelatoFees() external payable {... */\n    tag_4:\n      tag_29\n      tag_30\n      jump\t// in\n    tag_29:\n      stop\n        /* \"interfaces/Gelato/AutomateReady.sol\":449:492  address public immutable dedicatedMsgSender */\n    tag_5:\n      callvalue\n      dup1\n      iszero\n      tag_31\n      jumpi\n      0x00\n      dup1\n      revert\n    tag_31:\n      pop\n      tag_25\n      immutable(\"0x0c978dce7d1d407b588f07e2560b814521b1c4bd9935c52651a8fcd1eb6e9e5f\")\n      dup2\n      jump\n        /* \"gelatoDemo.sol\":878:995  function withdrawGealtoFees(uint256 _amount, address _token) external {... */\n    tag_6:\n      callvalue\n      dup1\n      iszero\n      tag_36\n      jumpi\n      0x00\n      dup1\n      revert\n    tag_36:\n      pop\n      tag_29\n      tag_38\n      calldatasize\n      0x04\n      tag_39\n      jump\t// in\n    tag_38:\n      tag_40\n      jump\t// in\n        /* \"gelatoDemo.sol\":511:612  function executeGelatoTask1() public {... */\n    tag_7:\n      callvalue\n      dup1\n      iszero\n      tag_41\n      jumpi\n      0x00\n      dup1\n      revert\n    tag_41:\n      pop\n      tag_29\n      tag_43\n      jump\t// in\n        /* \"gelatoDemo.sol\":198:220  bytes32 public task2Id */\n    tag_8:\n      callvalue\n      dup1\n      iszero\n      tag_44\n      jumpi\n      0x00\n      dup1\n      revert\n    tag_44:\n      pop\n      tag_18\n      sload(0x01)\n      dup2\n      jump\n        /* \"interfaces/Gelato/AutomateTaskCreator.sol\":299:334  address public immutable fundsOwner */\n    tag_9:\n      callvalue\n      dup1\n      iszero\n      tag_48\n      jumpi\n      0x00\n      dup1\n      revert\n    tag_48:\n      pop\n      tag_25\n      immutable(\"0x6b4f1a89a3636d8ffaaa27fbe821abd36856ce6fc2f1e0168eaf0024b1cb717f\")\n      dup2\n      jump\n        /* \"gelatoDemo.sol\":1001:1992  function createTask1(... */\n    tag_10:\n      callvalue\n      dup1\n      iszero\n      tag_52\n      jumpi\n      0x00\n      dup1\n      revert\n    tag_52:\n      pop\n      tag_18\n      tag_54\n      calldatasize\n      0x04\n      tag_55\n      jump\t// in\n    tag_54:\n      tag_56\n      jump\t// in\n        /* \"gelatoDemo.sol\":618:748  function executeGelatoTask2(uint dcafOrderId) public {... */\n    tag_11:\n      callvalue\n      dup1\n      iszero\n      tag_58\n      jumpi\n      0x00\n      dup1\n      revert\n    tag_58:\n      pop\n      tag_29\n      tag_60\n      calldatasize\n      0x04\n      tag_55\n      jump\t// in\n    tag_60:\n      tag_61\n      jump\t// in\n        /* \"interfaces/Gelato/AutomateTaskCreator.sol\":340:393  ITaskTreasuryUpgradable public immutable taskTreasury */\n    tag_12:\n      callvalue\n      dup1\n      iszero\n      tag_62\n      jumpi\n      0x00\n      dup1\n      revert\n    tag_62:\n      pop\n      tag_25\n      immutable(\"0x1a45ca7668f6fd690a47c068475ec89da9de3fdba185742769282510bfc3031f\")\n      dup2\n      jump\n        /* \"gelatoDemo.sol\":170:192  bytes32 public task1Id */\n    tag_13:\n      callvalue\n      dup1\n      iszero\n      tag_67\n      jumpi\n      0x00\n      dup1\n      revert\n    tag_67:\n      pop\n      tag_18\n      sload(0x00)\n      dup2\n      jump\n        /* \"gelatoDemo.sol\":3034:3142  function cancelTask(bytes32 taskId) public {... */\n    tag_14:\n      callvalue\n      dup1\n      iszero\n      tag_71\n      jumpi\n      0x00\n      dup1\n      revert\n    tag_71:\n      pop\n      tag_29\n      tag_73\n      calldatasize\n      0x04\n      tag_55\n      jump\t// in\n    tag_73:\n      tag_75\n      jump\t// in\n        /* \"gelatoDemo.sol\":1998:3028  function createTask2(... */\n    tag_21:\n        /* \"gelatoDemo.sol\":2096:2110  bytes32 taskId */\n      0x00\n        /* \"gelatoDemo.sol\":2122:2150  ModuleData memory moduleData */\n      dup1\n        /* \"gelatoDemo.sol\":2153:2247  ModuleData({... */\n      mload(0x40)\n      dup1\n      0x40\n      add\n      0x40\n      mstore\n      dup1\n        /* \"gelatoDemo.sol\":2200:2201  3 */\n      0x03\n        /* \"gelatoDemo.sol\":2187:2202  new Module[](3) */\n      0xffffffffffffffff\n      dup2\n      gt\n      iszero\n      tag_78\n      jumpi\n      tag_78\n      tag_79\n      jump\t// in\n    tag_78:\n      mload(0x40)\n      swap1\n      dup1\n      dup3\n      mstore\n      dup1\n      0x20\n      mul\n      0x20\n      add\n      dup3\n      add\n      0x40\n      mstore\n      dup1\n      iszero\n      tag_80\n      jumpi\n      dup2\n      0x20\n      add\n      0x20\n      dup3\n      mul\n      dup1\n      calldatasize\n      dup4\n      calldatacopy\n      add\n      swap1\n      pop\n    tag_80:\n      pop\n        /* \"gelatoDemo.sol\":2153:2247  ModuleData({... */\n      dup2\n      mstore\n        /* \"gelatoDemo.sol\":2222:2236  new bytes[](3) */\n      0x40\n      dup1\n      mload\n        /* \"gelatoDemo.sol\":2234:2235  3 */\n      0x03\n        /* \"gelatoDemo.sol\":2222:2236  new bytes[](3) */\n      dup1\n      dup3\n      mstore\n      0x80\n      dup3\n      add\n      swap1\n      swap3\n      mstore\n        /* \"gelatoDemo.sol\":2153:2247  ModuleData({... */\n      0x20\n      swap1\n      swap3\n      add\n      swap2\n        /* \"gelatoDemo.sol\":2222:2236  new bytes[](3) */\n      swap1\n      dup2\n      0x20\n      add\n    tag_84:\n      0x60\n      dup2\n      mstore\n      0x20\n      add\n      swap1\n      0x01\n      swap1\n      sub\n      swap1\n      dup2\n      tag_84\n      jumpi\n      pop\n      pop\n        /* \"gelatoDemo.sol\":2153:2247  ModuleData({... */\n      swap1\n      mstore\n        /* \"gelatoDemo.sol\":2258:2276  moduleData.modules */\n      dup1\n      mload\n        /* \"gelatoDemo.sol\":2258:2279  moduleData.modules[0] */\n      dup1\n      mload\n        /* \"gelatoDemo.sol\":2122:2247  ModuleData memory moduleData = ModuleData({... */\n      swap2\n      swap3\n      pop\n        /* \"gelatoDemo.sol\":2282:2293  Module.TIME */\n      0x01\n      swap2\n        /* \"gelatoDemo.sol\":2258:2276  moduleData.modules */\n      0x00\n      swap1\n        /* \"gelatoDemo.sol\":2258:2279  moduleData.modules[0] */\n      tag_86\n      jumpi\n      tag_86\n      tag_87\n      jump\t// in\n    tag_86:\n      0x20\n      mul\n      0x20\n      add\n      add\n        /* \"gelatoDemo.sol\":2258:2293  moduleData.modules[0] = Module.TIME */\n      swap1\n      0x04\n      dup2\n      gt\n      iszero\n      tag_89\n      jumpi\n      tag_89\n      tag_90\n      jump\t// in\n    tag_89:\n      swap1\n      dup2\n      0x04\n      dup2\n      gt\n      iszero\n      tag_92\n      jumpi\n      tag_92\n      tag_90\n      jump\t// in\n    tag_92:\n      dup2\n      mstore\n      pop\n      pop\n        /* \"gelatoDemo.sol\":2327:2339  Module.PROXY */\n      0x02\n        /* \"gelatoDemo.sol\":2303:2313  moduleData */\n      dup2\n        /* \"gelatoDemo.sol\":2303:2321  moduleData.modules */\n      0x00\n      add\n      mload\n        /* \"gelatoDemo.sol\":2322:2323  1 */\n      0x01\n        /* \"gelatoDemo.sol\":2303:2324  moduleData.modules[1] */\n      dup2\n      mload\n      dup2\n      lt\n      tag_94\n      jumpi\n      tag_94\n      tag_87\n      jump\t// in\n    tag_94:\n      0x20\n      mul\n      0x20\n      add\n      add\n        /* \"gelatoDemo.sol\":2303:2339  moduleData.modules[1] = Module.PROXY */\n      swap1\n      0x04\n      dup2\n      gt\n      iszero\n      tag_96\n      jumpi\n      tag_96\n      tag_90\n      jump\t// in\n    tag_96:\n      swap1\n      dup2\n      0x04\n      dup2\n      gt\n      iszero\n      tag_98\n      jumpi\n      tag_98\n      tag_90\n      jump\t// in\n    tag_98:\n      dup2\n      mstore\n      pop\n      pop\n        /* \"gelatoDemo.sol\":2373:2391  Module.SINGLE_EXEC */\n      0x03\n        /* \"gelatoDemo.sol\":2349:2359  moduleData */\n      dup2\n        /* \"gelatoDemo.sol\":2349:2367  moduleData.modules */\n      0x00\n      add\n      mload\n        /* \"gelatoDemo.sol\":2368:2369  2 */\n      0x02\n        /* \"gelatoDemo.sol\":2349:2370  moduleData.modules[2] */\n      dup2\n      mload\n      dup2\n      lt\n      tag_100\n      jumpi\n      tag_100\n      tag_87\n      jump\t// in\n    tag_100:\n      0x20\n      mul\n      0x20\n      add\n      add\n        /* \"gelatoDemo.sol\":2349:2391  moduleData.modules[2] = Module.SINGLE_EXEC */\n      swap1\n      0x04\n      dup2\n      gt\n      iszero\n      tag_102\n      jumpi\n      tag_102\n      tag_90\n      jump\t// in\n    tag_102:\n      swap1\n      dup2\n      0x04\n      dup2\n      gt\n      iszero\n      tag_104\n      jumpi\n      tag_104\n      tag_90\n      jump\t// in\n    tag_104:\n      swap1\n      mstore\n      pop\n        /* \"gelatoDemo.sol\":2480:2570  _timeModuleArg(... */\n      tag_105\n        /* \"gelatoDemo.sol\":2508:2536  block.timestamp + timePeriod */\n      tag_106\n        /* \"gelatoDemo.sol\":2526:2536  timePeriod */\n      dup5\n        /* \"gelatoDemo.sol\":2508:2523  block.timestamp */\n      timestamp\n        /* \"gelatoDemo.sol\":2508:2536  block.timestamp + timePeriod */\n      tag_107\n      jump\t// in\n    tag_106:\n        /* \"interfaces/Gelato/AutomateTaskCreator.sol\":2084:2135  abi.encode(uint128(_startTime), uint128(_interval)) */\n      0x40\n      dup1\n      mload\n        /* \"#utility.yul\":3885:3919   */\n      0xffffffffffffffffffffffffffffffff\n        /* \"#utility.yul\":3946:3961   */\n      swap3\n      dup4\n      and\n        /* \"interfaces/Gelato/AutomateTaskCreator.sol\":2084:2135  abi.encode(uint128(_startTime), uint128(_interval)) */\n      0x20\n      dup3\n      add\n        /* \"#utility.yul\":3928:3962   */\n      mstore\n        /* \"#utility.yul\":3998:4013   */\n      swap2\n      dup7\n      and\n        /* \"#utility.yul\":3978:3996   */\n      dup3\n      dup3\n      add\n        /* \"#utility.yul\":3971:4014   */\n      mstore\n        /* \"interfaces/Gelato/AutomateTaskCreator.sol\":2084:2135  abi.encode(uint128(_startTime), uint128(_interval)) */\n      dup1\n      mload\n      dup1\n      dup4\n      sub\n      dup3\n      add\n      dup2\n      mstore\n        /* \"interfaces/Gelato/AutomateTaskCreator.sol\":2053:2065  bytes memory */\n      0x60\n        /* \"#utility.yul\":3848:3866   */\n      swap1\n      swap3\n      add\n        /* \"interfaces/Gelato/AutomateTaskCreator.sol\":2084:2135  abi.encode(uint128(_startTime), uint128(_interval)) */\n      swap1\n      mstore\n      swap1\n        /* \"interfaces/Gelato/AutomateTaskCreator.sol\":1945:2142  function _timeModuleArg(... */\n      jump\n        /* \"gelatoDemo.sol\":2480:2570  _timeModuleArg(... */\n    tag_105:\n        /* \"gelatoDemo.sol\":2459:2469  moduleData */\n      dup2\n        /* \"gelatoDemo.sol\":2459:2474  moduleData.args */\n      0x20\n      add\n      mload\n        /* \"gelatoDemo.sol\":2475:2476  0 */\n      0x00\n        /* \"gelatoDemo.sol\":2459:2477  moduleData.args[0] */\n      dup2\n      mload\n      dup2\n      lt\n      tag_110\n      jumpi\n      tag_110\n      tag_87\n      jump\t// in\n    tag_110:\n      0x20\n      mul\n      0x20\n      add\n      add\n        /* \"gelatoDemo.sol\":2459:2570  moduleData.args[0] = _timeModuleArg(... */\n      dup2\n      swap1\n      mstore\n      pop\n        /* \"gelatoDemo.sol\":2601:2618  _proxyModuleArg() */\n      tag_111\n        /* \"interfaces/Gelato/AutomateTaskCreator.sol\":2229:2238  bytes(\"\") */\n      0x40\n      dup1\n      mload\n      0x20\n      dup2\n      add\n      swap1\n      swap2\n      mstore\n      0x00\n      dup2\n      mstore\n      swap1\n        /* \"interfaces/Gelato/AutomateTaskCreator.sol\":2148:2245  function _proxyModuleArg() internal pure returns (bytes memory) {... */\n      jump\n        /* \"gelatoDemo.sol\":2601:2618  _proxyModuleArg() */\n    tag_111:\n        /* \"gelatoDemo.sol\":2580:2590  moduleData */\n      dup2\n        /* \"gelatoDemo.sol\":2580:2595  moduleData.args */\n      0x20\n      add\n      mload\n        /* \"gelatoDemo.sol\":2596:2597  1 */\n      0x01\n        /* \"gelatoDemo.sol\":2580:2598  moduleData.args[1] */\n      dup2\n      mload\n      dup2\n      lt\n      tag_114\n      jumpi\n      tag_114\n      tag_87\n      jump\t// in\n    tag_114:\n      0x20\n      mul\n      0x20\n      add\n      add\n        /* \"gelatoDemo.sol\":2580:2618  moduleData.args[1] = _proxyModuleArg() */\n      dup2\n      swap1\n      mstore\n      pop\n        /* \"gelatoDemo.sol\":2649:2671  _singleExecModuleArg() */\n      tag_115\n        /* \"interfaces/Gelato/AutomateTaskCreator.sol\":2229:2238  bytes(\"\") */\n      0x40\n      dup1\n      mload\n      0x20\n      dup2\n      add\n      swap1\n      swap2\n      mstore\n      0x00\n      dup2\n      mstore\n      swap1\n        /* \"interfaces/Gelato/AutomateTaskCreator.sol\":2148:2245  function _proxyModuleArg() internal pure returns (bytes memory) {... */\n      jump\n        /* \"gelatoDemo.sol\":2649:2671  _singleExecModuleArg() */\n    tag_115:\n        /* \"gelatoDemo.sol\":2628:2638  moduleData */\n      dup2\n        /* \"gelatoDemo.sol\":2628:2643  moduleData.args */\n      0x20\n      add\n      mload\n        /* \"gelatoDemo.sol\":2644:2645  2 */\n      0x02\n        /* \"gelatoDemo.sol\":2628:2646  moduleData.args[2] */\n      dup2\n      mload\n      dup2\n      lt\n      tag_118\n      jumpi\n      tag_118\n      tag_87\n      jump\t// in\n    tag_118:\n      0x20\n      mul\n      0x20\n      add\n      add\n        /* \"gelatoDemo.sol\":2628:2671  moduleData.args[2] = _singleExecModuleArg() */\n      dup2\n      swap1\n      mstore\n      pop\n        /* \"gelatoDemo.sol\":2691:2859  _createTask(... */\n      tag_119\n        /* \"gelatoDemo.sol\":2724:2728  this */\n      address\n        /* \"gelatoDemo.sol\":2754:2786  this.executeGelatoTask2.selector */\n      shl(0xe0, 0xa839bd0d)\n        /* \"gelatoDemo.sol\":2788:2800  _dcafOrderId */\n      dup7\n        /* \"gelatoDemo.sol\":2743:2801  abi.encode(this.executeGelatoTask2.selector, _dcafOrderId) */\n      add(0x20, mload(0x40))\n      tag_120\n      swap3\n      swap2\n      swap1\n      not(sub(shl(0xe0, 0x01), 0x01))\n        /* \"#utility.yul\":2777:2810   */\n      swap3\n      swap1\n      swap3\n      and\n        /* \"#utility.yul\":2759:2811   */\n      dup3\n      mstore\n        /* \"#utility.yul\":2842:2844   */\n      0x20\n        /* \"#utility.yul\":2827:2845   */\n      dup3\n      add\n        /* \"#utility.yul\":2820:2854   */\n      mstore\n        /* \"#utility.yul\":2747:2749   */\n      0x40\n        /* \"#utility.yul\":2732:2750   */\n      add\n      swap1\n        /* \"#utility.yul\":2587:2860   */\n      jump\n        /* \"gelatoDemo.sol\":2743:2801  abi.encode(this.executeGelatoTask2.selector, _dcafOrderId) */\n    tag_120:\n      mload(0x40)\n      0x20\n      dup2\n      dup4\n      sub\n      sub\n      dup2\n      mstore\n      swap1\n      0x40\n      mstore\n        /* \"gelatoDemo.sol\":2815:2825  moduleData */\n      dup4\n        /* \"gelatoDemo.sol\":2847:2848  0 */\n      0x00\n        /* \"gelatoDemo.sol\":2691:2702  _createTask */\n      tag_122\n        /* \"gelatoDemo.sol\":2691:2859  _createTask(... */\n      jump\t// in\n    tag_119:\n        /* \"gelatoDemo.sol\":2870:2877  task2Id */\n      0x01\n        /* \"gelatoDemo.sol\":2870:2886  task2Id = taskId */\n      dup2\n      swap1\n      sstore\n        /* \"gelatoDemo.sol\":2682:2859  taskId = _createTask(... */\n      swap5\n        /* \"gelatoDemo.sol\":1998:3028  function createTask2(... */\n      swap4\n      pop\n      pop\n      pop\n      pop\n      jump\t// out\n        /* \"gelatoDemo.sol\":754:846  function depositGelatoFees() external payable {... */\n    tag_30:\n        /* \"gelatoDemo.sol\":810:839  _depositFunds(msg.value, ETH) */\n      tag_124\n        /* \"gelatoDemo.sol\":824:833  msg.value */\n      callvalue\n        /* \"interfaces/Gelato/AutomateReady.sol\":569:611  0xEeeeeEeeeEeEeeEeEeEeeEEEeeeeEeeeeeeeEEeE */\n      0xeeeeeeeeeeeeeeeeeeeeeeeeeeeeeeeeeeeeeeee\n        /* \"gelatoDemo.sol\":810:823  _depositFunds */\n      tag_125\n        /* \"gelatoDemo.sol\":810:839  _depositFunds(msg.value, ETH) */\n      jump\t// in\n    tag_124:\n        /* \"gelatoDemo.sol\":754:846  function depositGelatoFees() external payable {... */\n      jump\t// out\n        /* \"gelatoDemo.sol\":878:995  function withdrawGealtoFees(uint256 _amount, address _token) external {... */\n    tag_40:\n        /* \"gelatoDemo.sol\":958:988  withdrawFunds(_amount, _token) */\n      tag_127\n        /* \"gelatoDemo.sol\":972:979  _amount */\n      dup3\n        /* \"gelatoDemo.sol\":981:987  _token */\n      dup3\n        /* \"gelatoDemo.sol\":958:971  withdrawFunds */\n      tag_128\n        /* \"gelatoDemo.sol\":958:988  withdrawFunds(_amount, _token) */\n      jump\t// in\n    tag_127:\n        /* \"gelatoDemo.sol\":878:995  function withdrawGealtoFees(uint256 _amount, address _token) external {... */\n      pop\n      pop\n      jump\t// out\n        /* \"gelatoDemo.sol\":511:612  function executeGelatoTask1() public {... */\n    tag_43:\n        /* \"gelatoDemo.sol\":563:605  task1Exectued(block.timestamp, msg.sender) */\n      0x40\n      dup1\n      mload\n        /* \"gelatoDemo.sol\":577:592  block.timestamp */\n      timestamp\n        /* \"#utility.yul\":3039:3064   */\n      dup2\n      mstore\n        /* \"gelatoDemo.sol\":594:604  msg.sender */\n      caller\n        /* \"#utility.yul\":3095:3097   */\n      0x20\n        /* \"#utility.yul\":3080:3098   */\n      dup3\n      add\n        /* \"#utility.yul\":3073:3133   */\n      mstore\n        /* \"gelatoDemo.sol\":563:605  task1Exectued(block.timestamp, msg.sender) */\n      0x44e785171b0487a668162e962ebb4bfb4009192db8d4a64e7fb1954cfb9c23be\n      swap2\n        /* \"#utility.yul\":3012:3030   */\n      add\n        /* \"gelatoDemo.sol\":563:605  task1Exectued(block.timestamp, msg.sender) */\n      mload(0x40)\n      dup1\n      swap2\n      sub\n      swap1\n      log1\n        /* \"gelatoDemo.sol\":511:612  function executeGelatoTask1() public {... */\n      jump\t// out\n        /* \"gelatoDemo.sol\":1001:1992  function createTask1(... */\n    tag_56:\n        /* \"gelatoDemo.sol\":1071:1085  bytes32 taskId */\n      0x00\n        /* \"gelatoDemo.sol\":1097:1125  ModuleData memory moduleData */\n      dup1\n        /* \"gelatoDemo.sol\":1128:1222  ModuleData({... */\n      mload(0x40)\n      dup1\n      0x40\n      add\n      0x40\n      mstore\n      dup1\n        /* \"gelatoDemo.sol\":1175:1176  2 */\n      0x02\n        /* \"gelatoDemo.sol\":1162:1177  new Module[](2) */\n      0xffffffffffffffff\n      dup2\n      gt\n      iszero\n      tag_134\n      jumpi\n      tag_134\n      tag_79\n      jump\t// in\n    tag_134:\n      mload(0x40)\n      swap1\n      dup1\n      dup3\n      mstore\n      dup1\n      0x20\n      mul\n      0x20\n      add\n      dup3\n      add\n      0x40\n      mstore\n      dup1\n      iszero\n      tag_135\n      jumpi\n      dup2\n      0x20\n      add\n      0x20\n      dup3\n      mul\n      dup1\n      calldatasize\n      dup4\n      calldatacopy\n      add\n      swap1\n      pop\n    tag_135:\n      pop\n        /* \"gelatoDemo.sol\":1128:1222  ModuleData({... */\n      dup2\n      mstore\n        /* \"gelatoDemo.sol\":1197:1211  new bytes[](2) */\n      0x40\n      dup1\n      mload\n        /* \"gelatoDemo.sol\":1209:1210  2 */\n      0x02\n        /* \"gelatoDemo.sol\":1197:1211  new bytes[](2) */\n      dup1\n      dup3\n      mstore\n      0x60\n      dup3\n      add\n      swap1\n      swap3\n      mstore\n        /* \"gelatoDemo.sol\":1128:1222  ModuleData({... */\n      0x20\n      swap1\n      swap3\n      add\n      swap2\n        /* \"gelatoDemo.sol\":1197:1211  new bytes[](2) */\n      swap1\n      dup2\n      0x20\n      add\n    tag_139:\n      0x60\n      dup2\n      mstore\n      0x20\n      add\n      swap1\n      0x01\n      swap1\n      sub\n      swap1\n      dup2\n      tag_139\n      jumpi\n      pop\n      pop\n        /* \"gelatoDemo.sol\":1128:1222  ModuleData({... */\n      swap1\n      mstore\n        /* \"gelatoDemo.sol\":1233:1251  moduleData.modules */\n      dup1\n      mload\n        /* \"gelatoDemo.sol\":1233:1254  moduleData.modules[0] */\n      dup1\n      mload\n        /* \"gelatoDemo.sol\":1097:1222  ModuleData memory moduleData = ModuleData({... */\n      swap2\n      swap3\n      pop\n        /* \"gelatoDemo.sol\":1257:1268  Module.TIME */\n      0x01\n      swap2\n        /* \"gelatoDemo.sol\":1233:1251  moduleData.modules */\n      0x00\n      swap1\n        /* \"gelatoDemo.sol\":1233:1254  moduleData.modules[0] */\n      tag_141\n      jumpi\n      tag_141\n      tag_87\n      jump\t// in\n    tag_141:\n      0x20\n      mul\n      0x20\n      add\n      add\n        /* \"gelatoDemo.sol\":1233:1268  moduleData.modules[0] = Module.TIME */\n      swap1\n      0x04\n      dup2\n      gt\n      iszero\n      tag_143\n      jumpi\n      tag_143\n      tag_90\n      jump\t// in\n    tag_143:\n      swap1\n      dup2\n      0x04\n      dup2\n      gt\n      iszero\n      tag_145\n      jumpi\n      tag_145\n      tag_90\n      jump\t// in\n    tag_145:\n      dup2\n      mstore\n      pop\n      pop\n        /* \"gelatoDemo.sol\":1302:1314  Module.PROXY */\n      0x02\n        /* \"gelatoDemo.sol\":1278:1288  moduleData */\n      dup2\n        /* \"gelatoDemo.sol\":1278:1296  moduleData.modules */\n      0x00\n      add\n      mload\n        /* \"gelatoDemo.sol\":1297:1298  1 */\n      0x01\n        /* \"gelatoDemo.sol\":1278:1299  moduleData.modules[1] */\n      dup2\n      mload\n      dup2\n      lt\n      tag_147\n      jumpi\n      tag_147\n      tag_87\n      jump\t// in\n    tag_147:\n      0x20\n      mul\n      0x20\n      add\n      add\n        /* \"gelatoDemo.sol\":1278:1314  moduleData.modules[1] = Module.PROXY */\n      swap1\n      0x04\n      dup2\n      gt\n      iszero\n      tag_149\n      jumpi\n      tag_149\n      tag_90\n      jump\t// in\n    tag_149:\n      swap1\n      dup2\n      0x04\n      dup2\n      gt\n      iszero\n      tag_151\n      jumpi\n      tag_151\n      tag_90\n      jump\t// in\n    tag_151:\n      swap1\n      mstore\n      pop\n        /* \"gelatoDemo.sol\":1458:1546  _timeModuleArg(... */\n      tag_152\n        /* \"gelatoDemo.sol\":1486:1513  block.timestamp + frequency */\n      tag_106\n        /* \"gelatoDemo.sol\":1504:1513  frequency */\n      dup5\n        /* \"gelatoDemo.sol\":1486:1501  block.timestamp */\n      timestamp\n        /* \"gelatoDemo.sol\":1486:1513  block.timestamp + frequency */\n      tag_107\n      jump\t// in\n        /* \"gelatoDemo.sol\":1458:1546  _timeModuleArg(... */\n    tag_152:\n        /* \"gelatoDemo.sol\":1437:1447  moduleData */\n      dup2\n        /* \"gelatoDemo.sol\":1437:1452  moduleData.args */\n      0x20\n      add\n      mload\n        /* \"gelatoDemo.sol\":1453:1454  0 */\n      0x00\n        /* \"gelatoDemo.sol\":1437:1455  moduleData.args[0] */\n      dup2\n      mload\n      dup2\n      lt\n      tag_155\n      jumpi\n      tag_155\n      tag_87\n      jump\t// in\n    tag_155:\n      0x20\n      mul\n      0x20\n      add\n      add\n        /* \"gelatoDemo.sol\":1437:1546  moduleData.args[0] = _timeModuleArg(... */\n      dup2\n      swap1\n      mstore\n      pop\n        /* \"gelatoDemo.sol\":1577:1594  _proxyModuleArg() */\n      tag_156\n        /* \"interfaces/Gelato/AutomateTaskCreator.sol\":2229:2238  bytes(\"\") */\n      0x40\n      dup1\n      mload\n      0x20\n      dup2\n      add\n      swap1\n      swap2\n      mstore\n      0x00\n      dup2\n      mstore\n      swap1\n        /* \"interfaces/Gelato/AutomateTaskCreator.sol\":2148:2245  function _proxyModuleArg() internal pure returns (bytes memory) {... */\n      jump\n        /* \"gelatoDemo.sol\":1577:1594  _proxyModuleArg() */\n    tag_156:\n        /* \"gelatoDemo.sol\":1556:1566  moduleData */\n      dup2\n        /* \"gelatoDemo.sol\":1556:1571  moduleData.args */\n      0x20\n      add\n      mload\n        /* \"gelatoDemo.sol\":1572:1573  1 */\n      0x01\n        /* \"gelatoDemo.sol\":1556:1574  moduleData.args[1] */\n      dup2\n      mload\n      dup2\n      lt\n      tag_158\n      jumpi\n      tag_158\n      tag_87\n      jump\t// in\n    tag_158:\n      0x20\n      mul\n      0x20\n      add\n      add\n        /* \"gelatoDemo.sol\":1556:1594  moduleData.args[1] = _proxyModuleArg() */\n      dup2\n      swap1\n      mstore\n      pop\n        /* \"gelatoDemo.sol\":1670:1824  _createTask(... */\n      tag_159\n        /* \"gelatoDemo.sol\":1703:1707  this */\n      address\n        /* \"gelatoDemo.sol\":1733:1765  this.executeGelatoTask1.selector */\n      shl(0xe0, 0x328e00f0)\n        /* \"gelatoDemo.sol\":1722:1766  abi.encode(this.executeGelatoTask1.selector) */\n      add(0x20, mload(0x40))\n      tag_120\n      swap2\n      swap1\n      not(sub(shl(0xe0, 0x01), 0x01))\n        /* \"#utility.yul\":3306:3339   */\n      swap2\n      swap1\n      swap2\n      and\n        /* \"#utility.yul\":3288:3340   */\n      dup2\n      mstore\n        /* \"#utility.yul\":3276:3278   */\n      0x20\n        /* \"#utility.yul\":3261:3279   */\n      add\n      swap1\n        /* \"#utility.yul\":3144:3346   */\n      jump\n        /* \"gelatoDemo.sol\":1670:1824  _createTask(... */\n    tag_159:\n        /* \"gelatoDemo.sol\":1835:1842  task1Id */\n      0x00\n        /* \"gelatoDemo.sol\":1835:1851  task1Id = taskId */\n      dup2\n      swap1\n      sstore\n        /* \"gelatoDemo.sol\":1661:1824  taskId = _createTask(... */\n      swap4\n        /* \"gelatoDemo.sol\":1001:1992  function createTask1(... */\n      swap3\n      pop\n      pop\n      pop\n      jump\t// out\n        /* \"gelatoDemo.sol\":618:748  function executeGelatoTask2(uint dcafOrderId) public {... */\n    tag_61:\n        /* \"gelatoDemo.sol\":686:741  task2Executed(dcafOrderId, block.timestamp, msg.sender) */\n      0x40\n      dup1\n      mload\n        /* \"#utility.yul\":3553:3578   */\n      dup3\n      dup2\n      mstore\n        /* \"gelatoDemo.sol\":713:728  block.timestamp */\n      timestamp\n        /* \"#utility.yul\":3609:3611   */\n      0x20\n        /* \"#utility.yul\":3594:3612   */\n      dup3\n      add\n        /* \"#utility.yul\":3587:3621   */\n      mstore\n        /* \"gelatoDemo.sol\":730:740  msg.sender */\n      caller\n        /* \"#utility.yul\":3637:3655   */\n      dup2\n      dup4\n      add\n        /* \"#utility.yul\":3630:3690   */\n      mstore\n        /* \"gelatoDemo.sol\":686:741  task2Executed(dcafOrderId, block.timestamp, msg.sender) */\n      swap1\n      mload\n      0x0d0af9d396036cb8b2901f1b984fdd38b64158f2ac21437ec8ff3c241d9611aa\n      swap2\n      dup2\n      swap1\n      sub\n        /* \"#utility.yul\":3541:3543   */\n      0x60\n        /* \"gelatoDemo.sol\":686:741  task2Executed(dcafOrderId, block.timestamp, msg.sender) */\n      add\n      swap1\n      log1\n        /* \"gelatoDemo.sol\":618:748  function executeGelatoTask2(uint dcafOrderId) public {... */\n      pop\n      jump\t// out\n        /* \"gelatoDemo.sol\":3034:3142  function cancelTask(bytes32 taskId) public {... */\n    tag_75:\n        /* \"gelatoDemo.sol\":3116:3135  _cancelTask(taskId) */\n      tag_166\n        /* \"gelatoDemo.sol\":3128:3134  taskId */\n      dup2\n        /* \"gelatoDemo.sol\":3116:3127  _cancelTask */\n      tag_167\n        /* \"gelatoDemo.sol\":3116:3135  _cancelTask(taskId) */\n      jump\t// in\n    tag_166:\n        /* \"gelatoDemo.sol\":3034:3142  function cancelTask(bytes32 taskId) public {... */\n      pop\n      jump\t// out\n        /* \"interfaces/Gelato/AutomateTaskCreator.sol\":1243:1627  function _createTask(... */\n    tag_122:\n        /* \"interfaces/Gelato/AutomateTaskCreator.sol\":1464:1620  automate.createTask(... */\n      mload(0x40)\n      shl(0xe0, 0x3323b467)\n      dup2\n      mstore\n        /* \"interfaces/Gelato/AutomateTaskCreator.sol\":1426:1433  bytes32 */\n      0x00\n      swap1\n      sub(shl(0xa0, 0x01), 0x01)\n        /* \"interfaces/Gelato/AutomateTaskCreator.sol\":1464:1472  automate */\n      immutable(\"0x674ac0d280fec980ad6630d1de8158121778271ec1e2754162ca3560b27f5c65\")\n        /* \"interfaces/Gelato/AutomateTaskCreator.sol\":1464:1483  automate.createTask */\n      and\n      swap1\n      0x3323b467\n      swap1\n        /* \"interfaces/Gelato/AutomateTaskCreator.sol\":1464:1620  automate.createTask(... */\n      tag_174\n      swap1\n        /* \"interfaces/Gelato/AutomateTaskCreator.sol\":1501:1513  _execAddress */\n      dup9\n      swap1\n        /* \"interfaces/Gelato/AutomateTaskCreator.sol\":1531:1550  _execDataOrSelector */\n      dup9\n      swap1\n        /* \"interfaces/Gelato/AutomateTaskCreator.sol\":1568:1579  _moduleData */\n      dup9\n      swap1\n        /* \"interfaces/Gelato/AutomateTaskCreator.sol\":1597:1606  _feeToken */\n      dup9\n      swap1\n        /* \"interfaces/Gelato/AutomateTaskCreator.sol\":1464:1620  automate.createTask(... */\n      0x04\n      add\n      tag_175\n      jump\t// in\n    tag_174:\n      0x20\n      mload(0x40)\n      dup1\n      dup4\n      sub\n      dup2\n      0x00\n      dup8\n      gas\n      call\n      iszero\n      dup1\n      iszero\n      tag_177\n      jumpi\n      returndatasize\n      0x00\n      dup1\n      returndatacopy\n      revert(0x00, returndatasize)\n    tag_177:\n      pop\n      pop\n      pop\n      pop\n      mload(0x40)\n      returndatasize\n      not(0x1f)\n      0x1f\n      dup3\n      add\n      and\n      dup3\n      add\n      dup1\n      0x40\n      mstore\n      pop\n      dup2\n      add\n      swap1\n      tag_178\n      swap2\n      swap1\n      tag_179\n      jump\t// in\n    tag_178:\n        /* \"interfaces/Gelato/AutomateTaskCreator.sol\":1445:1620  return... */\n      swap6\n        /* \"interfaces/Gelato/AutomateTaskCreator.sol\":1243:1627  function _createTask(... */\n      swap5\n      pop\n      pop\n      pop\n      pop\n      pop\n      jump\t// out\n        /* \"interfaces/Gelato/AutomateTaskCreator.sol\":979:1237  function _depositFunds(uint256 _amount, address _token) internal {... */\n    tag_125:\n        /* \"interfaces/Gelato/AutomateTaskCreator.sol\":1054:1070  uint256 ethValue */\n      0x00\n      sub(shl(0xa0, 0x01), 0x01)\n        /* \"interfaces/Gelato/AutomateTaskCreator.sol\":1073:1086  _token == ETH */\n      dup3\n      and\n        /* \"interfaces/Gelato/AutomateReady.sol\":569:611  0xEeeeeEeeeEeEeeEeEeEeeEEEeeeeEeeeeeeeEEeE */\n      0xeeeeeeeeeeeeeeeeeeeeeeeeeeeeeeeeeeeeeeee\n        /* \"interfaces/Gelato/AutomateTaskCreator.sol\":1073:1086  _token == ETH */\n      eq\n        /* \"interfaces/Gelato/AutomateTaskCreator.sol\":1073:1100  _token == ETH ? _amount : 0 */\n      tag_181\n      jumpi\n        /* \"interfaces/Gelato/AutomateTaskCreator.sol\":1099:1100  0 */\n      0x00\n        /* \"interfaces/Gelato/AutomateTaskCreator.sol\":1073:1100  _token == ETH ? _amount : 0 */\n      jump(tag_182)\n    tag_181:\n        /* \"interfaces/Gelato/AutomateTaskCreator.sol\":1089:1096  _amount */\n      dup3\n        /* \"interfaces/Gelato/AutomateTaskCreator.sol\":1073:1100  _token == ETH ? _amount : 0 */\n    tag_182:\n        /* \"interfaces/Gelato/AutomateTaskCreator.sol\":1110:1230  taskTreasury.depositFunds{value: ethValue}(... */\n      mload(0x40)\n      shl(0xe0, 0xc1461d57)\n      dup2\n      mstore\n        /* \"interfaces/Gelato/AutomateTaskCreator.sol\":1174:1178  this */\n      address\n        /* \"interfaces/Gelato/AutomateTaskCreator.sol\":1110:1230  taskTreasury.depositFunds{value: ethValue}(... */\n      0x04\n      dup3\n      add\n        /* \"#utility.yul\":6993:7027   */\n      mstore\n      sub(shl(0xa0, 0x01), 0x01)\n        /* \"#utility.yul\":7063:7078   */\n      dup5\n      dup2\n      and\n        /* \"#utility.yul\":7043:7061   */\n      0x24\n      dup4\n      add\n        /* \"#utility.yul\":7036:7079   */\n      mstore\n        /* \"#utility.yul\":7095:7113   */\n      0x44\n      dup3\n      add\n        /* \"#utility.yul\":7088:7122   */\n      dup7\n      swap1\n      mstore\n        /* \"interfaces/Gelato/AutomateTaskCreator.sol\":1054:1100  uint256 ethValue = _token == ETH ? _amount : 0 */\n      swap2\n      swap3\n      pop\n        /* \"interfaces/Gelato/AutomateTaskCreator.sol\":1110:1122  taskTreasury */\n      immutable(\"0x1a45ca7668f6fd690a47c068475ec89da9de3fdba185742769282510bfc3031f\")\n        /* \"interfaces/Gelato/AutomateTaskCreator.sol\":1110:1135  taskTreasury.depositFunds */\n      swap1\n      swap2\n      and\n      swap1\n      0xc1461d57\n      swap1\n        /* \"interfaces/Gelato/AutomateTaskCreator.sol\":1054:1100  uint256 ethValue = _token == ETH ? _amount : 0 */\n      dup4\n      swap1\n        /* \"#utility.yul\":6928:6946   */\n      0x64\n      add\n        /* \"interfaces/Gelato/AutomateTaskCreator.sol\":1110:1230  taskTreasury.depositFunds{value: ethValue}(... */\n      0x00\n      mload(0x40)\n      dup1\n      dup4\n      sub\n      dup2\n      dup6\n      dup9\n      dup1\n      extcodesize\n      iszero\n      dup1\n      iszero\n      tag_185\n      jumpi\n      0x00\n      dup1\n      revert\n    tag_185:\n      pop\n      gas\n      call\n      iszero\n      dup1\n      iszero\n      tag_187\n      jumpi\n      returndatasize\n      0x00\n      dup1\n      returndatacopy\n      revert(0x00, returndatasize)\n    tag_187:\n      pop\n      pop\n      pop\n      pop\n      pop\n        /* \"interfaces/Gelato/AutomateTaskCreator.sol\":1044:1237  {... */\n      pop\n        /* \"interfaces/Gelato/AutomateTaskCreator.sol\":979:1237  function _depositFunds(uint256 _amount, address _token) internal {... */\n      pop\n      pop\n      jump\t// out\n        /* \"interfaces/Gelato/AutomateTaskCreator.sol\":710:973  function withdrawFunds(uint256 _amount, address _token) internal {... */\n    tag_128:\n        /* \"interfaces/Gelato/AutomateTaskCreator.sol\":806:816  msg.sender */\n      caller\n      sub(shl(0xa0, 0x01), 0x01)\n        /* \"interfaces/Gelato/AutomateTaskCreator.sol\":820:830  fundsOwner */\n      immutable(\"0x6b4f1a89a3636d8ffaaa27fbe821abd36856ce6fc2f1e0168eaf0024b1cb717f\")\n        /* \"interfaces/Gelato/AutomateTaskCreator.sol\":806:830  msg.sender == fundsOwner */\n      and\n      eq\n        /* \"interfaces/Gelato/AutomateTaskCreator.sol\":785:891  require(... */\n      tag_189\n      jumpi\n      mload(0x40)\n      shl(0xe5, 0x461bcd)\n      dup2\n      mstore\n        /* \"#utility.yul\":7335:7337   */\n      0x20\n        /* \"interfaces/Gelato/AutomateTaskCreator.sol\":785:891  require(... */\n      0x04\n      dup3\n      add\n        /* \"#utility.yul\":7317:7338   */\n      mstore\n        /* \"#utility.yul\":7374:7376   */\n      0x23\n        /* \"#utility.yul\":7354:7372   */\n      0x24\n      dup3\n      add\n        /* \"#utility.yul\":7347:7377   */\n      mstore\n        /* \"#utility.yul\":7413:7447   */\n      0x4f6e6c792066756e6473206f776e65722063616e207769746864726177206675\n        /* \"#utility.yul\":7393:7411   */\n      0x44\n      dup3\n      add\n        /* \"#utility.yul\":7386:7448   */\n      mstore\n      shl(0xe8, 0x6e6473)\n        /* \"#utility.yul\":7464:7482   */\n      0x64\n      dup3\n      add\n        /* \"#utility.yul\":7457:7490   */\n      mstore\n        /* \"#utility.yul\":7507:7526   */\n      0x84\n      add\n        /* \"interfaces/Gelato/AutomateTaskCreator.sol\":785:891  require(... */\n      mload(0x40)\n      dup1\n      swap2\n      sub\n      swap1\n      revert\n    tag_189:\n        /* \"interfaces/Gelato/AutomateTaskCreator.sol\":902:966  taskTreasury.withdrawFunds(payable(fundsOwner), _token, _amount) */\n      mload(0x40)\n      shl(0xe0, 0x1c20fadd)\n      dup2\n      mstore\n      sub(shl(0xa0, 0x01), 0x01)\n        /* \"interfaces/Gelato/AutomateTaskCreator.sol\":937:947  fundsOwner */\n      immutable(\"0x6b4f1a89a3636d8ffaaa27fbe821abd36856ce6fc2f1e0168eaf0024b1cb717f\")\n        /* \"#utility.yul\":7011:7026   */\n      dup2\n      and\n        /* \"interfaces/Gelato/AutomateTaskCreator.sol\":902:966  taskTreasury.withdrawFunds(payable(fundsOwner), _token, _amount) */\n      0x04\n      dup4\n      add\n        /* \"#utility.yul\":6993:7027   */\n      mstore\n        /* \"#utility.yul\":7063:7078   */\n      dup3\n      dup2\n      and\n        /* \"#utility.yul\":7043:7061   */\n      0x24\n      dup4\n      add\n        /* \"#utility.yul\":7036:7079   */\n      mstore\n        /* \"#utility.yul\":7095:7113   */\n      0x44\n      dup3\n      add\n        /* \"#utility.yul\":7088:7122   */\n      dup5\n      swap1\n      mstore\n        /* \"interfaces/Gelato/AutomateTaskCreator.sol\":902:914  taskTreasury */\n      immutable(\"0x1a45ca7668f6fd690a47c068475ec89da9de3fdba185742769282510bfc3031f\")\n        /* \"interfaces/Gelato/AutomateTaskCreator.sol\":902:928  taskTreasury.withdrawFunds */\n      and\n      swap1\n      0x1c20fadd\n      swap1\n        /* \"#utility.yul\":6928:6946   */\n      0x64\n      add\n        /* \"interfaces/Gelato/AutomateTaskCreator.sol\":902:966  taskTreasury.withdrawFunds(payable(fundsOwner), _token, _amount) */\n      0x00\n      mload(0x40)\n      dup1\n      dup4\n      sub\n      dup2\n      0x00\n      dup8\n      dup1\n      extcodesize\n      iszero\n      dup1\n      iszero\n      tag_194\n      jumpi\n      0x00\n      dup1\n      revert\n    tag_194:\n      pop\n      gas\n      call\n      iszero\n      dup1\n      iszero\n      tag_196\n      jumpi\n      returndatasize\n      0x00\n      dup1\n      returndatacopy\n      revert(0x00, returndatasize)\n    tag_196:\n      pop\n      pop\n      pop\n      pop\n        /* \"interfaces/Gelato/AutomateTaskCreator.sol\":710:973  function withdrawFunds(uint256 _amount, address _token) internal {... */\n      pop\n      pop\n      jump\t// out\n        /* \"interfaces/Gelato/AutomateTaskCreator.sol\":1633:1725  function _cancelTask(bytes32 _taskId) internal {... */\n    tag_167:\n        /* \"interfaces/Gelato/AutomateTaskCreator.sol\":1690:1718  automate.cancelTask(_taskId) */\n      mload(0x40)\n      shl(0xe0, 0xee8ca3b5)\n      dup2\n      mstore\n      0x04\n      dup2\n      add\n        /* \"#utility.yul\":413:438   */\n      dup3\n      swap1\n      mstore\n        /* \"interfaces/Gelato/AutomateTaskCreator.sol\":1690:1698  automate */\n      immutable(\"0x674ac0d280fec980ad6630d1de8158121778271ec1e2754162ca3560b27f5c65\")\n      sub(shl(0xa0, 0x01), 0x01)\n        /* \"interfaces/Gelato/AutomateTaskCreator.sol\":1690:1709  automate.cancelTask */\n      and\n      swap1\n      0xee8ca3b5\n      swap1\n        /* \"#utility.yul\":386:404   */\n      0x24\n      add\n        /* \"interfaces/Gelato/AutomateTaskCreator.sol\":1690:1718  automate.cancelTask(_taskId) */\n      0x00\n      mload(0x40)\n      dup1\n      dup4\n      sub\n      dup2\n      0x00\n      dup8\n      dup1\n      extcodesize\n      iszero\n      dup1\n      iszero\n      tag_199\n      jumpi\n      0x00\n      dup1\n      revert\n    tag_199:\n      pop\n      gas\n      call\n      iszero\n      dup1\n      iszero\n      tag_201\n      jumpi\n      returndatasize\n      0x00\n      dup1\n      returndatacopy\n      revert(0x00, returndatasize)\n    tag_201:\n      pop\n      pop\n      pop\n      pop\n        /* \"interfaces/Gelato/AutomateTaskCreator.sol\":1633:1725  function _cancelTask(bytes32 _taskId) internal {... */\n      pop\n      jump\t// out\n        /* \"#utility.yul\":14:262   */\n    tag_20:\n        /* \"#utility.yul\":82:88   */\n      0x00\n        /* \"#utility.yul\":90:96   */\n      dup1\n        /* \"#utility.yul\":143:145   */\n      0x40\n        /* \"#utility.yul\":131:140   */\n      dup4\n        /* \"#utility.yul\":122:129   */\n      dup6\n        /* \"#utility.yul\":118:141   */\n      sub\n        /* \"#utility.yul\":114:146   */\n      slt\n        /* \"#utility.yul\":111:163   */\n      iszero\n      tag_207\n      jumpi\n        /* \"#utility.yul\":159:160   */\n      0x00\n        /* \"#utility.yul\":156:157   */\n      dup1\n        /* \"#utility.yul\":149:161   */\n      revert\n        /* \"#utility.yul\":111:163   */\n    tag_207:\n      pop\n      pop\n        /* \"#utility.yul\":182:205   */\n      dup1\n      calldataload\n      swap3\n        /* \"#utility.yul\":252:254   */\n      0x20\n        /* \"#utility.yul\":237:255   */\n      swap1\n      swap2\n      add\n        /* \"#utility.yul\":224:256   */\n      calldataload\n      swap2\n      pop\n        /* \"#utility.yul\":14:262   */\n      jump\t// out\n        /* \"#utility.yul\":992:1346   */\n    tag_39:\n        /* \"#utility.yul\":1060:1066   */\n      0x00\n        /* \"#utility.yul\":1068:1074   */\n      dup1\n        /* \"#utility.yul\":1121:1123   */\n      0x40\n        /* \"#utility.yul\":1109:1118   */\n      dup4\n        /* \"#utility.yul\":1100:1107   */\n      dup6\n        /* \"#utility.yul\":1096:1119   */\n      sub\n        /* \"#utility.yul\":1092:1124   */\n      slt\n        /* \"#utility.yul\":1089:1141   */\n      iszero\n      tag_213\n      jumpi\n        /* \"#utility.yul\":1137:1138   */\n      0x00\n        /* \"#utility.yul\":1134:1135   */\n      dup1\n        /* \"#utility.yul\":1127:1139   */\n      revert\n        /* \"#utility.yul\":1089:1141   */\n    tag_213:\n        /* \"#utility.yul\":1160:1183   */\n      dup3\n      calldataload\n      swap2\n      pop\n        /* \"#utility.yul\":1233:1235   */\n      0x20\n        /* \"#utility.yul\":1218:1236   */\n      dup4\n      add\n        /* \"#utility.yul\":1205:1237   */\n      calldataload\n      sub(shl(0xa0, 0x01), 0x01)\n        /* \"#utility.yul\":1266:1297   */\n      dup2\n      and\n        /* \"#utility.yul\":1256:1298   */\n      dup2\n      eq\n        /* \"#utility.yul\":1246:1316   */\n      tag_214\n      jumpi\n        /* \"#utility.yul\":1312:1313   */\n      0x00\n        /* \"#utility.yul\":1309:1310   */\n      dup1\n        /* \"#utility.yul\":1302:1314   */\n      revert\n        /* \"#utility.yul\":1246:1316   */\n    tag_214:\n        /* \"#utility.yul\":1335:1340   */\n      dup1\n        /* \"#utility.yul\":1325:1340   */\n      swap2\n      pop\n      pop\n        /* \"#utility.yul\":992:1346   */\n      swap3\n      pop\n      swap3\n      swap1\n      pop\n      jump\t// out\n        /* \"#utility.yul\":1351:1531   */\n    tag_55:\n        /* \"#utility.yul\":1410:1416   */\n      0x00\n        /* \"#utility.yul\":1463:1465   */\n      0x20\n        /* \"#utility.yul\":1451:1460   */\n      dup3\n        /* \"#utility.yul\":1442:1449   */\n      dup5\n        /* \"#utility.yul\":1438:1461   */\n      sub\n        /* \"#utility.yul\":1434:1466   */\n      slt\n        /* \"#utility.yul\":1431:1483   */\n      iszero\n      tag_216\n      jumpi\n        /* \"#utility.yul\":1479:1480   */\n      0x00\n        /* \"#utility.yul\":1476:1477   */\n      dup1\n        /* \"#utility.yul\":1469:1481   */\n      revert\n        /* \"#utility.yul\":1431:1483   */\n    tag_216:\n      pop\n        /* \"#utility.yul\":1502:1525   */\n      calldataload\n      swap2\n        /* \"#utility.yul\":1351:1531   */\n      swap1\n      pop\n      jump\t// out\n        /* \"#utility.yul\":1961:2088   */\n    tag_79:\n        /* \"#utility.yul\":2022:2032   */\n      0x4e487b71\n        /* \"#utility.yul\":2017:2020   */\n      0xe0\n        /* \"#utility.yul\":2013:2033   */\n      shl\n        /* \"#utility.yul\":2010:2011   */\n      0x00\n        /* \"#utility.yul\":2003:2034   */\n      mstore\n        /* \"#utility.yul\":2053:2057   */\n      0x41\n        /* \"#utility.yul\":2050:2051   */\n      0x04\n        /* \"#utility.yul\":2043:2058   */\n      mstore\n        /* \"#utility.yul\":2077:2081   */\n      0x24\n        /* \"#utility.yul\":2074:2075   */\n      0x00\n        /* \"#utility.yul\":2067:2082   */\n      revert\n        /* \"#utility.yul\":2093:2220   */\n    tag_87:\n        /* \"#utility.yul\":2154:2164   */\n      0x4e487b71\n        /* \"#utility.yul\":2149:2152   */\n      0xe0\n        /* \"#utility.yul\":2145:2165   */\n      shl\n        /* \"#utility.yul\":2142:2143   */\n      0x00\n        /* \"#utility.yul\":2135:2166   */\n      mstore\n        /* \"#utility.yul\":2185:2189   */\n      0x32\n        /* \"#utility.yul\":2182:2183   */\n      0x04\n        /* \"#utility.yul\":2175:2190   */\n      mstore\n        /* \"#utility.yul\":2209:2213   */\n      0x24\n        /* \"#utility.yul\":2206:2207   */\n      0x00\n        /* \"#utility.yul\":2199:2214   */\n      revert\n        /* \"#utility.yul\":2225:2352   */\n    tag_90:\n        /* \"#utility.yul\":2286:2296   */\n      0x4e487b71\n        /* \"#utility.yul\":2281:2284   */\n      0xe0\n        /* \"#utility.yul\":2277:2297   */\n      shl\n        /* \"#utility.yul\":2274:2275   */\n      0x00\n        /* \"#utility.yul\":2267:2298   */\n      mstore\n        /* \"#utility.yul\":2317:2321   */\n      0x21\n        /* \"#utility.yul\":2314:2315   */\n      0x04\n        /* \"#utility.yul\":2307:2322   */\n      mstore\n        /* \"#utility.yul\":2341:2345   */\n      0x24\n        /* \"#utility.yul\":2338:2339   */\n      0x00\n        /* \"#utility.yul\":2331:2346   */\n      revert\n        /* \"#utility.yul\":2357:2582   */\n    tag_107:\n        /* \"#utility.yul\":2397:2400   */\n      0x00\n        /* \"#utility.yul\":2428:2429   */\n      dup3\n        /* \"#utility.yul\":2424:2430   */\n      not\n        /* \"#utility.yul\":2421:2422   */\n      dup3\n        /* \"#utility.yul\":2418:2431   */\n      gt\n        /* \"#utility.yul\":2415:2551   */\n      iszero\n      tag_224\n      jumpi\n        /* \"#utility.yul\":2473:2483   */\n      0x4e487b71\n        /* \"#utility.yul\":2468:2471   */\n      0xe0\n        /* \"#utility.yul\":2464:2484   */\n      shl\n        /* \"#utility.yul\":2461:2462   */\n      0x00\n        /* \"#utility.yul\":2454:2485   */\n      mstore\n        /* \"#utility.yul\":2508:2512   */\n      0x11\n        /* \"#utility.yul\":2505:2506   */\n      0x04\n        /* \"#utility.yul\":2498:2513   */\n      mstore\n        /* \"#utility.yul\":2536:2540   */\n      0x24\n        /* \"#utility.yul\":2533:2534   */\n      0x00\n        /* \"#utility.yul\":2526:2541   */\n      revert\n        /* \"#utility.yul\":2415:2551   */\n    tag_224:\n      pop\n        /* \"#utility.yul\":2567:2576   */\n      add\n      swap1\n        /* \"#utility.yul\":2357:2582   */\n      jump\t// out\n        /* \"#utility.yul\":4025:4496   */\n    tag_203:\n        /* \"#utility.yul\":4066:4069   */\n      0x00\n        /* \"#utility.yul\":4104:4109   */\n      dup2\n        /* \"#utility.yul\":4098:4110   */\n      mload\n        /* \"#utility.yul\":4131:4137   */\n      dup1\n        /* \"#utility.yul\":4126:4129   */\n      dup5\n        /* \"#utility.yul\":4119:4138   */\n      mstore\n        /* \"#utility.yul\":4156:4157   */\n      0x00\n        /* \"#utility.yul\":4166:4328   */\n    tag_231:\n        /* \"#utility.yul\":4180:4186   */\n      dup2\n        /* \"#utility.yul\":4177:4178   */\n      dup2\n        /* \"#utility.yul\":4174:4187   */\n      lt\n        /* \"#utility.yul\":4166:4328   */\n      iszero\n      tag_233\n      jumpi\n        /* \"#utility.yul\":4242:4246   */\n      0x20\n        /* \"#utility.yul\":4298:4311   */\n      dup2\n      dup6\n      add\n        /* \"#utility.yul\":4294:4316   */\n      dup2\n      add\n        /* \"#utility.yul\":4288:4317   */\n      mload\n        /* \"#utility.yul\":4270:4281   */\n      dup7\n      dup4\n      add\n        /* \"#utility.yul\":4266:4286   */\n      dup3\n      add\n        /* \"#utility.yul\":4259:4318   */\n      mstore\n        /* \"#utility.yul\":4195:4207   */\n      add\n        /* \"#utility.yul\":4166:4328   */\n      jump(tag_231)\n    tag_233:\n        /* \"#utility.yul\":4346:4352   */\n      dup2\n        /* \"#utility.yul\":4343:4344   */\n      dup2\n        /* \"#utility.yul\":4340:4353   */\n      gt\n        /* \"#utility.yul\":4337:4424   */\n      iszero\n      tag_234\n      jumpi\n        /* \"#utility.yul\":4412:4413   */\n      0x00\n        /* \"#utility.yul\":4405:4409   */\n      0x20\n        /* \"#utility.yul\":4396:4402   */\n      dup4\n        /* \"#utility.yul\":4391:4394   */\n      dup8\n        /* \"#utility.yul\":4387:4403   */\n      add\n        /* \"#utility.yul\":4383:4410   */\n      add\n        /* \"#utility.yul\":4376:4414   */\n      mstore\n        /* \"#utility.yul\":4337:4424   */\n    tag_234:\n      pop\n        /* \"#utility.yul\":4478:4480   */\n      0x1f\n        /* \"#utility.yul\":4457:4472   */\n      add\n      not(0x1f)\n        /* \"#utility.yul\":4453:4482   */\n      and\n        /* \"#utility.yul\":4444:4483   */\n      swap3\n      swap1\n      swap3\n      add\n        /* \"#utility.yul\":4485:4489   */\n      0x20\n        /* \"#utility.yul\":4440:4490   */\n      add\n      swap3\n        /* \"#utility.yul\":4025:4496   */\n      swap2\n      pop\n      pop\n      jump\t// out\n        /* \"#utility.yul\":4501:5115   */\n    tag_204:\n        /* \"#utility.yul\":4552:4555   */\n      0x00\n        /* \"#utility.yul\":4590:4595   */\n      dup2\n        /* \"#utility.yul\":4584:4596   */\n      mload\n        /* \"#utility.yul\":4617:4623   */\n      dup1\n        /* \"#utility.yul\":4612:4615   */\n      dup5\n        /* \"#utility.yul\":4605:4624   */\n      mstore\n        /* \"#utility.yul\":4643:4647   */\n      0x20\n        /* \"#utility.yul\":4684:4686   */\n      dup1\n        /* \"#utility.yul\":4679:4682   */\n      dup6\n        /* \"#utility.yul\":4675:4687   */\n      add\n        /* \"#utility.yul\":4709:4720   */\n      dup1\n        /* \"#utility.yul\":4736:4747   */\n      dup2\n        /* \"#utility.yul\":4729:4747   */\n      swap7\n      pop\n        /* \"#utility.yul\":4786:4792   */\n      dup4\n        /* \"#utility.yul\":4783:4784   */\n      0x05\n        /* \"#utility.yul\":4779:4793   */\n      shl\n        /* \"#utility.yul\":4772:4777   */\n      dup2\n        /* \"#utility.yul\":4768:4794   */\n      add\n        /* \"#utility.yul\":4756:4794   */\n      swap2\n      pop\n        /* \"#utility.yul\":4828:4830   */\n      dup3\n        /* \"#utility.yul\":4821:4826   */\n      dup7\n        /* \"#utility.yul\":4817:4831   */\n      add\n        /* \"#utility.yul\":4849:4850   */\n      0x00\n        /* \"#utility.yul\":4859:5089   */\n    tag_236:\n        /* \"#utility.yul\":4873:4879   */\n      dup6\n        /* \"#utility.yul\":4870:4871   */\n      dup2\n        /* \"#utility.yul\":4867:4880   */\n      lt\n        /* \"#utility.yul\":4859:5089   */\n      iszero\n      tag_238\n      jumpi\n        /* \"#utility.yul\":4944:4949   */\n      dup3\n        /* \"#utility.yul\":4938:4942   */\n      dup5\n        /* \"#utility.yul\":4934:4950   */\n      sub\n        /* \"#utility.yul\":4929:4932   */\n      dup10\n        /* \"#utility.yul\":4922:4951   */\n      mstore\n        /* \"#utility.yul\":4972:5009   */\n      tag_239\n        /* \"#utility.yul\":5004:5008   */\n      dup5\n        /* \"#utility.yul\":4995:5001   */\n      dup4\n        /* \"#utility.yul\":4989:5002   */\n      mload\n        /* \"#utility.yul\":4972:5009   */\n      tag_203\n      jump\t// in\n    tag_239:\n        /* \"#utility.yul\":5067:5079   */\n      swap9\n      dup6\n      add\n      swap9\n        /* \"#utility.yul\":4964:5009   */\n      swap4\n      pop\n        /* \"#utility.yul\":5032:5047   */\n      swap1\n      dup5\n      add\n      swap1\n        /* \"#utility.yul\":4895:4896   */\n      0x01\n        /* \"#utility.yul\":4888:4897   */\n      add\n        /* \"#utility.yul\":4859:5089   */\n      jump(tag_236)\n    tag_238:\n      pop\n        /* \"#utility.yul\":5105:5109   */\n      swap2\n      swap8\n        /* \"#utility.yul\":4501:5115   */\n      swap7\n      pop\n      pop\n      pop\n      pop\n      pop\n      pop\n      pop\n      jump\t// out\n        /* \"#utility.yul\":5120:6559   */\n    tag_175:\n      sub(shl(0xa0, 0x01), 0x01)\n        /* \"#utility.yul\":5407:5439   */\n      dup6\n      and\n        /* \"#utility.yul\":5389:5440   */\n      dup2\n      mstore\n        /* \"#utility.yul\":5497:5500   */\n      0x80\n        /* \"#utility.yul\":5459:5461   */\n      0x20\n        /* \"#utility.yul\":5477:5495   */\n      dup1\n      dup4\n      add\n        /* \"#utility.yul\":5470:5501   */\n      dup3\n      swap1\n      mstore\n        /* \"#utility.yul\":5370:5374   */\n      0x00\n      swap2\n        /* \"#utility.yul\":5524:5569   */\n      tag_241\n      swap1\n        /* \"#utility.yul\":5549:5568   */\n      dup5\n      add\n        /* \"#utility.yul\":5541:5547   */\n      dup8\n        /* \"#utility.yul\":5524:5569   */\n      tag_203\n      jump\t// in\n    tag_241:\n        /* \"#utility.yul\":5605:5627   */\n      dup4\n      dup2\n      sub\n        /* \"#utility.yul\":5600:5602   */\n      0x40\n        /* \"#utility.yul\":5585:5603   */\n      dup1\n      dup7\n      add\n        /* \"#utility.yul\":5578:5628   */\n      swap2\n      swap1\n      swap2\n      mstore\n        /* \"#utility.yul\":5695:5708   */\n      dup7\n      mload\n        /* \"#utility.yul\":5717:5735   */\n      dup2\n      dup4\n      mstore\n        /* \"#utility.yul\":5784:5803   */\n      dup1\n      mload\n        /* \"#utility.yul\":5651:5666   */\n      swap2\n      dup4\n      add\n        /* \"#utility.yul\":5812:5834   */\n      dup3\n      swap1\n      mstore\n        /* \"#utility.yul\":5888:5909   */\n      dup4\n      add\n      swap1\n      0x00\n      swap1\n        /* \"#utility.yul\":5862:5864   */\n      0x60\n        /* \"#utility.yul\":5850:5865   */\n      dup5\n      add\n      swap1\n      dup3\n        /* \"#utility.yul\":5958:6331   */\n    tag_242:\n        /* \"#utility.yul\":5974:5980   */\n      dup2\n        /* \"#utility.yul\":5969:5972   */\n      dup2\n        /* \"#utility.yul\":5966:5981   */\n      lt\n        /* \"#utility.yul\":5958:6331   */\n      iszero\n      tag_244\n      jumpi\n        /* \"#utility.yul\":6043:6049   */\n      dup5\n        /* \"#utility.yul\":6037:6050   */\n      mload\n        /* \"#utility.yul\":6080:6081   */\n      0x05\n        /* \"#utility.yul\":6076:6078   */\n      dup2\n        /* \"#utility.yul\":6073:6082   */\n      lt\n        /* \"#utility.yul\":6063:6223   */\n      tag_245\n      jumpi\n      shl(0xe0, 0x4e487b71)\n        /* \"#utility.yul\":6114:6145   */\n      dup6\n      mstore\n        /* \"#utility.yul\":6172:6176   */\n      0x21\n        /* \"#utility.yul\":6169:6170   */\n      0x04\n        /* \"#utility.yul\":6162:6177   */\n      mstore\n        /* \"#utility.yul\":6204:6208   */\n      0x24\n        /* \"#utility.yul\":6121:6122   */\n      dup6\n        /* \"#utility.yul\":6194:6209   */\n      revert\n        /* \"#utility.yul\":6063:6223   */\n    tag_245:\n        /* \"#utility.yul\":6236:6251   */\n      dup4\n      mstore\n        /* \"#utility.yul\":6306:6321   */\n      swap4\n      dup7\n      add\n      swap4\n        /* \"#utility.yul\":6271:6283   */\n      swap2\n      dup7\n      add\n      swap2\n        /* \"#utility.yul\":6000:6001   */\n      0x01\n        /* \"#utility.yul\":5991:6002   */\n      add\n        /* \"#utility.yul\":5958:6331   */\n      jump(tag_242)\n    tag_244:\n        /* \"#utility.yul\":5962:5965   */\n      pop\n      pop\n        /* \"#utility.yul\":6380:6382   */\n      dup5\n        /* \"#utility.yul\":6372:6378   */\n      dup10\n        /* \"#utility.yul\":6368:6383   */\n      add\n        /* \"#utility.yul\":6362:6384   */\n      mload\n        /* \"#utility.yul\":6340:6384   */\n      swap3\n      pop\n        /* \"#utility.yul\":6426:6432   */\n      dup4\n        /* \"#utility.yul\":6421:6424   */\n      dup2\n        /* \"#utility.yul\":6417:6433   */\n      sub\n        /* \"#utility.yul\":6412:6414   */\n      dup6\n        /* \"#utility.yul\":6404:6410   */\n      dup6\n        /* \"#utility.yul\":6400:6415   */\n      add\n        /* \"#utility.yul\":6393:6434   */\n      mstore\n        /* \"#utility.yul\":6451:6498   */\n      tag_246\n        /* \"#utility.yul\":6494:6497   */\n      dup2\n        /* \"#utility.yul\":6478:6492   */\n      dup5\n        /* \"#utility.yul\":6451:6498   */\n      tag_204\n      jump\t// in\n    tag_246:\n        /* \"#utility.yul\":6443:6498   */\n      swap6\n      pop\n      pop\n      pop\n      pop\n      pop\n      pop\n        /* \"#utility.yul\":6507:6553   */\n      tag_178\n        /* \"#utility.yul\":6549:6551   */\n      0x60\n        /* \"#utility.yul\":6538:6547   */\n      dup4\n        /* \"#utility.yul\":6534:6552   */\n      add\n        /* \"#utility.yul\":6526:6532   */\n      dup5\n      sub(shl(0xa0, 0x01), 0x01)\n        /* \"#utility.yul\":741:772   */\n      and\n        /* \"#utility.yul\":729:773   */\n      swap1\n      mstore\n        /* \"#utility.yul\":675:779   */\n      jump\n        /* \"#utility.yul\":6564:6748   */\n    tag_179:\n        /* \"#utility.yul\":6634:6640   */\n      0x00\n        /* \"#utility.yul\":6687:6689   */\n      0x20\n        /* \"#utility.yul\":6675:6684   */\n      dup3\n        /* \"#utility.yul\":6666:6673   */\n      dup5\n        /* \"#utility.yul\":6662:6685   */\n      sub\n        /* \"#utility.yul\":6658:6690   */\n      slt\n        /* \"#utility.yul\":6655:6707   */\n      iszero\n      tag_249\n      jumpi\n        /* \"#utility.yul\":6703:6704   */\n      0x00\n        /* \"#utility.yul\":6700:6701   */\n      dup1\n        /* \"#utility.yul\":6693:6705   */\n      revert\n        /* \"#utility.yul\":6655:6707   */\n    tag_249:\n      pop\n        /* \"#utility.yul\":6726:6742   */\n      mload\n      swap2\n        /* \"#utility.yul\":6564:6748   */\n      swap1\n      pop\n      jump\t// out\n\n    auxdata: 0xa26469706673582212207f3e89bdb3077483fc1ca2a7111f8010b58ad74be29f77a660366d1f269db76c64736f6c634300080e0033\n}\n",
				"bytecode": {
					"linkReferences": {},
					"object": "6101206040523480156200001257600080fd5b5060405162001039380380620010398339810160408190526200003591620001ee565b81818130816001600160a01b03166080816001600160a01b031681525050816001600160a01b031663573ea5756040518163ffffffff1660e01b8152600401602060405180830381865afa15801562000092573d6000803e3d6000fd5b505050506040513d601f19601f82011682018060405250810190620000b891906200022d565b6001600160a01b0390811660c0526040516337b6269f60e21b8152908216600482015273c815db16d4be6ddf2685c201937905abf338f5d79063ded89a7c906024016040805180830381865afa15801562000117573d6000803e3d6000fd5b505050506040513d601f19601f820116820180604052508101906200013d919062000254565b506001600160a01b0390811660a05283811660e0526080516040805163e60a321360e01b8152905191909216935063e60a3213925060048083019260209291908290030181865afa15801562000197573d6000803e3d6000fd5b505050506040513d601f19601f82011682018060405250810190620001bd91906200022d565b6001600160a01b031661010052506200028c92505050565b6001600160a01b0381168114620001eb57600080fd5b50565b600080604083850312156200020257600080fd5b82516200020f81620001d5565b60208401519092506200022281620001d5565b809150509250929050565b6000602082840312156200024057600080fd5b81516200024d81620001d5565b9392505050565b600080604083850312156200026857600080fd5b82516200027581620001d5565b602084015190925080151581146200022257600080fd5b60805160a05160c05160e05161010051610d41620002f860003960008181610255015281816108a101526109dc0152600081816101e10152818161091101526109a5015260005050600061016201526000818161010c015281816107bc0152610a520152610d416000f3fe6080604052600436106100c25760003560e01c8063426c160e1161007f578063a839bd0d11610059578063a839bd0d14610223578063e60a321314610243578063ed1e0c9314610277578063ee8ca3b51461028d57600080fd5b8063426c160e146101b957806346ee3c59146101cf5780639b2ed6941461020357600080fd5b806302827bca146100c7578063049aacfe146100fa57806306c9c37d1461014657806328f150eb146101505780632b044b7314610184578063328e00f0146101a4575b600080fd5b3480156100d357600080fd5b506100e76100e2366004610ab9565b6102ad565b6040519081526020015b60405180910390f35b34801561010657600080fd5b5061012e7f000000000000000000000000000000000000000000000000000000000000000081565b6040516001600160a01b0390911681526020016100f1565b61014e610538565b005b34801561015c57600080fd5b5061012e7f000000000000000000000000000000000000000000000000000000000000000081565b34801561019057600080fd5b5061014e61019f366004610adb565b610558565b3480156101b057600080fd5b5061014e610566565b3480156101c557600080fd5b506100e760015481565b3480156101db57600080fd5b5061012e7f000000000000000000000000000000000000000000000000000000000000000081565b34801561020f57600080fd5b506100e761021e366004610b17565b6105a0565b34801561022f57600080fd5b5061014e61023e366004610b17565b610755565b34801561024f57600080fd5b5061012e7f000000000000000000000000000000000000000000000000000000000000000081565b34801561028357600080fd5b506100e760005481565b34801561029957600080fd5b5061014e6102a8366004610b17565b610796565b6000806040518060400160405280600367ffffffffffffffff8111156102d5576102d5610b30565b6040519080825280602002602001820160405280156102fe578160200160208202803683370190505b5081526040805160038082526080820190925260209092019190816020015b606081526020019060019003908161031d57505090528051805191925060019160009061034c5761034c610b46565b6020026020010190600481111561036557610365610b5c565b9081600481111561037857610378610b5c565b815250506002816000015160018151811061039557610395610b46565b602002602001019060048111156103ae576103ae610b5c565b908160048111156103c1576103c1610b5c565b81525050600381600001516002815181106103de576103de610b46565b602002602001019060048111156103f7576103f7610b5c565b9081600481111561040a5761040a610b5c565b90525061045161041a8442610b72565b604080516fffffffffffffffffffffffffffffffff9283166020820152918616828201528051808303820181526060909201905290565b816020015160008151811061046857610468610b46565b602002602001018190525061048860408051602081019091526000815290565b816020015160018151811061049f5761049f610b46565b60200260200101819052506104bf60408051602081019091526000815290565b81602001516002815181106104d6576104d6610b46565b602002602001018190525061052b3063a839bd0d60e01b866040516020016105149291906001600160e01b0319929092168252602082015260400190565b6040516020818303038152906040528360006107a2565b6001819055949350505050565b6105563473eeeeeeeeeeeeeeeeeeeeeeeeeeeeeeeeeeeeeeee610843565b565b6105628282610906565b5050565b604080514281523360208201527f44e785171b0487a668162e962ebb4bfb4009192db8d4a64e7fb1954cfb9c23be910160405180910390a1565b6000806040518060400160405280600267ffffffffffffffff8111156105c8576105c8610b30565b6040519080825280602002602001820160405280156105f1578160200160208202803683370190505b5081526040805160028082526060820190925260209092019190816020015b606081526020019060019003908161061057505090528051805191925060019160009061063f5761063f610b46565b6020026020010190600481111561065857610658610b5c565b9081600481111561066b5761066b610b5c565b815250506002816000015160018151811061068857610688610b46565b602002602001019060048111156106a1576106a1610b5c565b908160048111156106b4576106b4610b5c565b9052506106c461041a8442610b72565b81602001516000815181106106db576106db610b46565b60200260200101819052506106fb60408051602081019091526000815290565b816020015160018151811061071257610712610b46565b60200260200101819052506107493063328e00f060e01b60405160200161051491906001600160e01b031991909116815260200190565b60008190559392505050565b60408051828152426020820152338183015290517f0d0af9d396036cb8b2901f1b984fdd38b64158f2ac21437ec8ff3c241d9611aa9181900360600190a150565b61079f81610a3c565b50565b604051633323b46760e01b81526000906001600160a01b037f00000000000000000000000000000000000000000000000000000000000000001690633323b467906107f7908890889088908890600401610c3a565b6020604051808303816000875af1158015610816573d6000803e3d6000fd5b505050506040513d601f19601f8201168201806040525081019061083a9190610cf2565b95945050505050565b60006001600160a01b03821673eeeeeeeeeeeeeeeeeeeeeeeeeeeeeeeeeeeeeeee14610870576000610872565b825b60405163c1461d5760e01b81523060048201526001600160a01b038481166024830152604482018690529192507f00000000000000000000000000000000000000000000000000000000000000009091169063c1461d579083906064016000604051808303818588803b1580156108e857600080fd5b505af11580156108fc573d6000803e3d6000fd5b5050505050505050565b336001600160a01b037f0000000000000000000000000000000000000000000000000000000000000000161461098e5760405162461bcd60e51b815260206004820152602360248201527f4f6e6c792066756e6473206f776e65722063616e2077697468647261772066756044820152626e647360e81b606482015260840160405180910390fd5b604051631c20fadd60e01b81526001600160a01b037f0000000000000000000000000000000000000000000000000000000000000000811660048301528281166024830152604482018490527f00000000000000000000000000000000000000000000000000000000000000001690631c20fadd90606401600060405180830381600087803b158015610a2057600080fd5b505af1158015610a34573d6000803e3d6000fd5b505050505050565b60405163ee8ca3b560e01b8152600481018290527f00000000000000000000000000000000000000000000000000000000000000006001600160a01b03169063ee8ca3b590602401600060405180830381600087803b158015610a9e57600080fd5b505af1158015610ab2573d6000803e3d6000fd5b5050505050565b60008060408385031215610acc57600080fd5b50508035926020909101359150565b60008060408385031215610aee57600080fd5b8235915060208301356001600160a01b0381168114610b0c57600080fd5b809150509250929050565b600060208284031215610b2957600080fd5b5035919050565b634e487b7160e01b600052604160045260246000fd5b634e487b7160e01b600052603260045260246000fd5b634e487b7160e01b600052602160045260246000fd5b60008219821115610b9357634e487b7160e01b600052601160045260246000fd5b500190565b6000815180845260005b81811015610bbe57602081850181015186830182015201610ba2565b81811115610bd0576000602083870101525b50601f01601f19169290920160200192915050565b600081518084526020808501808196508360051b8101915082860160005b85811015610c2d578284038952610c1b848351610b98565b98850198935090840190600101610c03565b5091979650505050505050565b6001600160a01b038516815260806020808301829052600091610c5f90840187610b98565b838103604080860191909152865181835280519183018290528301906000906060840190825b81811015610cbd57845160058110610cab57634e487b7160e01b85526021600452602485fd5b83529386019391860191600101610c85565b505084890151925083810385850152610cd68184610be5565b9550505050505061083a60608301846001600160a01b03169052565b600060208284031215610d0457600080fd5b505191905056fea26469706673582212207f3e89bdb3077483fc1ca2a7111f8010b58ad74be29f77a660366d1f269db76c64736f6c634300080e0033",
					"opcodes": "PUSH2 0x120 PUSH1 0x40 MSTORE CALLVALUE DUP1 ISZERO PUSH3 0x12 JUMPI PUSH1 0x0 DUP1 REVERT JUMPDEST POP PUSH1 0x40 MLOAD PUSH3 0x1039 CODESIZE SUB DUP1 PUSH3 0x1039 DUP4 CODECOPY DUP2 ADD PUSH1 0x40 DUP2 SWAP1 MSTORE PUSH3 0x35 SWAP2 PUSH3 0x1EE JUMP JUMPDEST DUP2 DUP2 DUP2 ADDRESS DUP2 PUSH1 0x1 PUSH1 0x1 PUSH1 0xA0 SHL SUB AND PUSH1 0x80 DUP2 PUSH1 0x1 PUSH1 0x1 PUSH1 0xA0 SHL SUB AND DUP2 MSTORE POP POP DUP2 PUSH1 0x1 PUSH1 0x1 PUSH1 0xA0 SHL SUB AND PUSH4 0x573EA575 PUSH1 0x40 MLOAD DUP2 PUSH4 0xFFFFFFFF AND PUSH1 0xE0 SHL DUP2 MSTORE PUSH1 0x4 ADD PUSH1 0x20 PUSH1 0x40 MLOAD DUP1 DUP4 SUB DUP2 DUP7 GAS STATICCALL ISZERO DUP1 ISZERO PUSH3 0x92 JUMPI RETURNDATASIZE PUSH1 0x0 DUP1 RETURNDATACOPY RETURNDATASIZE PUSH1 0x0 REVERT JUMPDEST POP POP POP POP PUSH1 0x40 MLOAD RETURNDATASIZE PUSH1 0x1F NOT PUSH1 0x1F DUP3 ADD AND DUP3 ADD DUP1 PUSH1 0x40 MSTORE POP DUP2 ADD SWAP1 PUSH3 0xB8 SWAP2 SWAP1 PUSH3 0x22D JUMP JUMPDEST PUSH1 0x1 PUSH1 0x1 PUSH1 0xA0 SHL SUB SWAP1 DUP2 AND PUSH1 0xC0 MSTORE PUSH1 0x40 MLOAD PUSH4 0x37B6269F PUSH1 0xE2 SHL DUP2 MSTORE SWAP1 DUP3 AND PUSH1 0x4 DUP3 ADD MSTORE PUSH20 0xC815DB16D4BE6DDF2685C201937905ABF338F5D7 SWAP1 PUSH4 0xDED89A7C SWAP1 PUSH1 0x24 ADD PUSH1 0x40 DUP1 MLOAD DUP1 DUP4 SUB DUP2 DUP7 GAS STATICCALL ISZERO DUP1 ISZERO PUSH3 0x117 JUMPI RETURNDATASIZE PUSH1 0x0 DUP1 RETURNDATACOPY RETURNDATASIZE PUSH1 0x0 REVERT JUMPDEST POP POP POP POP PUSH1 0x40 MLOAD RETURNDATASIZE PUSH1 0x1F NOT PUSH1 0x1F DUP3 ADD AND DUP3 ADD DUP1 PUSH1 0x40 MSTORE POP DUP2 ADD SWAP1 PUSH3 0x13D SWAP2 SWAP1 PUSH3 0x254 JUMP JUMPDEST POP PUSH1 0x1 PUSH1 0x1 PUSH1 0xA0 SHL SUB SWAP1 DUP2 AND PUSH1 0xA0 MSTORE DUP4 DUP2 AND PUSH1 0xE0 MSTORE PUSH1 0x80 MLOAD PUSH1 0x40 DUP1 MLOAD PUSH4 0xE60A3213 PUSH1 0xE0 SHL DUP2 MSTORE SWAP1 MLOAD SWAP2 SWAP1 SWAP3 AND SWAP4 POP PUSH4 0xE60A3213 SWAP3 POP PUSH1 0x4 DUP1 DUP4 ADD SWAP3 PUSH1 0x20 SWAP3 SWAP2 SWAP1 DUP3 SWAP1 SUB ADD DUP2 DUP7 GAS STATICCALL ISZERO DUP1 ISZERO PUSH3 0x197 JUMPI RETURNDATASIZE PUSH1 0x0 DUP1 RETURNDATACOPY RETURNDATASIZE PUSH1 0x0 REVERT JUMPDEST POP POP POP POP PUSH1 0x40 MLOAD RETURNDATASIZE PUSH1 0x1F NOT PUSH1 0x1F DUP3 ADD AND DUP3 ADD DUP1 PUSH1 0x40 MSTORE POP DUP2 ADD SWAP1 PUSH3 0x1BD SWAP2 SWAP1 PUSH3 0x22D JUMP JUMPDEST PUSH1 0x1 PUSH1 0x1 PUSH1 0xA0 SHL SUB AND PUSH2 0x100 MSTORE POP PUSH3 0x28C SWAP3 POP POP POP JUMP JUMPDEST PUSH1 0x1 PUSH1 0x1 PUSH1 0xA0 SHL SUB DUP2 AND DUP2 EQ PUSH3 0x1EB JUMPI PUSH1 0x0 DUP1 REVERT JUMPDEST POP JUMP JUMPDEST PUSH1 0x0 DUP1 PUSH1 0x40 DUP4 DUP6 SUB SLT ISZERO PUSH3 0x202 JUMPI PUSH1 0x0 DUP1 REVERT JUMPDEST DUP3 MLOAD PUSH3 0x20F DUP2 PUSH3 0x1D5 JUMP JUMPDEST PUSH1 0x20 DUP5 ADD MLOAD SWAP1 SWAP3 POP PUSH3 0x222 DUP2 PUSH3 0x1D5 JUMP JUMPDEST DUP1 SWAP2 POP POP SWAP3 POP SWAP3 SWAP1 POP JUMP JUMPDEST PUSH1 0x0 PUSH1 0x20 DUP3 DUP5 SUB SLT ISZERO PUSH3 0x240 JUMPI PUSH1 0x0 DUP1 REVERT JUMPDEST DUP2 MLOAD PUSH3 0x24D DUP2 PUSH3 0x1D5 JUMP JUMPDEST SWAP4 SWAP3 POP POP POP JUMP JUMPDEST PUSH1 0x0 DUP1 PUSH1 0x40 DUP4 DUP6 SUB SLT ISZERO PUSH3 0x268 JUMPI PUSH1 0x0 DUP1 REVERT JUMPDEST DUP3 MLOAD PUSH3 0x275 DUP2 PUSH3 0x1D5 JUMP JUMPDEST PUSH1 0x20 DUP5 ADD MLOAD SWAP1 SWAP3 POP DUP1 ISZERO ISZERO DUP2 EQ PUSH3 0x222 JUMPI PUSH1 0x0 DUP1 REVERT JUMPDEST PUSH1 0x80 MLOAD PUSH1 0xA0 MLOAD PUSH1 0xC0 MLOAD PUSH1 0xE0 MLOAD PUSH2 0x100 MLOAD PUSH2 0xD41 PUSH3 0x2F8 PUSH1 0x0 CODECOPY PUSH1 0x0 DUP2 DUP2 PUSH2 0x255 ADD MSTORE DUP2 DUP2 PUSH2 0x8A1 ADD MSTORE PUSH2 0x9DC ADD MSTORE PUSH1 0x0 DUP2 DUP2 PUSH2 0x1E1 ADD MSTORE DUP2 DUP2 PUSH2 0x911 ADD MSTORE PUSH2 0x9A5 ADD MSTORE PUSH1 0x0 POP POP PUSH1 0x0 PUSH2 0x162 ADD MSTORE PUSH1 0x0 DUP2 DUP2 PUSH2 0x10C ADD MSTORE DUP2 DUP2 PUSH2 0x7BC ADD MSTORE PUSH2 0xA52 ADD MSTORE PUSH2 0xD41 PUSH1 0x0 RETURN INVALID PUSH1 0x80 PUSH1 0x40 MSTORE PUSH1 0x4 CALLDATASIZE LT PUSH2 0xC2 JUMPI PUSH1 0x0 CALLDATALOAD PUSH1 0xE0 SHR DUP1 PUSH4 0x426C160E GT PUSH2 0x7F JUMPI DUP1 PUSH4 0xA839BD0D GT PUSH2 0x59 JUMPI DUP1 PUSH4 0xA839BD0D EQ PUSH2 0x223 JUMPI DUP1 PUSH4 0xE60A3213 EQ PUSH2 0x243 JUMPI DUP1 PUSH4 0xED1E0C93 EQ PUSH2 0x277 JUMPI DUP1 PUSH4 0xEE8CA3B5 EQ PUSH2 0x28D JUMPI PUSH1 0x0 DUP1 REVERT JUMPDEST DUP1 PUSH4 0x426C160E EQ PUSH2 0x1B9 JUMPI DUP1 PUSH4 0x46EE3C59 EQ PUSH2 0x1CF JUMPI DUP1 PUSH4 0x9B2ED694 EQ PUSH2 0x203 JUMPI PUSH1 0x0 DUP1 REVERT JUMPDEST DUP1 PUSH4 0x2827BCA EQ PUSH2 0xC7 JUMPI DUP1 PUSH4 0x49AACFE EQ PUSH2 0xFA JUMPI DUP1 PUSH4 0x6C9C37D EQ PUSH2 0x146 JUMPI DUP1 PUSH4 0x28F150EB EQ PUSH2 0x150 JUMPI DUP1 PUSH4 0x2B044B73 EQ PUSH2 0x184 JUMPI DUP1 PUSH4 0x328E00F0 EQ PUSH2 0x1A4 JUMPI JUMPDEST PUSH1 0x0 DUP1 REVERT JUMPDEST CALLVALUE DUP1 ISZERO PUSH2 0xD3 JUMPI PUSH1 0x0 DUP1 REVERT JUMPDEST POP PUSH2 0xE7 PUSH2 0xE2 CALLDATASIZE PUSH1 0x4 PUSH2 0xAB9 JUMP JUMPDEST PUSH2 0x2AD JUMP JUMPDEST PUSH1 0x40 MLOAD SWAP1 DUP2 MSTORE PUSH1 0x20 ADD JUMPDEST PUSH1 0x40 MLOAD DUP1 SWAP2 SUB SWAP1 RETURN JUMPDEST CALLVALUE DUP1 ISZERO PUSH2 0x106 JUMPI PUSH1 0x0 DUP1 REVERT JUMPDEST POP PUSH2 0x12E PUSH32 0x0 DUP2 JUMP JUMPDEST PUSH1 0x40 MLOAD PUSH1 0x1 PUSH1 0x1 PUSH1 0xA0 SHL SUB SWAP1 SWAP2 AND DUP2 MSTORE PUSH1 0x20 ADD PUSH2 0xF1 JUMP JUMPDEST PUSH2 0x14E PUSH2 0x538 JUMP JUMPDEST STOP JUMPDEST CALLVALUE DUP1 ISZERO PUSH2 0x15C JUMPI PUSH1 0x0 DUP1 REVERT JUMPDEST POP PUSH2 0x12E PUSH32 0x0 DUP2 JUMP JUMPDEST CALLVALUE DUP1 ISZERO PUSH2 0x190 JUMPI PUSH1 0x0 DUP1 REVERT JUMPDEST POP PUSH2 0x14E PUSH2 0x19F CALLDATASIZE PUSH1 0x4 PUSH2 0xADB JUMP JUMPDEST PUSH2 0x558 JUMP JUMPDEST CALLVALUE DUP1 ISZERO PUSH2 0x1B0 JUMPI PUSH1 0x0 DUP1 REVERT JUMPDEST POP PUSH2 0x14E PUSH2 0x566 JUMP JUMPDEST CALLVALUE DUP1 ISZERO PUSH2 0x1C5 JUMPI PUSH1 0x0 DUP1 REVERT JUMPDEST POP PUSH2 0xE7 PUSH1 0x1 SLOAD DUP2 JUMP JUMPDEST CALLVALUE DUP1 ISZERO PUSH2 0x1DB JUMPI PUSH1 0x0 DUP1 REVERT JUMPDEST POP PUSH2 0x12E PUSH32 0x0 DUP2 JUMP JUMPDEST CALLVALUE DUP1 ISZERO PUSH2 0x20F JUMPI PUSH1 0x0 DUP1 REVERT JUMPDEST POP PUSH2 0xE7 PUSH2 0x21E CALLDATASIZE PUSH1 0x4 PUSH2 0xB17 JUMP JUMPDEST PUSH2 0x5A0 JUMP JUMPDEST CALLVALUE DUP1 ISZERO PUSH2 0x22F JUMPI PUSH1 0x0 DUP1 REVERT JUMPDEST POP PUSH2 0x14E PUSH2 0x23E CALLDATASIZE PUSH1 0x4 PUSH2 0xB17 JUMP JUMPDEST PUSH2 0x755 JUMP JUMPDEST CALLVALUE DUP1 ISZERO PUSH2 0x24F JUMPI PUSH1 0x0 DUP1 REVERT JUMPDEST POP PUSH2 0x12E PUSH32 0x0 DUP2 JUMP JUMPDEST CALLVALUE DUP1 ISZERO PUSH2 0x283 JUMPI PUSH1 0x0 DUP1 REVERT JUMPDEST POP PUSH2 0xE7 PUSH1 0x0 SLOAD DUP2 JUMP JUMPDEST CALLVALUE DUP1 ISZERO PUSH2 0x299 JUMPI PUSH1 0x0 DUP1 REVERT JUMPDEST POP PUSH2 0x14E PUSH2 0x2A8 CALLDATASIZE PUSH1 0x4 PUSH2 0xB17 JUMP JUMPDEST PUSH2 0x796 JUMP JUMPDEST PUSH1 0x0 DUP1 PUSH1 0x40 MLOAD DUP1 PUSH1 0x40 ADD PUSH1 0x40 MSTORE DUP1 PUSH1 0x3 PUSH8 0xFFFFFFFFFFFFFFFF DUP2 GT ISZERO PUSH2 0x2D5 JUMPI PUSH2 0x2D5 PUSH2 0xB30 JUMP JUMPDEST PUSH1 0x40 MLOAD SWAP1 DUP1 DUP3 MSTORE DUP1 PUSH1 0x20 MUL PUSH1 0x20 ADD DUP3 ADD PUSH1 0x40 MSTORE DUP1 ISZERO PUSH2 0x2FE JUMPI DUP2 PUSH1 0x20 ADD PUSH1 0x20 DUP3 MUL DUP1 CALLDATASIZE DUP4 CALLDATACOPY ADD SWAP1 POP JUMPDEST POP DUP2 MSTORE PUSH1 0x40 DUP1 MLOAD PUSH1 0x3 DUP1 DUP3 MSTORE PUSH1 0x80 DUP3 ADD SWAP1 SWAP3 MSTORE PUSH1 0x20 SWAP1 SWAP3 ADD SWAP2 SWAP1 DUP2 PUSH1 0x20 ADD JUMPDEST PUSH1 0x60 DUP2 MSTORE PUSH1 0x20 ADD SWAP1 PUSH1 0x1 SWAP1 SUB SWAP1 DUP2 PUSH2 0x31D JUMPI POP POP SWAP1 MSTORE DUP1 MLOAD DUP1 MLOAD SWAP2 SWAP3 POP PUSH1 0x1 SWAP2 PUSH1 0x0 SWAP1 PUSH2 0x34C JUMPI PUSH2 0x34C PUSH2 0xB46 JUMP JUMPDEST PUSH1 0x20 MUL PUSH1 0x20 ADD ADD SWAP1 PUSH1 0x4 DUP2 GT ISZERO PUSH2 0x365 JUMPI PUSH2 0x365 PUSH2 0xB5C JUMP JUMPDEST SWAP1 DUP2 PUSH1 0x4 DUP2 GT ISZERO PUSH2 0x378 JUMPI PUSH2 0x378 PUSH2 0xB5C JUMP JUMPDEST DUP2 MSTORE POP POP PUSH1 0x2 DUP2 PUSH1 0x0 ADD MLOAD PUSH1 0x1 DUP2 MLOAD DUP2 LT PUSH2 0x395 JUMPI PUSH2 0x395 PUSH2 0xB46 JUMP JUMPDEST PUSH1 0x20 MUL PUSH1 0x20 ADD ADD SWAP1 PUSH1 0x4 DUP2 GT ISZERO PUSH2 0x3AE JUMPI PUSH2 0x3AE PUSH2 0xB5C JUMP JUMPDEST SWAP1 DUP2 PUSH1 0x4 DUP2 GT ISZERO PUSH2 0x3C1 JUMPI PUSH2 0x3C1 PUSH2 0xB5C JUMP JUMPDEST DUP2 MSTORE POP POP PUSH1 0x3 DUP2 PUSH1 0x0 ADD MLOAD PUSH1 0x2 DUP2 MLOAD DUP2 LT PUSH2 0x3DE JUMPI PUSH2 0x3DE PUSH2 0xB46 JUMP JUMPDEST PUSH1 0x20 MUL PUSH1 0x20 ADD ADD SWAP1 PUSH1 0x4 DUP2 GT ISZERO PUSH2 0x3F7 JUMPI PUSH2 0x3F7 PUSH2 0xB5C JUMP JUMPDEST SWAP1 DUP2 PUSH1 0x4 DUP2 GT ISZERO PUSH2 0x40A JUMPI PUSH2 0x40A PUSH2 0xB5C JUMP JUMPDEST SWAP1 MSTORE POP PUSH2 0x451 PUSH2 0x41A DUP5 TIMESTAMP PUSH2 0xB72 JUMP JUMPDEST PUSH1 0x40 DUP1 MLOAD PUSH16 0xFFFFFFFFFFFFFFFFFFFFFFFFFFFFFFFF SWAP3 DUP4 AND PUSH1 0x20 DUP3 ADD MSTORE SWAP2 DUP7 AND DUP3 DUP3 ADD MSTORE DUP1 MLOAD DUP1 DUP4 SUB DUP3 ADD DUP2 MSTORE PUSH1 0x60 SWAP1 SWAP3 ADD SWAP1 MSTORE SWAP1 JUMP JUMPDEST DUP2 PUSH1 0x20 ADD MLOAD PUSH1 0x0 DUP2 MLOAD DUP2 LT PUSH2 0x468 JUMPI PUSH2 0x468 PUSH2 0xB46 JUMP JUMPDEST PUSH1 0x20 MUL PUSH1 0x20 ADD ADD DUP2 SWAP1 MSTORE POP PUSH2 0x488 PUSH1 0x40 DUP1 MLOAD PUSH1 0x20 DUP2 ADD SWAP1 SWAP2 MSTORE PUSH1 0x0 DUP2 MSTORE SWAP1 JUMP JUMPDEST DUP2 PUSH1 0x20 ADD MLOAD PUSH1 0x1 DUP2 MLOAD DUP2 LT PUSH2 0x49F JUMPI PUSH2 0x49F PUSH2 0xB46 JUMP JUMPDEST PUSH1 0x20 MUL PUSH1 0x20 ADD ADD DUP2 SWAP1 MSTORE POP PUSH2 0x4BF PUSH1 0x40 DUP1 MLOAD PUSH1 0x20 DUP2 ADD SWAP1 SWAP2 MSTORE PUSH1 0x0 DUP2 MSTORE SWAP1 JUMP JUMPDEST DUP2 PUSH1 0x20 ADD MLOAD PUSH1 0x2 DUP2 MLOAD DUP2 LT PUSH2 0x4D6 JUMPI PUSH2 0x4D6 PUSH2 0xB46 JUMP JUMPDEST PUSH1 0x20 MUL PUSH1 0x20 ADD ADD DUP2 SWAP1 MSTORE POP PUSH2 0x52B ADDRESS PUSH4 0xA839BD0D PUSH1 0xE0 SHL DUP7 PUSH1 0x40 MLOAD PUSH1 0x20 ADD PUSH2 0x514 SWAP3 SWAP2 SWAP1 PUSH1 0x1 PUSH1 0x1 PUSH1 0xE0 SHL SUB NOT SWAP3 SWAP1 SWAP3 AND DUP3 MSTORE PUSH1 0x20 DUP3 ADD MSTORE PUSH1 0x40 ADD SWAP1 JUMP JUMPDEST PUSH1 0x40 MLOAD PUSH1 0x20 DUP2 DUP4 SUB SUB DUP2 MSTORE SWAP1 PUSH1 0x40 MSTORE DUP4 PUSH1 0x0 PUSH2 0x7A2 JUMP JUMPDEST PUSH1 0x1 DUP2 SWAP1 SSTORE SWAP5 SWAP4 POP POP POP POP JUMP JUMPDEST PUSH2 0x556 CALLVALUE PUSH20 0xEEEEEEEEEEEEEEEEEEEEEEEEEEEEEEEEEEEEEEEE PUSH2 0x843 JUMP JUMPDEST JUMP JUMPDEST PUSH2 0x562 DUP3 DUP3 PUSH2 0x906 JUMP JUMPDEST POP POP JUMP JUMPDEST PUSH1 0x40 DUP1 MLOAD TIMESTAMP DUP2 MSTORE CALLER PUSH1 0x20 DUP3 ADD MSTORE PUSH32 0x44E785171B0487A668162E962EBB4BFB4009192DB8D4A64E7FB1954CFB9C23BE SWAP2 ADD PUSH1 0x40 MLOAD DUP1 SWAP2 SUB SWAP1 LOG1 JUMP JUMPDEST PUSH1 0x0 DUP1 PUSH1 0x40 MLOAD DUP1 PUSH1 0x40 ADD PUSH1 0x40 MSTORE DUP1 PUSH1 0x2 PUSH8 0xFFFFFFFFFFFFFFFF DUP2 GT ISZERO PUSH2 0x5C8 JUMPI PUSH2 0x5C8 PUSH2 0xB30 JUMP JUMPDEST PUSH1 0x40 MLOAD SWAP1 DUP1 DUP3 MSTORE DUP1 PUSH1 0x20 MUL PUSH1 0x20 ADD DUP3 ADD PUSH1 0x40 MSTORE DUP1 ISZERO PUSH2 0x5F1 JUMPI DUP2 PUSH1 0x20 ADD PUSH1 0x20 DUP3 MUL DUP1 CALLDATASIZE DUP4 CALLDATACOPY ADD SWAP1 POP JUMPDEST POP DUP2 MSTORE PUSH1 0x40 DUP1 MLOAD PUSH1 0x2 DUP1 DUP3 MSTORE PUSH1 0x60 DUP3 ADD SWAP1 SWAP3 MSTORE PUSH1 0x20 SWAP1 SWAP3 ADD SWAP2 SWAP1 DUP2 PUSH1 0x20 ADD JUMPDEST PUSH1 0x60 DUP2 MSTORE PUSH1 0x20 ADD SWAP1 PUSH1 0x1 SWAP1 SUB SWAP1 DUP2 PUSH2 0x610 JUMPI POP POP SWAP1 MSTORE DUP1 MLOAD DUP1 MLOAD SWAP2 SWAP3 POP PUSH1 0x1 SWAP2 PUSH1 0x0 SWAP1 PUSH2 0x63F JUMPI PUSH2 0x63F PUSH2 0xB46 JUMP JUMPDEST PUSH1 0x20 MUL PUSH1 0x20 ADD ADD SWAP1 PUSH1 0x4 DUP2 GT ISZERO PUSH2 0x658 JUMPI PUSH2 0x658 PUSH2 0xB5C JUMP JUMPDEST SWAP1 DUP2 PUSH1 0x4 DUP2 GT ISZERO PUSH2 0x66B JUMPI PUSH2 0x66B PUSH2 0xB5C JUMP JUMPDEST DUP2 MSTORE POP POP PUSH1 0x2 DUP2 PUSH1 0x0 ADD MLOAD PUSH1 0x1 DUP2 MLOAD DUP2 LT PUSH2 0x688 JUMPI PUSH2 0x688 PUSH2 0xB46 JUMP JUMPDEST PUSH1 0x20 MUL PUSH1 0x20 ADD ADD SWAP1 PUSH1 0x4 DUP2 GT ISZERO PUSH2 0x6A1 JUMPI PUSH2 0x6A1 PUSH2 0xB5C JUMP JUMPDEST SWAP1 DUP2 PUSH1 0x4 DUP2 GT ISZERO PUSH2 0x6B4 JUMPI PUSH2 0x6B4 PUSH2 0xB5C JUMP JUMPDEST SWAP1 MSTORE POP PUSH2 0x6C4 PUSH2 0x41A DUP5 TIMESTAMP PUSH2 0xB72 JUMP JUMPDEST DUP2 PUSH1 0x20 ADD MLOAD PUSH1 0x0 DUP2 MLOAD DUP2 LT PUSH2 0x6DB JUMPI PUSH2 0x6DB PUSH2 0xB46 JUMP JUMPDEST PUSH1 0x20 MUL PUSH1 0x20 ADD ADD DUP2 SWAP1 MSTORE POP PUSH2 0x6FB PUSH1 0x40 DUP1 MLOAD PUSH1 0x20 DUP2 ADD SWAP1 SWAP2 MSTORE PUSH1 0x0 DUP2 MSTORE SWAP1 JUMP JUMPDEST DUP2 PUSH1 0x20 ADD MLOAD PUSH1 0x1 DUP2 MLOAD DUP2 LT PUSH2 0x712 JUMPI PUSH2 0x712 PUSH2 0xB46 JUMP JUMPDEST PUSH1 0x20 MUL PUSH1 0x20 ADD ADD DUP2 SWAP1 MSTORE POP PUSH2 0x749 ADDRESS PUSH4 0x328E00F0 PUSH1 0xE0 SHL PUSH1 0x40 MLOAD PUSH1 0x20 ADD PUSH2 0x514 SWAP2 SWAP1 PUSH1 0x1 PUSH1 0x1 PUSH1 0xE0 SHL SUB NOT SWAP2 SWAP1 SWAP2 AND DUP2 MSTORE PUSH1 0x20 ADD SWAP1 JUMP JUMPDEST PUSH1 0x0 DUP2 SWAP1 SSTORE SWAP4 SWAP3 POP POP POP JUMP JUMPDEST PUSH1 0x40 DUP1 MLOAD DUP3 DUP2 MSTORE TIMESTAMP PUSH1 0x20 DUP3 ADD MSTORE CALLER DUP2 DUP4 ADD MSTORE SWAP1 MLOAD PUSH32 0xD0AF9D396036CB8B2901F1B984FDD38B64158F2AC21437EC8FF3C241D9611AA SWAP2 DUP2 SWAP1 SUB PUSH1 0x60 ADD SWAP1 LOG1 POP JUMP JUMPDEST PUSH2 0x79F DUP2 PUSH2 0xA3C JUMP JUMPDEST POP JUMP JUMPDEST PUSH1 0x40 MLOAD PUSH4 0x3323B467 PUSH1 0xE0 SHL DUP2 MSTORE PUSH1 0x0 SWAP1 PUSH1 0x1 PUSH1 0x1 PUSH1 0xA0 SHL SUB PUSH32 0x0 AND SWAP1 PUSH4 0x3323B467 SWAP1 PUSH2 0x7F7 SWAP1 DUP9 SWAP1 DUP9 SWAP1 DUP9 SWAP1 DUP9 SWAP1 PUSH1 0x4 ADD PUSH2 0xC3A JUMP JUMPDEST PUSH1 0x20 PUSH1 0x40 MLOAD DUP1 DUP4 SUB DUP2 PUSH1 0x0 DUP8 GAS CALL ISZERO DUP1 ISZERO PUSH2 0x816 JUMPI RETURNDATASIZE PUSH1 0x0 DUP1 RETURNDATACOPY RETURNDATASIZE PUSH1 0x0 REVERT JUMPDEST POP POP POP POP PUSH1 0x40 MLOAD RETURNDATASIZE PUSH1 0x1F NOT PUSH1 0x1F DUP3 ADD AND DUP3 ADD DUP1 PUSH1 0x40 MSTORE POP DUP2 ADD SWAP1 PUSH2 0x83A SWAP2 SWAP1 PUSH2 0xCF2 JUMP JUMPDEST SWAP6 SWAP5 POP POP POP POP POP JUMP JUMPDEST PUSH1 0x0 PUSH1 0x1 PUSH1 0x1 PUSH1 0xA0 SHL SUB DUP3 AND PUSH20 0xEEEEEEEEEEEEEEEEEEEEEEEEEEEEEEEEEEEEEEEE EQ PUSH2 0x870 JUMPI PUSH1 0x0 PUSH2 0x872 JUMP JUMPDEST DUP3 JUMPDEST PUSH1 0x40 MLOAD PUSH4 0xC1461D57 PUSH1 0xE0 SHL DUP2 MSTORE ADDRESS PUSH1 0x4 DUP3 ADD MSTORE PUSH1 0x1 PUSH1 0x1 PUSH1 0xA0 SHL SUB DUP5 DUP2 AND PUSH1 0x24 DUP4 ADD MSTORE PUSH1 0x44 DUP3 ADD DUP7 SWAP1 MSTORE SWAP2 SWAP3 POP PUSH32 0x0 SWAP1 SWAP2 AND SWAP1 PUSH4 0xC1461D57 SWAP1 DUP4 SWAP1 PUSH1 0x64 ADD PUSH1 0x0 PUSH1 0x40 MLOAD DUP1 DUP4 SUB DUP2 DUP6 DUP9 DUP1 EXTCODESIZE ISZERO DUP1 ISZERO PUSH2 0x8E8 JUMPI PUSH1 0x0 DUP1 REVERT JUMPDEST POP GAS CALL ISZERO DUP1 ISZERO PUSH2 0x8FC JUMPI RETURNDATASIZE PUSH1 0x0 DUP1 RETURNDATACOPY RETURNDATASIZE PUSH1 0x0 REVERT JUMPDEST POP POP POP POP POP POP POP POP JUMP JUMPDEST CALLER PUSH1 0x1 PUSH1 0x1 PUSH1 0xA0 SHL SUB PUSH32 0x0 AND EQ PUSH2 0x98E JUMPI PUSH1 0x40 MLOAD PUSH3 0x461BCD PUSH1 0xE5 SHL DUP2 MSTORE PUSH1 0x20 PUSH1 0x4 DUP3 ADD MSTORE PUSH1 0x23 PUSH1 0x24 DUP3 ADD MSTORE PUSH32 0x4F6E6C792066756E6473206F776E65722063616E207769746864726177206675 PUSH1 0x44 DUP3 ADD MSTORE PUSH3 0x6E6473 PUSH1 0xE8 SHL PUSH1 0x64 DUP3 ADD MSTORE PUSH1 0x84 ADD PUSH1 0x40 MLOAD DUP1 SWAP2 SUB SWAP1 REVERT JUMPDEST PUSH1 0x40 MLOAD PUSH4 0x1C20FADD PUSH1 0xE0 SHL DUP2 MSTORE PUSH1 0x1 PUSH1 0x1 PUSH1 0xA0 SHL SUB PUSH32 0x0 DUP2 AND PUSH1 0x4 DUP4 ADD MSTORE DUP3 DUP2 AND PUSH1 0x24 DUP4 ADD MSTORE PUSH1 0x44 DUP3 ADD DUP5 SWAP1 MSTORE PUSH32 0x0 AND SWAP1 PUSH4 0x1C20FADD SWAP1 PUSH1 0x64 ADD PUSH1 0x0 PUSH1 0x40 MLOAD DUP1 DUP4 SUB DUP2 PUSH1 0x0 DUP8 DUP1 EXTCODESIZE ISZERO DUP1 ISZERO PUSH2 0xA20 JUMPI PUSH1 0x0 DUP1 REVERT JUMPDEST POP GAS CALL ISZERO DUP1 ISZERO PUSH2 0xA34 JUMPI RETURNDATASIZE PUSH1 0x0 DUP1 RETURNDATACOPY RETURNDATASIZE PUSH1 0x0 REVERT JUMPDEST POP POP POP POP POP POP JUMP JUMPDEST PUSH1 0x40 MLOAD PUSH4 0xEE8CA3B5 PUSH1 0xE0 SHL DUP2 MSTORE PUSH1 0x4 DUP2 ADD DUP3 SWAP1 MSTORE PUSH32 0x0 PUSH1 0x1 PUSH1 0x1 PUSH1 0xA0 SHL SUB AND SWAP1 PUSH4 0xEE8CA3B5 SWAP1 PUSH1 0x24 ADD PUSH1 0x0 PUSH1 0x40 MLOAD DUP1 DUP4 SUB DUP2 PUSH1 0x0 DUP8 DUP1 EXTCODESIZE ISZERO DUP1 ISZERO PUSH2 0xA9E JUMPI PUSH1 0x0 DUP1 REVERT JUMPDEST POP GAS CALL ISZERO DUP1 ISZERO PUSH2 0xAB2 JUMPI RETURNDATASIZE PUSH1 0x0 DUP1 RETURNDATACOPY RETURNDATASIZE PUSH1 0x0 REVERT JUMPDEST POP POP POP POP POP JUMP JUMPDEST PUSH1 0x0 DUP1 PUSH1 0x40 DUP4 DUP6 SUB SLT ISZERO PUSH2 0xACC JUMPI PUSH1 0x0 DUP1 REVERT JUMPDEST POP POP DUP1 CALLDATALOAD SWAP3 PUSH1 0x20 SWAP1 SWAP2 ADD CALLDATALOAD SWAP2 POP JUMP JUMPDEST PUSH1 0x0 DUP1 PUSH1 0x40 DUP4 DUP6 SUB SLT ISZERO PUSH2 0xAEE JUMPI PUSH1 0x0 DUP1 REVERT JUMPDEST DUP3 CALLDATALOAD SWAP2 POP PUSH1 0x20 DUP4 ADD CALLDATALOAD PUSH1 0x1 PUSH1 0x1 PUSH1 0xA0 SHL SUB DUP2 AND DUP2 EQ PUSH2 0xB0C JUMPI PUSH1 0x0 DUP1 REVERT JUMPDEST DUP1 SWAP2 POP POP SWAP3 POP SWAP3 SWAP1 POP JUMP JUMPDEST PUSH1 0x0 PUSH1 0x20 DUP3 DUP5 SUB SLT ISZERO PUSH2 0xB29 JUMPI PUSH1 0x0 DUP1 REVERT JUMPDEST POP CALLDATALOAD SWAP2 SWAP1 POP JUMP JUMPDEST PUSH4 0x4E487B71 PUSH1 0xE0 SHL PUSH1 0x0 MSTORE PUSH1 0x41 PUSH1 0x4 MSTORE PUSH1 0x24 PUSH1 0x0 REVERT JUMPDEST PUSH4 0x4E487B71 PUSH1 0xE0 SHL PUSH1 0x0 MSTORE PUSH1 0x32 PUSH1 0x4 MSTORE PUSH1 0x24 PUSH1 0x0 REVERT JUMPDEST PUSH4 0x4E487B71 PUSH1 0xE0 SHL PUSH1 0x0 MSTORE PUSH1 0x21 PUSH1 0x4 MSTORE PUSH1 0x24 PUSH1 0x0 REVERT JUMPDEST PUSH1 0x0 DUP3 NOT DUP3 GT ISZERO PUSH2 0xB93 JUMPI PUSH4 0x4E487B71 PUSH1 0xE0 SHL PUSH1 0x0 MSTORE PUSH1 0x11 PUSH1 0x4 MSTORE PUSH1 0x24 PUSH1 0x0 REVERT JUMPDEST POP ADD SWAP1 JUMP JUMPDEST PUSH1 0x0 DUP2 MLOAD DUP1 DUP5 MSTORE PUSH1 0x0 JUMPDEST DUP2 DUP2 LT ISZERO PUSH2 0xBBE JUMPI PUSH1 0x20 DUP2 DUP6 ADD DUP2 ADD MLOAD DUP7 DUP4 ADD DUP3 ADD MSTORE ADD PUSH2 0xBA2 JUMP JUMPDEST DUP2 DUP2 GT ISZERO PUSH2 0xBD0 JUMPI PUSH1 0x0 PUSH1 0x20 DUP4 DUP8 ADD ADD MSTORE JUMPDEST POP PUSH1 0x1F ADD PUSH1 0x1F NOT AND SWAP3 SWAP1 SWAP3 ADD PUSH1 0x20 ADD SWAP3 SWAP2 POP POP JUMP JUMPDEST PUSH1 0x0 DUP2 MLOAD DUP1 DUP5 MSTORE PUSH1 0x20 DUP1 DUP6 ADD DUP1 DUP2 SWAP7 POP DUP4 PUSH1 0x5 SHL DUP2 ADD SWAP2 POP DUP3 DUP7 ADD PUSH1 0x0 JUMPDEST DUP6 DUP2 LT ISZERO PUSH2 0xC2D JUMPI DUP3 DUP5 SUB DUP10 MSTORE PUSH2 0xC1B DUP5 DUP4 MLOAD PUSH2 0xB98 JUMP JUMPDEST SWAP9 DUP6 ADD SWAP9 SWAP4 POP SWAP1 DUP5 ADD SWAP1 PUSH1 0x1 ADD PUSH2 0xC03 JUMP JUMPDEST POP SWAP2 SWAP8 SWAP7 POP POP POP POP POP POP POP JUMP JUMPDEST PUSH1 0x1 PUSH1 0x1 PUSH1 0xA0 SHL SUB DUP6 AND DUP2 MSTORE PUSH1 0x80 PUSH1 0x20 DUP1 DUP4 ADD DUP3 SWAP1 MSTORE PUSH1 0x0 SWAP2 PUSH2 0xC5F SWAP1 DUP5 ADD DUP8 PUSH2 0xB98 JUMP JUMPDEST DUP4 DUP2 SUB PUSH1 0x40 DUP1 DUP7 ADD SWAP2 SWAP1 SWAP2 MSTORE DUP7 MLOAD DUP2 DUP4 MSTORE DUP1 MLOAD SWAP2 DUP4 ADD DUP3 SWAP1 MSTORE DUP4 ADD SWAP1 PUSH1 0x0 SWAP1 PUSH1 0x60 DUP5 ADD SWAP1 DUP3 JUMPDEST DUP2 DUP2 LT ISZERO PUSH2 0xCBD JUMPI DUP5 MLOAD PUSH1 0x5 DUP2 LT PUSH2 0xCAB JUMPI PUSH4 0x4E487B71 PUSH1 0xE0 SHL DUP6 MSTORE PUSH1 0x21 PUSH1 0x4 MSTORE PUSH1 0x24 DUP6 REVERT JUMPDEST DUP4 MSTORE SWAP4 DUP7 ADD SWAP4 SWAP2 DUP7 ADD SWAP2 PUSH1 0x1 ADD PUSH2 0xC85 JUMP JUMPDEST POP POP DUP5 DUP10 ADD MLOAD SWAP3 POP DUP4 DUP2 SUB DUP6 DUP6 ADD MSTORE PUSH2 0xCD6 DUP2 DUP5 PUSH2 0xBE5 JUMP JUMPDEST SWAP6 POP POP POP POP POP POP PUSH2 0x83A PUSH1 0x60 DUP4 ADD DUP5 PUSH1 0x1 PUSH1 0x1 PUSH1 0xA0 SHL SUB AND SWAP1 MSTORE JUMP JUMPDEST PUSH1 0x0 PUSH1 0x20 DUP3 DUP5 SUB SLT ISZERO PUSH2 0xD04 JUMPI PUSH1 0x0 DUP1 REVERT JUMPDEST POP MLOAD SWAP2 SWAP1 POP JUMP INVALID LOG2 PUSH5 0x6970667358 0x22 SLT KECCAK256 PUSH32 0x3E89BDB3077483FC1CA2A7111F8010B58AD74BE29F77A660366D1F269DB76C64 PUSH20 0x6F6C634300080E00330000000000000000000000 "
				},
				"gasEstimates": {
					"creation": {
						"codeDepositCost": "678600",
						"executionCost": "infinite",
						"totalCost": "infinite"
					},
					"external": {
						"automate()": "infinite",
						"cancelTask(bytes32)": "infinite",
						"createTask1(uint256)": "infinite",
						"createTask2(uint256,uint256)": "infinite",
						"dedicatedMsgSender()": "infinite",
						"depositGelatoFees()": "infinite",
						"executeGelatoTask1()": "1584",
						"executeGelatoTask2(uint256)": "1851",
						"fundsOwner()": "infinite",
						"task1Id()": "2350",
						"task2Id()": "2307",
						"taskTreasury()": "infinite",
						"withdrawGealtoFees(uint256,address)": "infinite"
					}
				},
				"methodIdentifiers": {
					"automate()": "049aacfe",
					"cancelTask(bytes32)": "ee8ca3b5",
					"createTask1(uint256)": "9b2ed694",
					"createTask2(uint256,uint256)": "02827bca",
					"dedicatedMsgSender()": "28f150eb",
					"depositGelatoFees()": "06c9c37d",
					"executeGelatoTask1()": "328e00f0",
					"executeGelatoTask2(uint256)": "a839bd0d",
					"fundsOwner()": "46ee3c59",
					"task1Id()": "ed1e0c93",
					"task2Id()": "426c160e",
					"taskTreasury()": "e60a3213",
					"withdrawGealtoFees(uint256,address)": "2b044b73"
				}
			},
			"storageLayout": {
				"storage": [
					{
						"astId": 731,
						"contract": "gelatoDemo.sol:GelatoDemo",
						"label": "task1Id",
						"offset": 0,
						"slot": "0",
						"type": "t_bytes32"
					},
					{
						"astId": 733,
						"contract": "gelatoDemo.sol:GelatoDemo",
						"label": "task2Id",
						"offset": 0,
						"slot": "1",
						"type": "t_bytes32"
					}
				],
				"types": {
					"t_bytes32": {
						"encoding": "inplace",
						"label": "bytes32",
						"numberOfBytes": "32"
					}
				}
			},
			"userdoc": {
				"kind": "user",
				"methods": {},
				"version": 1
			}
		}
	}
}